{
  "_format": "hh-sol-artifact-1",
  "contractName": "EBolts",
  "sourceName": "contracts/EBolts.sol",
  "abi": [
    {
      "inputs": [
        {
          "internalType": "address",
          "name": "defaultAdmin",
          "type": "address"
        },
        {
          "internalType": "address",
          "name": "pauser",
          "type": "address"
        },
        {
          "internalType": "address",
          "name": "minter",
          "type": "address"
        },
        {
          "internalType": "address",
          "name": "defaultNotary",
          "type": "address"
        }
      ],
      "stateMutability": "nonpayable",
      "type": "constructor"
    },
    {
      "inputs": [],
      "name": "AccessControlBadConfirmation",
      "type": "error"
    },
    {
      "inputs": [
        {
          "internalType": "address",
          "name": "account",
          "type": "address"
        },
        {
          "internalType": "bytes32",
          "name": "neededRole",
          "type": "bytes32"
        }
      ],
      "name": "AccessControlUnauthorizedAccount",
      "type": "error"
    },
    {
      "inputs": [],
      "name": "ECDSAInvalidSignature",
      "type": "error"
    },
    {
      "inputs": [
        {
          "internalType": "uint256",
          "name": "length",
          "type": "uint256"
        }
      ],
      "name": "ECDSAInvalidSignatureLength",
      "type": "error"
    },
    {
      "inputs": [
        {
          "internalType": "bytes32",
          "name": "s",
          "type": "bytes32"
        }
      ],
      "name": "ECDSAInvalidSignatureS",
      "type": "error"
    },
    {
      "inputs": [
        {
          "internalType": "address",
          "name": "spender",
          "type": "address"
        },
        {
          "internalType": "uint256",
          "name": "allowance",
          "type": "uint256"
        },
        {
          "internalType": "uint256",
          "name": "needed",
          "type": "uint256"
        }
      ],
      "name": "ERC20InsufficientAllowance",
      "type": "error"
    },
    {
      "inputs": [
        {
          "internalType": "address",
          "name": "sender",
          "type": "address"
        },
        {
          "internalType": "uint256",
          "name": "balance",
          "type": "uint256"
        },
        {
          "internalType": "uint256",
          "name": "needed",
          "type": "uint256"
        }
      ],
      "name": "ERC20InsufficientBalance",
      "type": "error"
    },
    {
      "inputs": [
        {
          "internalType": "address",
          "name": "approver",
          "type": "address"
        }
      ],
      "name": "ERC20InvalidApprover",
      "type": "error"
    },
    {
      "inputs": [
        {
          "internalType": "address",
          "name": "receiver",
          "type": "address"
        }
      ],
      "name": "ERC20InvalidReceiver",
      "type": "error"
    },
    {
      "inputs": [
        {
          "internalType": "address",
          "name": "sender",
          "type": "address"
        }
      ],
      "name": "ERC20InvalidSender",
      "type": "error"
    },
    {
      "inputs": [
        {
          "internalType": "address",
          "name": "spender",
          "type": "address"
        }
      ],
      "name": "ERC20InvalidSpender",
      "type": "error"
    },
    {
      "inputs": [
        {
          "internalType": "uint256",
          "name": "deadline",
          "type": "uint256"
        }
      ],
      "name": "ERC2612ExpiredSignature",
      "type": "error"
    },
    {
      "inputs": [
        {
          "internalType": "address",
          "name": "signer",
          "type": "address"
        },
        {
          "internalType": "address",
          "name": "owner",
          "type": "address"
        }
      ],
      "name": "ERC2612InvalidSigner",
      "type": "error"
    },
    {
      "inputs": [],
      "name": "EnforcedPause",
      "type": "error"
    },
    {
      "inputs": [],
      "name": "ExpectedPause",
      "type": "error"
    },
    {
      "inputs": [
        {
          "internalType": "address",
          "name": "account",
          "type": "address"
        },
        {
          "internalType": "uint256",
          "name": "currentNonce",
          "type": "uint256"
        }
      ],
      "name": "InvalidAccountNonce",
      "type": "error"
    },
    {
      "inputs": [],
      "name": "InvalidShortString",
      "type": "error"
    },
    {
      "inputs": [
        {
          "internalType": "string",
          "name": "str",
          "type": "string"
        }
      ],
      "name": "StringTooLong",
      "type": "error"
    },
    {
      "anonymous": false,
      "inputs": [
        {
          "indexed": true,
          "internalType": "address",
          "name": "owner",
          "type": "address"
        },
        {
          "indexed": true,
          "internalType": "address",
          "name": "spender",
          "type": "address"
        },
        {
          "indexed": false,
          "internalType": "uint256",
          "name": "value",
          "type": "uint256"
        }
      ],
      "name": "Approval",
      "type": "event"
    },
    {
      "anonymous": false,
      "inputs": [],
      "name": "EIP712DomainChanged",
      "type": "event"
    },
    {
      "anonymous": false,
      "inputs": [
        {
          "indexed": false,
          "internalType": "bytes32",
          "name": "newHash",
          "type": "bytes32"
        }
      ],
      "name": "HashRegistered",
      "type": "event"
    },
    {
      "anonymous": false,
      "inputs": [
        {
          "indexed": false,
          "internalType": "address",
          "name": "newAddress",
          "type": "address"
        },
        {
          "indexed": false,
          "internalType": "address",
          "name": "oldAddress",
          "type": "address"
        }
      ],
      "name": "NotaryChanged",
      "type": "event"
    },
    {
      "anonymous": false,
      "inputs": [
        {
          "indexed": false,
          "internalType": "address",
          "name": "account",
          "type": "address"
        }
      ],
      "name": "Paused",
      "type": "event"
    },
    {
      "anonymous": false,
      "inputs": [
        {
          "indexed": true,
          "internalType": "bytes32",
          "name": "role",
          "type": "bytes32"
        },
        {
          "indexed": true,
          "internalType": "bytes32",
          "name": "previousAdminRole",
          "type": "bytes32"
        },
        {
          "indexed": true,
          "internalType": "bytes32",
          "name": "newAdminRole",
          "type": "bytes32"
        }
      ],
      "name": "RoleAdminChanged",
      "type": "event"
    },
    {
      "anonymous": false,
      "inputs": [
        {
          "indexed": true,
          "internalType": "bytes32",
          "name": "role",
          "type": "bytes32"
        },
        {
          "indexed": true,
          "internalType": "address",
          "name": "account",
          "type": "address"
        },
        {
          "indexed": true,
          "internalType": "address",
          "name": "sender",
          "type": "address"
        }
      ],
      "name": "RoleGranted",
      "type": "event"
    },
    {
      "anonymous": false,
      "inputs": [
        {
          "indexed": true,
          "internalType": "bytes32",
          "name": "role",
          "type": "bytes32"
        },
        {
          "indexed": true,
          "internalType": "address",
          "name": "account",
          "type": "address"
        },
        {
          "indexed": true,
          "internalType": "address",
          "name": "sender",
          "type": "address"
        }
      ],
      "name": "RoleRevoked",
      "type": "event"
    },
    {
      "anonymous": false,
      "inputs": [
        {
          "indexed": true,
          "internalType": "address",
          "name": "from",
          "type": "address"
        },
        {
          "indexed": true,
          "internalType": "address",
          "name": "to",
          "type": "address"
        },
        {
          "indexed": false,
          "internalType": "uint256",
          "name": "value",
          "type": "uint256"
        }
      ],
      "name": "Transfer",
      "type": "event"
    },
    {
      "anonymous": false,
      "inputs": [
        {
          "indexed": false,
          "internalType": "address",
          "name": "account",
          "type": "address"
        }
      ],
      "name": "Unpaused",
      "type": "event"
    },
    {
      "inputs": [],
      "name": "DEFAULT_ADMIN_ROLE",
      "outputs": [
        {
          "internalType": "bytes32",
          "name": "",
          "type": "bytes32"
        }
      ],
      "stateMutability": "view",
      "type": "function"
    },
    {
      "inputs": [],
      "name": "DOMAIN_SEPARATOR",
      "outputs": [
        {
          "internalType": "bytes32",
          "name": "",
          "type": "bytes32"
        }
      ],
      "stateMutability": "view",
      "type": "function"
    },
    {
      "inputs": [],
      "name": "MINTER_ROLE",
      "outputs": [
        {
          "internalType": "bytes32",
          "name": "",
          "type": "bytes32"
        }
      ],
      "stateMutability": "view",
      "type": "function"
    },
    {
      "inputs": [],
      "name": "PAUSER_ROLE",
      "outputs": [
        {
          "internalType": "bytes32",
          "name": "",
          "type": "bytes32"
        }
      ],
      "stateMutability": "view",
      "type": "function"
    },
    {
      "inputs": [
        {
          "internalType": "address",
          "name": "owner",
          "type": "address"
        },
        {
          "internalType": "address",
          "name": "spender",
          "type": "address"
        }
      ],
      "name": "allowance",
      "outputs": [
        {
          "internalType": "uint256",
          "name": "",
          "type": "uint256"
        }
      ],
      "stateMutability": "view",
      "type": "function"
    },
    {
      "inputs": [
        {
          "internalType": "address",
          "name": "spender",
          "type": "address"
        },
        {
          "internalType": "uint256",
          "name": "value",
          "type": "uint256"
        }
      ],
      "name": "approve",
      "outputs": [
        {
          "internalType": "bool",
          "name": "",
          "type": "bool"
        }
      ],
      "stateMutability": "nonpayable",
      "type": "function"
    },
    {
      "inputs": [
        {
          "internalType": "address",
          "name": "account",
          "type": "address"
        }
      ],
      "name": "balanceOf",
      "outputs": [
        {
          "internalType": "uint256",
          "name": "",
          "type": "uint256"
        }
      ],
      "stateMutability": "view",
      "type": "function"
    },
    {
      "inputs": [
        {
          "internalType": "uint256",
          "name": "value",
          "type": "uint256"
        }
      ],
      "name": "burn",
      "outputs": [],
      "stateMutability": "nonpayable",
      "type": "function"
    },
    {
      "inputs": [
        {
          "internalType": "address",
          "name": "account",
          "type": "address"
        },
        {
          "internalType": "uint256",
          "name": "value",
          "type": "uint256"
        }
      ],
      "name": "burnFrom",
      "outputs": [],
      "stateMutability": "nonpayable",
      "type": "function"
    },
    {
      "inputs": [],
      "name": "decimals",
      "outputs": [
        {
          "internalType": "uint8",
          "name": "",
          "type": "uint8"
        }
      ],
      "stateMutability": "view",
      "type": "function"
    },
    {
      "inputs": [],
      "name": "eip712Domain",
      "outputs": [
        {
          "internalType": "bytes1",
          "name": "fields",
          "type": "bytes1"
        },
        {
          "internalType": "string",
          "name": "name",
          "type": "string"
        },
        {
          "internalType": "string",
          "name": "version",
          "type": "string"
        },
        {
          "internalType": "uint256",
          "name": "chainId",
          "type": "uint256"
        },
        {
          "internalType": "address",
          "name": "verifyingContract",
          "type": "address"
        },
        {
          "internalType": "bytes32",
          "name": "salt",
          "type": "bytes32"
        },
        {
          "internalType": "uint256[]",
          "name": "extensions",
          "type": "uint256[]"
        }
      ],
      "stateMutability": "view",
      "type": "function"
    },
    {
      "inputs": [
        {
          "internalType": "bytes",
          "name": "_signature",
          "type": "bytes"
        },
        {
          "internalType": "uint256",
          "name": "_nonce",
          "type": "uint256"
        },
        {
          "internalType": "uint256",
          "name": "_amount",
          "type": "uint256"
        }
      ],
      "name": "generateReward",
      "outputs": [],
      "stateMutability": "nonpayable",
      "type": "function"
    },
    {
      "inputs": [
        {
          "internalType": "bytes32",
          "name": "role",
          "type": "bytes32"
        }
      ],
      "name": "getRoleAdmin",
      "outputs": [
        {
          "internalType": "bytes32",
          "name": "",
          "type": "bytes32"
        }
      ],
      "stateMutability": "view",
      "type": "function"
    },
    {
      "inputs": [
        {
          "internalType": "bytes32",
          "name": "role",
          "type": "bytes32"
        },
        {
          "internalType": "address",
          "name": "account",
          "type": "address"
        }
      ],
      "name": "grantRole",
      "outputs": [],
      "stateMutability": "nonpayable",
      "type": "function"
    },
    {
      "inputs": [
        {
          "internalType": "bytes32",
          "name": "role",
          "type": "bytes32"
        },
        {
          "internalType": "address",
          "name": "account",
          "type": "address"
        }
      ],
      "name": "hasRole",
      "outputs": [
        {
          "internalType": "bool",
          "name": "",
          "type": "bool"
        }
      ],
      "stateMutability": "view",
      "type": "function"
    },
    {
      "inputs": [
        {
          "internalType": "bytes32",
          "name": "",
          "type": "bytes32"
        }
      ],
      "name": "hashes",
      "outputs": [
        {
          "internalType": "bool",
          "name": "",
          "type": "bool"
        }
      ],
      "stateMutability": "view",
      "type": "function"
    },
    {
      "inputs": [
        {
          "internalType": "address",
          "name": "to",
          "type": "address"
        },
        {
          "internalType": "uint256",
          "name": "amount",
          "type": "uint256"
        }
      ],
      "name": "mint",
      "outputs": [],
      "stateMutability": "nonpayable",
      "type": "function"
    },
    {
      "inputs": [],
      "name": "name",
      "outputs": [
        {
          "internalType": "string",
          "name": "",
          "type": "string"
        }
      ],
      "stateMutability": "view",
      "type": "function"
    },
    {
      "inputs": [
        {
          "internalType": "address",
          "name": "owner",
          "type": "address"
        }
      ],
      "name": "nonces",
      "outputs": [
        {
          "internalType": "uint256",
          "name": "",
          "type": "uint256"
        }
      ],
      "stateMutability": "view",
      "type": "function"
    },
    {
      "inputs": [],
      "name": "notary",
      "outputs": [
        {
          "internalType": "address",
          "name": "",
          "type": "address"
        }
      ],
      "stateMutability": "view",
      "type": "function"
    },
    {
      "inputs": [],
      "name": "pause",
      "outputs": [],
      "stateMutability": "nonpayable",
      "type": "function"
    },
    {
      "inputs": [],
      "name": "paused",
      "outputs": [
        {
          "internalType": "bool",
          "name": "",
          "type": "bool"
        }
      ],
      "stateMutability": "view",
      "type": "function"
    },
    {
      "inputs": [
        {
          "internalType": "address",
          "name": "owner",
          "type": "address"
        },
        {
          "internalType": "address",
          "name": "spender",
          "type": "address"
        },
        {
          "internalType": "uint256",
          "name": "value",
          "type": "uint256"
        },
        {
          "internalType": "uint256",
          "name": "deadline",
          "type": "uint256"
        },
        {
          "internalType": "uint8",
          "name": "v",
          "type": "uint8"
        },
        {
          "internalType": "bytes32",
          "name": "r",
          "type": "bytes32"
        },
        {
          "internalType": "bytes32",
          "name": "s",
          "type": "bytes32"
        }
      ],
      "name": "permit",
      "outputs": [],
      "stateMutability": "nonpayable",
      "type": "function"
    },
    {
      "inputs": [
        {
          "internalType": "bytes32",
          "name": "role",
          "type": "bytes32"
        },
        {
          "internalType": "address",
          "name": "callerConfirmation",
          "type": "address"
        }
      ],
      "name": "renounceRole",
      "outputs": [],
      "stateMutability": "nonpayable",
      "type": "function"
    },
    {
      "inputs": [
        {
          "internalType": "bytes32",
          "name": "role",
          "type": "bytes32"
        },
        {
          "internalType": "address",
          "name": "account",
          "type": "address"
        }
      ],
      "name": "revokeRole",
      "outputs": [],
      "stateMutability": "nonpayable",
      "type": "function"
    },
    {
      "inputs": [
        {
          "internalType": "address",
          "name": "newNotary",
          "type": "address"
        }
      ],
      "name": "setNotary",
      "outputs": [],
      "stateMutability": "nonpayable",
      "type": "function"
    },
    {
      "inputs": [
        {
          "internalType": "bytes4",
          "name": "interfaceId",
          "type": "bytes4"
        }
      ],
      "name": "supportsInterface",
      "outputs": [
        {
          "internalType": "bool",
          "name": "",
          "type": "bool"
        }
      ],
      "stateMutability": "view",
      "type": "function"
    },
    {
      "inputs": [],
      "name": "symbol",
      "outputs": [
        {
          "internalType": "string",
          "name": "",
          "type": "string"
        }
      ],
      "stateMutability": "view",
      "type": "function"
    },
    {
      "inputs": [],
      "name": "totalSupply",
      "outputs": [
        {
          "internalType": "uint256",
          "name": "",
          "type": "uint256"
        }
      ],
      "stateMutability": "view",
      "type": "function"
    },
    {
      "inputs": [
        {
          "internalType": "address",
          "name": "to",
          "type": "address"
        },
        {
          "internalType": "uint256",
          "name": "value",
          "type": "uint256"
        }
      ],
      "name": "transfer",
      "outputs": [
        {
          "internalType": "bool",
          "name": "",
          "type": "bool"
        }
      ],
      "stateMutability": "nonpayable",
      "type": "function"
    },
    {
      "inputs": [
        {
          "internalType": "address",
          "name": "from",
          "type": "address"
        },
        {
          "internalType": "address",
          "name": "to",
          "type": "address"
        },
        {
          "internalType": "uint256",
          "name": "value",
          "type": "uint256"
        }
      ],
      "name": "transferFrom",
      "outputs": [
        {
          "internalType": "bool",
          "name": "",
          "type": "bool"
        }
      ],
      "stateMutability": "nonpayable",
      "type": "function"
    },
    {
      "inputs": [],
      "name": "unpause",
      "outputs": [],
      "stateMutability": "nonpayable",
      "type": "function"
    }
  ],
  "bytecode": "0x6101606040523480156200001257600080fd5b50604051620041a9380380620041a983398181016040528101906200003891906200097d565b6040518060400160405280600581526020017f65426f6c74000000000000000000000000000000000000000000000000000000815250806040518060400160405280600181526020017f31000000000000000000000000000000000000000000000000000000000000008152506040518060400160405280600581526020017f65426f6c740000000000000000000000000000000000000000000000000000008152506040518060400160405280600581526020017f45424f4c54000000000000000000000000000000000000000000000000000000815250816003908162000122919062000c69565b50806004908162000134919062000c69565b5050506000600560006101000a81548160ff021916908315150217905550620001686007836200030960201b90919060201c565b6101208181525050620001866008826200030960201b90919060201c565b6101408181525050818051906020012060e08181525050808051906020012061010081815250504660a08181525050620001c56200036160201b60201c565b608081815250503073ffffffffffffffffffffffffffffffffffffffff1660c08173ffffffffffffffffffffffffffffffffffffffff1681525050505050620002186000801b85620003be60201b60201c565b506200024b7f65d7a28e3265b37a6474929f336521b332c1681b933f6cb9f3376673440d862a84620003be60201b60201c565b506200028b3362000261620004c260201b60201c565b600a6200026f919062000ee0565b629896806200027f919062000f31565b620004cb60201b60201c565b620002bd7f9f2df0fed2c77648de5860a4cc508cd0818c85b8b8a1ab4ceeef8d981c8956a683620003be60201b60201c565b5080600b60006101000a81548173ffffffffffffffffffffffffffffffffffffffff021916908373ffffffffffffffffffffffffffffffffffffffff160217905550505050506200121d565b60006020835110156200032f5762000327836200055860201b60201c565b90506200035b565b826200034183620005c560201b60201c565b600001908162000352919062000c69565b5060ff60001b90505b92915050565b60007f8b73c3c69bb8fe3d512ecc4cf759cc79239f7b179b0ffacaa9a75d522b39400f60e051610100514630604051602001620003a395949392919062000fb9565b60405160208183030381529060405280519060200120905090565b6000620003d28383620005cf60201b60201c565b620004b75760016006600085815260200190815260200160002060000160008473ffffffffffffffffffffffffffffffffffffffff1673ffffffffffffffffffffffffffffffffffffffff16815260200190815260200160002060006101000a81548160ff021916908315150217905550620004536200063a60201b60201c565b73ffffffffffffffffffffffffffffffffffffffff168273ffffffffffffffffffffffffffffffffffffffff16847f2f8788117e7eff1d82e926ec794901d17c78024a50270940304540a733656f0d60405160405180910390a460019050620004bc565b600090505b92915050565b60006012905090565b600073ffffffffffffffffffffffffffffffffffffffff168273ffffffffffffffffffffffffffffffffffffffff1603620005405760006040517fec442f0500000000000000000000000000000000000000000000000000000000815260040162000537919062001016565b60405180910390fd5b62000554600083836200064260201b60201c565b5050565b600080829050601f81511115620005a857826040517f305a27a90000000000000000000000000000000000000000000000000000000081526004016200059f9190620010c2565b60405180910390fd5b805181620005b69062001118565b60001c1760001b915050919050565b6000819050919050565b60006006600084815260200190815260200160002060000160008373ffffffffffffffffffffffffffffffffffffffff1673ffffffffffffffffffffffffffffffffffffffff16815260200190815260200160002060009054906101000a900460ff16905092915050565b600033905090565b620006558383836200065a60201b60201c565b505050565b6200066a6200068260201b60201c565b6200067d838383620006cc60201b60201c565b505050565b62000692620008fc60201b60201c565b15620006ca576040517fd93c066500000000000000000000000000000000000000000000000000000000815260040160405180910390fd5b565b600073ffffffffffffffffffffffffffffffffffffffff168373ffffffffffffffffffffffffffffffffffffffff16036200072257806002600082825462000715919062001188565b92505081905550620007f8565b60008060008573ffffffffffffffffffffffffffffffffffffffff1673ffffffffffffffffffffffffffffffffffffffff16815260200190815260200160002054905081811015620007b1578381836040517fe450d38c000000000000000000000000000000000000000000000000000000008152600401620007a893929190620011c3565b60405180910390fd5b8181036000808673ffffffffffffffffffffffffffffffffffffffff1673ffffffffffffffffffffffffffffffffffffffff16815260200190815260200160002081905550505b600073ffffffffffffffffffffffffffffffffffffffff168273ffffffffffffffffffffffffffffffffffffffff160362000843578060026000828254039250508190555062000890565b806000808473ffffffffffffffffffffffffffffffffffffffff1673ffffffffffffffffffffffffffffffffffffffff168152602001908152602001600020600082825401925050819055505b8173ffffffffffffffffffffffffffffffffffffffff168373ffffffffffffffffffffffffffffffffffffffff167fddf252ad1be2c89b69c2b068fc378daa952ba7f163c4a11628f55a4df523b3ef83604051620008ef919062001200565b60405180910390a3505050565b6000600560009054906101000a900460ff16905090565b600080fd5b600073ffffffffffffffffffffffffffffffffffffffff82169050919050565b6000620009458262000918565b9050919050565b620009578162000938565b81146200096357600080fd5b50565b60008151905062000977816200094c565b92915050565b600080600080608085870312156200099a576200099962000913565b5b6000620009aa8782880162000966565b9450506020620009bd8782880162000966565b9350506040620009d08782880162000966565b9250506060620009e38782880162000966565b91505092959194509250565b600081519050919050565b7f4e487b7100000000000000000000000000000000000000000000000000000000600052604160045260246000fd5b7f4e487b7100000000000000000000000000000000000000000000000000000000600052602260045260246000fd5b6000600282049050600182168062000a7157607f821691505b60208210810362000a875762000a8662000a29565b5b50919050565b60008190508160005260206000209050919050565b60006020601f8301049050919050565b600082821b905092915050565b60006008830262000af17fffffffffffffffffffffffffffffffffffffffffffffffffffffffffffffffff8262000ab2565b62000afd868362000ab2565b95508019841693508086168417925050509392505050565b6000819050919050565b6000819050919050565b600062000b4a62000b4462000b3e8462000b15565b62000b1f565b62000b15565b9050919050565b6000819050919050565b62000b668362000b29565b62000b7e62000b758262000b51565b84845462000abf565b825550505050565b600090565b62000b9562000b86565b62000ba281848462000b5b565b505050565b5b8181101562000bca5762000bbe60008262000b8b565b60018101905062000ba8565b5050565b601f82111562000c195762000be38162000a8d565b62000bee8462000aa2565b8101602085101562000bfe578190505b62000c1662000c0d8562000aa2565b83018262000ba7565b50505b505050565b600082821c905092915050565b600062000c3e6000198460080262000c1e565b1980831691505092915050565b600062000c59838362000c2b565b9150826002028217905092915050565b62000c7482620009ef565b67ffffffffffffffff81111562000c905762000c8f620009fa565b5b62000c9c825462000a58565b62000ca982828562000bce565b600060209050601f83116001811462000ce1576000841562000ccc578287015190505b62000cd8858262000c4b565b86555062000d48565b601f19841662000cf18662000a8d565b60005b8281101562000d1b5784890151825560018201915060208501945060208101905062000cf4565b8683101562000d3b578489015162000d37601f89168262000c2b565b8355505b6001600288020188555050505b505050505050565b7f4e487b7100000000000000000000000000000000000000000000000000000000600052601160045260246000fd5b60008160011c9050919050565b6000808291508390505b600185111562000dde5780860481111562000db65762000db562000d50565b5b600185161562000dc65780820291505b808102905062000dd68562000d7f565b945062000d96565b94509492505050565b60008262000df9576001905062000ecc565b8162000e09576000905062000ecc565b816001811462000e22576002811462000e2d5762000e63565b600191505062000ecc565b60ff84111562000e425762000e4162000d50565b5b8360020a91508482111562000e5c5762000e5b62000d50565b5b5062000ecc565b5060208310610133831016604e8410600b841016171562000e9d5782820a90508381111562000e975762000e9662000d50565b5b62000ecc565b62000eac848484600162000d8c565b9250905081840481111562000ec65762000ec562000d50565b5b81810290505b9392505050565b600060ff82169050919050565b600062000eed8262000b15565b915062000efa8362000ed3565b925062000f297fffffffffffffffffffffffffffffffffffffffffffffffffffffffffffffffff848462000de7565b905092915050565b600062000f3e8262000b15565b915062000f4b8362000b15565b925082820262000f5b8162000b15565b9150828204841483151762000f755762000f7462000d50565b5b5092915050565b6000819050919050565b62000f918162000f7c565b82525050565b62000fa28162000b15565b82525050565b62000fb38162000938565b82525050565b600060a08201905062000fd0600083018862000f86565b62000fdf602083018762000f86565b62000fee604083018662000f86565b62000ffd606083018562000f97565b6200100c608083018462000fa8565b9695505050505050565b60006020820190506200102d600083018462000fa8565b92915050565b600082825260208201905092915050565b60005b838110156200106457808201518184015260208101905062001047565b60008484015250505050565b6000601f19601f8301169050919050565b60006200108e82620009ef565b6200109a818562001033565b9350620010ac81856020860162001044565b620010b78162001070565b840191505092915050565b60006020820190508181036000830152620010de818462001081565b905092915050565b600081519050919050565b6000819050602082019050919050565b60006200110f825162000f7c565b80915050919050565b60006200112582620010e6565b826200113184620010f1565b90506200113e8162001101565b9250602082101562001181576200117c7fffffffffffffffffffffffffffffffffffffffffffffffffffffffffffffffff8360200360080262000ab2565b831692505b5050919050565b6000620011958262000b15565b9150620011a28362000b15565b9250828201905080821115620011bd57620011bc62000d50565b5b92915050565b6000606082019050620011da600083018662000fa8565b620011e9602083018562000f97565b620011f8604083018462000f97565b949350505050565b600060208201905062001217600083018462000f97565b92915050565b60805160a05160c05160e051610100516101205161014051612f316200127860003960006117920152600061175701526000611ca301526000611c82015260006114170152600061146d015260006114960152612f316000f3fe608060405234801561001057600080fd5b50600436106101f05760003560e01c806379cc67901161010f578063a394a0e6116100a2578063d547741f11610071578063d547741f1461059b578063d658d2e9146105b7578063dd62ed3e146105e7578063e63ab1e914610617576101f0565b8063a394a0e614610515578063a9059cbb14610531578063d505accf14610561578063d53913931461057d576101f0565b806391d14854116100de57806391d148541461048b57806395d89b41146104bb5780639d54c79d146104d9578063a217fddf146104f7576101f0565b806379cc6790146104115780637ecebe001461042d5780638456cb591461045d57806384b0196e14610467576101f0565b8063313ce5671161018757806340c10f191161015657806340c10f191461038b57806342966c68146103a75780635c975abb146103c357806370a08231146103e1576101f0565b8063313ce567146103295780633644e5151461034757806336568abe146103655780633f4ba83a14610381576101f0565b806318160ddd116101c357806318160ddd1461028f57806323b872dd146102ad578063248a9ca3146102dd5780632f2ff15d1461030d576101f0565b806301ffc9a7146101f5578063032d995e1461022557806306fdde0314610241578063095ea7b31461025f575b600080fd5b61020f600480360381019061020a91906122c6565b610635565b60405161021c919061230e565b60405180910390f35b61023f600480360381019061023a91906124a5565b6106af565b005b61024961084b565b6040516102569190612593565b60405180910390f35b61027960048036038101906102749190612613565b6108dd565b604051610286919061230e565b60405180910390f35b610297610900565b6040516102a49190612662565b60405180910390f35b6102c760048036038101906102c2919061267d565b61090a565b6040516102d4919061230e565b60405180910390f35b6102f760048036038101906102f29190612706565b610939565b6040516103049190612742565b60405180910390f35b6103276004803603810190610322919061275d565b610959565b005b61033161097b565b60405161033e91906127b9565b60405180910390f35b61034f610984565b60405161035c9190612742565b60405180910390f35b61037f600480360381019061037a919061275d565b610993565b005b610389610a0e565b005b6103a560048036038101906103a09190612613565b610a43565b005b6103c160048036038101906103bc91906127d4565b610a7c565b005b6103cb610a90565b6040516103d8919061230e565b60405180910390f35b6103fb60048036038101906103f69190612801565b610aa7565b6040516104089190612662565b60405180910390f35b61042b60048036038101906104269190612613565b610aef565b005b61044760048036038101906104429190612801565b610b0f565b6040516104549190612662565b60405180910390f35b610465610b21565b005b61046f610b56565b6040516104829796959493929190612936565b60405180910390f35b6104a560048036038101906104a0919061275d565b610c00565b6040516104b2919061230e565b60405180910390f35b6104c3610c6b565b6040516104d09190612593565b60405180910390f35b6104e1610cfd565b6040516104ee91906129ba565b60405180910390f35b6104ff610d23565b60405161050c9190612742565b60405180910390f35b61052f600480360381019061052a9190612801565b610d2a565b005b61054b60048036038101906105469190612613565b610dd7565b604051610558919061230e565b60405180910390f35b61057b60048036038101906105769190612a01565b610dfa565b005b610585610f42565b6040516105929190612742565b60405180910390f35b6105b560048036038101906105b0919061275d565b610f66565b005b6105d160048036038101906105cc9190612706565b610f88565b6040516105de919061230e565b60405180910390f35b61060160048036038101906105fc9190612aa3565b610fa8565b60405161060e9190612662565b60405180910390f35b61061f61102f565b60405161062c9190612742565b60405180910390f35b60007f7965db0b000000000000000000000000000000000000000000000000000000007bffffffffffffffffffffffffffffffffffffffffffffffffffffffff1916827bffffffffffffffffffffffffffffffffffffffffffffffffffffffff191614806106a857506106a782611053565b5b9050919050565b60008233836040516020016106c693929190612b4c565b604051602081830303815290604052805190602001209050600a600082815260200190815260200160002060009054906101000a900460ff161561073f576040517f08c379a000000000000000000000000000000000000000000000000000000000815260040161073690612bd5565b60405180910390fd5b600b60009054906101000a900473ffffffffffffffffffffffffffffffffffffffff1673ffffffffffffffffffffffffffffffffffffffff1661078282866110bd565b73ffffffffffffffffffffffffffffffffffffffff16146107d8576040517f08c379a00000000000000000000000000000000000000000000000000000000081526004016107cf90612c67565b60405180910390fd5b6107e233836110e9565b7ff89e7fa5e1de7faa47f3d66a4f2946ce786eb3d089e6a56567fd0620fada1722816040516108119190612742565b60405180910390a16001600a600083815260200190815260200160002060006101000a81548160ff02191690831515021790555050505050565b60606003805461085a90612cb6565b80601f016020809104026020016040519081016040528092919081815260200182805461088690612cb6565b80156108d35780601f106108a8576101008083540402835291602001916108d3565b820191906000526020600020905b8154815290600101906020018083116108b657829003601f168201915b5050505050905090565b6000806108e861116b565b90506108f5818585611173565b600191505092915050565b6000600254905090565b60008061091561116b565b9050610922858285611185565b61092d858585611219565b60019150509392505050565b600060066000838152602001908152602001600020600101549050919050565b61096282610939565b61096b8161130d565b6109758383611321565b50505050565b60006012905090565b600061098e611413565b905090565b61099b61116b565b73ffffffffffffffffffffffffffffffffffffffff168173ffffffffffffffffffffffffffffffffffffffff16146109ff576040517f6697b23200000000000000000000000000000000000000000000000000000000815260040160405180910390fd5b610a0982826114ca565b505050565b7f65d7a28e3265b37a6474929f336521b332c1681b933f6cb9f3376673440d862a610a388161130d565b610a406115bd565b50565b7f9f2df0fed2c77648de5860a4cc508cd0818c85b8b8a1ab4ceeef8d981c8956a6610a6d8161130d565b610a7783836110e9565b505050565b610a8d610a8761116b565b82611620565b50565b6000600560009054906101000a900460ff16905090565b60008060008373ffffffffffffffffffffffffffffffffffffffff1673ffffffffffffffffffffffffffffffffffffffff168152602001908152602001600020549050919050565b610b0182610afb61116b565b83611185565b610b0b8282611620565b5050565b6000610b1a826116a2565b9050919050565b7f65d7a28e3265b37a6474929f336521b332c1681b933f6cb9f3376673440d862a610b4b8161130d565b610b536116eb565b50565b600060608060008060006060610b6a61174e565b610b72611789565b46306000801b600067ffffffffffffffff811115610b9357610b92612344565b5b604051908082528060200260200182016040528015610bc15781602001602082028036833780820191505090505b507f0f00000000000000000000000000000000000000000000000000000000000000959493929190965096509650965096509650965090919293949596565b60006006600084815260200190815260200160002060000160008373ffffffffffffffffffffffffffffffffffffffff1673ffffffffffffffffffffffffffffffffffffffff16815260200190815260200160002060009054906101000a900460ff16905092915050565b606060048054610c7a90612cb6565b80601f0160208091040260200160405190810160405280929190818152602001828054610ca690612cb6565b8015610cf35780601f10610cc857610100808354040283529160200191610cf3565b820191906000526020600020905b815481529060010190602001808311610cd657829003601f168201915b5050505050905090565b600b60009054906101000a900473ffffffffffffffffffffffffffffffffffffffff1681565b6000801b81565b6000801b610d378161130d565b7fb83b1538cdec62b04dcd2c181a62e2ad93727bbda41580b2cd4cb8ce6e8c09a682600b60009054906101000a900473ffffffffffffffffffffffffffffffffffffffff16604051610d8a929190612ce7565b60405180910390a181600b60006101000a81548173ffffffffffffffffffffffffffffffffffffffff021916908373ffffffffffffffffffffffffffffffffffffffff1602179055505050565b600080610de261116b565b9050610def818585611219565b600191505092915050565b83421115610e3f57836040517f62791302000000000000000000000000000000000000000000000000000000008152600401610e369190612662565b60405180910390fd5b60007f6e71edae12b1b97f4d1f60370fef10105fa2faae0126114a169c64845d6126c9888888610e6e8c6117c4565b89604051602001610e8496959493929190612d10565b6040516020818303038152906040528051906020012090506000610ea78261181b565b90506000610eb782878787611835565b90508973ffffffffffffffffffffffffffffffffffffffff168173ffffffffffffffffffffffffffffffffffffffff1614610f2b57808a6040517f4b800e46000000000000000000000000000000000000000000000000000000008152600401610f22929190612ce7565b60405180910390fd5b610f368a8a8a611173565b50505050505050505050565b7f9f2df0fed2c77648de5860a4cc508cd0818c85b8b8a1ab4ceeef8d981c8956a681565b610f6f82610939565b610f788161130d565b610f8283836114ca565b50505050565b600a6020528060005260406000206000915054906101000a900460ff1681565b6000600160008473ffffffffffffffffffffffffffffffffffffffff1673ffffffffffffffffffffffffffffffffffffffff16815260200190815260200160002060008373ffffffffffffffffffffffffffffffffffffffff1673ffffffffffffffffffffffffffffffffffffffff16815260200190815260200160002054905092915050565b7f65d7a28e3265b37a6474929f336521b332c1681b933f6cb9f3376673440d862a81565b60007f01ffc9a7000000000000000000000000000000000000000000000000000000007bffffffffffffffffffffffffffffffffffffffffffffffffffffffff1916827bffffffffffffffffffffffffffffffffffffffffffffffffffffffff1916149050919050565b6000806000806110cd8686611865565b9250925092506110dd82826118c1565b82935050505092915050565b600073ffffffffffffffffffffffffffffffffffffffff168273ffffffffffffffffffffffffffffffffffffffff160361115b5760006040517fec442f0500000000000000000000000000000000000000000000000000000000815260040161115291906129ba565b60405180910390fd5b61116760008383611a25565b5050565b600033905090565b6111808383836001611a35565b505050565b60006111918484610fa8565b90507fffffffffffffffffffffffffffffffffffffffffffffffffffffffffffffffff81146112135781811015611203578281836040517ffb8f41b20000000000000000000000000000000000000000000000000000000081526004016111fa93929190612d71565b60405180910390fd5b61121284848484036000611a35565b5b50505050565b600073ffffffffffffffffffffffffffffffffffffffff168373ffffffffffffffffffffffffffffffffffffffff160361128b5760006040517f96c6fd1e00000000000000000000000000000000000000000000000000000000815260040161128291906129ba565b60405180910390fd5b600073ffffffffffffffffffffffffffffffffffffffff168273ffffffffffffffffffffffffffffffffffffffff16036112fd5760006040517fec442f050000000000000000000000000000000000000000000000000000000081526004016112f491906129ba565b60405180910390fd5b611308838383611a25565b505050565b61131e8161131961116b565b611c0c565b50565b600061132d8383610c00565b6114085760016006600085815260200190815260200160002060000160008473ffffffffffffffffffffffffffffffffffffffff1673ffffffffffffffffffffffffffffffffffffffff16815260200190815260200160002060006101000a81548160ff0219169083151502179055506113a561116b565b73ffffffffffffffffffffffffffffffffffffffff168273ffffffffffffffffffffffffffffffffffffffff16847f2f8788117e7eff1d82e926ec794901d17c78024a50270940304540a733656f0d60405160405180910390a46001905061140d565b600090505b92915050565b60007f000000000000000000000000000000000000000000000000000000000000000073ffffffffffffffffffffffffffffffffffffffff163073ffffffffffffffffffffffffffffffffffffffff1614801561148f57507f000000000000000000000000000000000000000000000000000000000000000046145b156114bc577f000000000000000000000000000000000000000000000000000000000000000090506114c7565b6114c4611c5d565b90505b90565b60006114d68383610c00565b156115b25760006006600085815260200190815260200160002060000160008473ffffffffffffffffffffffffffffffffffffffff1673ffffffffffffffffffffffffffffffffffffffff16815260200190815260200160002060006101000a81548160ff02191690831515021790555061154f61116b565b73ffffffffffffffffffffffffffffffffffffffff168273ffffffffffffffffffffffffffffffffffffffff16847ff6391f5c32d9c69d2a47ea670b442974b53935d1edc7fd64eb21e047a839171b60405160405180910390a4600190506115b7565b600090505b92915050565b6115c5611cf3565b6000600560006101000a81548160ff0219169083151502179055507f5db9ee0a495bf2e6ff9c91a7834c1ba4fdd244a5e8aa4e537bd38aeae4b073aa61160961116b565b60405161161691906129ba565b60405180910390a1565b600073ffffffffffffffffffffffffffffffffffffffff168273ffffffffffffffffffffffffffffffffffffffff16036116925760006040517f96c6fd1e00000000000000000000000000000000000000000000000000000000815260040161168991906129ba565b60405180910390fd5b61169e82600083611a25565b5050565b6000600960008373ffffffffffffffffffffffffffffffffffffffff1673ffffffffffffffffffffffffffffffffffffffff168152602001908152602001600020549050919050565b6116f3611d33565b6001600560006101000a81548160ff0219169083151502179055507f62e78cea01bee320cd4e420270b5ea74000d11b0c9f74754ebdbfc544b05a25861173761116b565b60405161174491906129ba565b60405180910390a1565b606061178460077f0000000000000000000000000000000000000000000000000000000000000000611d7490919063ffffffff16565b905090565b60606117bf60087f0000000000000000000000000000000000000000000000000000000000000000611d7490919063ffffffff16565b905090565b6000600960008373ffffffffffffffffffffffffffffffffffffffff1673ffffffffffffffffffffffffffffffffffffffff1681526020019081526020016000206000815480929190600101919050559050919050565b600061182e611828611413565b83611e24565b9050919050565b60008060008061184788888888611e65565b92509250925061185782826118c1565b829350505050949350505050565b600080600060418451036118aa5760008060006020870151925060408701519150606087015160001a905061189c88828585611e65565b9550955095505050506118ba565b60006002855160001b9250925092505b9250925092565b600060038111156118d5576118d4612da8565b5b8260038111156118e8576118e7612da8565b5b0315611a21576001600381111561190257611901612da8565b5b82600381111561191557611914612da8565b5b0361194c576040517ff645eedf00000000000000000000000000000000000000000000000000000000815260040160405180910390fd5b600260038111156119605761195f612da8565b5b82600381111561197357611972612da8565b5b036119b8578060001c6040517ffce698f70000000000000000000000000000000000000000000000000000000081526004016119af9190612662565b60405180910390fd5b6003808111156119cb576119ca612da8565b5b8260038111156119de576119dd612da8565b5b03611a2057806040517fd78bce0c000000000000000000000000000000000000000000000000000000008152600401611a179190612742565b60405180910390fd5b5b5050565b611a30838383611f59565b505050565b600073ffffffffffffffffffffffffffffffffffffffff168473ffffffffffffffffffffffffffffffffffffffff1603611aa75760006040517fe602df05000000000000000000000000000000000000000000000000000000008152600401611a9e91906129ba565b60405180910390fd5b600073ffffffffffffffffffffffffffffffffffffffff168373ffffffffffffffffffffffffffffffffffffffff1603611b195760006040517f94280d62000000000000000000000000000000000000000000000000000000008152600401611b1091906129ba565b60405180910390fd5b81600160008673ffffffffffffffffffffffffffffffffffffffff1673ffffffffffffffffffffffffffffffffffffffff16815260200190815260200160002060008573ffffffffffffffffffffffffffffffffffffffff1673ffffffffffffffffffffffffffffffffffffffff168152602001908152602001600020819055508015611c06578273ffffffffffffffffffffffffffffffffffffffff168473ffffffffffffffffffffffffffffffffffffffff167f8c5be1e5ebec7d5bd14f71427d1e84f3dd0314c0f7b2291e5b200ac8c7c3b92584604051611bfd9190612662565b60405180910390a35b50505050565b611c168282610c00565b611c595780826040517fe2517d3f000000000000000000000000000000000000000000000000000000008152600401611c50929190612dd7565b60405180910390fd5b5050565b60007f8b73c3c69bb8fe3d512ecc4cf759cc79239f7b179b0ffacaa9a75d522b39400f7f00000000000000000000000000000000000000000000000000000000000000007f00000000000000000000000000000000000000000000000000000000000000004630604051602001611cd8959493929190612e00565b60405160208183030381529060405280519060200120905090565b611cfb610a90565b611d31576040517f8dfc202b00000000000000000000000000000000000000000000000000000000815260040160405180910390fd5b565b611d3b610a90565b15611d72576040517fd93c066500000000000000000000000000000000000000000000000000000000815260040160405180910390fd5b565b606060ff60001b8314611d9157611d8a83611f71565b9050611e1e565b818054611d9d90612cb6565b80601f0160208091040260200160405190810160405280929190818152602001828054611dc990612cb6565b8015611e165780601f10611deb57610100808354040283529160200191611e16565b820191906000526020600020905b815481529060010190602001808311611df957829003601f168201915b505050505090505b92915050565b60006040517f190100000000000000000000000000000000000000000000000000000000000081528360028201528260228201526042812091505092915050565b60008060007f7fffffffffffffffffffffffffffffff5d576e7357a4501ddfe92f46681b20a08460001c1115611ea5576000600385925092509250611f4f565b600060018888888860405160008152602001604052604051611eca9493929190612e53565b6020604051602081039080840390855afa158015611eec573d6000803e3d6000fd5b505050602060405103519050600073ffffffffffffffffffffffffffffffffffffffff168173ffffffffffffffffffffffffffffffffffffffff1603611f4057600060016000801b93509350935050611f4f565b8060008060001b935093509350505b9450945094915050565b611f61611d33565b611f6c838383611fe5565b505050565b60606000611f7e8361220a565b90506000602067ffffffffffffffff811115611f9d57611f9c612344565b5b6040519080825280601f01601f191660200182016040528015611fcf5781602001600182028036833780820191505090505b5090508181528360208201528092505050919050565b600073ffffffffffffffffffffffffffffffffffffffff168373ffffffffffffffffffffffffffffffffffffffff160361203757806002600082825461202b9190612ec7565b9250508190555061210a565b60008060008573ffffffffffffffffffffffffffffffffffffffff1673ffffffffffffffffffffffffffffffffffffffff168152602001908152602001600020549050818110156120c3578381836040517fe450d38c0000000000000000000000000000000000000000000000000000000081526004016120ba93929190612d71565b60405180910390fd5b8181036000808673ffffffffffffffffffffffffffffffffffffffff1673ffffffffffffffffffffffffffffffffffffffff16815260200190815260200160002081905550505b600073ffffffffffffffffffffffffffffffffffffffff168273ffffffffffffffffffffffffffffffffffffffff160361215357806002600082825403925050819055506121a0565b806000808473ffffffffffffffffffffffffffffffffffffffff1673ffffffffffffffffffffffffffffffffffffffff168152602001908152602001600020600082825401925050819055505b8173ffffffffffffffffffffffffffffffffffffffff168373ffffffffffffffffffffffffffffffffffffffff167fddf252ad1be2c89b69c2b068fc378daa952ba7f163c4a11628f55a4df523b3ef836040516121fd9190612662565b60405180910390a3505050565b60008060ff8360001c169050601f811115612251576040517fb3512b0c00000000000000000000000000000000000000000000000000000000815260040160405180910390fd5b80915050919050565b6000604051905090565b600080fd5b600080fd5b60007fffffffff0000000000000000000000000000000000000000000000000000000082169050919050565b6122a38161226e565b81146122ae57600080fd5b50565b6000813590506122c08161229a565b92915050565b6000602082840312156122dc576122db612264565b5b60006122ea848285016122b1565b91505092915050565b60008115159050919050565b612308816122f3565b82525050565b600060208201905061232360008301846122ff565b92915050565b600080fd5b600080fd5b6000601f19601f8301169050919050565b7f4e487b7100000000000000000000000000000000000000000000000000000000600052604160045260246000fd5b61237c82612333565b810181811067ffffffffffffffff8211171561239b5761239a612344565b5b80604052505050565b60006123ae61225a565b90506123ba8282612373565b919050565b600067ffffffffffffffff8211156123da576123d9612344565b5b6123e382612333565b9050602081019050919050565b82818337600083830152505050565b600061241261240d846123bf565b6123a4565b90508281526020810184848401111561242e5761242d61232e565b5b6124398482856123f0565b509392505050565b600082601f83011261245657612455612329565b5b81356124668482602086016123ff565b91505092915050565b6000819050919050565b6124828161246f565b811461248d57600080fd5b50565b60008135905061249f81612479565b92915050565b6000806000606084860312156124be576124bd612264565b5b600084013567ffffffffffffffff8111156124dc576124db612269565b5b6124e886828701612441565b93505060206124f986828701612490565b925050604061250a86828701612490565b9150509250925092565b600081519050919050565b600082825260208201905092915050565b60005b8381101561254e578082015181840152602081019050612533565b60008484015250505050565b600061256582612514565b61256f818561251f565b935061257f818560208601612530565b61258881612333565b840191505092915050565b600060208201905081810360008301526125ad818461255a565b905092915050565b600073ffffffffffffffffffffffffffffffffffffffff82169050919050565b60006125e0826125b5565b9050919050565b6125f0816125d5565b81146125fb57600080fd5b50565b60008135905061260d816125e7565b92915050565b6000806040838503121561262a57612629612264565b5b6000612638858286016125fe565b925050602061264985828601612490565b9150509250929050565b61265c8161246f565b82525050565b60006020820190506126776000830184612653565b92915050565b60008060006060848603121561269657612695612264565b5b60006126a4868287016125fe565b93505060206126b5868287016125fe565b92505060406126c686828701612490565b9150509250925092565b6000819050919050565b6126e3816126d0565b81146126ee57600080fd5b50565b600081359050612700816126da565b92915050565b60006020828403121561271c5761271b612264565b5b600061272a848285016126f1565b91505092915050565b61273c816126d0565b82525050565b60006020820190506127576000830184612733565b92915050565b6000806040838503121561277457612773612264565b5b6000612782858286016126f1565b9250506020612793858286016125fe565b9150509250929050565b600060ff82169050919050565b6127b38161279d565b82525050565b60006020820190506127ce60008301846127aa565b92915050565b6000602082840312156127ea576127e9612264565b5b60006127f884828501612490565b91505092915050565b60006020828403121561281757612816612264565b5b6000612825848285016125fe565b91505092915050565b60007fff0000000000000000000000000000000000000000000000000000000000000082169050919050565b6128638161282e565b82525050565b612872816125d5565b82525050565b600081519050919050565b600082825260208201905092915050565b6000819050602082019050919050565b6128ad8161246f565b82525050565b60006128bf83836128a4565b60208301905092915050565b6000602082019050919050565b60006128e382612878565b6128ed8185612883565b93506128f883612894565b8060005b8381101561292957815161291088826128b3565b975061291b836128cb565b9250506001810190506128fc565b5085935050505092915050565b600060e08201905061294b600083018a61285a565b818103602083015261295d818961255a565b90508181036040830152612971818861255a565b90506129806060830187612653565b61298d6080830186612869565b61299a60a0830185612733565b81810360c08301526129ac81846128d8565b905098975050505050505050565b60006020820190506129cf6000830184612869565b92915050565b6129de8161279d565b81146129e957600080fd5b50565b6000813590506129fb816129d5565b92915050565b600080600080600080600060e0888a031215612a2057612a1f612264565b5b6000612a2e8a828b016125fe565b9750506020612a3f8a828b016125fe565b9650506040612a508a828b01612490565b9550506060612a618a828b01612490565b9450506080612a728a828b016129ec565b93505060a0612a838a828b016126f1565b92505060c0612a948a828b016126f1565b91505092959891949750929550565b60008060408385031215612aba57612ab9612264565b5b6000612ac8858286016125fe565b9250506020612ad9858286016125fe565b9150509250929050565b6000819050919050565b612afe612af98261246f565b612ae3565b82525050565b60008160601b9050919050565b6000612b1c82612b04565b9050919050565b6000612b2e82612b11565b9050919050565b612b46612b41826125d5565b612b23565b82525050565b6000612b588286612aed565b602082019150612b688285612b35565b601482019150612b788284612aed565b602082019150819050949350505050565b7f4861736820616c72656164792075736564000000000000000000000000000000600082015250565b6000612bbf60118361251f565b9150612bca82612b89565b602082019050919050565b60006020820190508181036000830152612bee81612bb2565b9050919050565b7f54686973206d65737361676520776173206e6f74207369676e6564206279207460008201527f6865206e6f746172790000000000000000000000000000000000000000000000602082015250565b6000612c5160298361251f565b9150612c5c82612bf5565b604082019050919050565b60006020820190508181036000830152612c8081612c44565b9050919050565b7f4e487b7100000000000000000000000000000000000000000000000000000000600052602260045260246000fd5b60006002820490506001821680612cce57607f821691505b602082108103612ce157612ce0612c87565b5b50919050565b6000604082019050612cfc6000830185612869565b612d096020830184612869565b9392505050565b600060c082019050612d256000830189612733565b612d326020830188612869565b612d3f6040830187612869565b612d4c6060830186612653565b612d596080830185612653565b612d6660a0830184612653565b979650505050505050565b6000606082019050612d866000830186612869565b612d936020830185612653565b612da06040830184612653565b949350505050565b7f4e487b7100000000000000000000000000000000000000000000000000000000600052602160045260246000fd5b6000604082019050612dec6000830185612869565b612df96020830184612733565b9392505050565b600060a082019050612e156000830188612733565b612e226020830187612733565b612e2f6040830186612733565b612e3c6060830185612653565b612e496080830184612869565b9695505050505050565b6000608082019050612e686000830187612733565b612e7560208301866127aa565b612e826040830185612733565b612e8f6060830184612733565b95945050505050565b7f4e487b7100000000000000000000000000000000000000000000000000000000600052601160045260246000fd5b6000612ed28261246f565b9150612edd8361246f565b9250828201905080821115612ef557612ef4612e98565b5b9291505056fea2646970667358221220eaa4514fcc9587f1e5d7b7cb80f32058b1532ddb92fe1081a7e471795ea86e6d64736f6c63430008180033",
  "linkReferences": {},
  "deployedLinkReferences": {}
}