{"abi":[{"type":"constructor","inputs":[{"name":"_token","type":"address","internalType":"address"},{"name":"_oracle","type":"address","internalType":"contract EStormOracle"}],"stateMutability":"nonpayable"},{"type":"function","name":"addGame","inputs":[{"name":"_game","type":"string","internalType":"string"}],"outputs":[],"stateMutability":"nonpayable"},{"type":"function","name":"createPool","inputs":[{"name":"_toCover","type":"uint8","internalType":"uint8"},{"name":"_toDistribute","type":"uint8","internalType":"uint8"},{"name":"_gameID","type":"string","internalType":"string"},{"name":"_challengeID","type":"string","internalType":"string"},{"name":"_userID","type":"string","internalType":"string"}],"outputs":[],"stateMutability":"nonpayable"},{"type":"function","name":"deposit","inputs":[{"name":"_amount","type":"uint256","internalType":"uint256"},{"name":"_pid","type":"bytes32","internalType":"bytes32"}],"outputs":[],"stateMutability":"nonpayable"},{"type":"function","name":"gamesRegistered","inputs":[{"name":"","type":"string","internalType":"string"}],"outputs":[{"name":"","type":"bool","internalType":"bool"}],"stateMutability":"view"},{"type":"function","name":"getPool","inputs":[{"name":"_pid","type":"bytes32","internalType":"bytes32"}],"outputs":[{"name":"","type":"tuple","internalType":"struct StakingContract.PoolInfo","components":[{"name":"id","type":"bytes32","internalType":"bytes32"},{"name":"toCover","type":"uint8","internalType":"uint8"},{"name":"toDistribute","type":"uint8","internalType":"uint8"},{"name":"userID","type":"string","internalType":"string"},{"name":"lastRewardUpdate","type":"uint256","internalType":"uint256"},{"name":"totalStaked","type":"uint256","internalType":"uint256"},{"name":"totalShares","type":"uint256","internalType":"uint256"}]}],"stateMutability":"view"},{"type":"function","name":"oracle","inputs":[],"outputs":[{"name":"","type":"address","internalType":"contract EStormOracle"}],"stateMutability":"view"},{"type":"function","name":"owner","inputs":[],"outputs":[{"name":"","type":"address","internalType":"address"}],"stateMutability":"view"},{"type":"function","name":"pause","inputs":[],"outputs":[],"stateMutability":"nonpayable"},{"type":"function","name":"paused","inputs":[],"outputs":[{"name":"","type":"bool","internalType":"bool"}],"stateMutability":"view"},{"type":"function","name":"poolInfo","inputs":[{"name":"","type":"bytes32","internalType":"bytes32"}],"outputs":[{"name":"id","type":"bytes32","internalType":"bytes32"},{"name":"toCover","type":"uint8","internalType":"uint8"},{"name":"toDistribute","type":"uint8","internalType":"uint8"},{"name":"userID","type":"string","internalType":"string"},{"name":"lastRewardUpdate","type":"uint256","internalType":"uint256"},{"name":"totalStaked","type":"uint256","internalType":"uint256"},{"name":"totalShares","type":"uint256","internalType":"uint256"}],"stateMutability":"view"},{"type":"function","name":"renounceOwnership","inputs":[],"outputs":[],"stateMutability":"nonpayable"},{"type":"function","name":"token","inputs":[],"outputs":[{"name":"","type":"address","internalType":"address"}],"stateMutability":"view"},{"type":"function","name":"transferOwnership","inputs":[{"name":"newOwner","type":"address","internalType":"address"}],"outputs":[],"stateMutability":"nonpayable"},{"type":"function","name":"unpause","inputs":[],"outputs":[],"stateMutability":"nonpayable"},{"type":"function","name":"usersRegistered","inputs":[{"name":"","type":"string","internalType":"string"}],"outputs":[{"name":"","type":"bool","internalType":"bool"}],"stateMutability":"view"},{"type":"event","name":"OwnershipTransferred","inputs":[{"name":"previousOwner","type":"address","indexed":true,"internalType":"address"},{"name":"newOwner","type":"address","indexed":true,"internalType":"address"}],"anonymous":false},{"type":"event","name":"Paused","inputs":[{"name":"account","type":"address","indexed":false,"internalType":"address"}],"anonymous":false},{"type":"event","name":"PoolCreated","inputs":[{"name":"gameID","type":"string","indexed":false,"internalType":"string"},{"name":"challengeID","type":"string","indexed":false,"internalType":"string"},{"name":"userID","type":"string","indexed":false,"internalType":"string"},{"name":"toCover","type":"uint8","indexed":false,"internalType":"uint8"},{"name":"toDistribute","type":"uint8","indexed":false,"internalType":"uint8"}],"anonymous":false},{"type":"event","name":"Unpaused","inputs":[{"name":"account","type":"address","indexed":false,"internalType":"address"}],"anonymous":false},{"type":"error","name":"EnforcedPause","inputs":[]},{"type":"error","name":"ExpectedPause","inputs":[]},{"type":"error","name":"OwnableInvalidOwner","inputs":[{"name":"owner","type":"address","internalType":"address"}]},{"type":"error","name":"OwnableUnauthorizedAccount","inputs":[{"name":"account","type":"address","internalType":"address"}]}],"bytecode":{"object":"0x60a060405234801561000f575f5ffd5b5060405161222a38038061222a833981810160405281019061003191906102b5565b61003f61015260201b60201c565b5f5f5f6101000a81548160ff0219169083151502179055505f73ffffffffffffffffffffffffffffffffffffffff168173ffffffffffffffffffffffffffffffffffffffff16036100c7575f6040517f1e4fbdf70000000000000000000000000000000000000000000000000000000081526004016100be9190610302565b60405180910390fd5b6100d68161015960201b60201c565b508173ffffffffffffffffffffffffffffffffffffffff1660808173ffffffffffffffffffffffffffffffffffffffff16815250508060055f6101000a81548173ffffffffffffffffffffffffffffffffffffffff021916908373ffffffffffffffffffffffffffffffffffffffff160217905550505061031b565b5f33905090565b5f5f60019054906101000a900473ffffffffffffffffffffffffffffffffffffffff169050815f60016101000a81548173ffffffffffffffffffffffffffffffffffffffff021916908373ffffffffffffffffffffffffffffffffffffffff1602179055508173ffffffffffffffffffffffffffffffffffffffff168173ffffffffffffffffffffffffffffffffffffffff167f8be0079c531659141344cd1fd0a4f28419497f9722a3daafe3b4186f6b6457e060405160405180910390a35050565b5f5ffd5b5f73ffffffffffffffffffffffffffffffffffffffff82169050919050565b5f61024982610220565b9050919050565b6102598161023f565b8114610263575f5ffd5b50565b5f8151905061027481610250565b92915050565b5f6102848261023f565b9050919050565b6102948161027a565b811461029e575f5ffd5b50565b5f815190506102af8161028b565b92915050565b5f5f604083850312156102cb576102ca61021c565b5b5f6102d885828601610266565b92505060206102e9858286016102a1565b9150509250929050565b6102fc8161023f565b82525050565b5f6020820190506103155f8301846102f3565b92915050565b608051611ef76103335f395f610c070152611ef75ff3fe608060405234801561000f575f5ffd5b50600436106100f3575f3560e01c80638cebd94211610095578063e89826ac11610064578063e89826ac1461023d578063f2fde38b14610259578063f6c0092714610275578063fc0c546a146102a5576100f3565b80638cebd9421461019d5780638da5cb5b146101d3578063a160e32a146101f1578063c9630cb014610221576100f3565b80635c975abb116100d15780635c975abb1461014d578063715018a61461016b5780637dc0d1d0146101755780638456cb5914610193576100f3565b80631c8d9958146100f75780633f4ba83a1461011357806345e4487a1461011d575b5f5ffd5b610111600480360381019061010c9190611163565b6102c3565b005b61011b61053f565b005b6101376004803603810190610132919061122e565b610551565b604051610144919061128f565b60405180910390f35b610155610586565b604051610162919061128f565b60405180910390f35b61017361059a565b005b61017d6105ad565b60405161018a9190611322565b60405180910390f35b61019b6105d2565b005b6101b760048036038101906101b2919061136e565b6105e4565b6040516101ca979695949392919061142f565b60405180910390f35b6101db6106c1565b6040516101e891906114c3565b60405180910390f35b61020b6004803603810190610206919061122e565b6106e9565b604051610218919061128f565b60405180910390f35b61023b60048036038101906102369190611506565b61071e565b005b6102576004803603810190610252919061122e565b610a25565b005b610273600480360381019061026e919061156e565b610a66565b005b61028f600480360381019061028a919061136e565b610aea565b60405161029c91906116a7565b60405180910390f35b6102ad610c05565b6040516102ba91906114c3565b60405180910390f35b6102cb610c29565b6002836040516102db9190611701565b90815260200160405180910390205f9054906101000a900460ff16610335576040517f08c379a000000000000000000000000000000000000000000000000000000000815260040161032c90611761565b60405180910390fd5b6003816040516103459190611701565b90815260200160405180910390205f9054906101000a900460ff1661039b5760016003826040516103769190611701565b90815260200160405180910390205f6101000a81548160ff0219169083151502179055505b5f8383836040516020016103b19392919061177f565b6040516020818303038152906040528051906020012090505f60015f8381526020019081526020015f206001015f9054906101000a900460ff1660ff161461042e576040517f08c379a000000000000000000000000000000000000000000000000000000000815260040161042590611813565b60405180910390fd5b6040518060e001604052808281526020018760ff1681526020018660ff1681526020018381526020014281526020015f81526020015f81525060015f8381526020019081526020015f205f820151815f01556020820151816001015f6101000a81548160ff021916908360ff16021790555060408201518160010160016101000a81548160ff021916908360ff16021790555060608201518160020190816104d69190611a25565b506080820151816003015560a0820151816004015560c082015181600501559050507f6f6ea0a766c40ee6902e27824c9f197c6951e1bb32047945c4a21d778ff41846848484898960405161052f959493929190611af4565b60405180910390a1505050505050565b610547610c29565b61054f610cb0565b565b6002818051602081018201805184825260208301602085012081835280955050505050505f915054906101000a900460ff1681565b5f5f5f9054906101000a900460ff16905090565b6105a2610c29565b6105ab5f610d10565b565b60055f9054906101000a900473ffffffffffffffffffffffffffffffffffffffff1681565b6105da610c29565b6105e2610dd3565b565b6001602052805f5260405f205f91509050805f015490806001015f9054906101000a900460ff16908060010160019054906101000a900460ff169080600201805461062e9061185e565b80601f016020809104026020016040519081016040528092919081815260200182805461065a9061185e565b80156106a55780601f1061067c576101008083540402835291602001916106a5565b820191905f5260205f20905b81548152906001019060200180831161068857829003601f168201915b5050505050908060030154908060040154908060050154905087565b5f5f60019054906101000a900473ffffffffffffffffffffffffffffffffffffffff16905090565b6003818051602081018201805184825260208301602085012081835280955050505050505f915054906101000a900460ff1681565b5f5f5f60055f9054906101000a900473ffffffffffffffffffffffffffffffffffffffff1673ffffffffffffffffffffffffffffffffffffffff1663f6c00927856040518263ffffffff1660e01b815260040161077b9190611b5a565b606060405180830381865afa158015610796573d5f5f3e3d5ffd5b505050506040513d601f19601f820116820180604052508101906107ba9190611be4565b92509250925082610800576040517f08c379a00000000000000000000000000000000000000000000000000000000081526004016107f790611c7e565b60405180910390fd5b5f60015f8681526020019081526020015f20905080600301548211156108c1574281600301819055505f8313156108505782816004015f8282546108449190611cc9565b925050819055506108c0565b5f8361085b90611cfc565b905080826004015410156108a4576040517f08c379a000000000000000000000000000000000000000000000000000000000815260040161089b90611d8c565b60405180910390fd5b80826004015f8282546108b79190611daa565b92505081905550505b5b5f81600501540361093a57858160040181905550620186a08160050181905550620186a060045f8781526020019081526020015f205f3373ffffffffffffffffffffffffffffffffffffffff1673ffffffffffffffffffffffffffffffffffffffff1681526020019081526020015f2081905550610a1d565b5f64e8d4a5100082600401546109509190611ddd565b64e8d4a510008360050154896109669190611ddd565b6109709190611ddd565b61097a9190611e4b565b905061098581610e34565b86826004015f8282546109989190611cc9565b9250508190555080826005015f8282546109b29190611cc9565b925050819055508060045f8881526020019081526020015f205f3373ffffffffffffffffffffffffffffffffffffffff1673ffffffffffffffffffffffffffffffffffffffff1681526020019081526020015f205f828254610a149190611cc9565b92505081905550505b505050505050565b610a2d610c29565b6001600282604051610a3f9190611701565b90815260200160405180910390205f6101000a81548160ff02191690831515021790555050565b610a6e610c29565b5f73ffffffffffffffffffffffffffffffffffffffff168173ffffffffffffffffffffffffffffffffffffffff1603610ade575f6040517f1e4fbdf7000000000000000000000000000000000000000000000000000000008152600401610ad591906114c3565b60405180910390fd5b610ae781610d10565b50565b610af2610f99565b60015f8381526020019081526020015f206040518060e00160405290815f8201548152602001600182015f9054906101000a900460ff1660ff1660ff1681526020016001820160019054906101000a900460ff1660ff1660ff168152602001600282018054610b609061185e565b80601f0160208091040260200160405190810160405280929190818152602001828054610b8c9061185e565b8015610bd75780601f10610bae57610100808354040283529160200191610bd7565b820191905f5260205f20905b815481529060010190602001808311610bba57829003601f168201915b5050505050815260200160038201548152602001600482015481526020016005820154815250509050919050565b7f000000000000000000000000000000000000000000000000000000000000000081565b610c31610ecd565b73ffffffffffffffffffffffffffffffffffffffff16610c4f6106c1565b73ffffffffffffffffffffffffffffffffffffffff1614610cae57610c72610ecd565b6040517f118cdaa7000000000000000000000000000000000000000000000000000000008152600401610ca591906114c3565b60405180910390fd5b565b610cb8610ed4565b5f5f5f6101000a81548160ff0219169083151502179055507f5db9ee0a495bf2e6ff9c91a7834c1ba4fdd244a5e8aa4e537bd38aeae4b073aa610cf9610ecd565b604051610d0691906114c3565b60405180910390a1565b5f5f60019054906101000a900473ffffffffffffffffffffffffffffffffffffffff169050815f60016101000a81548173ffffffffffffffffffffffffffffffffffffffff021916908373ffffffffffffffffffffffffffffffffffffffff1602179055508173ffffffffffffffffffffffffffffffffffffffff168173ffffffffffffffffffffffffffffffffffffffff167f8be0079c531659141344cd1fd0a4f28419497f9722a3daafe3b4186f6b6457e060405160405180910390a35050565b610ddb610f14565b60015f5f6101000a81548160ff0219169083151502179055507f62e78cea01bee320cd4e420270b5ea74000d11b0c9f74754ebdbfc544b05a258610e1d610ecd565b604051610e2a91906114c3565b60405180910390a1565b610eca81604051602401610e489190611e7b565b6040516020818303038152906040527ff82c50f1000000000000000000000000000000000000000000000000000000007bffffffffffffffffffffffffffffffffffffffffffffffffffffffff19166020820180517bffffffffffffffffffffffffffffffffffffffffffffffffffffffff8381831617835250505050610f55565b50565b5f33905090565b610edc610586565b610f12576040517f8dfc202b00000000000000000000000000000000000000000000000000000000815260040160405180910390fd5b565b610f1c610586565b15610f53576040517fd93c066500000000000000000000000000000000000000000000000000000000815260040160405180910390fd5b565b610f6c81610f64610f6f610f8e565b63ffffffff16565b50565b5f6a636f6e736f6c652e6c6f6790505f5f835160208501845afa505050565b610fd6819050919050565b6040518060e001604052805f81526020015f60ff1681526020015f60ff168152602001606081526020015f81526020015f81526020015f81525090565b610fde611e94565b565b5f604051905090565b5f5ffd5b5f5ffd5b5f60ff82169050919050565b61100681610ff1565b8114611010575f5ffd5b50565b5f8135905061102181610ffd565b92915050565b5f5ffd5b5f5ffd5b5f601f19601f8301169050919050565b7f4e487b71000000000000000000000000000000000000000000000000000000005f52604160045260245ffd5b6110758261102f565b810181811067ffffffffffffffff821117156110945761109361103f565b5b80604052505050565b5f6110a6610fe0565b90506110b2828261106c565b919050565b5f67ffffffffffffffff8211156110d1576110d061103f565b5b6110da8261102f565b9050602081019050919050565b828183375f83830152505050565b5f611107611102846110b7565b61109d565b9050828152602081018484840111156111235761112261102b565b5b61112e8482856110e7565b509392505050565b5f82601f83011261114a57611149611027565b5b813561115a8482602086016110f5565b91505092915050565b5f5f5f5f5f60a0868803121561117c5761117b610fe9565b5b5f61118988828901611013565b955050602061119a88828901611013565b945050604086013567ffffffffffffffff8111156111bb576111ba610fed565b5b6111c788828901611136565b935050606086013567ffffffffffffffff8111156111e8576111e7610fed565b5b6111f488828901611136565b925050608086013567ffffffffffffffff81111561121557611214610fed565b5b61122188828901611136565b9150509295509295909350565b5f6020828403121561124357611242610fe9565b5b5f82013567ffffffffffffffff8111156112605761125f610fed565b5b61126c84828501611136565b91505092915050565b5f8115159050919050565b61128981611275565b82525050565b5f6020820190506112a25f830184611280565b92915050565b5f73ffffffffffffffffffffffffffffffffffffffff82169050919050565b5f819050919050565b5f6112ea6112e56112e0846112a8565b6112c7565b6112a8565b9050919050565b5f6112fb826112d0565b9050919050565b5f61130c826112f1565b9050919050565b61131c81611302565b82525050565b5f6020820190506113355f830184611313565b92915050565b5f819050919050565b61134d8161133b565b8114611357575f5ffd5b50565b5f8135905061136881611344565b92915050565b5f6020828403121561138357611382610fe9565b5b5f6113908482850161135a565b91505092915050565b6113a28161133b565b82525050565b6113b181610ff1565b82525050565b5f81519050919050565b5f82825260208201905092915050565b8281835e5f83830152505050565b5f6113e9826113b7565b6113f381856113c1565b93506114038185602086016113d1565b61140c8161102f565b840191505092915050565b5f819050919050565b61142981611417565b82525050565b5f60e0820190506114425f83018a611399565b61144f60208301896113a8565b61145c60408301886113a8565b818103606083015261146e81876113df565b905061147d6080830186611420565b61148a60a0830185611420565b61149760c0830184611420565b98975050505050505050565b5f6114ad826112a8565b9050919050565b6114bd816114a3565b82525050565b5f6020820190506114d65f8301846114b4565b92915050565b6114e581611417565b81146114ef575f5ffd5b50565b5f81359050611500816114dc565b92915050565b5f5f6040838503121561151c5761151b610fe9565b5b5f611529858286016114f2565b925050602061153a8582860161135a565b9150509250929050565b61154d816114a3565b8114611557575f5ffd5b50565b5f8135905061156881611544565b92915050565b5f6020828403121561158357611582610fe9565b5b5f6115908482850161155a565b91505092915050565b6115a28161133b565b82525050565b6115b181610ff1565b82525050565b5f82825260208201905092915050565b5f6115d1826113b7565b6115db81856115b7565b93506115eb8185602086016113d1565b6115f48161102f565b840191505092915050565b61160881611417565b82525050565b5f60e083015f8301516116235f860182611599565b50602083015161163660208601826115a8565b50604083015161164960408601826115a8565b506060830151848203606086015261166182826115c7565b915050608083015161167660808601826115ff565b5060a083015161168960a08601826115ff565b5060c083015161169c60c08601826115ff565b508091505092915050565b5f6020820190508181035f8301526116bf818461160e565b905092915050565b5f81905092915050565b5f6116db826113b7565b6116e581856116c7565b93506116f58185602086016113d1565b80840191505092915050565b5f61170c82846116d1565b915081905092915050565b7f47616d65206e6f742072656769737465726564000000000000000000000000005f82015250565b5f61174b6013836113c1565b915061175682611717565b602082019050919050565b5f6020820190508181035f8301526117788161173f565b9050919050565b5f6060820190508181035f83015261179781866113df565b905081810360208301526117ab81856113df565b905081810360408301526117bf81846113df565b9050949350505050565b7f506f6f6c20616c726561647920657869737473000000000000000000000000005f82015250565b5f6117fd6013836113c1565b9150611808826117c9565b602082019050919050565b5f6020820190508181035f83015261182a816117f1565b9050919050565b7f4e487b71000000000000000000000000000000000000000000000000000000005f52602260045260245ffd5b5f600282049050600182168061187557607f821691505b60208210810361188857611887611831565b5b50919050565b5f819050815f5260205f209050919050565b5f6020601f8301049050919050565b5f82821b905092915050565b5f600883026118ea7fffffffffffffffffffffffffffffffffffffffffffffffffffffffffffffffff826118af565b6118f486836118af565b95508019841693508086168417925050509392505050565b5f61192661192161191c84611417565b6112c7565b611417565b9050919050565b5f819050919050565b61193f8361190c565b61195361194b8261192d565b8484546118bb565b825550505050565b5f5f905090565b61196a61195b565b611975818484611936565b505050565b5b818110156119985761198d5f82611962565b60018101905061197b565b5050565b601f8211156119dd576119ae8161188e565b6119b7846118a0565b810160208510156119c6578190505b6119da6119d2856118a0565b83018261197a565b50505b505050565b5f82821c905092915050565b5f6119fd5f19846008026119e2565b1980831691505092915050565b5f611a1583836119ee565b9150826002028217905092915050565b611a2e826113b7565b67ffffffffffffffff811115611a4757611a4661103f565b5b611a51825461185e565b611a5c82828561199c565b5f60209050601f831160018114611a8d575f8415611a7b578287015190505b611a858582611a0a565b865550611aec565b601f198416611a9b8661188e565b5f5b82811015611ac257848901518255600182019150602085019450602081019050611a9d565b86831015611adf5784890151611adb601f8916826119ee565b8355505b6001600288020188555050505b505050505050565b5f60a0820190508181035f830152611b0c81886113df565b90508181036020830152611b2081876113df565b90508181036040830152611b3481866113df565b9050611b4360608301856113a8565b611b5060808301846113a8565b9695505050505050565b5f602082019050611b6d5f830184611399565b92915050565b611b7c81611275565b8114611b86575f5ffd5b50565b5f81519050611b9781611b73565b92915050565b5f819050919050565b611baf81611b9d565b8114611bb9575f5ffd5b50565b5f81519050611bca81611ba6565b92915050565b5f81519050611bde816114dc565b92915050565b5f5f5f60608486031215611bfb57611bfa610fe9565b5b5f611c0886828701611b89565b9350506020611c1986828701611bbc565b9250506040611c2a86828701611bd0565b9150509250925092565b7f506f6f6c206e6f742061637469766500000000000000000000000000000000005f82015250565b5f611c68600f836113c1565b9150611c7382611c34565b602082019050919050565b5f6020820190508181035f830152611c9581611c5c565b9050919050565b7f4e487b71000000000000000000000000000000000000000000000000000000005f52601160045260245ffd5b5f611cd382611417565b9150611cde83611417565b9250828201905080821115611cf657611cf5611c9c565b5b92915050565b5f611d0682611b9d565b91507f80000000000000000000000000000000000000000000000000000000000000008203611d3857611d37611c9c565b5b815f039050919050565b7f526577617264206578636565647320746f74616c207374616b656400000000005f82015250565b5f611d76601b836113c1565b9150611d8182611d42565b602082019050919050565b5f6020820190508181035f830152611da381611d6a565b9050919050565b5f611db482611417565b9150611dbf83611417565b9250828203905081811115611dd757611dd6611c9c565b5b92915050565b5f611de782611417565b9150611df283611417565b9250828202611e0081611417565b91508282048414831517611e1757611e16611c9c565b5b5092915050565b7f4e487b71000000000000000000000000000000000000000000000000000000005f52601260045260245ffd5b5f611e5582611417565b9150611e6083611417565b925082611e7057611e6f611e1e565b5b828204905092915050565b5f602082019050611e8e5f830184611420565b92915050565b7f4e487b71000000000000000000000000000000000000000000000000000000005f52605160045260245ffdfea26469706673582212207ebe782c51a287c9216dc67109c2c30b39cea4cd53a818c2b95ccb6415c4e23364736f6c634300081c0033","linkReferences":{}},"methodIdentifiers":{"addGame(string)":"e89826ac","createPool(uint8,uint8,string,string,string)":"1c8d9958","deposit(uint256,bytes32)":"c9630cb0","gamesRegistered(string)":"45e4487a","getPool(bytes32)":"f6c00927","oracle()":"7dc0d1d0","owner()":"8da5cb5b","pause()":"8456cb59","paused()":"5c975abb","poolInfo(bytes32)":"8cebd942","renounceOwnership()":"715018a6","token()":"fc0c546a","transferOwnership(address)":"f2fde38b","unpause()":"3f4ba83a","usersRegistered(string)":"a160e32a"},"id":48}