{"abi":[{"type":"constructor","inputs":[{"name":"_bolt","type":"address","internalType":"contract EBolt"},{"name":"_oracle","type":"address","internalType":"contract EStormOracle"},{"name":"_treasury","type":"address","internalType":"address"}],"stateMutability":"nonpayable"},{"type":"function","name":"addGame","inputs":[{"name":"_game","type":"string","internalType":"string"}],"outputs":[],"stateMutability":"nonpayable"},{"type":"function","name":"convertToAssets","inputs":[{"name":"_shares","type":"uint256","internalType":"uint256"},{"name":"_pid","type":"bytes32","internalType":"bytes32"}],"outputs":[{"name":"","type":"uint256","internalType":"uint256"}],"stateMutability":"view"},{"type":"function","name":"convertToShares","inputs":[{"name":"_amount","type":"uint256","internalType":"uint256"},{"name":"_pid","type":"bytes32","internalType":"bytes32"},{"name":"_rounding","type":"uint8","internalType":"enum Math.Rounding"}],"outputs":[{"name":"","type":"uint256","internalType":"uint256"}],"stateMutability":"view"},{"type":"function","name":"createPool","inputs":[{"name":"_gameID","type":"string","internalType":"string"},{"name":"_challengeID","type":"string","internalType":"string"},{"name":"_userID","type":"string","internalType":"string"}],"outputs":[],"stateMutability":"nonpayable"},{"type":"function","name":"deposit","inputs":[{"name":"_amount","type":"uint256","internalType":"uint256"},{"name":"_pid","type":"bytes32","internalType":"bytes32"}],"outputs":[],"stateMutability":"nonpayable"},{"type":"function","name":"eBolt","inputs":[],"outputs":[{"name":"","type":"address","internalType":"contract EBolt"}],"stateMutability":"view"},{"type":"function","name":"feePerc","inputs":[],"outputs":[{"name":"","type":"uint16","internalType":"uint16"}],"stateMutability":"view"},{"type":"function","name":"gamesRegistered","inputs":[{"name":"","type":"string","internalType":"string"}],"outputs":[{"name":"","type":"bool","internalType":"bool"}],"stateMutability":"view"},{"type":"function","name":"getPool","inputs":[{"name":"_pid","type":"bytes32","internalType":"bytes32"}],"outputs":[{"name":"","type":"tuple","internalType":"struct IStakingContract.PoolInfo","components":[{"name":"id","type":"bytes32","internalType":"bytes32"},{"name":"userID","type":"string","internalType":"string"},{"name":"totalStaked","type":"uint256","internalType":"uint256"},{"name":"totalShares","type":"uint256","internalType":"uint256"}]}],"stateMutability":"view"},{"type":"function","name":"oracle","inputs":[],"outputs":[{"name":"","type":"address","internalType":"contract EStormOracle"}],"stateMutability":"view"},{"type":"function","name":"owner","inputs":[],"outputs":[{"name":"","type":"address","internalType":"address"}],"stateMutability":"view"},{"type":"function","name":"poolInfo","inputs":[{"name":"","type":"bytes32","internalType":"bytes32"}],"outputs":[{"name":"id","type":"bytes32","internalType":"bytes32"},{"name":"userID","type":"string","internalType":"string"},{"name":"totalStaked","type":"uint256","internalType":"uint256"},{"name":"totalShares","type":"uint256","internalType":"uint256"}],"stateMutability":"view"},{"type":"function","name":"previewDeposit","inputs":[{"name":"_amount","type":"uint256","internalType":"uint256"},{"name":"_pid","type":"bytes32","internalType":"bytes32"}],"outputs":[{"name":"","type":"uint256","internalType":"uint256"}],"stateMutability":"view"},{"type":"function","name":"previewFee","inputs":[{"name":"_amount","type":"uint256","internalType":"uint256"}],"outputs":[{"name":"","type":"uint256","internalType":"uint256"}],"stateMutability":"view"},{"type":"function","name":"previewWithdraw","inputs":[{"name":"_amount","type":"uint256","internalType":"uint256"},{"name":"_pid","type":"bytes32","internalType":"bytes32"}],"outputs":[{"name":"","type":"uint256","internalType":"uint256"}],"stateMutability":"view"},{"type":"function","name":"renounceOwnership","inputs":[],"outputs":[],"stateMutability":"nonpayable"},{"type":"function","name":"setDevFee","inputs":[{"name":"_newFee","type":"uint16","internalType":"uint16"}],"outputs":[],"stateMutability":"nonpayable"},{"type":"function","name":"setOracle","inputs":[{"name":"_oracle","type":"address","internalType":"contract EStormOracle"}],"outputs":[],"stateMutability":"nonpayable"},{"type":"function","name":"setTreasury","inputs":[{"name":"_treasury","type":"address","internalType":"address"}],"outputs":[],"stateMutability":"nonpayable"},{"type":"function","name":"sharesByAddress","inputs":[{"name":"","type":"bytes32","internalType":"bytes32"},{"name":"","type":"address","internalType":"address"}],"outputs":[{"name":"","type":"uint256","internalType":"uint256"}],"stateMutability":"view"},{"type":"function","name":"transferOwnership","inputs":[{"name":"newOwner","type":"address","internalType":"address"}],"outputs":[],"stateMutability":"nonpayable"},{"type":"function","name":"treasury","inputs":[],"outputs":[{"name":"","type":"address","internalType":"address"}],"stateMutability":"view"},{"type":"function","name":"usersRegistered","inputs":[{"name":"","type":"string","internalType":"string"}],"outputs":[{"name":"","type":"bool","internalType":"bool"}],"stateMutability":"view"},{"type":"function","name":"withdraw","inputs":[{"name":"_pid","type":"bytes32","internalType":"bytes32"},{"name":"_amount","type":"uint256","internalType":"uint256"}],"outputs":[],"stateMutability":"nonpayable"},{"type":"event","name":"Deposit","inputs":[{"name":"staker","type":"address","indexed":false,"internalType":"address"},{"name":"amount","type":"uint256","indexed":false,"internalType":"uint256"},{"name":"pid","type":"bytes32","indexed":false,"internalType":"bytes32"}],"anonymous":false},{"type":"event","name":"DevFeeUpdated","inputs":[{"name":"oldFee","type":"uint256","indexed":false,"internalType":"uint256"},{"name":"newFee","type":"uint256","indexed":false,"internalType":"uint256"}],"anonymous":false},{"type":"event","name":"OwnershipTransferred","inputs":[{"name":"previousOwner","type":"address","indexed":true,"internalType":"address"},{"name":"newOwner","type":"address","indexed":true,"internalType":"address"}],"anonymous":false},{"type":"event","name":"PoolCreated","inputs":[{"name":"gameID","type":"string","indexed":false,"internalType":"string"},{"name":"challengeID","type":"string","indexed":false,"internalType":"string"},{"name":"userID","type":"string","indexed":false,"internalType":"string"},{"name":"pid","type":"bytes32","indexed":false,"internalType":"bytes32"}],"anonymous":false},{"type":"event","name":"Withdraw","inputs":[{"name":"staker","type":"address","indexed":false,"internalType":"address"},{"name":"amount","type":"uint256","indexed":false,"internalType":"uint256"},{"name":"fee","type":"uint256","indexed":false,"internalType":"uint256"},{"name":"pid","type":"bytes32","indexed":false,"internalType":"bytes32"}],"anonymous":false},{"type":"error","name":"OwnableInvalidOwner","inputs":[{"name":"owner","type":"address","internalType":"address"}]},{"type":"error","name":"OwnableUnauthorizedAccount","inputs":[{"name":"account","type":"address","internalType":"address"}]},{"type":"error","name":"SafeERC20FailedOperation","inputs":[{"name":"token","type":"address","internalType":"address"}]}],"bytecode":{"object":"0x60a06040526107d060055f6101000a81548161ffff021916908361ffff16021790555034801561002d575f5ffd5b5060405161360a38038061360a833981810160405281019061004f9190610336565b61005d61019a60201b60201c565b5f73ffffffffffffffffffffffffffffffffffffffff168173ffffffffffffffffffffffffffffffffffffffff16036100cd575f6040517f1e4fbdf70000000000000000000000000000000000000000000000000000000081526004016100c49190610395565b60405180910390fd5b6100dc816101a160201b60201c565b508273ffffffffffffffffffffffffffffffffffffffff1660808173ffffffffffffffffffffffffffffffffffffffff16815250508160065f6101000a81548173ffffffffffffffffffffffffffffffffffffffff021916908373ffffffffffffffffffffffffffffffffffffffff16021790555080600560026101000a81548173ffffffffffffffffffffffffffffffffffffffff021916908373ffffffffffffffffffffffffffffffffffffffff1602179055505050506103ae565b5f33905090565b5f5f5f9054906101000a900473ffffffffffffffffffffffffffffffffffffffff169050815f5f6101000a81548173ffffffffffffffffffffffffffffffffffffffff021916908373ffffffffffffffffffffffffffffffffffffffff1602179055508173ffffffffffffffffffffffffffffffffffffffff168173ffffffffffffffffffffffffffffffffffffffff167f8be0079c531659141344cd1fd0a4f28419497f9722a3daafe3b4186f6b6457e060405160405180910390a35050565b5f5ffd5b5f73ffffffffffffffffffffffffffffffffffffffff82169050919050565b5f61028f82610266565b9050919050565b5f6102a082610285565b9050919050565b6102b081610296565b81146102ba575f5ffd5b50565b5f815190506102cb816102a7565b92915050565b5f6102db82610285565b9050919050565b6102eb816102d1565b81146102f5575f5ffd5b50565b5f81519050610306816102e2565b92915050565b61031581610285565b811461031f575f5ffd5b50565b5f815190506103308161030c565b92915050565b5f5f5f6060848603121561034d5761034c610262565b5b5f61035a868287016102bd565b935050602061036b868287016102f8565b925050604061037c86828701610322565b9150509250925092565b61038f81610285565b82525050565b5f6020820190506103a85f830184610386565b92915050565b6080516132136103f75f395f81816106ae015281816106fb0152818161084301528181610e160152818161120c015281816112d50152818161162a01526119fb01526132135ff3fe608060405234801561000f575f5ffd5b5060043610610156575f3560e01c80638da5cb5b116100c1578063e49fd42b1161007a578063e49fd42b146103eb578063e89826ac1461041b578063ef41ea7e14610437578063f0f4426014610455578063f2fde38b14610471578063f6c009271461048d57610156565b80638da5cb5b14610319578063a160e32a14610337578063b0ed445014610367578063b52228dd14610383578063c9630cb0146103b3578063e18cb4fe146103cf57610156565b8063715018a611610113578063715018a61461025457806371b2e0271461025e57806376baa8941461027c5780637adbf973146102ac5780637dc0d1d0146102c85780638cebd942146102e657610156565b8063040cf0201461015a5780631c9cab2e1461017657806335e856f2146101a657806345e4487a146101d6578063533701411461020657806361d027b314610236575b5f5ffd5b610174600480360381019061016f9190611ea6565b6104bd565b005b610190600480360381019061018b9190611ee4565b610776565b60405161019d9190611f31565b60405180910390f35b6101c060048036038101906101bb9190611f4a565b610789565b6040516101cd9190611f31565b60405180910390f35b6101f060048036038101906101eb91906120b1565b6107bf565b6040516101fd9190612112565b60405180910390f35b610220600480360381019061021b9190611ee4565b6107f4565b60405161022d9190611f31565b60405180910390f35b61023e610808565b60405161024b919061216a565b60405180910390f35b61025c61082e565b005b610266610841565b60405161027391906121de565b60405180910390f35b61029660048036038101906102919190611ee4565b610865565b6040516102a39190611f31565b60405180910390f35b6102c660048036038101906102c19190612232565b610878565b005b6102d06108c3565b6040516102dd919061227d565b60405180910390f35b61030060048036038101906102fb9190612296565b6108e8565b6040516103109493929190612330565b60405180910390f35b61032161099a565b60405161032e919061216a565b60405180910390f35b610351600480360381019061034c91906120b1565b6109c1565b60405161035e9190612112565b60405180910390f35b610381600480360381019061037c919061237a565b6109f6565b005b61039d60048036038101906103989190612448565b610bfb565b6040516103aa9190611f31565b60405180910390f35b6103cd60048036038101906103c89190611ee4565b610c1b565b005b6103e960048036038101906103e491906124bd565b610e8f565b005b6104056004803603810190610400919061250b565b610eb6565b6040516104129190611f31565b60405180910390f35b610435600480360381019061043091906120b1565b610ecb565b005b61043f610f0c565b60405161044c919061256a565b60405180910390f35b61046f600480360381019061046a9190612583565b610f1f565b005b61048b60048036038101906104869190612583565b610f6b565b005b6104a760048036038101906104a29190612296565b610fef565b6040516104b49190612674565b60405180910390f35b5f81116104ff576040517f08c379a00000000000000000000000000000000000000000000000000000000081526004016104f6906126de565b60405180910390fd5b5f5f60065f9054906101000a900473ffffffffffffffffffffffffffffffffffffffff1673ffffffffffffffffffffffffffffffffffffffff1663f6c00927856040518263ffffffff1660e01b815260040161055b91906126fc565b606060405180830381865afa158015610576573d5f5f3e3d5ffd5b505050506040513d601f19601f8201168201806040525081019061059a9190612772565b92509250505f6105aa84866110c7565b90505f6105b685610789565b90505f6105c38388610865565b905083156105d6576105d585886111d1565b5b5f60015f8981526020019081526020015f20905080600201548211156105fe57806002015491505b81816002015f82825461061191906127ef565b9250508190555083816003015f82825461062b91906127ef565b925050819055508360045f8a81526020019081526020015f205f61064d6113ac565b73ffffffffffffffffffffffffffffffffffffffff1673ffffffffffffffffffffffffffffffffffffffff1681526020019081526020015f205f82825461069491906127ef565b9250508190555082826106a791906127ef565b91506106f67f0000000000000000000000000000000000000000000000000000000000000000600560029054906101000a900473ffffffffffffffffffffffffffffffffffffffff16856113b3565b6107287f00000000000000000000000000000000000000000000000000000000000000006107226113ac565b846113b3565b7f80bd7e915c065f64ef8e41fa6334d4a2b752591cb4d462c204b8e2449eb0a1f76107516113ac565b83858b6040516107649493929190612822565b60405180910390a15050505050505050565b5f61078183836110c7565b905092915050565b5f6107b860055f9054906101000a900461ffff1661ffff16620186a0600185611432909392919063ffffffff16565b9050919050565b6002818051602081018201805184825260208301602085012081835280955050505050505f915054906101000a900460ff1681565b5f61080083835f61147f565b905092915050565b600560029054906101000a900473ffffffffffffffffffffffffffffffffffffffff1681565b6108366116fb565b61083f5f611782565b565b7f000000000000000000000000000000000000000000000000000000000000000081565b5f6108708383611843565b905092915050565b6108806116fb565b8060065f6101000a81548173ffffffffffffffffffffffffffffffffffffffff021916908373ffffffffffffffffffffffffffffffffffffffff16021790555050565b60065f9054906101000a900473ffffffffffffffffffffffffffffffffffffffff1681565b6001602052805f5260405f205f91509050805f01549080600101805461090d90612892565b80601f016020809104026020016040519081016040528092919081815260200182805461093990612892565b80156109845780601f1061095b57610100808354040283529160200191610984565b820191905f5260205f20905b81548152906001019060200180831161096757829003601f168201915b5050505050908060020154908060030154905084565b5f5f5f9054906101000a900473ffffffffffffffffffffffffffffffffffffffff16905090565b6003818051602081018201805184825260208301602085012081835280955050505050505f915054906101000a900460ff1681565b6109fe6116fb565b600283604051610a0e91906128fc565b90815260200160405180910390205f9054906101000a900460ff16610a68576040517f08c379a0000000000000000000000000000000000000000000000000000000008152600401610a5f9061295c565b60405180910390fd5b600381604051610a7891906128fc565b90815260200160405180910390205f9054906101000a900460ff16610ace576001600382604051610aa991906128fc565b90815260200160405180910390205f6101000a81548160ff0219169083151502179055505b5f838383604051602001610ae49392919061297a565b6040516020818303038152906040528051906020012090508060015f8381526020019081526020015f205f015403610b51576040517f08c379a0000000000000000000000000000000000000000000000000000000008152600401610b4890612a0e565b60405180910390fd5b60405180608001604052808281526020018381526020015f81526020015f81525060015f8381526020019081526020015f205f820151815f01556020820151816001019081610ba09190612bc3565b5060408201518160020155606082015181600301559050507f7181b16923baef00c8363c00a31376978edcdc57c84083185389ab8367b5f7c184848484604051610bed9493929190612c92565b60405180910390a150505050565b6004602052815f5260405f20602052805f5260405f205f91509150505481565b620f42408211610c60576040517f08c379a0000000000000000000000000000000000000000000000000000000008152600401610c5790612d34565b60405180910390fd5b5f5f5f60065f9054906101000a900473ffffffffffffffffffffffffffffffffffffffff1673ffffffffffffffffffffffffffffffffffffffff1663f6c00927856040518263ffffffff1660e01b8152600401610cbd91906126fc565b606060405180830381865afa158015610cd8573d5f5f3e3d5ffd5b505050506040513d601f19601f82011682018060405250810190610cfc9190612772565b92509250925082610d42576040517f08c379a0000000000000000000000000000000000000000000000000000000008152600401610d3990612d9c565b60405180910390fd5b5f610d4d86866107f4565b90508115610d6057610d5f83866111d1565b5b5f60015f8781526020019081526020015f20905086816002015f828254610d879190612dba565b9250508190555081816003015f828254610da19190612dba565b925050819055508160045f8881526020019081526020015f205f610dc36113ac565b73ffffffffffffffffffffffffffffffffffffffff1673ffffffffffffffffffffffffffffffffffffffff1681526020019081526020015f205f828254610e0a9190612dba565b92505081905550610e447f0000000000000000000000000000000000000000000000000000000000000000610e3d6113ac565b308a611abf565b7f1a771fe656018364a9369da21954bb3081cb08b0196c27e43ca59c7cae872737610e6d6113ac565b8888604051610e7e93929190612ded565b60405180910390a150505050505050565b610e976116fb565b8060055f6101000a81548161ffff021916908361ffff16021790555050565b5f610ec284848461147f565b90509392505050565b610ed36116fb565b6001600282604051610ee591906128fc565b90815260200160405180910390205f6101000a81548160ff02191690831515021790555050565b60055f9054906101000a900461ffff1681565b610f276116fb565b80600560026101000a81548173ffffffffffffffffffffffffffffffffffffffff021916908373ffffffffffffffffffffffffffffffffffffffff16021790555050565b610f736116fb565b5f73ffffffffffffffffffffffffffffffffffffffff168173ffffffffffffffffffffffffffffffffffffffff1603610fe3575f6040517f1e4fbdf7000000000000000000000000000000000000000000000000000000008152600401610fda919061216a565b60405180910390fd5b610fec81611782565b50565b610ff7611e00565b60015f8381526020019081526020015f206040518060800160405290815f820154815260200160018201805461102c90612892565b80601f016020809104026020016040519081016040528092919081815260200182805461105890612892565b80156110a35780601f1061107a576101008083540402835291602001916110a3565b820191905f5260205f20905b81548152906001019060200180831161108657829003601f168201915b50505050508152602001600282015481526020016003820154815250509050919050565b5f5f6110d58484600161147f565b905060045f8481526020019081526020015f205f6110f16113ac565b73ffffffffffffffffffffffffffffffffffffffff1673ffffffffffffffffffffffffffffffffffffffff1681526020019081526020015f20548111156111c7576111706040518060400160405280600981526020017f5472696767657265640000000000000000000000000000000000000000000000815250611b41565b60045f8481526020019081526020015f205f61118a6113ac565b73ffffffffffffffffffffffffffffffffffffffff1673ffffffffffffffffffffffffffffffffffffffff1681526020019081526020015f205490505b8091505092915050565b5f60015f8381526020019081526020015f2090505f83131561125a5782816002015f8282546112009190612dba565b925050819055506112557f0000000000000000000000000000000000000000000000000000000000000000600560029054906101000a900473ffffffffffffffffffffffffffffffffffffffff163086611abf565b611320565b5f83121561131f575f8361126d90612e22565b905080826002015410156112b6576040517f08c379a00000000000000000000000000000000000000000000000000000000081526004016112ad90612eb2565b60405180910390fd5b80826002015f8282546112c991906127ef565b9250508190555061131d7f0000000000000000000000000000000000000000000000000000000000000000600560029054906101000a900473ffffffffffffffffffffffffffffffffffffffff16836113b3565b505b5b60065f9054906101000a900473ffffffffffffffffffffffffffffffffffffffff1673ffffffffffffffffffffffffffffffffffffffff1663bbca6c24836040518263ffffffff1660e01b815260040161137a91906126fc565b5f604051808303815f87803b158015611391575f5ffd5b505af11580156113a3573d5f5f3e3d5ffd5b50505050505050565b5f33905090565b61142d838473ffffffffffffffffffffffffffffffffffffffff1663a9059cbb85856040516024016113e6929190612ed0565b604051602081830303815290604052915060e01b6020820180517bffffffffffffffffffffffffffffffffffffffffffffffffffffffff8381831617835250505050611bda565b505050565b5f61146061143f83611c75565b801561145b57505f848061145657611455612ef7565b5b868809115b611ca2565b61146b868686611cad565b6114759190612dba565b9050949350505050565b5f5f60065f9054906101000a900473ffffffffffffffffffffffffffffffffffffffff1673ffffffffffffffffffffffffffffffffffffffff1663f6c00927856040518263ffffffff1660e01b81526004016114db91906126fc565b606060405180830381865afa1580156114f6573d5f5f3e3d5ffd5b505050506040513d601f19601f8201168201806040525081019061151a9190612772565b509150505f60015f8681526020019081526020015f206040518060800160405290815f820154815260200160018201805461155490612892565b80601f016020809104026020016040519081016040528092919081815260200182805461158090612892565b80156115cb5780601f106115a2576101008083540402835291602001916115cb565b820191905f5260205f20905b8154815290600101906020018083116115ae57829003601f168201915b505050505081526020016002820154815260200160038201548152505090505f816040015190505f831215611616578261160490612e22565b8161160f91906127ef565b9050611625565b82816116229190612dba565b90505b6116ef7f000000000000000000000000000000000000000000000000000000000000000073ffffffffffffffffffffffffffffffffffffffff1663313ce5676040518163ffffffff1660e01b8152600401602060405180830381865afa158015611691573d5f5f3e3d5ffd5b505050506040513d601f19601f820116820180604052508101906116b59190612f5a565b600a6116c191906130b4565b83606001516116d09190612dba565b6001836116dd9190612dba565b878a611432909392919063ffffffff16565b93505050509392505050565b6117036113ac565b73ffffffffffffffffffffffffffffffffffffffff1661172161099a565b73ffffffffffffffffffffffffffffffffffffffff1614611780576117446113ac565b6040517f118cdaa7000000000000000000000000000000000000000000000000000000008152600401611777919061216a565b60405180910390fd5b565b5f5f5f9054906101000a900473ffffffffffffffffffffffffffffffffffffffff169050815f5f6101000a81548173ffffffffffffffffffffffffffffffffffffffff021916908373ffffffffffffffffffffffffffffffffffffffff1602179055508173ffffffffffffffffffffffffffffffffffffffff168173ffffffffffffffffffffffffffffffffffffffff167f8be0079c531659141344cd1fd0a4f28419497f9722a3daafe3b4186f6b6457e060405160405180910390a35050565b5f5f60065f9054906101000a900473ffffffffffffffffffffffffffffffffffffffff1673ffffffffffffffffffffffffffffffffffffffff1663f6c00927846040518263ffffffff1660e01b815260040161189f91906126fc565b606060405180830381865afa1580156118ba573d5f5f3e3d5ffd5b505050506040513d601f19601f820116820180604052508101906118de9190612772565b509150505f60015f8581526020019081526020015f206040518060800160405290815f820154815260200160018201805461191890612892565b80601f016020809104026020016040519081016040528092919081815260200182805461194490612892565b801561198f5780601f106119665761010080835404028352916020019161198f565b820191905f5260205f20905b81548152906001019060200180831161197257829003601f168201915b505050505081526020016002820154815260200160038201548152505090505f816040015190505f8312156119da57826119c890612e22565b816119d391906127ef565b90506119e9565b82816119e69190612dba565b90505b611ab46001826119f99190612dba565b7f000000000000000000000000000000000000000000000000000000000000000073ffffffffffffffffffffffffffffffffffffffff1663313ce5676040518163ffffffff1660e01b8152600401602060405180830381865afa158015611a62573d5f5f3e3d5ffd5b505050506040513d601f19601f82011682018060405250810190611a869190612f5a565b600a611a9291906130b4565b8460600151611aa19190612dba565b600189611432909392919063ffffffff16565b935050505092915050565b611b3b848573ffffffffffffffffffffffffffffffffffffffff166323b872dd868686604051602401611af4939291906130fe565b604051602081830303815290604052915060e01b6020820180517bffffffffffffffffffffffffffffffffffffffffffffffffffffffff8381831617835250505050611bda565b50505050565b611bd781604051602401611b559190613133565b6040516020818303038152906040527f41304fac000000000000000000000000000000000000000000000000000000007bffffffffffffffffffffffffffffffffffffffffffffffffffffffff19166020820180517bffffffffffffffffffffffffffffffffffffffffffffffffffffffff8381831617835250505050611d92565b50565b5f5f60205f8451602086015f885af180611bf9576040513d5f823e3d81fd5b3d92505f519150505f8214611c12576001811415611c2d565b5f8473ffffffffffffffffffffffffffffffffffffffff163b145b15611c6f57836040517f5274afe7000000000000000000000000000000000000000000000000000000008152600401611c66919061216a565b60405180910390fd5b50505050565b5f60016002836003811115611c8d57611c8c613153565b5b611c979190613180565b60ff16149050919050565b5f8115159050919050565b5f5f83850290505f5f19858709828110838203039150505f8103611ce557838281611cdb57611cda612ef7565b5b0492505050611d8b565b808411611d0457611d03611cfe5f861460126011611dac565b611dc5565b5b5f8486880990508281118203915080830392505f855f038616905080860495508084049350600181825f0304019050808302841793505f600287600302189050808702600203810290508087026002038102905080870260020381029050808702600203810290508087026002038102905080870260020381029050808502955050505050505b9392505050565b611da981611da1611dd6611df5565b63ffffffff16565b50565b5f611db684611ca2565b82841802821890509392505050565b634e487b715f52806020526024601cfd5b5f6a636f6e736f6c652e6c6f6790505f5f835160208501845afa505050565b611e25819050919050565b60405180608001604052805f8152602001606081526020015f81526020015f81525090565b611e2d6131b0565b565b5f604051905090565b5f5ffd5b5f5ffd5b5f819050919050565b611e5281611e40565b8114611e5c575f5ffd5b50565b5f81359050611e6d81611e49565b92915050565b5f819050919050565b611e8581611e73565b8114611e8f575f5ffd5b50565b5f81359050611ea081611e7c565b92915050565b5f5f60408385031215611ebc57611ebb611e38565b5b5f611ec985828601611e5f565b9250506020611eda85828601611e92565b9150509250929050565b5f5f60408385031215611efa57611ef9611e38565b5b5f611f0785828601611e92565b9250506020611f1885828601611e5f565b9150509250929050565b611f2b81611e73565b82525050565b5f602082019050611f445f830184611f22565b92915050565b5f60208284031215611f5f57611f5e611e38565b5b5f611f6c84828501611e92565b91505092915050565b5f5ffd5b5f5ffd5b5f601f19601f8301169050919050565b7f4e487b71000000000000000000000000000000000000000000000000000000005f52604160045260245ffd5b611fc382611f7d565b810181811067ffffffffffffffff82111715611fe257611fe1611f8d565b5b80604052505050565b5f611ff4611e2f565b90506120008282611fba565b919050565b5f67ffffffffffffffff82111561201f5761201e611f8d565b5b61202882611f7d565b9050602081019050919050565b828183375f83830152505050565b5f61205561205084612005565b611feb565b90508281526020810184848401111561207157612070611f79565b5b61207c848285612035565b509392505050565b5f82601f83011261209857612097611f75565b5b81356120a8848260208601612043565b91505092915050565b5f602082840312156120c6576120c5611e38565b5b5f82013567ffffffffffffffff8111156120e3576120e2611e3c565b5b6120ef84828501612084565b91505092915050565b5f8115159050919050565b61210c816120f8565b82525050565b5f6020820190506121255f830184612103565b92915050565b5f73ffffffffffffffffffffffffffffffffffffffff82169050919050565b5f6121548261212b565b9050919050565b6121648161214a565b82525050565b5f60208201905061217d5f83018461215b565b92915050565b5f819050919050565b5f6121a66121a161219c8461212b565b612183565b61212b565b9050919050565b5f6121b78261218c565b9050919050565b5f6121c8826121ad565b9050919050565b6121d8816121be565b82525050565b5f6020820190506121f15f8301846121cf565b92915050565b5f6122018261214a565b9050919050565b612211816121f7565b811461221b575f5ffd5b50565b5f8135905061222c81612208565b92915050565b5f6020828403121561224757612246611e38565b5b5f6122548482850161221e565b91505092915050565b5f612267826121ad565b9050919050565b6122778161225d565b82525050565b5f6020820190506122905f83018461226e565b92915050565b5f602082840312156122ab576122aa611e38565b5b5f6122b884828501611e5f565b91505092915050565b6122ca81611e40565b82525050565b5f81519050919050565b5f82825260208201905092915050565b8281835e5f83830152505050565b5f612302826122d0565b61230c81856122da565b935061231c8185602086016122ea565b61232581611f7d565b840191505092915050565b5f6080820190506123435f8301876122c1565b818103602083015261235581866122f8565b90506123646040830185611f22565b6123716060830184611f22565b95945050505050565b5f5f5f6060848603121561239157612390611e38565b5b5f84013567ffffffffffffffff8111156123ae576123ad611e3c565b5b6123ba86828701612084565b935050602084013567ffffffffffffffff8111156123db576123da611e3c565b5b6123e786828701612084565b925050604084013567ffffffffffffffff81111561240857612407611e3c565b5b61241486828701612084565b9150509250925092565b6124278161214a565b8114612431575f5ffd5b50565b5f813590506124428161241e565b92915050565b5f5f6040838503121561245e5761245d611e38565b5b5f61246b85828601611e5f565b925050602061247c85828601612434565b9150509250929050565b5f61ffff82169050919050565b61249c81612486565b81146124a6575f5ffd5b50565b5f813590506124b781612493565b92915050565b5f602082840312156124d2576124d1611e38565b5b5f6124df848285016124a9565b91505092915050565b600481106124f4575f5ffd5b50565b5f81359050612505816124e8565b92915050565b5f5f5f6060848603121561252257612521611e38565b5b5f61252f86828701611e92565b935050602061254086828701611e5f565b9250506040612551868287016124f7565b9150509250925092565b61256481612486565b82525050565b5f60208201905061257d5f83018461255b565b92915050565b5f6020828403121561259857612597611e38565b5b5f6125a584828501612434565b91505092915050565b6125b781611e40565b82525050565b5f82825260208201905092915050565b5f6125d7826122d0565b6125e181856125bd565b93506125f18185602086016122ea565b6125fa81611f7d565b840191505092915050565b61260e81611e73565b82525050565b5f608083015f8301516126295f8601826125ae565b506020830151848203602086015261264182826125cd565b91505060408301516126566040860182612605565b5060608301516126696060860182612605565b508091505092915050565b5f6020820190508181035f83015261268c8184612614565b905092915050565b7f416d6f756e74206e6f742076616c7565000000000000000000000000000000005f82015250565b5f6126c86010836122da565b91506126d382612694565b602082019050919050565b5f6020820190508181035f8301526126f5816126bc565b9050919050565b5f60208201905061270f5f8301846122c1565b92915050565b61271e816120f8565b8114612728575f5ffd5b50565b5f8151905061273981612715565b92915050565b5f819050919050565b6127518161273f565b811461275b575f5ffd5b50565b5f8151905061276c81612748565b92915050565b5f5f5f6060848603121561278957612788611e38565b5b5f6127968682870161272b565b93505060206127a78682870161275e565b92505060406127b88682870161272b565b9150509250925092565b7f4e487b71000000000000000000000000000000000000000000000000000000005f52601160045260245ffd5b5f6127f982611e73565b915061280483611e73565b925082820390508181111561281c5761281b6127c2565b5b92915050565b5f6080820190506128355f83018761215b565b6128426020830186611f22565b61284f6040830185611f22565b61285c60608301846122c1565b95945050505050565b7f4e487b71000000000000000000000000000000000000000000000000000000005f52602260045260245ffd5b5f60028204905060018216806128a957607f821691505b6020821081036128bc576128bb612865565b5b50919050565b5f81905092915050565b5f6128d6826122d0565b6128e081856128c2565b93506128f08185602086016122ea565b80840191505092915050565b5f61290782846128cc565b915081905092915050565b7f47616d65206e6f742072656769737465726564000000000000000000000000005f82015250565b5f6129466013836122da565b915061295182612912565b602082019050919050565b5f6020820190508181035f8301526129738161293a565b9050919050565b5f6060820190508181035f83015261299281866122f8565b905081810360208301526129a681856122f8565b905081810360408301526129ba81846122f8565b9050949350505050565b7f506f6f6c20616c726561647920726567697374657265640000000000000000005f82015250565b5f6129f86017836122da565b9150612a03826129c4565b602082019050919050565b5f6020820190508181035f830152612a25816129ec565b9050919050565b5f819050815f5260205f209050919050565b5f6020601f8301049050919050565b5f82821b905092915050565b5f60088302612a887fffffffffffffffffffffffffffffffffffffffffffffffffffffffffffffffff82612a4d565b612a928683612a4d565b95508019841693508086168417925050509392505050565b5f612ac4612abf612aba84611e73565b612183565b611e73565b9050919050565b5f819050919050565b612add83612aaa565b612af1612ae982612acb565b848454612a59565b825550505050565b5f5f905090565b612b08612af9565b612b13818484612ad4565b505050565b5b81811015612b3657612b2b5f82612b00565b600181019050612b19565b5050565b601f821115612b7b57612b4c81612a2c565b612b5584612a3e565b81016020851015612b64578190505b612b78612b7085612a3e565b830182612b18565b50505b505050565b5f82821c905092915050565b5f612b9b5f1984600802612b80565b1980831691505092915050565b5f612bb38383612b8c565b9150826002028217905092915050565b612bcc826122d0565b67ffffffffffffffff811115612be557612be4611f8d565b5b612bef8254612892565b612bfa828285612b3a565b5f60209050601f831160018114612c2b575f8415612c19578287015190505b612c238582612ba8565b865550612c8a565b601f198416612c3986612a2c565b5f5b82811015612c6057848901518255600182019150602085019450602081019050612c3b565b86831015612c7d5784890151612c79601f891682612b8c565b8355505b6001600288020188555050505b505050505050565b5f6080820190508181035f830152612caa81876122f8565b90508181036020830152612cbe81866122f8565b90508181036040830152612cd281856122f8565b9050612ce160608301846122c1565b95945050505050565b7f416d6f756e742063616e6e6f74206265206c657373207468616e20314d0000005f82015250565b5f612d1e601d836122da565b9150612d2982612cea565b602082019050919050565b5f6020820190508181035f830152612d4b81612d12565b9050919050565b7f506f6f6c206e6f742061637469766500000000000000000000000000000000005f82015250565b5f612d86600f836122da565b9150612d9182612d52565b602082019050919050565b5f6020820190508181035f830152612db381612d7a565b9050919050565b5f612dc482611e73565b9150612dcf83611e73565b9250828201905080821115612de757612de66127c2565b5b92915050565b5f606082019050612e005f83018661215b565b612e0d6020830185611f22565b612e1a60408301846122c1565b949350505050565b5f612e2c8261273f565b91507f80000000000000000000000000000000000000000000000000000000000000008203612e5e57612e5d6127c2565b5b815f039050919050565b7f4465707420616d6f756e742076616c7565206e6f742076616c696400000000005f82015250565b5f612e9c601b836122da565b9150612ea782612e68565b602082019050919050565b5f6020820190508181035f830152612ec981612e90565b9050919050565b5f604082019050612ee35f83018561215b565b612ef06020830184611f22565b9392505050565b7f4e487b71000000000000000000000000000000000000000000000000000000005f52601260045260245ffd5b5f60ff82169050919050565b612f3981612f24565b8114612f43575f5ffd5b50565b5f81519050612f5481612f30565b92915050565b5f60208284031215612f6f57612f6e611e38565b5b5f612f7c84828501612f46565b91505092915050565b5f8160011c9050919050565b5f5f8291508390505b6001851115612fda57808604811115612fb657612fb56127c2565b5b6001851615612fc55780820291505b8081029050612fd385612f85565b9450612f9a565b94509492505050565b5f82612ff257600190506130ad565b81612fff575f90506130ad565b8160018114613015576002811461301f5761304e565b60019150506130ad565b60ff841115613031576130306127c2565b5b8360020a915084821115613048576130476127c2565b5b506130ad565b5060208310610133831016604e8410600b84101617156130835782820a90508381111561307e5761307d6127c2565b5b6130ad565b6130908484846001612f91565b925090508184048111156130a7576130a66127c2565b5b81810290505b9392505050565b5f6130be82611e73565b91506130c983612f24565b92506130f67fffffffffffffffffffffffffffffffffffffffffffffffffffffffffffffffff8484612fe3565b905092915050565b5f6060820190506131115f83018661215b565b61311e602083018561215b565b61312b6040830184611f22565b949350505050565b5f6020820190508181035f83015261314b81846122f8565b905092915050565b7f4e487b71000000000000000000000000000000000000000000000000000000005f52602160045260245ffd5b5f61318a82612f24565b915061319583612f24565b9250826131a5576131a4612ef7565b5b828206905092915050565b7f4e487b71000000000000000000000000000000000000000000000000000000005f52605160045260245ffdfea2646970667358221220a3eaa846859eedc5fa9b429a4457dc4c642ce743532bab76b9410b5d385d6cb364736f6c634300081c0033","linkReferences":{}},"methodIdentifiers":{"addGame(string)":"e89826ac","convertToAssets(uint256,bytes32)":"76baa894","convertToShares(uint256,bytes32,uint8)":"e49fd42b","createPool(string,string,string)":"b0ed4450","deposit(uint256,bytes32)":"c9630cb0","eBolt()":"71b2e027","feePerc()":"ef41ea7e","gamesRegistered(string)":"45e4487a","getPool(bytes32)":"f6c00927","oracle()":"7dc0d1d0","owner()":"8da5cb5b","poolInfo(bytes32)":"8cebd942","previewDeposit(uint256,bytes32)":"53370141","previewFee(uint256)":"35e856f2","previewWithdraw(uint256,bytes32)":"1c9cab2e","renounceOwnership()":"715018a6","setDevFee(uint16)":"e18cb4fe","setOracle(address)":"7adbf973","setTreasury(address)":"f0f44260","sharesByAddress(bytes32,address)":"b52228dd","transferOwnership(address)":"f2fde38b","treasury()":"61d027b3","usersRegistered(string)":"a160e32a","withdraw(bytes32,uint256)":"040cf020"},"id":56}