{"abi":[{"type":"constructor","inputs":[{"name":"_bolt","type":"address","internalType":"contract Bolt"},{"name":"_oracle","type":"address","internalType":"contract EStormOracle"},{"name":"_devaddr","type":"address","internalType":"address"}],"stateMutability":"nonpayable"},{"type":"function","name":"INITIAL_SHARES","inputs":[],"outputs":[{"name":"","type":"uint256","internalType":"uint256"}],"stateMutability":"view"},{"type":"function","name":"SCALE","inputs":[],"outputs":[{"name":"","type":"uint256","internalType":"uint256"}],"stateMutability":"view"},{"type":"function","name":"_convertToShares","inputs":[{"name":"_amount","type":"uint256","internalType":"uint256"},{"name":"_pid","type":"bytes32","internalType":"bytes32"},{"name":"rounding","type":"uint8","internalType":"enum Math.Rounding"}],"outputs":[{"name":"","type":"uint256","internalType":"uint256"}],"stateMutability":"view"},{"type":"function","name":"addGame","inputs":[{"name":"_game","type":"string","internalType":"string"}],"outputs":[],"stateMutability":"nonpayable"},{"type":"function","name":"bolt","inputs":[],"outputs":[{"name":"","type":"address","internalType":"contract Bolt"}],"stateMutability":"view"},{"type":"function","name":"convertToAssets","inputs":[{"name":"_shares","type":"uint256","internalType":"uint256"},{"name":"_pid","type":"bytes32","internalType":"bytes32"}],"outputs":[{"name":"","type":"uint256","internalType":"uint256"}],"stateMutability":"view"},{"type":"function","name":"createPool","inputs":[{"name":"_toCover","type":"uint8","internalType":"uint8"},{"name":"_toDistribute","type":"uint8","internalType":"uint8"},{"name":"_gameID","type":"string","internalType":"string"},{"name":"_challengeID","type":"string","internalType":"string"},{"name":"_userID","type":"string","internalType":"string"}],"outputs":[],"stateMutability":"nonpayable"},{"type":"function","name":"deposit","inputs":[{"name":"_amount","type":"uint256","internalType":"uint256"},{"name":"_pid","type":"bytes32","internalType":"bytes32"}],"outputs":[],"stateMutability":"nonpayable"},{"type":"function","name":"devaddr","inputs":[],"outputs":[{"name":"","type":"address","internalType":"address"}],"stateMutability":"view"},{"type":"function","name":"feePerc","inputs":[],"outputs":[{"name":"","type":"uint8","internalType":"uint8"}],"stateMutability":"view"},{"type":"function","name":"gamesRegistered","inputs":[{"name":"","type":"string","internalType":"string"}],"outputs":[{"name":"","type":"bool","internalType":"bool"}],"stateMutability":"view"},{"type":"function","name":"getPool","inputs":[{"name":"_pid","type":"bytes32","internalType":"bytes32"}],"outputs":[{"name":"","type":"tuple","internalType":"struct StakingContract.PoolInfo","components":[{"name":"id","type":"bytes32","internalType":"bytes32"},{"name":"toCover","type":"uint8","internalType":"uint8"},{"name":"toDistribute","type":"uint8","internalType":"uint8"},{"name":"userID","type":"string","internalType":"string"},{"name":"lastRewardUpdate","type":"uint256","internalType":"uint256"},{"name":"totalStaked","type":"uint256","internalType":"uint256"},{"name":"totalShares","type":"uint256","internalType":"uint256"}]}],"stateMutability":"view"},{"type":"function","name":"oracle","inputs":[],"outputs":[{"name":"","type":"address","internalType":"contract EStormOracle"}],"stateMutability":"view"},{"type":"function","name":"owner","inputs":[],"outputs":[{"name":"","type":"address","internalType":"address"}],"stateMutability":"view"},{"type":"function","name":"pause","inputs":[],"outputs":[],"stateMutability":"nonpayable"},{"type":"function","name":"paused","inputs":[],"outputs":[{"name":"","type":"bool","internalType":"bool"}],"stateMutability":"view"},{"type":"function","name":"poolInfo","inputs":[{"name":"","type":"bytes32","internalType":"bytes32"}],"outputs":[{"name":"id","type":"bytes32","internalType":"bytes32"},{"name":"toCover","type":"uint8","internalType":"uint8"},{"name":"toDistribute","type":"uint8","internalType":"uint8"},{"name":"userID","type":"string","internalType":"string"},{"name":"lastRewardUpdate","type":"uint256","internalType":"uint256"},{"name":"totalStaked","type":"uint256","internalType":"uint256"},{"name":"totalShares","type":"uint256","internalType":"uint256"}],"stateMutability":"view"},{"type":"function","name":"previewDeposit","inputs":[{"name":"_amount","type":"uint256","internalType":"uint256"},{"name":"_pid","type":"bytes32","internalType":"bytes32"}],"outputs":[{"name":"","type":"uint256","internalType":"uint256"}],"stateMutability":"view"},{"type":"function","name":"previewFee","inputs":[{"name":"_amount","type":"uint256","internalType":"uint256"},{"name":"_pid","type":"bytes32","internalType":"bytes32"}],"outputs":[{"name":"","type":"uint256","internalType":"uint256"}],"stateMutability":"view"},{"type":"function","name":"previewWithdraw","inputs":[{"name":"_amount","type":"uint256","internalType":"uint256"},{"name":"_pid","type":"bytes32","internalType":"bytes32"}],"outputs":[{"name":"","type":"uint256","internalType":"uint256"}],"stateMutability":"view"},{"type":"function","name":"renounceOwnership","inputs":[],"outputs":[],"stateMutability":"nonpayable"},{"type":"function","name":"setDevAddress","inputs":[{"name":"_addr","type":"address","internalType":"address"}],"outputs":[],"stateMutability":"nonpayable"},{"type":"function","name":"setDevFee","inputs":[{"name":"_newFee","type":"uint8","internalType":"uint8"}],"outputs":[],"stateMutability":"nonpayable"},{"type":"function","name":"setOracle","inputs":[{"name":"_oracle","type":"address","internalType":"contract EStormOracle"}],"outputs":[],"stateMutability":"nonpayable"},{"type":"function","name":"sharesByAddress","inputs":[{"name":"","type":"bytes32","internalType":"bytes32"},{"name":"","type":"address","internalType":"address"}],"outputs":[{"name":"","type":"uint256","internalType":"uint256"}],"stateMutability":"view"},{"type":"function","name":"transferOwnership","inputs":[{"name":"newOwner","type":"address","internalType":"address"}],"outputs":[],"stateMutability":"nonpayable"},{"type":"function","name":"unpause","inputs":[],"outputs":[],"stateMutability":"nonpayable"},{"type":"function","name":"usersRegistered","inputs":[{"name":"","type":"string","internalType":"string"}],"outputs":[{"name":"","type":"bool","internalType":"bool"}],"stateMutability":"view"},{"type":"function","name":"withdraw","inputs":[{"name":"_pid","type":"bytes32","internalType":"bytes32"},{"name":"_amount","type":"uint256","internalType":"uint256"}],"outputs":[],"stateMutability":"nonpayable"},{"type":"event","name":"Deposit","inputs":[{"name":"staker","type":"address","indexed":false,"internalType":"address"},{"name":"amount","type":"uint256","indexed":false,"internalType":"uint256"},{"name":"pid","type":"bytes32","indexed":false,"internalType":"bytes32"}],"anonymous":false},{"type":"event","name":"OwnershipTransferred","inputs":[{"name":"previousOwner","type":"address","indexed":true,"internalType":"address"},{"name":"newOwner","type":"address","indexed":true,"internalType":"address"}],"anonymous":false},{"type":"event","name":"Paused","inputs":[{"name":"account","type":"address","indexed":false,"internalType":"address"}],"anonymous":false},{"type":"event","name":"PoolCreated","inputs":[{"name":"gameID","type":"string","indexed":false,"internalType":"string"},{"name":"challengeID","type":"string","indexed":false,"internalType":"string"},{"name":"userID","type":"string","indexed":false,"internalType":"string"},{"name":"toCover","type":"uint8","indexed":false,"internalType":"uint8"},{"name":"toDistribute","type":"uint8","indexed":false,"internalType":"uint8"}],"anonymous":false},{"type":"event","name":"Unpaused","inputs":[{"name":"account","type":"address","indexed":false,"internalType":"address"}],"anonymous":false},{"type":"event","name":"Withdraw","inputs":[{"name":"staker","type":"address","indexed":false,"internalType":"address"},{"name":"amount","type":"uint256","indexed":false,"internalType":"uint256"},{"name":"fee","type":"uint256","indexed":false,"internalType":"uint256"},{"name":"pid","type":"bytes32","indexed":false,"internalType":"bytes32"}],"anonymous":false},{"type":"error","name":"EnforcedPause","inputs":[]},{"type":"error","name":"ExpectedPause","inputs":[]},{"type":"error","name":"OwnableInvalidOwner","inputs":[{"name":"owner","type":"address","internalType":"address"}]},{"type":"error","name":"OwnableUnauthorizedAccount","inputs":[{"name":"account","type":"address","internalType":"address"}]}],"bytecode":{"object":"0x60a0604052600260055f6101000a81548160ff021916908360ff16021790555034801561002a575f5ffd5b50604051613886380380613886833981810160405281019061004c919061034d565b61005a6101af60201b60201c565b5f5f5f6101000a81548160ff0219169083151502179055505f73ffffffffffffffffffffffffffffffffffffffff168173ffffffffffffffffffffffffffffffffffffffff16036100e2575f6040517f1e4fbdf70000000000000000000000000000000000000000000000000000000081526004016100d991906103ac565b60405180910390fd5b6100f1816101b660201b60201c565b508273ffffffffffffffffffffffffffffffffffffffff1660808173ffffffffffffffffffffffffffffffffffffffff16815250508160065f6101000a81548173ffffffffffffffffffffffffffffffffffffffff021916908373ffffffffffffffffffffffffffffffffffffffff16021790555080600560016101000a81548173ffffffffffffffffffffffffffffffffffffffff021916908373ffffffffffffffffffffffffffffffffffffffff1602179055505050506103c5565b5f33905090565b5f5f60019054906101000a900473ffffffffffffffffffffffffffffffffffffffff169050815f60016101000a81548173ffffffffffffffffffffffffffffffffffffffff021916908373ffffffffffffffffffffffffffffffffffffffff1602179055508173ffffffffffffffffffffffffffffffffffffffff168173ffffffffffffffffffffffffffffffffffffffff167f8be0079c531659141344cd1fd0a4f28419497f9722a3daafe3b4186f6b6457e060405160405180910390a35050565b5f5ffd5b5f73ffffffffffffffffffffffffffffffffffffffff82169050919050565b5f6102a68261027d565b9050919050565b5f6102b78261029c565b9050919050565b6102c7816102ad565b81146102d1575f5ffd5b50565b5f815190506102e2816102be565b92915050565b5f6102f28261029c565b9050919050565b610302816102e8565b811461030c575f5ffd5b50565b5f8151905061031d816102f9565b92915050565b61032c8161029c565b8114610336575f5ffd5b50565b5f8151905061034781610323565b92915050565b5f5f5f6060848603121561036457610363610279565b5b5f610371868287016102d4565b93505060206103828682870161030f565b925050604061039386828701610339565b9150509250925092565b6103a68161029c565b82525050565b5f6020820190506103bf5f83018461039d565b92915050565b60805161348d6103f95f395f81816109cc01528181611095015281816114c8015281816116030152611a93015261348d5ff3fe608060405234801561000f575f5ffd5b50600436106101cd575f3560e01c806387f8fc5711610102578063d0d41fe1116100a0578063eced55261161006f578063eced55261461051d578063ef41ea7e1461053b578063f2fde38b14610559578063f6c0092714610575576101cd565b8063d0d41fe1146104a9578063d1dfc1cf146104c5578063d49e77cd146104e3578063e89826ac14610501576101cd565b8063a160e32a116100dc578063a160e32a1461040f578063b155851d1461043f578063b52228dd1461045d578063c9630cb01461048d576101cd565b806387f8fc571461039f5780638cebd942146103bb5780638da5cb5b146103f1576101cd565b8063565d21fa1161016f57806376baa8941161014957806376baa8941461032b5780637adbf9731461035b5780637dc0d1d0146103775780638456cb5914610395576101cd565b8063565d21fa146102d35780635c975abb14610303578063715018a614610321576101cd565b80631c9cab2e116101ab5780631c9cab2e146102395780633f4ba83a1461026957806345e4487a1461027357806353370141146102a3576101cd565b8063040cf020146101d1578063093a7898146101ed5780631c8d99581461021d575b5f5ffd5b6101eb60048036038101906101e691906120a8565b6105a5565b005b61020760048036038101906102029190612109565b6107de565b6040516102149190612168565b60405180910390f35b610237600480360381019061023291906122f3565b610a9d565b005b610253600480360381019061024e91906123be565b610d19565b6040516102609190612168565b60405180910390f35b610271610de5565b005b61028d600480360381019061028891906123fc565b610df7565b60405161029a919061245d565b60405180910390f35b6102bd60048036038101906102b891906123be565b610e2c565b6040516102ca9190612168565b60405180910390f35b6102ed60048036038101906102e891906123be565b610e40565b6040516102fa9190612168565b60405180910390f35b61030b610e73565b604051610318919061245d565b60405180910390f35b610329610e87565b005b610345600480360381019061034091906123be565b610e9a565b6040516103529190612168565b60405180910390f35b610375600480360381019061037091906124e1565b611159565b005b61037f6111a4565b60405161038c9190612567565b60405180910390f35b61039d6111c9565b005b6103b960048036038101906103b49190612580565b6111db565b005b6103d560048036038101906103d091906125ab565b611200565b6040516103e89796959493929190612654565b60405180910390f35b6103f96112dd565b60405161040691906126d7565b60405180910390f35b610429600480360381019061042491906123fc565b611305565b604051610436919061245d565b60405180910390f35b61044761133a565b6040516104549190612168565b60405180910390f35b6104776004803603810190610472919061271a565b611359565b6040516104849190612168565b60405180910390f35b6104a760048036038101906104a291906123be565b611379565b005b6104c360048036038101906104be9190612758565b6115b5565b005b6104cd611601565b6040516104da91906127a3565b60405180910390f35b6104eb611625565b6040516104f891906126d7565b60405180910390f35b61051b600480360381019061051691906123fc565b61164b565b005b61052561168c565b6040516105329190612168565b60405180910390f35b61054361169d565b60405161055091906127bc565b60405180910390f35b610573600480360381019061056e9190612758565b6116af565b005b61058f600480360381019061058a91906125ab565b611733565b60405161059c91906128e3565b60405180910390f35b5f5f5f60065f9054906101000a900473ffffffffffffffffffffffffffffffffffffffff1673ffffffffffffffffffffffffffffffffffffffff1663f6c00927866040518263ffffffff1660e01b81526004016106029190612903565b606060405180830381865afa15801561061d573d5f5f3e3d5ffd5b505050506040513d601f19601f820116820180604052508101906106419190612979565b92509250925082610687576040517f08c379a000000000000000000000000000000000000000000000000000000000815260040161067e90612a13565b60405180910390fd5b5f6106928587610d19565b90505f61069f8688610e40565b905082156106b2576106b1848861184e565b5b60045f8881526020019081526020015f205f6106cc6119c4565b73ffffffffffffffffffffffffffffffffffffffff1673ffffffffffffffffffffffffffffffffffffffff1681526020019081526020015f2054821115610748576040517f08c379a000000000000000000000000000000000000000000000000000000000815260040161073f90612a7b565b60405180910390fd5b610754878784846119cb565b610780600560019054906101000a900473ffffffffffffffffffffffffffffffffffffffff1682611a91565b61079161078b6119c4565b87611a91565b7f80bd7e915c065f64ef8e41fa6334d4a2b752591cb4d462c204b8e2449eb0a1f76107ba6119c4565b87838a6040516107cd9493929190612a99565b60405180910390a150505050505050565b5f5f60065f9054906101000a900473ffffffffffffffffffffffffffffffffffffffff1673ffffffffffffffffffffffffffffffffffffffff1663f6c00927856040518263ffffffff1660e01b815260040161083a9190612903565b606060405180830381865afa158015610855573d5f5f3e3d5ffd5b505050506040513d601f19601f820116820180604052508101906108799190612979565b509150505f60015f8681526020019081526020015f206040518060e00160405290815f8201548152602001600182015f9054906101000a900460ff1660ff1660ff1681526020016001820160019054906101000a900460ff1660ff1660ff1681526020016002820180546108ec90612b09565b80601f016020809104026020016040519081016040528092919081815260200182805461091890612b09565b80156109635780601f1061093a57610100808354040283529160200191610963565b820191905f5260205f20905b81548152906001019060200180831161094657829003601f168201915b50505050508152602001600382015481526020016004820154815260200160058201548152505090505f8160a0015190505f8312156109b857826109a690612b66565b816109b19190612bac565b90506109c7565b82816109c49190612bdf565b90505b610a917f000000000000000000000000000000000000000000000000000000000000000073ffffffffffffffffffffffffffffffffffffffff1663313ce5676040518163ffffffff1660e01b8152600401602060405180830381865afa158015610a33573d5f5f3e3d5ffd5b505050506040513d601f19601f82011682018060405250810190610a579190612c26565b600a610a639190612d80565b8360c00151610a729190612bdf565b600183610a7f9190612bdf565b878a611b1d909392919063ffffffff16565b93505050509392505050565b610aa5611b6a565b600283604051610ab59190612e04565b90815260200160405180910390205f9054906101000a900460ff16610b0f576040517f08c379a0000000000000000000000000000000000000000000000000000000008152600401610b0690612e64565b60405180910390fd5b600381604051610b1f9190612e04565b90815260200160405180910390205f9054906101000a900460ff16610b75576001600382604051610b509190612e04565b90815260200160405180910390205f6101000a81548160ff0219169083151502179055505b5f838383604051602001610b8b93929190612e82565b6040516020818303038152906040528051906020012090505f60015f8381526020019081526020015f206001015f9054906101000a900460ff1660ff1614610c08576040517f08c379a0000000000000000000000000000000000000000000000000000000008152600401610bff90612f16565b60405180910390fd5b6040518060e001604052808281526020018760ff1681526020018660ff1681526020018381526020014281526020015f81526020015f81525060015f8381526020019081526020015f205f820151815f01556020820151816001015f6101000a81548160ff021916908360ff16021790555060408201518160010160016101000a81548160ff021916908360ff1602179055506060820151816002019081610cb091906130cb565b506080820151816003015560a0820151816004015560c082015181600501559050507f6f6ea0a766c40ee6902e27824c9f197c6951e1bb32047945c4a21d778ff418468484848989604051610d0995949392919061319a565b60405180910390a1505050505050565b5f5f610d27848460016107de565b905060045f8481526020019081526020015f205f610d436119c4565b73ffffffffffffffffffffffffffffffffffffffff1673ffffffffffffffffffffffffffffffffffffffff1681526020019081526020015f2054811115610ddb5760045f8481526020019081526020015f205f610d9e6119c4565b73ffffffffffffffffffffffffffffffffffffffff1673ffffffffffffffffffffffffffffffffffffffff1681526020019081526020015f205490505b8091505092915050565b610ded611b6a565b610df5611bf1565b565b6002818051602081018201805184825260208301602085012081835280955050505050505f915054906101000a900460ff1681565b5f610e3883835f6107de565b905092915050565b5f610e6b60055f9054906101000a900460ff1660ff166064600186611b1d909392919063ffffffff16565b905092915050565b5f5f5f9054906101000a900460ff16905090565b610e8f611b6a565b610e985f611c51565b565b5f5f60065f9054906101000a900473ffffffffffffffffffffffffffffffffffffffff1673ffffffffffffffffffffffffffffffffffffffff1663f6c00927846040518263ffffffff1660e01b8152600401610ef69190612903565b606060405180830381865afa158015610f11573d5f5f3e3d5ffd5b505050506040513d601f19601f82011682018060405250810190610f359190612979565b509150505f60015f8581526020019081526020015f206040518060e00160405290815f8201548152602001600182015f9054906101000a900460ff1660ff1660ff1681526020016001820160019054906101000a900460ff1660ff1660ff168152602001600282018054610fa890612b09565b80601f0160208091040260200160405190810160405280929190818152602001828054610fd490612b09565b801561101f5780601f10610ff65761010080835404028352916020019161101f565b820191905f5260205f20905b81548152906001019060200180831161100257829003601f168201915b50505050508152602001600382015481526020016004820154815260200160058201548152505090505f8160a0015190505f831215611074578261106290612b66565b8161106d9190612bac565b9050611083565b82816110809190612bdf565b90505b61114e6001826110939190612bdf565b7f000000000000000000000000000000000000000000000000000000000000000073ffffffffffffffffffffffffffffffffffffffff1663313ce5676040518163ffffffff1660e01b8152600401602060405180830381865afa1580156110fc573d5f5f3e3d5ffd5b505050506040513d601f19601f820116820180604052508101906111209190612c26565b600a61112c9190612d80565b8460c0015161113b9190612bdf565b600189611b1d909392919063ffffffff16565b935050505092915050565b611161611b6a565b8060065f6101000a81548173ffffffffffffffffffffffffffffffffffffffff021916908373ffffffffffffffffffffffffffffffffffffffff16021790555050565b60065f9054906101000a900473ffffffffffffffffffffffffffffffffffffffff1681565b6111d1611b6a565b6111d9611d14565b565b6111e3611b6a565b8060055f6101000a81548160ff021916908360ff16021790555050565b6001602052805f5260405f205f91509050805f015490806001015f9054906101000a900460ff16908060010160019054906101000a900460ff169080600201805461124a90612b09565b80601f016020809104026020016040519081016040528092919081815260200182805461127690612b09565b80156112c15780601f10611298576101008083540402835291602001916112c1565b820191905f5260205f20905b8154815290600101906020018083116112a457829003601f168201915b5050505050908060030154908060040154908060050154905087565b5f5f60019054906101000a900473ffffffffffffffffffffffffffffffffffffffff16905090565b6003818051602081018201805184825260208301602085012081835280955050505050505f915054906101000a900460ff1681565b6c0c9f2c9cd04674edea40000000620186a06113569190613200565b81565b6004602052815f5260405f20602052805f5260405f205f91509150505481565b5f82116113bb576040517f08c379a00000000000000000000000000000000000000000000000000000000081526004016113b29061328b565b60405180910390fd5b5f5f5f60065f9054906101000a900473ffffffffffffffffffffffffffffffffffffffff1673ffffffffffffffffffffffffffffffffffffffff1663f6c00927856040518263ffffffff1660e01b81526004016114189190612903565b606060405180830381865afa158015611433573d5f5f3e3d5ffd5b505050506040513d601f19601f820116820180604052508101906114579190612979565b9250925092508261149d576040517f08c379a000000000000000000000000000000000000000000000000000000000815260040161149490612a13565b60405180910390fd5b5f6114a88686610e2c565b905081156114bb576114ba838661184e565b5b6114c6858783611d75565b7f000000000000000000000000000000000000000000000000000000000000000073ffffffffffffffffffffffffffffffffffffffff166323b872dd61150a6119c4565b30896040518463ffffffff1660e01b815260040161152a939291906132a9565b6020604051808303815f875af1158015611546573d5f5f3e3d5ffd5b505050506040513d601f19601f8201168201806040525081019061156a91906132de565b507f1a771fe656018364a9369da21954bb3081cb08b0196c27e43ca59c7cae8727376115946119c4565b87876040516115a593929190613309565b60405180910390a1505050505050565b6115bd611b6a565b80600560016101000a81548173ffffffffffffffffffffffffffffffffffffffff021916908373ffffffffffffffffffffffffffffffffffffffff16021790555050565b7f000000000000000000000000000000000000000000000000000000000000000081565b600560019054906101000a900473ffffffffffffffffffffffffffffffffffffffff1681565b611653611b6a565b60016002826040516116659190612e04565b90815260200160405180910390205f6101000a81548160ff02191690831515021790555050565b6c0c9f2c9cd04674edea4000000081565b60055f9054906101000a900460ff1681565b6116b7611b6a565b5f73ffffffffffffffffffffffffffffffffffffffff168173ffffffffffffffffffffffffffffffffffffffff1603611727575f6040517f1e4fbdf700000000000000000000000000000000000000000000000000000000815260040161171e91906126d7565b60405180910390fd5b61173081611c51565b50565b61173b611ff4565b60015f8381526020019081526020015f206040518060e00160405290815f8201548152602001600182015f9054906101000a900460ff1660ff1660ff1681526020016001820160019054906101000a900460ff1660ff1660ff1681526020016002820180546117a990612b09565b80601f01602080910402602001604051908101604052809291908181526020018280546117d590612b09565b80156118205780601f106117f757610100808354040283529160200191611820565b820191905f5260205f20905b81548152906001019060200180831161180357829003601f168201915b5050505050815260200160038201548152602001600482015481526020016005820154815250509050919050565b5f60015f8381526020019081526020015f2090505f8313156118935782816004015f82825461187d9190612bdf565b9250508190555061188e3084611a91565b611938565b5f831215611937575f836118a690612b66565b905080826004015410156118ef576040517f08c379a00000000000000000000000000000000000000000000000000000000081526004016118e690613388565b60405180910390fd5b80826004015f8282546119029190612bac565b92505081905550611935600560019054906101000a900473ffffffffffffffffffffffffffffffffffffffff1682611a91565b505b5b60065f9054906101000a900473ffffffffffffffffffffffffffffffffffffffff1673ffffffffffffffffffffffffffffffffffffffff1663dd8d2f2b836040518263ffffffff1660e01b81526004016119929190612903565b5f604051808303815f87803b1580156119a9575f5ffd5b505af11580156119bb573d5f5f3e3d5ffd5b50505050505050565b5f33905090565b5f60015f8681526020019081526020015f20905083816004015f8282546119f29190612bac565b925050819055508184611a059190612bac565b935082816005015f828254611a1a9190612bac565b925050819055508260045f8781526020019081526020015f205f611a3c6119c4565b73ffffffffffffffffffffffffffffffffffffffff1673ffffffffffffffffffffffffffffffffffffffff1681526020019081526020015f205f828254611a839190612bac565b925050819055505050505050565b7f000000000000000000000000000000000000000000000000000000000000000073ffffffffffffffffffffffffffffffffffffffff1663afc822dc83836040518363ffffffff1660e01b8152600401611aec9291906133a6565b5f604051808303815f87803b158015611b03575f5ffd5b505af1158015611b15573d5f5f3e3d5ffd5b505050505050565b5f611b4b611b2a83611e2c565b8015611b4657505f8480611b4157611b406133cd565b5b868809115b611e59565b611b56868686611e64565b611b609190612bdf565b9050949350505050565b611b726119c4565b73ffffffffffffffffffffffffffffffffffffffff16611b906112dd565b73ffffffffffffffffffffffffffffffffffffffff1614611bef57611bb36119c4565b6040517f118cdaa7000000000000000000000000000000000000000000000000000000008152600401611be691906126d7565b60405180910390fd5b565b611bf9611f49565b5f5f5f6101000a81548160ff0219169083151502179055507f5db9ee0a495bf2e6ff9c91a7834c1ba4fdd244a5e8aa4e537bd38aeae4b073aa611c3a6119c4565b604051611c4791906126d7565b60405180910390a1565b5f5f60019054906101000a900473ffffffffffffffffffffffffffffffffffffffff169050815f60016101000a81548173ffffffffffffffffffffffffffffffffffffffff021916908373ffffffffffffffffffffffffffffffffffffffff1602179055508173ffffffffffffffffffffffffffffffffffffffff168173ffffffffffffffffffffffffffffffffffffffff167f8be0079c531659141344cd1fd0a4f28419497f9722a3daafe3b4186f6b6457e060405160405180910390a35050565b611d1c611f89565b60015f5f6101000a81548160ff0219169083151502179055507f62e78cea01bee320cd4e420270b5ea74000d11b0c9f74754ebdbfc544b05a258611d5e6119c4565b604051611d6b91906126d7565b60405180910390a1565b5f60015f8581526020019081526020015f20905082816004015f828254611d9c9190612bdf565b9250508190555081816005015f828254611db69190612bdf565b925050819055508160045f8681526020019081526020015f205f611dd86119c4565b73ffffffffffffffffffffffffffffffffffffffff1673ffffffffffffffffffffffffffffffffffffffff1681526020019081526020015f205f828254611e1f9190612bdf565b9250508190555050505050565b5f60016002836003811115611e4457611e436133fa565b5b611e4e9190613427565b60ff16149050919050565b5f8115159050919050565b5f5f83850290505f5f19858709828110838203039150505f8103611e9c57838281611e9257611e916133cd565b5b0492505050611f42565b808411611ebb57611eba611eb55f861460126011611fca565b611fe3565b5b5f8486880990508281118203915080830392505f855f038616905080860495508084049350600181825f0304019050808302841793505f600287600302189050808702600203810290508087026002038102905080870260020381029050808702600203810290508087026002038102905080870260020381029050808502955050505050505b9392505050565b611f51610e73565b611f87576040517f8dfc202b00000000000000000000000000000000000000000000000000000000815260040160405180910390fd5b565b611f91610e73565b15611fc8576040517fd93c066500000000000000000000000000000000000000000000000000000000815260040160405180910390fd5b565b5f611fd484611e59565b82841802821890509392505050565b634e487b715f52806020526024601cfd5b6040518060e001604052805f81526020015f60ff1681526020015f60ff168152602001606081526020015f81526020015f81526020015f81525090565b5f604051905090565b5f5ffd5b5f5ffd5b5f819050919050565b61205481612042565b811461205e575f5ffd5b50565b5f8135905061206f8161204b565b92915050565b5f819050919050565b61208781612075565b8114612091575f5ffd5b50565b5f813590506120a28161207e565b92915050565b5f5f604083850312156120be576120bd61203a565b5b5f6120cb85828601612061565b92505060206120dc85828601612094565b9150509250929050565b600481106120f2575f5ffd5b50565b5f81359050612103816120e6565b92915050565b5f5f5f606084860312156121205761211f61203a565b5b5f61212d86828701612094565b935050602061213e86828701612061565b925050604061214f868287016120f5565b9150509250925092565b61216281612075565b82525050565b5f60208201905061217b5f830184612159565b92915050565b5f60ff82169050919050565b61219681612181565b81146121a0575f5ffd5b50565b5f813590506121b18161218d565b92915050565b5f5ffd5b5f5ffd5b5f601f19601f8301169050919050565b7f4e487b71000000000000000000000000000000000000000000000000000000005f52604160045260245ffd5b612205826121bf565b810181811067ffffffffffffffff82111715612224576122236121cf565b5b80604052505050565b5f612236612031565b905061224282826121fc565b919050565b5f67ffffffffffffffff821115612261576122606121cf565b5b61226a826121bf565b9050602081019050919050565b828183375f83830152505050565b5f61229761229284612247565b61222d565b9050828152602081018484840111156122b3576122b26121bb565b5b6122be848285612277565b509392505050565b5f82601f8301126122da576122d96121b7565b5b81356122ea848260208601612285565b91505092915050565b5f5f5f5f5f60a0868803121561230c5761230b61203a565b5b5f612319888289016121a3565b955050602061232a888289016121a3565b945050604086013567ffffffffffffffff81111561234b5761234a61203e565b5b612357888289016122c6565b935050606086013567ffffffffffffffff8111156123785761237761203e565b5b612384888289016122c6565b925050608086013567ffffffffffffffff8111156123a5576123a461203e565b5b6123b1888289016122c6565b9150509295509295909350565b5f5f604083850312156123d4576123d361203a565b5b5f6123e185828601612094565b92505060206123f285828601612061565b9150509250929050565b5f602082840312156124115761241061203a565b5b5f82013567ffffffffffffffff81111561242e5761242d61203e565b5b61243a848285016122c6565b91505092915050565b5f8115159050919050565b61245781612443565b82525050565b5f6020820190506124705f83018461244e565b92915050565b5f73ffffffffffffffffffffffffffffffffffffffff82169050919050565b5f61249f82612476565b9050919050565b5f6124b082612495565b9050919050565b6124c0816124a6565b81146124ca575f5ffd5b50565b5f813590506124db816124b7565b92915050565b5f602082840312156124f6576124f561203a565b5b5f612503848285016124cd565b91505092915050565b5f819050919050565b5f61252f61252a61252584612476565b61250c565b612476565b9050919050565b5f61254082612515565b9050919050565b5f61255182612536565b9050919050565b61256181612547565b82525050565b5f60208201905061257a5f830184612558565b92915050565b5f602082840312156125955761259461203a565b5b5f6125a2848285016121a3565b91505092915050565b5f602082840312156125c0576125bf61203a565b5b5f6125cd84828501612061565b91505092915050565b6125df81612042565b82525050565b6125ee81612181565b82525050565b5f81519050919050565b5f82825260208201905092915050565b8281835e5f83830152505050565b5f612626826125f4565b61263081856125fe565b935061264081856020860161260e565b612649816121bf565b840191505092915050565b5f60e0820190506126675f83018a6125d6565b61267460208301896125e5565b61268160408301886125e5565b8181036060830152612693818761261c565b90506126a26080830186612159565b6126af60a0830185612159565b6126bc60c0830184612159565b98975050505050505050565b6126d181612495565b82525050565b5f6020820190506126ea5f8301846126c8565b92915050565b6126f981612495565b8114612703575f5ffd5b50565b5f81359050612714816126f0565b92915050565b5f5f604083850312156127305761272f61203a565b5b5f61273d85828601612061565b925050602061274e85828601612706565b9150509250929050565b5f6020828403121561276d5761276c61203a565b5b5f61277a84828501612706565b91505092915050565b5f61278d82612536565b9050919050565b61279d81612783565b82525050565b5f6020820190506127b65f830184612794565b92915050565b5f6020820190506127cf5f8301846125e5565b92915050565b6127de81612042565b82525050565b6127ed81612181565b82525050565b5f82825260208201905092915050565b5f61280d826125f4565b61281781856127f3565b935061282781856020860161260e565b612830816121bf565b840191505092915050565b61284481612075565b82525050565b5f60e083015f83015161285f5f8601826127d5565b50602083015161287260208601826127e4565b50604083015161288560408601826127e4565b506060830151848203606086015261289d8282612803565b91505060808301516128b2608086018261283b565b5060a08301516128c560a086018261283b565b5060c08301516128d860c086018261283b565b508091505092915050565b5f6020820190508181035f8301526128fb818461284a565b905092915050565b5f6020820190506129165f8301846125d6565b92915050565b61292581612443565b811461292f575f5ffd5b50565b5f815190506129408161291c565b92915050565b5f819050919050565b61295881612946565b8114612962575f5ffd5b50565b5f815190506129738161294f565b92915050565b5f5f5f606084860312156129905761298f61203a565b5b5f61299d86828701612932565b93505060206129ae86828701612965565b92505060406129bf86828701612932565b9150509250925092565b7f506f6f6c206e6f742061637469766500000000000000000000000000000000005f82015250565b5f6129fd600f836125fe565b9150612a08826129c9565b602082019050919050565b5f6020820190508181035f830152612a2a816129f1565b9050919050565b7f53686172657320616d6f756e74206e6f742076616c69640000000000000000005f82015250565b5f612a656017836125fe565b9150612a7082612a31565b602082019050919050565b5f6020820190508181035f830152612a9281612a59565b9050919050565b5f608082019050612aac5f8301876126c8565b612ab96020830186612159565b612ac66040830185612159565b612ad360608301846125d6565b95945050505050565b7f4e487b71000000000000000000000000000000000000000000000000000000005f52602260045260245ffd5b5f6002820490506001821680612b2057607f821691505b602082108103612b3357612b32612adc565b5b50919050565b7f4e487b71000000000000000000000000000000000000000000000000000000005f52601160045260245ffd5b5f612b7082612946565b91507f80000000000000000000000000000000000000000000000000000000000000008203612ba257612ba1612b39565b5b815f039050919050565b5f612bb682612075565b9150612bc183612075565b9250828203905081811115612bd957612bd8612b39565b5b92915050565b5f612be982612075565b9150612bf483612075565b9250828201905080821115612c0c57612c0b612b39565b5b92915050565b5f81519050612c208161218d565b92915050565b5f60208284031215612c3b57612c3a61203a565b5b5f612c4884828501612c12565b91505092915050565b5f8160011c9050919050565b5f5f8291508390505b6001851115612ca657808604811115612c8257612c81612b39565b5b6001851615612c915780820291505b8081029050612c9f85612c51565b9450612c66565b94509492505050565b5f82612cbe5760019050612d79565b81612ccb575f9050612d79565b8160018114612ce15760028114612ceb57612d1a565b6001915050612d79565b60ff841115612cfd57612cfc612b39565b5b8360020a915084821115612d1457612d13612b39565b5b50612d79565b5060208310610133831016604e8410600b8410161715612d4f5782820a905083811115612d4a57612d49612b39565b5b612d79565b612d5c8484846001612c5d565b92509050818404811115612d7357612d72612b39565b5b81810290505b9392505050565b5f612d8a82612075565b9150612d9583612181565b9250612dc27fffffffffffffffffffffffffffffffffffffffffffffffffffffffffffffffff8484612caf565b905092915050565b5f81905092915050565b5f612dde826125f4565b612de88185612dca565b9350612df881856020860161260e565b80840191505092915050565b5f612e0f8284612dd4565b915081905092915050565b7f47616d65206e6f742072656769737465726564000000000000000000000000005f82015250565b5f612e4e6013836125fe565b9150612e5982612e1a565b602082019050919050565b5f6020820190508181035f830152612e7b81612e42565b9050919050565b5f6060820190508181035f830152612e9a818661261c565b90508181036020830152612eae818561261c565b90508181036040830152612ec2818461261c565b9050949350505050565b7f506f6f6c20616c726561647920657869737473000000000000000000000000005f82015250565b5f612f006013836125fe565b9150612f0b82612ecc565b602082019050919050565b5f6020820190508181035f830152612f2d81612ef4565b9050919050565b5f819050815f5260205f209050919050565b5f6020601f8301049050919050565b5f82821b905092915050565b5f60088302612f907fffffffffffffffffffffffffffffffffffffffffffffffffffffffffffffffff82612f55565b612f9a8683612f55565b95508019841693508086168417925050509392505050565b5f612fcc612fc7612fc284612075565b61250c565b612075565b9050919050565b5f819050919050565b612fe583612fb2565b612ff9612ff182612fd3565b848454612f61565b825550505050565b5f5f905090565b613010613001565b61301b818484612fdc565b505050565b5b8181101561303e576130335f82613008565b600181019050613021565b5050565b601f8211156130835761305481612f34565b61305d84612f46565b8101602085101561306c578190505b61308061307885612f46565b830182613020565b50505b505050565b5f82821c905092915050565b5f6130a35f1984600802613088565b1980831691505092915050565b5f6130bb8383613094565b9150826002028217905092915050565b6130d4826125f4565b67ffffffffffffffff8111156130ed576130ec6121cf565b5b6130f78254612b09565b613102828285613042565b5f60209050601f831160018114613133575f8415613121578287015190505b61312b85826130b0565b865550613192565b601f19841661314186612f34565b5f5b8281101561316857848901518255600182019150602085019450602081019050613143565b868310156131855784890151613181601f891682613094565b8355505b6001600288020188555050505b505050505050565b5f60a0820190508181035f8301526131b2818861261c565b905081810360208301526131c6818761261c565b905081810360408301526131da818661261c565b90506131e960608301856125e5565b6131f660808301846125e5565b9695505050505050565b5f61320a82612075565b915061321583612075565b925082820261322381612075565b9150828204841483151761323a57613239612b39565b5b5092915050565b7f416d6f756e742063616e6e6f74206265207a65726f00000000000000000000005f82015250565b5f6132756015836125fe565b915061328082613241565b602082019050919050565b5f6020820190508181035f8301526132a281613269565b9050919050565b5f6060820190506132bc5f8301866126c8565b6132c960208301856126c8565b6132d66040830184612159565b949350505050565b5f602082840312156132f3576132f261203a565b5b5f61330084828501612932565b91505092915050565b5f60608201905061331c5f8301866126c8565b6133296020830185612159565b61333660408301846125d6565b949350505050565b7f52657761726420616d6f756e742076616c7565206e6f742076616c69640000005f82015250565b5f613372601d836125fe565b915061337d8261333e565b602082019050919050565b5f6020820190508181035f83015261339f81613366565b9050919050565b5f6040820190506133b95f8301856126c8565b6133c66020830184612159565b9392505050565b7f4e487b71000000000000000000000000000000000000000000000000000000005f52601260045260245ffd5b7f4e487b71000000000000000000000000000000000000000000000000000000005f52602160045260245ffd5b5f61343182612181565b915061343c83612181565b92508261344c5761344b6133cd565b5b82820690509291505056fea2646970667358221220605b88a1894ea6235d8200e084ebfbded7427d5d9ab6c3082e623199b1b3bdc564736f6c634300081c0033","linkReferences":{}},"methodIdentifiers":{"INITIAL_SHARES()":"b155851d","SCALE()":"eced5526","_convertToShares(uint256,bytes32,uint8)":"093a7898","addGame(string)":"e89826ac","bolt()":"d1dfc1cf","convertToAssets(uint256,bytes32)":"76baa894","createPool(uint8,uint8,string,string,string)":"1c8d9958","deposit(uint256,bytes32)":"c9630cb0","devaddr()":"d49e77cd","feePerc()":"ef41ea7e","gamesRegistered(string)":"45e4487a","getPool(bytes32)":"f6c00927","oracle()":"7dc0d1d0","owner()":"8da5cb5b","pause()":"8456cb59","paused()":"5c975abb","poolInfo(bytes32)":"8cebd942","previewDeposit(uint256,bytes32)":"53370141","previewFee(uint256,bytes32)":"565d21fa","previewWithdraw(uint256,bytes32)":"1c9cab2e","renounceOwnership()":"715018a6","setDevAddress(address)":"d0d41fe1","setDevFee(uint8)":"87f8fc57","setOracle(address)":"7adbf973","sharesByAddress(bytes32,address)":"b52228dd","transferOwnership(address)":"f2fde38b","unpause()":"3f4ba83a","usersRegistered(string)":"a160e32a","withdraw(bytes32,uint256)":"040cf020"},"id":58}