{"abi":[{"type":"constructor","inputs":[{"name":"_bolt","type":"address","internalType":"contract Bolt"},{"name":"_oracle","type":"address","internalType":"contract EStormOracle"},{"name":"_devaddr","type":"address","internalType":"address"}],"stateMutability":"nonpayable"},{"type":"function","name":"addGame","inputs":[{"name":"_game","type":"string","internalType":"string"}],"outputs":[],"stateMutability":"nonpayable"},{"type":"function","name":"bolt","inputs":[],"outputs":[{"name":"","type":"address","internalType":"contract Bolt"}],"stateMutability":"view"},{"type":"function","name":"convertToAssets","inputs":[{"name":"_shares","type":"uint256","internalType":"uint256"},{"name":"_pid","type":"bytes32","internalType":"bytes32"}],"outputs":[{"name":"","type":"uint256","internalType":"uint256"}],"stateMutability":"view"},{"type":"function","name":"convertToShares","inputs":[{"name":"_amount","type":"uint256","internalType":"uint256"},{"name":"_pid","type":"bytes32","internalType":"bytes32"},{"name":"_rounding","type":"uint8","internalType":"enum Math.Rounding"}],"outputs":[{"name":"","type":"uint256","internalType":"uint256"}],"stateMutability":"view"},{"type":"function","name":"createPool","inputs":[{"name":"_gameID","type":"string","internalType":"string"},{"name":"_challengeID","type":"string","internalType":"string"},{"name":"_userID","type":"string","internalType":"string"}],"outputs":[],"stateMutability":"nonpayable"},{"type":"function","name":"deposit","inputs":[{"name":"_amount","type":"uint256","internalType":"uint256"},{"name":"_pid","type":"bytes32","internalType":"bytes32"}],"outputs":[],"stateMutability":"nonpayable"},{"type":"function","name":"devaddr","inputs":[],"outputs":[{"name":"","type":"address","internalType":"address"}],"stateMutability":"view"},{"type":"function","name":"feePerc","inputs":[],"outputs":[{"name":"","type":"uint8","internalType":"uint8"}],"stateMutability":"view"},{"type":"function","name":"gamesRegistered","inputs":[{"name":"","type":"string","internalType":"string"}],"outputs":[{"name":"","type":"bool","internalType":"bool"}],"stateMutability":"view"},{"type":"function","name":"getPool","inputs":[{"name":"_pid","type":"bytes32","internalType":"bytes32"}],"outputs":[{"name":"","type":"tuple","internalType":"struct StakingContract.PoolInfo","components":[{"name":"id","type":"bytes32","internalType":"bytes32"},{"name":"userID","type":"string","internalType":"string"},{"name":"totalStaked","type":"uint256","internalType":"uint256"},{"name":"totalShares","type":"uint256","internalType":"uint256"}]}],"stateMutability":"view"},{"type":"function","name":"oracle","inputs":[],"outputs":[{"name":"","type":"address","internalType":"contract EStormOracle"}],"stateMutability":"view"},{"type":"function","name":"owner","inputs":[],"outputs":[{"name":"","type":"address","internalType":"address"}],"stateMutability":"view"},{"type":"function","name":"pause","inputs":[],"outputs":[],"stateMutability":"nonpayable"},{"type":"function","name":"paused","inputs":[],"outputs":[{"name":"","type":"bool","internalType":"bool"}],"stateMutability":"view"},{"type":"function","name":"poolInfo","inputs":[{"name":"","type":"bytes32","internalType":"bytes32"}],"outputs":[{"name":"id","type":"bytes32","internalType":"bytes32"},{"name":"userID","type":"string","internalType":"string"},{"name":"totalStaked","type":"uint256","internalType":"uint256"},{"name":"totalShares","type":"uint256","internalType":"uint256"}],"stateMutability":"view"},{"type":"function","name":"previewDeposit","inputs":[{"name":"_amount","type":"uint256","internalType":"uint256"},{"name":"_pid","type":"bytes32","internalType":"bytes32"}],"outputs":[{"name":"","type":"uint256","internalType":"uint256"}],"stateMutability":"view"},{"type":"function","name":"previewFee","inputs":[{"name":"_amount","type":"uint256","internalType":"uint256"}],"outputs":[{"name":"","type":"uint256","internalType":"uint256"}],"stateMutability":"view"},{"type":"function","name":"previewWithdraw","inputs":[{"name":"_amount","type":"uint256","internalType":"uint256"},{"name":"_pid","type":"bytes32","internalType":"bytes32"}],"outputs":[{"name":"","type":"uint256","internalType":"uint256"}],"stateMutability":"view"},{"type":"function","name":"renounceOwnership","inputs":[],"outputs":[],"stateMutability":"nonpayable"},{"type":"function","name":"setDevAddress","inputs":[{"name":"_addr","type":"address","internalType":"address"}],"outputs":[],"stateMutability":"nonpayable"},{"type":"function","name":"setDevFee","inputs":[{"name":"_newFee","type":"uint8","internalType":"uint8"}],"outputs":[],"stateMutability":"nonpayable"},{"type":"function","name":"setOracle","inputs":[{"name":"_oracle","type":"address","internalType":"contract EStormOracle"}],"outputs":[],"stateMutability":"nonpayable"},{"type":"function","name":"sharesByAddress","inputs":[{"name":"","type":"bytes32","internalType":"bytes32"},{"name":"","type":"address","internalType":"address"}],"outputs":[{"name":"","type":"uint256","internalType":"uint256"}],"stateMutability":"view"},{"type":"function","name":"transferOwnership","inputs":[{"name":"newOwner","type":"address","internalType":"address"}],"outputs":[],"stateMutability":"nonpayable"},{"type":"function","name":"unpause","inputs":[],"outputs":[],"stateMutability":"nonpayable"},{"type":"function","name":"usersRegistered","inputs":[{"name":"","type":"string","internalType":"string"}],"outputs":[{"name":"","type":"bool","internalType":"bool"}],"stateMutability":"view"},{"type":"function","name":"withdraw","inputs":[{"name":"_pid","type":"bytes32","internalType":"bytes32"},{"name":"_amount","type":"uint256","internalType":"uint256"}],"outputs":[],"stateMutability":"nonpayable"},{"type":"event","name":"Deposit","inputs":[{"name":"staker","type":"address","indexed":false,"internalType":"address"},{"name":"amount","type":"uint256","indexed":false,"internalType":"uint256"},{"name":"pid","type":"bytes32","indexed":false,"internalType":"bytes32"}],"anonymous":false},{"type":"event","name":"DevFeeUpdated","inputs":[{"name":"oldFee","type":"uint256","indexed":false,"internalType":"uint256"},{"name":"newFee","type":"uint256","indexed":false,"internalType":"uint256"}],"anonymous":false},{"type":"event","name":"OwnershipTransferred","inputs":[{"name":"previousOwner","type":"address","indexed":true,"internalType":"address"},{"name":"newOwner","type":"address","indexed":true,"internalType":"address"}],"anonymous":false},{"type":"event","name":"Paused","inputs":[{"name":"account","type":"address","indexed":false,"internalType":"address"}],"anonymous":false},{"type":"event","name":"PoolCreated","inputs":[{"name":"gameID","type":"string","indexed":false,"internalType":"string"},{"name":"challengeID","type":"string","indexed":false,"internalType":"string"},{"name":"userID","type":"string","indexed":false,"internalType":"string"},{"name":"pid","type":"bytes32","indexed":false,"internalType":"bytes32"}],"anonymous":false},{"type":"event","name":"Unpaused","inputs":[{"name":"account","type":"address","indexed":false,"internalType":"address"}],"anonymous":false},{"type":"event","name":"Withdraw","inputs":[{"name":"staker","type":"address","indexed":false,"internalType":"address"},{"name":"amount","type":"uint256","indexed":false,"internalType":"uint256"},{"name":"fee","type":"uint256","indexed":false,"internalType":"uint256"},{"name":"pid","type":"bytes32","indexed":false,"internalType":"bytes32"}],"anonymous":false},{"type":"error","name":"EnforcedPause","inputs":[]},{"type":"error","name":"ExpectedPause","inputs":[]},{"type":"error","name":"OwnableInvalidOwner","inputs":[{"name":"owner","type":"address","internalType":"address"}]},{"type":"error","name":"OwnableUnauthorizedAccount","inputs":[{"name":"account","type":"address","internalType":"address"}]},{"type":"error","name":"SafeERC20FailedOperation","inputs":[{"name":"token","type":"address","internalType":"address"}]}],"bytecode":{"object":"0x60a0604052600260055f6101000a81548160ff021916908360ff16021790555034801561002a575f5ffd5b506040516137ae3803806137ae833981810160405281019061004c919061034d565b61005a6101af60201b60201c565b5f5f5f6101000a81548160ff0219169083151502179055505f73ffffffffffffffffffffffffffffffffffffffff168173ffffffffffffffffffffffffffffffffffffffff16036100e2575f6040517f1e4fbdf70000000000000000000000000000000000000000000000000000000081526004016100d991906103ac565b60405180910390fd5b6100f1816101b660201b60201c565b508273ffffffffffffffffffffffffffffffffffffffff1660808173ffffffffffffffffffffffffffffffffffffffff16815250508160065f6101000a81548173ffffffffffffffffffffffffffffffffffffffff021916908373ffffffffffffffffffffffffffffffffffffffff16021790555080600560016101000a81548173ffffffffffffffffffffffffffffffffffffffff021916908373ffffffffffffffffffffffffffffffffffffffff1602179055505050506103c5565b5f33905090565b5f5f60019054906101000a900473ffffffffffffffffffffffffffffffffffffffff169050815f60016101000a81548173ffffffffffffffffffffffffffffffffffffffff021916908373ffffffffffffffffffffffffffffffffffffffff1602179055508173ffffffffffffffffffffffffffffffffffffffff168173ffffffffffffffffffffffffffffffffffffffff167f8be0079c531659141344cd1fd0a4f28419497f9722a3daafe3b4186f6b6457e060405160405180910390a35050565b5f5ffd5b5f73ffffffffffffffffffffffffffffffffffffffff82169050919050565b5f6102a68261027d565b9050919050565b5f6102b78261029c565b9050919050565b6102c7816102ad565b81146102d1575f5ffd5b50565b5f815190506102e2816102be565b92915050565b5f6102f28261029c565b9050919050565b610302816102e8565b811461030c575f5ffd5b50565b5f8151905061031d816102f9565b92915050565b61032c8161029c565b8114610336575f5ffd5b50565b5f8151905061034781610323565b92915050565b5f5f5f6060848603121561036457610363610279565b5b5f610371868287016102d4565b93505060206103828682870161030f565b925050604061039386828701610339565b9150509250925092565b6103a68161029c565b82525050565b5f6020820190506103bf5f83018461039d565b92915050565b6080516133a76104075f395f81816107e80152818161083501528181610b2f015281816111c60152818161128d01528181611a400152611cb901526133a75ff3fe608060405234801561000f575f5ffd5b50600436106101a7575f3560e01c80638cebd942116100f7578063d1dfc1cf11610095578063e89826ac1161006f578063e89826ac146104ba578063ef41ea7e146104d6578063f2fde38b146104f4578063f6c0092714610510576101a7565b8063d1dfc1cf1461044e578063d49e77cd1461046c578063e49fd42b1461048a576101a7565b8063b0ed4450116100d1578063b0ed4450146103ca578063b52228dd146103e6578063c9630cb014610416578063d0d41fe114610432576101a7565b80638cebd942146103495780638da5cb5b1461037c578063a160e32a1461039a576101a7565b80635c975abb116101645780637adbf9731161013e5780637adbf973146102e95780637dc0d1d0146103055780638456cb591461032357806387f8fc571461032d576101a7565b80635c975abb14610291578063715018a6146102af57806376baa894146102b9576101a7565b8063040cf020146101ab5780631c9cab2e146101c757806335e856f2146101f75780633f4ba83a1461022757806345e4487a146102315780635337014114610261575b5f5ffd5b6101c560048036038101906101c09190612042565b610540565b005b6101e160048036038101906101dc9190612080565b6108b0565b6040516101ee91906120cd565b60405180910390f35b610211600480360381019061020c91906120e6565b6108c3565b60405161021e91906120cd565b60405180910390f35b61022f6108f5565b005b61024b6004803603810190610246919061224d565b610907565b60405161025891906122ae565b60405180910390f35b61027b60048036038101906102769190612080565b61093c565b60405161028891906120cd565b60405180910390f35b610299610950565b6040516102a691906122ae565b60405180910390f35b6102b7610964565b005b6102d360048036038101906102ce9190612080565b610977565b6040516102e091906120cd565b60405180910390f35b61030360048036038101906102fe9190612332565b610bf3565b005b61030d610c3e565b60405161031a91906123b8565b60405180910390f35b61032b610c63565b005b61034760048036038101906103429190612407565b610c75565b005b610363600480360381019061035e9190612432565b610c9a565b60405161037394939291906124cc565b60405180910390f35b610384610d4c565b6040516103919190612525565b60405180910390f35b6103b460048036038101906103af919061224d565b610d74565b6040516103c191906122ae565b60405180910390f35b6103e460048036038101906103df919061253e565b610da9565b005b61040060048036038101906103fb919061260c565b610fae565b60405161040d91906120cd565b60405180910390f35b610430600480360381019061042b9190612080565b610fce565b005b61044c6004803603810190610447919061264a565b61123f565b005b61045661128b565b6040516104639190612695565b60405180910390f35b6104746112af565b6040516104819190612525565b60405180910390f35b6104a4600480360381019061049f91906126d1565b6112d5565b6040516104b191906120cd565b60405180910390f35b6104d460048036038101906104cf919061224d565b6112ea565b005b6104de61132b565b6040516104eb9190612730565b60405180910390f35b61050e6004803603810190610509919061264a565b61133d565b005b61052a60048036038101906105259190612432565b6113c1565b604051610537919061280f565b60405180910390f35b5f8111610582576040517f08c379a000000000000000000000000000000000000000000000000000000000815260040161057990612879565b60405180910390fd5b5f5f5f60065f9054906101000a900473ffffffffffffffffffffffffffffffffffffffff1673ffffffffffffffffffffffffffffffffffffffff1663f6c00927866040518263ffffffff1660e01b81526004016105df9190612897565b606060405180830381865afa1580156105fa573d5f5f3e3d5ffd5b505050506040513d601f19601f8201168201806040525081019061061e919061290d565b92509250925082610664576040517f08c379a000000000000000000000000000000000000000000000000000000000815260040161065b906129a7565b60405180910390fd5b5f61066f8587611499565b90505f61067b866108c3565b905060045f8881526020019081526020015f205f610697611565565b73ffffffffffffffffffffffffffffffffffffffff1673ffffffffffffffffffffffffffffffffffffffff1681526020019081526020015f2054821115610713576040517f08c379a000000000000000000000000000000000000000000000000000000000815260040161070a90612a0f565b60405180910390fd5b821561072457610723848861156c565b5b5f60015f8981526020019081526020015f20905086816002015f82825461074b9190612a5a565b9250508190555082816003015f8282546107659190612a5a565b925050819055508260045f8a81526020019081526020015f205f610787611565565b73ffffffffffffffffffffffffffffffffffffffff1673ffffffffffffffffffffffffffffffffffffffff1681526020019081526020015f205f8282546107ce9190612a5a565b9250508190555081876107e19190612a5a565b96506108307f0000000000000000000000000000000000000000000000000000000000000000600560019054906101000a900473ffffffffffffffffffffffffffffffffffffffff16846116e2565b6108627f000000000000000000000000000000000000000000000000000000000000000061085c611565565b896116e2565b7f80bd7e915c065f64ef8e41fa6334d4a2b752591cb4d462c204b8e2449eb0a1f761088b611565565b88848b60405161089e9493929190612a8d565b60405180910390a15050505050505050565b5f6108bb8383611499565b905092915050565b5f6108ee60055f9054906101000a900460ff1660ff166064600185611761909392919063ffffffff16565b9050919050565b6108fd6117ae565b610905611835565b565b6002818051602081018201805184825260208301602085012081835280955050505050505f915054906101000a900460ff1681565b5f61094883835f611895565b905092915050565b5f5f5f9054906101000a900460ff16905090565b61096c6117ae565b6109755f611b11565b565b5f5f60065f9054906101000a900473ffffffffffffffffffffffffffffffffffffffff1673ffffffffffffffffffffffffffffffffffffffff1663f6c00927846040518263ffffffff1660e01b81526004016109d39190612897565b606060405180830381865afa1580156109ee573d5f5f3e3d5ffd5b505050506040513d601f19601f82011682018060405250810190610a12919061290d565b509150505f60015f8581526020019081526020015f206040518060800160405290815f8201548152602001600182018054610a4c90612afd565b80601f0160208091040260200160405190810160405280929190818152602001828054610a7890612afd565b8015610ac35780601f10610a9a57610100808354040283529160200191610ac3565b820191905f5260205f20905b815481529060010190602001808311610aa657829003601f168201915b505050505081526020016002820154815260200160038201548152505090505f816040015190505f831215610b0e5782610afc90612b2d565b81610b079190612a5a565b9050610b1d565b8281610b1a9190612b73565b90505b610be8600182610b2d9190612b73565b7f000000000000000000000000000000000000000000000000000000000000000073ffffffffffffffffffffffffffffffffffffffff1663313ce5676040518163ffffffff1660e01b8152600401602060405180830381865afa158015610b96573d5f5f3e3d5ffd5b505050506040513d601f19601f82011682018060405250810190610bba9190612bba565b600a610bc69190612d14565b8460600151610bd59190612b73565b600189611761909392919063ffffffff16565b935050505092915050565b610bfb6117ae565b8060065f6101000a81548173ffffffffffffffffffffffffffffffffffffffff021916908373ffffffffffffffffffffffffffffffffffffffff16021790555050565b60065f9054906101000a900473ffffffffffffffffffffffffffffffffffffffff1681565b610c6b6117ae565b610c73611bd4565b565b610c7d6117ae565b8060055f6101000a81548160ff021916908360ff16021790555050565b6001602052805f5260405f205f91509050805f015490806001018054610cbf90612afd565b80601f0160208091040260200160405190810160405280929190818152602001828054610ceb90612afd565b8015610d365780601f10610d0d57610100808354040283529160200191610d36565b820191905f5260205f20905b815481529060010190602001808311610d1957829003601f168201915b5050505050908060020154908060030154905084565b5f5f60019054906101000a900473ffffffffffffffffffffffffffffffffffffffff16905090565b6003818051602081018201805184825260208301602085012081835280955050505050505f915054906101000a900460ff1681565b610db16117ae565b600283604051610dc19190612d98565b90815260200160405180910390205f9054906101000a900460ff16610e1b576040517f08c379a0000000000000000000000000000000000000000000000000000000008152600401610e1290612df8565b60405180910390fd5b600381604051610e2b9190612d98565b90815260200160405180910390205f9054906101000a900460ff16610e81576001600382604051610e5c9190612d98565b90815260200160405180910390205f6101000a81548160ff0219169083151502179055505b5f838383604051602001610e9793929190612e16565b6040516020818303038152906040528051906020012090508060015f8381526020019081526020015f205f015403610f04576040517f08c379a0000000000000000000000000000000000000000000000000000000008152600401610efb90612eaa565b60405180910390fd5b60405180608001604052808281526020018381526020015f81526020015f81525060015f8381526020019081526020015f205f820151815f01556020820151816001019081610f53919061305f565b5060408201518160020155606082015181600301559050507f7181b16923baef00c8363c00a31376978edcdc57c84083185389ab8367b5f7c184848484604051610fa0949392919061312e565b60405180910390a150505050565b6004602052815f5260405f20602052805f5260405f205f91509150505481565b5f8211611010576040517f08c379a0000000000000000000000000000000000000000000000000000000008152600401611007906131d0565b60405180910390fd5b5f5f5f60065f9054906101000a900473ffffffffffffffffffffffffffffffffffffffff1673ffffffffffffffffffffffffffffffffffffffff1663f6c00927856040518263ffffffff1660e01b815260040161106d9190612897565b606060405180830381865afa158015611088573d5f5f3e3d5ffd5b505050506040513d601f19601f820116820180604052508101906110ac919061290d565b925092509250826110f2576040517f08c379a00000000000000000000000000000000000000000000000000000000081526004016110e9906129a7565b60405180910390fd5b5f6110fd868661093c565b905081156111105761110f838661156c565b5b5f60015f8781526020019081526020015f20905086816002015f8282546111379190612b73565b9250508190555081816003015f8282546111519190612b73565b925050819055508160045f8881526020019081526020015f205f611173611565565b73ffffffffffffffffffffffffffffffffffffffff1673ffffffffffffffffffffffffffffffffffffffff1681526020019081526020015f205f8282546111ba9190612b73565b925050819055506111f47f00000000000000000000000000000000000000000000000000000000000000006111ed611565565b308a611c35565b7f1a771fe656018364a9369da21954bb3081cb08b0196c27e43ca59c7cae87273761121d611565565b888860405161122e939291906131ee565b60405180910390a150505050505050565b6112476117ae565b80600560016101000a81548173ffffffffffffffffffffffffffffffffffffffff021916908373ffffffffffffffffffffffffffffffffffffffff16021790555050565b7f000000000000000000000000000000000000000000000000000000000000000081565b600560019054906101000a900473ffffffffffffffffffffffffffffffffffffffff1681565b5f6112e1848484611895565b90509392505050565b6112f26117ae565b60016002826040516113049190612d98565b90815260200160405180910390205f6101000a81548160ff02191690831515021790555050565b60055f9054906101000a900460ff1681565b6113456117ae565b5f73ffffffffffffffffffffffffffffffffffffffff168173ffffffffffffffffffffffffffffffffffffffff16036113b5575f6040517f1e4fbdf70000000000000000000000000000000000000000000000000000000081526004016113ac9190612525565b60405180910390fd5b6113be81611b11565b50565b6113c9611fa6565b60015f8381526020019081526020015f206040518060800160405290815f82015481526020016001820180546113fe90612afd565b80601f016020809104026020016040519081016040528092919081815260200182805461142a90612afd565b80156114755780601f1061144c57610100808354040283529160200191611475565b820191905f5260205f20905b81548152906001019060200180831161145857829003601f168201915b50505050508152602001600282015481526020016003820154815250509050919050565b5f5f6114a784846001611895565b905060045f8481526020019081526020015f205f6114c3611565565b73ffffffffffffffffffffffffffffffffffffffff1673ffffffffffffffffffffffffffffffffffffffff1681526020019081526020015f205481111561155b5760045f8481526020019081526020015f205f61151e611565565b73ffffffffffffffffffffffffffffffffffffffff1673ffffffffffffffffffffffffffffffffffffffff1681526020019081526020015f205490505b8091505092915050565b5f33905090565b5f60015f8381526020019081526020015f2090505f8313156115b15782816002015f82825461159b9190612b73565b925050819055506115ac3084611cb7565b611656565b5f831215611655575f836115c490612b2d565b9050808260020154101561160d576040517f08c379a00000000000000000000000000000000000000000000000000000000081526004016116049061326d565b60405180910390fd5b80826002015f8282546116209190612a5a565b92505081905550611653600560019054906101000a900473ffffffffffffffffffffffffffffffffffffffff1682611cb7565b505b5b60065f9054906101000a900473ffffffffffffffffffffffffffffffffffffffff1673ffffffffffffffffffffffffffffffffffffffff1663bbca6c24836040518263ffffffff1660e01b81526004016116b09190612897565b5f604051808303815f87803b1580156116c7575f5ffd5b505af11580156116d9573d5f5f3e3d5ffd5b50505050505050565b61175c838473ffffffffffffffffffffffffffffffffffffffff1663a9059cbb858560405160240161171592919061328b565b604051602081830303815290604052915060e01b6020820180517bffffffffffffffffffffffffffffffffffffffffffffffffffffffff8381831617835250505050611d43565b505050565b5f61178f61176e83611dde565b801561178a57505f8480611785576117846132b2565b5b868809115b611e0b565b61179a868686611e16565b6117a49190612b73565b9050949350505050565b6117b6611565565b73ffffffffffffffffffffffffffffffffffffffff166117d4610d4c565b73ffffffffffffffffffffffffffffffffffffffff1614611833576117f7611565565b6040517f118cdaa700000000000000000000000000000000000000000000000000000000815260040161182a9190612525565b60405180910390fd5b565b61183d611efb565b5f5f5f6101000a81548160ff0219169083151502179055507f5db9ee0a495bf2e6ff9c91a7834c1ba4fdd244a5e8aa4e537bd38aeae4b073aa61187e611565565b60405161188b9190612525565b60405180910390a1565b5f5f60065f9054906101000a900473ffffffffffffffffffffffffffffffffffffffff1673ffffffffffffffffffffffffffffffffffffffff1663f6c00927856040518263ffffffff1660e01b81526004016118f19190612897565b606060405180830381865afa15801561190c573d5f5f3e3d5ffd5b505050506040513d601f19601f82011682018060405250810190611930919061290d565b509150505f60015f8681526020019081526020015f206040518060800160405290815f820154815260200160018201805461196a90612afd565b80601f016020809104026020016040519081016040528092919081815260200182805461199690612afd565b80156119e15780601f106119b8576101008083540402835291602001916119e1565b820191905f5260205f20905b8154815290600101906020018083116119c457829003601f168201915b505050505081526020016002820154815260200160038201548152505090505f816040015190505f831215611a2c5782611a1a90612b2d565b81611a259190612a5a565b9050611a3b565b8281611a389190612b73565b90505b611b057f000000000000000000000000000000000000000000000000000000000000000073ffffffffffffffffffffffffffffffffffffffff1663313ce5676040518163ffffffff1660e01b8152600401602060405180830381865afa158015611aa7573d5f5f3e3d5ffd5b505050506040513d601f19601f82011682018060405250810190611acb9190612bba565b600a611ad79190612d14565b8360600151611ae69190612b73565b600183611af39190612b73565b878a611761909392919063ffffffff16565b93505050509392505050565b5f5f60019054906101000a900473ffffffffffffffffffffffffffffffffffffffff169050815f60016101000a81548173ffffffffffffffffffffffffffffffffffffffff021916908373ffffffffffffffffffffffffffffffffffffffff1602179055508173ffffffffffffffffffffffffffffffffffffffff168173ffffffffffffffffffffffffffffffffffffffff167f8be0079c531659141344cd1fd0a4f28419497f9722a3daafe3b4186f6b6457e060405160405180910390a35050565b611bdc611f3b565b60015f5f6101000a81548160ff0219169083151502179055507f62e78cea01bee320cd4e420270b5ea74000d11b0c9f74754ebdbfc544b05a258611c1e611565565b604051611c2b9190612525565b60405180910390a1565b611cb1848573ffffffffffffffffffffffffffffffffffffffff166323b872dd868686604051602401611c6a939291906132df565b604051602081830303815290604052915060e01b6020820180517bffffffffffffffffffffffffffffffffffffffffffffffffffffffff8381831617835250505050611d43565b50505050565b7f000000000000000000000000000000000000000000000000000000000000000073ffffffffffffffffffffffffffffffffffffffff1663afc822dc83836040518363ffffffff1660e01b8152600401611d1292919061328b565b5f604051808303815f87803b158015611d29575f5ffd5b505af1158015611d3b573d5f5f3e3d5ffd5b505050505050565b5f5f60205f8451602086015f885af180611d62576040513d5f823e3d81fd5b3d92505f519150505f8214611d7b576001811415611d96565b5f8473ffffffffffffffffffffffffffffffffffffffff163b145b15611dd857836040517f5274afe7000000000000000000000000000000000000000000000000000000008152600401611dcf9190612525565b60405180910390fd5b50505050565b5f60016002836003811115611df657611df5613314565b5b611e009190613341565b60ff16149050919050565b5f8115159050919050565b5f5f83850290505f5f19858709828110838203039150505f8103611e4e57838281611e4457611e436132b2565b5b0492505050611ef4565b808411611e6d57611e6c611e675f861460126011611f7c565b611f95565b5b5f8486880990508281118203915080830392505f855f038616905080860495508084049350600181825f0304019050808302841793505f600287600302189050808702600203810290508087026002038102905080870260020381029050808702600203810290508087026002038102905080870260020381029050808502955050505050505b9392505050565b611f03610950565b611f39576040517f8dfc202b00000000000000000000000000000000000000000000000000000000815260040160405180910390fd5b565b611f43610950565b15611f7a576040517fd93c066500000000000000000000000000000000000000000000000000000000815260040160405180910390fd5b565b5f611f8684611e0b565b82841802821890509392505050565b634e487b715f52806020526024601cfd5b60405180608001604052805f8152602001606081526020015f81526020015f81525090565b5f604051905090565b5f5ffd5b5f5ffd5b5f819050919050565b611fee81611fdc565b8114611ff8575f5ffd5b50565b5f8135905061200981611fe5565b92915050565b5f819050919050565b6120218161200f565b811461202b575f5ffd5b50565b5f8135905061203c81612018565b92915050565b5f5f6040838503121561205857612057611fd4565b5b5f61206585828601611ffb565b92505060206120768582860161202e565b9150509250929050565b5f5f6040838503121561209657612095611fd4565b5b5f6120a38582860161202e565b92505060206120b485828601611ffb565b9150509250929050565b6120c78161200f565b82525050565b5f6020820190506120e05f8301846120be565b92915050565b5f602082840312156120fb576120fa611fd4565b5b5f6121088482850161202e565b91505092915050565b5f5ffd5b5f5ffd5b5f601f19601f8301169050919050565b7f4e487b71000000000000000000000000000000000000000000000000000000005f52604160045260245ffd5b61215f82612119565b810181811067ffffffffffffffff8211171561217e5761217d612129565b5b80604052505050565b5f612190611fcb565b905061219c8282612156565b919050565b5f67ffffffffffffffff8211156121bb576121ba612129565b5b6121c482612119565b9050602081019050919050565b828183375f83830152505050565b5f6121f16121ec846121a1565b612187565b90508281526020810184848401111561220d5761220c612115565b5b6122188482856121d1565b509392505050565b5f82601f83011261223457612233612111565b5b81356122448482602086016121df565b91505092915050565b5f6020828403121561226257612261611fd4565b5b5f82013567ffffffffffffffff81111561227f5761227e611fd8565b5b61228b84828501612220565b91505092915050565b5f8115159050919050565b6122a881612294565b82525050565b5f6020820190506122c15f83018461229f565b92915050565b5f73ffffffffffffffffffffffffffffffffffffffff82169050919050565b5f6122f0826122c7565b9050919050565b5f612301826122e6565b9050919050565b612311816122f7565b811461231b575f5ffd5b50565b5f8135905061232c81612308565b92915050565b5f6020828403121561234757612346611fd4565b5b5f6123548482850161231e565b91505092915050565b5f819050919050565b5f61238061237b612376846122c7565b61235d565b6122c7565b9050919050565b5f61239182612366565b9050919050565b5f6123a282612387565b9050919050565b6123b281612398565b82525050565b5f6020820190506123cb5f8301846123a9565b92915050565b5f60ff82169050919050565b6123e6816123d1565b81146123f0575f5ffd5b50565b5f81359050612401816123dd565b92915050565b5f6020828403121561241c5761241b611fd4565b5b5f612429848285016123f3565b91505092915050565b5f6020828403121561244757612446611fd4565b5b5f61245484828501611ffb565b91505092915050565b61246681611fdc565b82525050565b5f81519050919050565b5f82825260208201905092915050565b8281835e5f83830152505050565b5f61249e8261246c565b6124a88185612476565b93506124b8818560208601612486565b6124c181612119565b840191505092915050565b5f6080820190506124df5f83018761245d565b81810360208301526124f18186612494565b905061250060408301856120be565b61250d60608301846120be565b95945050505050565b61251f816122e6565b82525050565b5f6020820190506125385f830184612516565b92915050565b5f5f5f6060848603121561255557612554611fd4565b5b5f84013567ffffffffffffffff81111561257257612571611fd8565b5b61257e86828701612220565b935050602084013567ffffffffffffffff81111561259f5761259e611fd8565b5b6125ab86828701612220565b925050604084013567ffffffffffffffff8111156125cc576125cb611fd8565b5b6125d886828701612220565b9150509250925092565b6125eb816122e6565b81146125f5575f5ffd5b50565b5f81359050612606816125e2565b92915050565b5f5f6040838503121561262257612621611fd4565b5b5f61262f85828601611ffb565b9250506020612640858286016125f8565b9150509250929050565b5f6020828403121561265f5761265e611fd4565b5b5f61266c848285016125f8565b91505092915050565b5f61267f82612387565b9050919050565b61268f81612675565b82525050565b5f6020820190506126a85f830184612686565b92915050565b600481106126ba575f5ffd5b50565b5f813590506126cb816126ae565b92915050565b5f5f5f606084860312156126e8576126e7611fd4565b5b5f6126f58682870161202e565b935050602061270686828701611ffb565b9250506040612717868287016126bd565b9150509250925092565b61272a816123d1565b82525050565b5f6020820190506127435f830184612721565b92915050565b61275281611fdc565b82525050565b5f82825260208201905092915050565b5f6127728261246c565b61277c8185612758565b935061278c818560208601612486565b61279581612119565b840191505092915050565b6127a98161200f565b82525050565b5f608083015f8301516127c45f860182612749565b50602083015184820360208601526127dc8282612768565b91505060408301516127f160408601826127a0565b50606083015161280460608601826127a0565b508091505092915050565b5f6020820190508181035f83015261282781846127af565b905092915050565b7f416d6f756e74206e6f742076616c7565000000000000000000000000000000005f82015250565b5f612863601083612476565b915061286e8261282f565b602082019050919050565b5f6020820190508181035f83015261289081612857565b9050919050565b5f6020820190506128aa5f83018461245d565b92915050565b6128b981612294565b81146128c3575f5ffd5b50565b5f815190506128d4816128b0565b92915050565b5f819050919050565b6128ec816128da565b81146128f6575f5ffd5b50565b5f81519050612907816128e3565b92915050565b5f5f5f6060848603121561292457612923611fd4565b5b5f612931868287016128c6565b9350506020612942868287016128f9565b9250506040612953868287016128c6565b9150509250925092565b7f506f6f6c206e6f742061637469766500000000000000000000000000000000005f82015250565b5f612991600f83612476565b915061299c8261295d565b602082019050919050565b5f6020820190508181035f8301526129be81612985565b9050919050565b7f53686172657320616d6f756e74206e6f742076616c69640000000000000000005f82015250565b5f6129f9601783612476565b9150612a04826129c5565b602082019050919050565b5f6020820190508181035f830152612a26816129ed565b9050919050565b7f4e487b71000000000000000000000000000000000000000000000000000000005f52601160045260245ffd5b5f612a648261200f565b9150612a6f8361200f565b9250828203905081811115612a8757612a86612a2d565b5b92915050565b5f608082019050612aa05f830187612516565b612aad60208301866120be565b612aba60408301856120be565b612ac7606083018461245d565b95945050505050565b7f4e487b71000000000000000000000000000000000000000000000000000000005f52602260045260245ffd5b5f6002820490506001821680612b1457607f821691505b602082108103612b2757612b26612ad0565b5b50919050565b5f612b37826128da565b91507f80000000000000000000000000000000000000000000000000000000000000008203612b6957612b68612a2d565b5b815f039050919050565b5f612b7d8261200f565b9150612b888361200f565b9250828201905080821115612ba057612b9f612a2d565b5b92915050565b5f81519050612bb4816123dd565b92915050565b5f60208284031215612bcf57612bce611fd4565b5b5f612bdc84828501612ba6565b91505092915050565b5f8160011c9050919050565b5f5f8291508390505b6001851115612c3a57808604811115612c1657612c15612a2d565b5b6001851615612c255780820291505b8081029050612c3385612be5565b9450612bfa565b94509492505050565b5f82612c525760019050612d0d565b81612c5f575f9050612d0d565b8160018114612c755760028114612c7f57612cae565b6001915050612d0d565b60ff841115612c9157612c90612a2d565b5b8360020a915084821115612ca857612ca7612a2d565b5b50612d0d565b5060208310610133831016604e8410600b8410161715612ce35782820a905083811115612cde57612cdd612a2d565b5b612d0d565b612cf08484846001612bf1565b92509050818404811115612d0757612d06612a2d565b5b81810290505b9392505050565b5f612d1e8261200f565b9150612d29836123d1565b9250612d567fffffffffffffffffffffffffffffffffffffffffffffffffffffffffffffffff8484612c43565b905092915050565b5f81905092915050565b5f612d728261246c565b612d7c8185612d5e565b9350612d8c818560208601612486565b80840191505092915050565b5f612da38284612d68565b915081905092915050565b7f47616d65206e6f742072656769737465726564000000000000000000000000005f82015250565b5f612de2601383612476565b9150612ded82612dae565b602082019050919050565b5f6020820190508181035f830152612e0f81612dd6565b9050919050565b5f6060820190508181035f830152612e2e8186612494565b90508181036020830152612e428185612494565b90508181036040830152612e568184612494565b9050949350505050565b7f506f6f6c20616c726561647920726567697374657265640000000000000000005f82015250565b5f612e94601783612476565b9150612e9f82612e60565b602082019050919050565b5f6020820190508181035f830152612ec181612e88565b9050919050565b5f819050815f5260205f209050919050565b5f6020601f8301049050919050565b5f82821b905092915050565b5f60088302612f247fffffffffffffffffffffffffffffffffffffffffffffffffffffffffffffffff82612ee9565b612f2e8683612ee9565b95508019841693508086168417925050509392505050565b5f612f60612f5b612f568461200f565b61235d565b61200f565b9050919050565b5f819050919050565b612f7983612f46565b612f8d612f8582612f67565b848454612ef5565b825550505050565b5f5f905090565b612fa4612f95565b612faf818484612f70565b505050565b5b81811015612fd257612fc75f82612f9c565b600181019050612fb5565b5050565b601f82111561301757612fe881612ec8565b612ff184612eda565b81016020851015613000578190505b61301461300c85612eda565b830182612fb4565b50505b505050565b5f82821c905092915050565b5f6130375f198460080261301c565b1980831691505092915050565b5f61304f8383613028565b9150826002028217905092915050565b6130688261246c565b67ffffffffffffffff81111561308157613080612129565b5b61308b8254612afd565b613096828285612fd6565b5f60209050601f8311600181146130c7575f84156130b5578287015190505b6130bf8582613044565b865550613126565b601f1984166130d586612ec8565b5f5b828110156130fc578489015182556001820191506020850194506020810190506130d7565b868310156131195784890151613115601f891682613028565b8355505b6001600288020188555050505b505050505050565b5f6080820190508181035f8301526131468187612494565b9050818103602083015261315a8186612494565b9050818103604083015261316e8185612494565b905061317d606083018461245d565b95945050505050565b7f416d6f756e742063616e6e6f74206265207a65726f00000000000000000000005f82015250565b5f6131ba601583612476565b91506131c582613186565b602082019050919050565b5f6020820190508181035f8301526131e7816131ae565b9050919050565b5f6060820190506132015f830186612516565b61320e60208301856120be565b61321b604083018461245d565b949350505050565b7f4465707420616d6f756e742076616c7565206e6f742076616c696400000000005f82015250565b5f613257601b83612476565b915061326282613223565b602082019050919050565b5f6020820190508181035f8301526132848161324b565b9050919050565b5f60408201905061329e5f830185612516565b6132ab60208301846120be565b9392505050565b7f4e487b71000000000000000000000000000000000000000000000000000000005f52601260045260245ffd5b5f6060820190506132f25f830186612516565b6132ff6020830185612516565b61330c60408301846120be565b949350505050565b7f4e487b71000000000000000000000000000000000000000000000000000000005f52602160045260245ffd5b5f61334b826123d1565b9150613356836123d1565b925082613366576133656132b2565b5b82820690509291505056fea26469706673582212201906ff4c4392614c67d7be58e6a5c4416de23ed6b8b269a372cb683a53b0e35164736f6c634300081c0033","linkReferences":{}},"methodIdentifiers":{"addGame(string)":"e89826ac","bolt()":"d1dfc1cf","convertToAssets(uint256,bytes32)":"76baa894","convertToShares(uint256,bytes32,uint8)":"e49fd42b","createPool(string,string,string)":"b0ed4450","deposit(uint256,bytes32)":"c9630cb0","devaddr()":"d49e77cd","feePerc()":"ef41ea7e","gamesRegistered(string)":"45e4487a","getPool(bytes32)":"f6c00927","oracle()":"7dc0d1d0","owner()":"8da5cb5b","pause()":"8456cb59","paused()":"5c975abb","poolInfo(bytes32)":"8cebd942","previewDeposit(uint256,bytes32)":"53370141","previewFee(uint256)":"35e856f2","previewWithdraw(uint256,bytes32)":"1c9cab2e","renounceOwnership()":"715018a6","setDevAddress(address)":"d0d41fe1","setDevFee(uint8)":"87f8fc57","setOracle(address)":"7adbf973","sharesByAddress(bytes32,address)":"b52228dd","transferOwnership(address)":"f2fde38b","unpause()":"3f4ba83a","usersRegistered(string)":"a160e32a","withdraw(bytes32,uint256)":"040cf020"},"id":56}