{"abi":[{"type":"constructor","inputs":[{"name":"_token","type":"address","internalType":"address"}],"stateMutability":"nonpayable"},{"type":"function","name":"addGame","inputs":[{"name":"_game","type":"string","internalType":"string"}],"outputs":[],"stateMutability":"nonpayable"},{"type":"function","name":"createPool","inputs":[{"name":"_toCover","type":"uint8","internalType":"uint8"},{"name":"_toDistribute","type":"uint8","internalType":"uint8"},{"name":"_gameID","type":"string","internalType":"string"},{"name":"_challengeID","type":"string","internalType":"string"},{"name":"_userID","type":"string","internalType":"string"}],"outputs":[],"stateMutability":"nonpayable"},{"type":"function","name":"gamesRegistered","inputs":[{"name":"","type":"string","internalType":"string"}],"outputs":[{"name":"","type":"bool","internalType":"bool"}],"stateMutability":"view"},{"type":"function","name":"getPool","inputs":[{"name":"_pid","type":"bytes32","internalType":"bytes32"}],"outputs":[{"name":"","type":"tuple","internalType":"struct StakingContract.PoolInfo","components":[{"name":"id","type":"bytes32","internalType":"bytes32"},{"name":"toCover","type":"uint8","internalType":"uint8"},{"name":"toDistribute","type":"uint8","internalType":"uint8"},{"name":"userID","type":"string","internalType":"string"}]}],"stateMutability":"view"},{"type":"function","name":"owner","inputs":[],"outputs":[{"name":"","type":"address","internalType":"address"}],"stateMutability":"view"},{"type":"function","name":"pause","inputs":[],"outputs":[],"stateMutability":"nonpayable"},{"type":"function","name":"paused","inputs":[],"outputs":[{"name":"","type":"bool","internalType":"bool"}],"stateMutability":"view"},{"type":"function","name":"poolInfo","inputs":[{"name":"","type":"bytes32","internalType":"bytes32"}],"outputs":[{"name":"id","type":"bytes32","internalType":"bytes32"},{"name":"toCover","type":"uint8","internalType":"uint8"},{"name":"toDistribute","type":"uint8","internalType":"uint8"},{"name":"userID","type":"string","internalType":"string"}],"stateMutability":"view"},{"type":"function","name":"renounceOwnership","inputs":[],"outputs":[],"stateMutability":"nonpayable"},{"type":"function","name":"token","inputs":[],"outputs":[{"name":"","type":"address","internalType":"address"}],"stateMutability":"view"},{"type":"function","name":"transferOwnership","inputs":[{"name":"newOwner","type":"address","internalType":"address"}],"outputs":[],"stateMutability":"nonpayable"},{"type":"function","name":"unpause","inputs":[],"outputs":[],"stateMutability":"nonpayable"},{"type":"function","name":"usersRegistered","inputs":[{"name":"","type":"string","internalType":"string"}],"outputs":[{"name":"","type":"bool","internalType":"bool"}],"stateMutability":"view"},{"type":"event","name":"OwnershipTransferred","inputs":[{"name":"previousOwner","type":"address","indexed":true,"internalType":"address"},{"name":"newOwner","type":"address","indexed":true,"internalType":"address"}],"anonymous":false},{"type":"event","name":"Paused","inputs":[{"name":"account","type":"address","indexed":false,"internalType":"address"}],"anonymous":false},{"type":"event","name":"PoolCreated","inputs":[{"name":"gameID","type":"string","indexed":false,"internalType":"string"},{"name":"challengeID","type":"string","indexed":false,"internalType":"string"},{"name":"userID","type":"string","indexed":false,"internalType":"string"},{"name":"toCover","type":"uint8","indexed":false,"internalType":"uint8"},{"name":"toDistribute","type":"uint8","indexed":false,"internalType":"uint8"}],"anonymous":false},{"type":"event","name":"Unpaused","inputs":[{"name":"account","type":"address","indexed":false,"internalType":"address"}],"anonymous":false},{"type":"error","name":"EnforcedPause","inputs":[]},{"type":"error","name":"ExpectedPause","inputs":[]},{"type":"error","name":"OwnableInvalidOwner","inputs":[{"name":"owner","type":"address","internalType":"address"}]},{"type":"error","name":"OwnableUnauthorizedAccount","inputs":[{"name":"account","type":"address","internalType":"address"}]}],"bytecode":{"object":"0x60a060405234801561000f575f5ffd5b506040516117f83803806117f883398181016040528101906100319190610239565b61003f61011160201b60201c565b5f5f5f6101000a81548160ff0219169083151502179055505f73ffffffffffffffffffffffffffffffffffffffff168173ffffffffffffffffffffffffffffffffffffffff16036100c7575f6040517f1e4fbdf70000000000000000000000000000000000000000000000000000000081526004016100be9190610273565b60405180910390fd5b6100d68161011860201b60201c565b508073ffffffffffffffffffffffffffffffffffffffff1660808173ffffffffffffffffffffffffffffffffffffffff16815250505061028c565b5f33905090565b5f5f60019054906101000a900473ffffffffffffffffffffffffffffffffffffffff169050815f60016101000a81548173ffffffffffffffffffffffffffffffffffffffff021916908373ffffffffffffffffffffffffffffffffffffffff1602179055508173ffffffffffffffffffffffffffffffffffffffff168173ffffffffffffffffffffffffffffffffffffffff167f8be0079c531659141344cd1fd0a4f28419497f9722a3daafe3b4186f6b6457e060405160405180910390a35050565b5f5ffd5b5f73ffffffffffffffffffffffffffffffffffffffff82169050919050565b5f610208826101df565b9050919050565b610218816101fe565b8114610222575f5ffd5b50565b5f815190506102338161020f565b92915050565b5f6020828403121561024e5761024d6101db565b5b5f61025b84828501610225565b91505092915050565b61026d816101fe565b82525050565b5f6020820190506102865f830184610264565b92915050565b6080516115546102a45f395f61081801526115545ff3fe608060405234801561000f575f5ffd5b50600436106100cd575f3560e01c80638cebd9421161008a578063e89826ac11610064578063e89826ac146101da578063f2fde38b146101f6578063f6c0092714610212578063fc0c546a14610242576100cd565b80638cebd942146101595780638da5cb5b1461018c578063a160e32a146101aa576100cd565b80631c8d9958146100d15780633f4ba83a146100ed57806345e4487a146100f75780635c975abb14610127578063715018a6146101455780638456cb591461014f575b5f5ffd5b6100eb60048036038101906100e69190610c7b565b610260565b005b6100f56104ac565b005b610111600480360381019061010c9190610d46565b6104be565b60405161011e9190610da7565b60405180910390f35b61012f6104f3565b60405161013c9190610da7565b60405180910390f35b61014d610507565b005b61015761051a565b005b610173600480360381019061016e9190610df3565b61052c565b6040516101839493929190610e9c565b60405180910390f35b6101946105f7565b6040516101a19190610f25565b60405180910390f35b6101c460048036038101906101bf9190610d46565b61061f565b6040516101d19190610da7565b60405180910390f35b6101f460048036038101906101ef9190610d46565b610654565b005b610210600480360381019061020b9190610f68565b610695565b005b61022c60048036038101906102279190610df3565b610719565b6040516102399190611059565b60405180910390f35b61024a610816565b6040516102579190610f25565b60405180910390f35b61026861083a565b60028360405161027891906110b3565b90815260200160405180910390205f9054906101000a900460ff166102d2576040517f08c379a00000000000000000000000000000000000000000000000000000000081526004016102c990611113565b60405180910390fd5b6003816040516102e291906110b3565b90815260200160405180910390205f9054906101000a900460ff1661033857600160038260405161031391906110b3565b90815260200160405180910390205f6101000a81548160ff0219169083151502179055505b5f83838360405160200161034e93929190611131565b6040516020818303038152906040528051906020012090505f60015f8381526020019081526020015f206001015f9054906101000a900460ff1660ff16146103cb576040517f08c379a00000000000000000000000000000000000000000000000000000000081526004016103c2906111c5565b60405180910390fd5b60405180608001604052808281526020018760ff1681526020018660ff1681526020018381525060015f8381526020019081526020015f205f820151815f01556020820151816001015f6101000a81548160ff021916908360ff16021790555060408201518160010160016101000a81548160ff021916908360ff160217905550606082015181600201908161046191906113e9565b509050507f6f6ea0a766c40ee6902e27824c9f197c6951e1bb32047945c4a21d778ff41846848484898960405161049c9594939291906114b8565b60405180910390a1505050505050565b6104b461083a565b6104bc6108c1565b565b6002818051602081018201805184825260208301602085012081835280955050505050505f915054906101000a900460ff1681565b5f5f5f9054906101000a900460ff16905090565b61050f61083a565b6105185f610921565b565b61052261083a565b61052a6109e4565b565b6001602052805f5260405f205f91509050805f015490806001015f9054906101000a900460ff16908060010160019054906101000a900460ff169080600201805461057690611210565b80601f01602080910402602001604051908101604052809291908181526020018280546105a290611210565b80156105ed5780601f106105c4576101008083540402835291602001916105ed565b820191905f5260205f20905b8154815290600101906020018083116105d057829003601f168201915b5050505050905084565b5f5f60019054906101000a900473ffffffffffffffffffffffffffffffffffffffff16905090565b6003818051602081018201805184825260208301602085012081835280955050505050505f915054906101000a900460ff1681565b61065c61083a565b600160028260405161066e91906110b3565b90815260200160405180910390205f6101000a81548160ff02191690831515021790555050565b61069d61083a565b5f73ffffffffffffffffffffffffffffffffffffffff168173ffffffffffffffffffffffffffffffffffffffff160361070d575f6040517f1e4fbdf70000000000000000000000000000000000000000000000000000000081526004016107049190610f25565b60405180910390fd5b61071681610921565b50565b610721610acd565b60015f8381526020019081526020015f206040518060800160405290815f8201548152602001600182015f9054906101000a900460ff1660ff1660ff1681526020016001820160019054906101000a900460ff1660ff1660ff16815260200160028201805461078f90611210565b80601f01602080910402602001604051908101604052809291908181526020018280546107bb90611210565b80156108065780601f106107dd57610100808354040283529160200191610806565b820191905f5260205f20905b8154815290600101906020018083116107e957829003601f168201915b5050505050815250509050919050565b7f000000000000000000000000000000000000000000000000000000000000000081565b610842610a45565b73ffffffffffffffffffffffffffffffffffffffff166108606105f7565b73ffffffffffffffffffffffffffffffffffffffff16146108bf57610883610a45565b6040517f118cdaa70000000000000000000000000000000000000000000000000000000081526004016108b69190610f25565b60405180910390fd5b565b6108c9610a4c565b5f5f5f6101000a81548160ff0219169083151502179055507f5db9ee0a495bf2e6ff9c91a7834c1ba4fdd244a5e8aa4e537bd38aeae4b073aa61090a610a45565b6040516109179190610f25565b60405180910390a1565b5f5f60019054906101000a900473ffffffffffffffffffffffffffffffffffffffff169050815f60016101000a81548173ffffffffffffffffffffffffffffffffffffffff021916908373ffffffffffffffffffffffffffffffffffffffff1602179055508173ffffffffffffffffffffffffffffffffffffffff168173ffffffffffffffffffffffffffffffffffffffff167f8be0079c531659141344cd1fd0a4f28419497f9722a3daafe3b4186f6b6457e060405160405180910390a35050565b6109ec610a8c565b60015f5f6101000a81548160ff0219169083151502179055507f62e78cea01bee320cd4e420270b5ea74000d11b0c9f74754ebdbfc544b05a258610a2e610a45565b604051610a3b9190610f25565b60405180910390a1565b5f33905090565b610a546104f3565b610a8a576040517f8dfc202b00000000000000000000000000000000000000000000000000000000815260040160405180910390fd5b565b610a946104f3565b15610acb576040517fd93c066500000000000000000000000000000000000000000000000000000000815260040160405180910390fd5b565b60405180608001604052805f81526020015f60ff1681526020015f60ff168152602001606081525090565b5f604051905090565b5f5ffd5b5f5ffd5b5f60ff82169050919050565b610b1e81610b09565b8114610b28575f5ffd5b50565b5f81359050610b3981610b15565b92915050565b5f5ffd5b5f5ffd5b5f601f19601f8301169050919050565b7f4e487b71000000000000000000000000000000000000000000000000000000005f52604160045260245ffd5b610b8d82610b47565b810181811067ffffffffffffffff82111715610bac57610bab610b57565b5b80604052505050565b5f610bbe610af8565b9050610bca8282610b84565b919050565b5f67ffffffffffffffff821115610be957610be8610b57565b5b610bf282610b47565b9050602081019050919050565b828183375f83830152505050565b5f610c1f610c1a84610bcf565b610bb5565b905082815260208101848484011115610c3b57610c3a610b43565b5b610c46848285610bff565b509392505050565b5f82601f830112610c6257610c61610b3f565b5b8135610c72848260208601610c0d565b91505092915050565b5f5f5f5f5f60a08688031215610c9457610c93610b01565b5b5f610ca188828901610b2b565b9550506020610cb288828901610b2b565b945050604086013567ffffffffffffffff811115610cd357610cd2610b05565b5b610cdf88828901610c4e565b935050606086013567ffffffffffffffff811115610d0057610cff610b05565b5b610d0c88828901610c4e565b925050608086013567ffffffffffffffff811115610d2d57610d2c610b05565b5b610d3988828901610c4e565b9150509295509295909350565b5f60208284031215610d5b57610d5a610b01565b5b5f82013567ffffffffffffffff811115610d7857610d77610b05565b5b610d8484828501610c4e565b91505092915050565b5f8115159050919050565b610da181610d8d565b82525050565b5f602082019050610dba5f830184610d98565b92915050565b5f819050919050565b610dd281610dc0565b8114610ddc575f5ffd5b50565b5f81359050610ded81610dc9565b92915050565b5f60208284031215610e0857610e07610b01565b5b5f610e1584828501610ddf565b91505092915050565b610e2781610dc0565b82525050565b610e3681610b09565b82525050565b5f81519050919050565b5f82825260208201905092915050565b8281835e5f83830152505050565b5f610e6e82610e3c565b610e788185610e46565b9350610e88818560208601610e56565b610e9181610b47565b840191505092915050565b5f608082019050610eaf5f830187610e1e565b610ebc6020830186610e2d565b610ec96040830185610e2d565b8181036060830152610edb8184610e64565b905095945050505050565b5f73ffffffffffffffffffffffffffffffffffffffff82169050919050565b5f610f0f82610ee6565b9050919050565b610f1f81610f05565b82525050565b5f602082019050610f385f830184610f16565b92915050565b610f4781610f05565b8114610f51575f5ffd5b50565b5f81359050610f6281610f3e565b92915050565b5f60208284031215610f7d57610f7c610b01565b5b5f610f8a84828501610f54565b91505092915050565b610f9c81610dc0565b82525050565b610fab81610b09565b82525050565b5f82825260208201905092915050565b5f610fcb82610e3c565b610fd58185610fb1565b9350610fe5818560208601610e56565b610fee81610b47565b840191505092915050565b5f608083015f83015161100e5f860182610f93565b5060208301516110216020860182610fa2565b5060408301516110346040860182610fa2565b506060830151848203606086015261104c8282610fc1565b9150508091505092915050565b5f6020820190508181035f8301526110718184610ff9565b905092915050565b5f81905092915050565b5f61108d82610e3c565b6110978185611079565b93506110a7818560208601610e56565b80840191505092915050565b5f6110be8284611083565b915081905092915050565b7f47616d65206e6f742072656769737465726564000000000000000000000000005f82015250565b5f6110fd601383610e46565b9150611108826110c9565b602082019050919050565b5f6020820190508181035f83015261112a816110f1565b9050919050565b5f6060820190508181035f8301526111498186610e64565b9050818103602083015261115d8185610e64565b905081810360408301526111718184610e64565b9050949350505050565b7f506f6f6c20616c726561647920657869737473000000000000000000000000005f82015250565b5f6111af601383610e46565b91506111ba8261117b565b602082019050919050565b5f6020820190508181035f8301526111dc816111a3565b9050919050565b7f4e487b71000000000000000000000000000000000000000000000000000000005f52602260045260245ffd5b5f600282049050600182168061122757607f821691505b60208210810361123a576112396111e3565b5b50919050565b5f819050815f5260205f209050919050565b5f6020601f8301049050919050565b5f82821b905092915050565b5f6008830261129c7fffffffffffffffffffffffffffffffffffffffffffffffffffffffffffffffff82611261565b6112a68683611261565b95508019841693508086168417925050509392505050565b5f819050919050565b5f819050919050565b5f6112ea6112e56112e0846112be565b6112c7565b6112be565b9050919050565b5f819050919050565b611303836112d0565b61131761130f826112f1565b84845461126d565b825550505050565b5f5f905090565b61132e61131f565b6113398184846112fa565b505050565b5b8181101561135c576113515f82611326565b60018101905061133f565b5050565b601f8211156113a15761137281611240565b61137b84611252565b8101602085101561138a578190505b61139e61139685611252565b83018261133e565b50505b505050565b5f82821c905092915050565b5f6113c15f19846008026113a6565b1980831691505092915050565b5f6113d983836113b2565b9150826002028217905092915050565b6113f282610e3c565b67ffffffffffffffff81111561140b5761140a610b57565b5b6114158254611210565b611420828285611360565b5f60209050601f831160018114611451575f841561143f578287015190505b61144985826113ce565b8655506114b0565b601f19841661145f86611240565b5f5b8281101561148657848901518255600182019150602085019450602081019050611461565b868310156114a3578489015161149f601f8916826113b2565b8355505b6001600288020188555050505b505050505050565b5f60a0820190508181035f8301526114d08188610e64565b905081810360208301526114e48187610e64565b905081810360408301526114f88186610e64565b90506115076060830185610e2d565b6115146080830184610e2d565b969550505050505056fea264697066735822122059076846a44ad9a4268322e8cdd73a26b663bad19a09c8e3f0adc973539c272f64736f6c634300081c0033","linkReferences":{}},"methodIdentifiers":{"addGame(string)":"e89826ac","createPool(uint8,uint8,string,string,string)":"1c8d9958","gamesRegistered(string)":"45e4487a","getPool(bytes32)":"f6c00927","owner()":"8da5cb5b","pause()":"8456cb59","paused()":"5c975abb","poolInfo(bytes32)":"8cebd942","renounceOwnership()":"715018a6","token()":"fc0c546a","transferOwnership(address)":"f2fde38b","unpause()":"3f4ba83a","usersRegistered(string)":"a160e32a"},"id":47}