{"abi":[{"type":"constructor","inputs":[{"name":"_bolt","type":"address","internalType":"contract EBolt"},{"name":"_oracle","type":"address","internalType":"contract EStormOracle"},{"name":"_treasury","type":"address","internalType":"address"}],"stateMutability":"nonpayable"},{"type":"function","name":"addGame","inputs":[{"name":"_game","type":"string","internalType":"string"}],"outputs":[],"stateMutability":"nonpayable"},{"type":"function","name":"convertToAssets","inputs":[{"name":"_shares","type":"uint256","internalType":"uint256"},{"name":"_pid","type":"bytes32","internalType":"bytes32"}],"outputs":[{"name":"","type":"uint256","internalType":"uint256"}],"stateMutability":"view"},{"type":"function","name":"convertToShares","inputs":[{"name":"_amount","type":"uint256","internalType":"uint256"},{"name":"_pid","type":"bytes32","internalType":"bytes32"},{"name":"_rounding","type":"uint8","internalType":"enum Math.Rounding"}],"outputs":[{"name":"","type":"uint256","internalType":"uint256"}],"stateMutability":"view"},{"type":"function","name":"createPool","inputs":[{"name":"_gameID","type":"string","internalType":"string"},{"name":"_challengeID","type":"string","internalType":"string"},{"name":"_userID","type":"string","internalType":"string"}],"outputs":[],"stateMutability":"nonpayable"},{"type":"function","name":"deposit","inputs":[{"name":"_amount","type":"uint256","internalType":"uint256"},{"name":"_pid","type":"bytes32","internalType":"bytes32"}],"outputs":[],"stateMutability":"nonpayable"},{"type":"function","name":"eBolt","inputs":[],"outputs":[{"name":"","type":"address","internalType":"contract EBolt"}],"stateMutability":"view"},{"type":"function","name":"feePerc","inputs":[],"outputs":[{"name":"","type":"uint16","internalType":"uint16"}],"stateMutability":"view"},{"type":"function","name":"gamesRegistered","inputs":[{"name":"","type":"string","internalType":"string"}],"outputs":[{"name":"","type":"bool","internalType":"bool"}],"stateMutability":"view"},{"type":"function","name":"getPool","inputs":[{"name":"_pid","type":"bytes32","internalType":"bytes32"}],"outputs":[{"name":"","type":"tuple","internalType":"struct IStakingContract.PoolInfo","components":[{"name":"id","type":"bytes32","internalType":"bytes32"},{"name":"userID","type":"string","internalType":"string"},{"name":"totalStaked","type":"uint256","internalType":"uint256"},{"name":"totalShares","type":"uint256","internalType":"uint256"}]}],"stateMutability":"view"},{"type":"function","name":"oracle","inputs":[],"outputs":[{"name":"","type":"address","internalType":"contract EStormOracle"}],"stateMutability":"view"},{"type":"function","name":"owner","inputs":[],"outputs":[{"name":"","type":"address","internalType":"address"}],"stateMutability":"view"},{"type":"function","name":"poolInfo","inputs":[{"name":"","type":"bytes32","internalType":"bytes32"}],"outputs":[{"name":"id","type":"bytes32","internalType":"bytes32"},{"name":"userID","type":"string","internalType":"string"},{"name":"totalStaked","type":"uint256","internalType":"uint256"},{"name":"totalShares","type":"uint256","internalType":"uint256"}],"stateMutability":"view"},{"type":"function","name":"previewDeposit","inputs":[{"name":"_amount","type":"uint256","internalType":"uint256"},{"name":"_pid","type":"bytes32","internalType":"bytes32"}],"outputs":[{"name":"","type":"uint256","internalType":"uint256"}],"stateMutability":"view"},{"type":"function","name":"previewFee","inputs":[{"name":"_amount","type":"uint256","internalType":"uint256"}],"outputs":[{"name":"","type":"uint256","internalType":"uint256"}],"stateMutability":"view"},{"type":"function","name":"previewWithdraw","inputs":[{"name":"_amount","type":"uint256","internalType":"uint256"},{"name":"_pid","type":"bytes32","internalType":"bytes32"}],"outputs":[{"name":"","type":"uint256","internalType":"uint256"}],"stateMutability":"view"},{"type":"function","name":"renounceOwnership","inputs":[],"outputs":[],"stateMutability":"nonpayable"},{"type":"function","name":"setDevFee","inputs":[{"name":"_newFee","type":"uint8","internalType":"uint8"}],"outputs":[],"stateMutability":"nonpayable"},{"type":"function","name":"setOracle","inputs":[{"name":"_oracle","type":"address","internalType":"contract EStormOracle"}],"outputs":[],"stateMutability":"nonpayable"},{"type":"function","name":"setTreasury","inputs":[{"name":"_treasury","type":"address","internalType":"address"}],"outputs":[],"stateMutability":"nonpayable"},{"type":"function","name":"sharesByAddress","inputs":[{"name":"","type":"bytes32","internalType":"bytes32"},{"name":"","type":"address","internalType":"address"}],"outputs":[{"name":"","type":"uint256","internalType":"uint256"}],"stateMutability":"view"},{"type":"function","name":"transferOwnership","inputs":[{"name":"newOwner","type":"address","internalType":"address"}],"outputs":[],"stateMutability":"nonpayable"},{"type":"function","name":"treasury","inputs":[],"outputs":[{"name":"","type":"address","internalType":"address"}],"stateMutability":"view"},{"type":"function","name":"usersRegistered","inputs":[{"name":"","type":"string","internalType":"string"}],"outputs":[{"name":"","type":"bool","internalType":"bool"}],"stateMutability":"view"},{"type":"function","name":"withdraw","inputs":[{"name":"_pid","type":"bytes32","internalType":"bytes32"},{"name":"_amount","type":"uint256","internalType":"uint256"}],"outputs":[],"stateMutability":"nonpayable"},{"type":"event","name":"Deposit","inputs":[{"name":"staker","type":"address","indexed":false,"internalType":"address"},{"name":"amount","type":"uint256","indexed":false,"internalType":"uint256"},{"name":"pid","type":"bytes32","indexed":false,"internalType":"bytes32"}],"anonymous":false},{"type":"event","name":"DevFeeUpdated","inputs":[{"name":"oldFee","type":"uint256","indexed":false,"internalType":"uint256"},{"name":"newFee","type":"uint256","indexed":false,"internalType":"uint256"}],"anonymous":false},{"type":"event","name":"OwnershipTransferred","inputs":[{"name":"previousOwner","type":"address","indexed":true,"internalType":"address"},{"name":"newOwner","type":"address","indexed":true,"internalType":"address"}],"anonymous":false},{"type":"event","name":"PoolCreated","inputs":[{"name":"gameID","type":"string","indexed":false,"internalType":"string"},{"name":"challengeID","type":"string","indexed":false,"internalType":"string"},{"name":"userID","type":"string","indexed":false,"internalType":"string"},{"name":"pid","type":"bytes32","indexed":false,"internalType":"bytes32"}],"anonymous":false},{"type":"event","name":"Withdraw","inputs":[{"name":"staker","type":"address","indexed":false,"internalType":"address"},{"name":"amount","type":"uint256","indexed":false,"internalType":"uint256"},{"name":"fee","type":"uint256","indexed":false,"internalType":"uint256"},{"name":"pid","type":"bytes32","indexed":false,"internalType":"bytes32"}],"anonymous":false},{"type":"error","name":"OwnableInvalidOwner","inputs":[{"name":"owner","type":"address","internalType":"address"}]},{"type":"error","name":"OwnableUnauthorizedAccount","inputs":[{"name":"account","type":"address","internalType":"address"}]},{"type":"error","name":"SafeERC20FailedOperation","inputs":[{"name":"token","type":"address","internalType":"address"}]}],"bytecode":{"object":"0x60a0604052600260055f6101000a81548161ffff021916908361ffff16021790555034801561002c575f5ffd5b5060405161345d38038061345d833981810160405281019061004e9190610335565b61005c61019960201b60201c565b5f73ffffffffffffffffffffffffffffffffffffffff168173ffffffffffffffffffffffffffffffffffffffff16036100cc575f6040517f1e4fbdf70000000000000000000000000000000000000000000000000000000081526004016100c39190610394565b60405180910390fd5b6100db816101a060201b60201c565b508273ffffffffffffffffffffffffffffffffffffffff1660808173ffffffffffffffffffffffffffffffffffffffff16815250508160065f6101000a81548173ffffffffffffffffffffffffffffffffffffffff021916908373ffffffffffffffffffffffffffffffffffffffff16021790555080600560026101000a81548173ffffffffffffffffffffffffffffffffffffffff021916908373ffffffffffffffffffffffffffffffffffffffff1602179055505050506103ad565b5f33905090565b5f5f5f9054906101000a900473ffffffffffffffffffffffffffffffffffffffff169050815f5f6101000a81548173ffffffffffffffffffffffffffffffffffffffff021916908373ffffffffffffffffffffffffffffffffffffffff1602179055508173ffffffffffffffffffffffffffffffffffffffff168173ffffffffffffffffffffffffffffffffffffffff167f8be0079c531659141344cd1fd0a4f28419497f9722a3daafe3b4186f6b6457e060405160405180910390a35050565b5f5ffd5b5f73ffffffffffffffffffffffffffffffffffffffff82169050919050565b5f61028e82610265565b9050919050565b5f61029f82610284565b9050919050565b6102af81610295565b81146102b9575f5ffd5b50565b5f815190506102ca816102a6565b92915050565b5f6102da82610284565b9050919050565b6102ea816102d0565b81146102f4575f5ffd5b50565b5f81519050610305816102e1565b92915050565b61031481610284565b811461031e575f5ffd5b50565b5f8151905061032f8161030b565b92915050565b5f5f5f6060848603121561034c5761034b610261565b5b5f610359868287016102bc565b935050602061036a868287016102f7565b925050604061037b86828701610321565b9150509250925092565b61038e81610284565b82525050565b5f6020820190506103a75f830184610385565b92915050565b6080516130676103f65f395f818161068d015281816106da0152818161081f01528181610e19015281816111aa01528181611273015281816115c8015261199901526130675ff3fe608060405234801561000f575f5ffd5b5060043610610156575f3560e01c80638cebd942116100c1578063e49fd42b1161007a578063e49fd42b146103eb578063e89826ac1461041b578063ef41ea7e14610437578063f0f4426014610455578063f2fde38b14610471578063f6c009271461048d57610156565b80638cebd942146103025780638da5cb5b14610335578063a160e32a14610353578063b0ed445014610383578063b52228dd1461039f578063c9630cb0146103cf57610156565b8063715018a611610113578063715018a61461025457806371b2e0271461025e57806376baa8941461027c5780637adbf973146102ac5780637dc0d1d0146102c857806387f8fc57146102e657610156565b8063040cf0201461015a5780631c9cab2e1461017657806335e856f2146101a657806345e4487a146101d6578063533701411461020657806361d027b314610236575b5f5ffd5b610174600480360381019061016f9190611d5d565b6104bd565b005b610190600480360381019061018b9190611d9b565b610754565b60405161019d9190611de8565b60405180910390f35b6101c060048036038101906101bb9190611e01565b610767565b6040516101cd9190611de8565b60405180910390f35b6101f060048036038101906101eb9190611f68565b61079b565b6040516101fd9190611fc9565b60405180910390f35b610220600480360381019061021b9190611d9b565b6107d0565b60405161022d9190611de8565b60405180910390f35b61023e6107e4565b60405161024b9190612021565b60405180910390f35b61025c61080a565b005b61026661081d565b6040516102739190612095565b60405180910390f35b61029660048036038101906102919190611d9b565b610841565b6040516102a39190611de8565b60405180910390f35b6102c660048036038101906102c191906120e9565b610854565b005b6102d061089f565b6040516102dd9190612134565b60405180910390f35b61030060048036038101906102fb9190612183565b6108c4565b005b61031c600480360381019061031791906121ae565b6108ee565b60405161032c9493929190612248565b60405180910390f35b61033d6109a0565b60405161034a9190612021565b60405180910390f35b61036d60048036038101906103689190611f68565b6109c7565b60405161037a9190611fc9565b60405180910390f35b61039d60048036038101906103989190612292565b6109fc565b005b6103b960048036038101906103b49190612360565b610c01565b6040516103c69190611de8565b60405180910390f35b6103e960048036038101906103e49190611d9b565b610c21565b005b610405600480360381019061040091906123c1565b610e92565b6040516104129190611de8565b60405180910390f35b61043560048036038101906104309190611f68565b610ea7565b005b61043f610ee8565b60405161044c919061242d565b60405180910390f35b61046f600480360381019061046a9190612446565b610efb565b005b61048b60048036038101906104869190612446565b610f47565b005b6104a760048036038101906104a291906121ae565b610fcb565b6040516104b49190612537565b60405180910390f35b5f81116104ff576040517f08c379a00000000000000000000000000000000000000000000000000000000081526004016104f6906125a1565b60405180910390fd5b5f5f60065f9054906101000a900473ffffffffffffffffffffffffffffffffffffffff1673ffffffffffffffffffffffffffffffffffffffff1663f6c00927856040518263ffffffff1660e01b815260040161055b91906125bf565b606060405180830381865afa158015610576573d5f5f3e3d5ffd5b505050506040513d601f19601f8201168201806040525081019061059a9190612635565b92509250505f6105aa84866110a3565b90505f6105b685610767565b905082156105c9576105c8848761116f565b5b5f60015f8881526020019081526020015f20905085816002015f8282546105f091906126b2565b9250508190555082816003015f82825461060a91906126b2565b925050819055508260045f8981526020019081526020015f205f61062c61134a565b73ffffffffffffffffffffffffffffffffffffffff1673ffffffffffffffffffffffffffffffffffffffff1681526020019081526020015f205f82825461067391906126b2565b92505081905550818661068691906126b2565b95506106d57f0000000000000000000000000000000000000000000000000000000000000000600560029054906101000a900473ffffffffffffffffffffffffffffffffffffffff1684611351565b6107077f000000000000000000000000000000000000000000000000000000000000000061070161134a565b88611351565b7f80bd7e915c065f64ef8e41fa6334d4a2b752591cb4d462c204b8e2449eb0a1f761073061134a565b87848a60405161074394939291906126e5565b60405180910390a150505050505050565b5f61075f83836110a3565b905092915050565b5f61079460055f9054906101000a900461ffff1661ffff1660646001856113d0909392919063ffffffff16565b9050919050565b6002818051602081018201805184825260208301602085012081835280955050505050505f915054906101000a900460ff1681565b5f6107dc83835f61141d565b905092915050565b600560029054906101000a900473ffffffffffffffffffffffffffffffffffffffff1681565b610812611699565b61081b5f611720565b565b7f000000000000000000000000000000000000000000000000000000000000000081565b5f61084c83836117e1565b905092915050565b61085c611699565b8060065f6101000a81548173ffffffffffffffffffffffffffffffffffffffff021916908373ffffffffffffffffffffffffffffffffffffffff16021790555050565b60065f9054906101000a900473ffffffffffffffffffffffffffffffffffffffff1681565b6108cc611699565b8060ff1660055f6101000a81548161ffff021916908361ffff16021790555050565b6001602052805f5260405f205f91509050805f01549080600101805461091390612755565b80601f016020809104026020016040519081016040528092919081815260200182805461093f90612755565b801561098a5780601f106109615761010080835404028352916020019161098a565b820191905f5260205f20905b81548152906001019060200180831161096d57829003601f168201915b5050505050908060020154908060030154905084565b5f5f5f9054906101000a900473ffffffffffffffffffffffffffffffffffffffff16905090565b6003818051602081018201805184825260208301602085012081835280955050505050505f915054906101000a900460ff1681565b610a04611699565b600283604051610a1491906127bf565b90815260200160405180910390205f9054906101000a900460ff16610a6e576040517f08c379a0000000000000000000000000000000000000000000000000000000008152600401610a659061281f565b60405180910390fd5b600381604051610a7e91906127bf565b90815260200160405180910390205f9054906101000a900460ff16610ad4576001600382604051610aaf91906127bf565b90815260200160405180910390205f6101000a81548160ff0219169083151502179055505b5f838383604051602001610aea9392919061283d565b6040516020818303038152906040528051906020012090508060015f8381526020019081526020015f205f015403610b57576040517f08c379a0000000000000000000000000000000000000000000000000000000008152600401610b4e906128d1565b60405180910390fd5b60405180608001604052808281526020018381526020015f81526020015f81525060015f8381526020019081526020015f205f820151815f01556020820151816001019081610ba69190612a86565b5060408201518160020155606082015181600301559050507f7181b16923baef00c8363c00a31376978edcdc57c84083185389ab8367b5f7c184848484604051610bf39493929190612b55565b60405180910390a150505050565b6004602052815f5260405f20602052805f5260405f205f91509150505481565b5f8211610c63576040517f08c379a0000000000000000000000000000000000000000000000000000000008152600401610c5a90612bf7565b60405180910390fd5b5f5f5f60065f9054906101000a900473ffffffffffffffffffffffffffffffffffffffff1673ffffffffffffffffffffffffffffffffffffffff1663f6c00927856040518263ffffffff1660e01b8152600401610cc091906125bf565b606060405180830381865afa158015610cdb573d5f5f3e3d5ffd5b505050506040513d601f19601f82011682018060405250810190610cff9190612635565b92509250925082610d45576040517f08c379a0000000000000000000000000000000000000000000000000000000008152600401610d3c90612c5f565b60405180910390fd5b5f610d5086866107d0565b90508115610d6357610d62838661116f565b5b5f60015f8781526020019081526020015f20905086816002015f828254610d8a9190612c7d565b9250508190555081816003015f828254610da49190612c7d565b925050819055508160045f8881526020019081526020015f205f610dc661134a565b73ffffffffffffffffffffffffffffffffffffffff1673ffffffffffffffffffffffffffffffffffffffff1681526020019081526020015f205f828254610e0d9190612c7d565b92505081905550610e477f0000000000000000000000000000000000000000000000000000000000000000610e4061134a565b308a611a5d565b7f1a771fe656018364a9369da21954bb3081cb08b0196c27e43ca59c7cae872737610e7061134a565b8888604051610e8193929190612cb0565b60405180910390a150505050505050565b5f610e9e84848461141d565b90509392505050565b610eaf611699565b6001600282604051610ec191906127bf565b90815260200160405180910390205f6101000a81548160ff02191690831515021790555050565b60055f9054906101000a900461ffff1681565b610f03611699565b80600560026101000a81548173ffffffffffffffffffffffffffffffffffffffff021916908373ffffffffffffffffffffffffffffffffffffffff16021790555050565b610f4f611699565b5f73ffffffffffffffffffffffffffffffffffffffff168173ffffffffffffffffffffffffffffffffffffffff1603610fbf575f6040517f1e4fbdf7000000000000000000000000000000000000000000000000000000008152600401610fb69190612021565b60405180910390fd5b610fc881611720565b50565b610fd3611cc1565b60015f8381526020019081526020015f206040518060800160405290815f820154815260200160018201805461100890612755565b80601f016020809104026020016040519081016040528092919081815260200182805461103490612755565b801561107f5780601f106110565761010080835404028352916020019161107f565b820191905f5260205f20905b81548152906001019060200180831161106257829003601f168201915b50505050508152602001600282015481526020016003820154815250509050919050565b5f5f6110b18484600161141d565b905060045f8481526020019081526020015f205f6110cd61134a565b73ffffffffffffffffffffffffffffffffffffffff1673ffffffffffffffffffffffffffffffffffffffff1681526020019081526020015f20548111156111655760045f8481526020019081526020015f205f61112861134a565b73ffffffffffffffffffffffffffffffffffffffff1673ffffffffffffffffffffffffffffffffffffffff1681526020019081526020015f205490505b8091505092915050565b5f60015f8381526020019081526020015f2090505f8313156111f85782816002015f82825461119e9190612c7d565b925050819055506111f37f0000000000000000000000000000000000000000000000000000000000000000600560029054906101000a900473ffffffffffffffffffffffffffffffffffffffff163086611a5d565b6112be565b5f8312156112bd575f8361120b90612ce5565b90508082600201541015611254576040517f08c379a000000000000000000000000000000000000000000000000000000000815260040161124b90612d75565b60405180910390fd5b80826002015f82825461126791906126b2565b925050819055506112bb7f0000000000000000000000000000000000000000000000000000000000000000600560029054906101000a900473ffffffffffffffffffffffffffffffffffffffff1683611351565b505b5b60065f9054906101000a900473ffffffffffffffffffffffffffffffffffffffff1673ffffffffffffffffffffffffffffffffffffffff1663bbca6c24836040518263ffffffff1660e01b815260040161131891906125bf565b5f604051808303815f87803b15801561132f575f5ffd5b505af1158015611341573d5f5f3e3d5ffd5b50505050505050565b5f33905090565b6113cb838473ffffffffffffffffffffffffffffffffffffffff1663a9059cbb8585604051602401611384929190612d93565b604051602081830303815290604052915060e01b6020820180517bffffffffffffffffffffffffffffffffffffffffffffffffffffffff8381831617835250505050611adf565b505050565b5f6113fe6113dd83611b7a565b80156113f957505f84806113f4576113f3612dba565b5b868809115b611ba7565b611409868686611bb2565b6114139190612c7d565b9050949350505050565b5f5f60065f9054906101000a900473ffffffffffffffffffffffffffffffffffffffff1673ffffffffffffffffffffffffffffffffffffffff1663f6c00927856040518263ffffffff1660e01b815260040161147991906125bf565b606060405180830381865afa158015611494573d5f5f3e3d5ffd5b505050506040513d601f19601f820116820180604052508101906114b89190612635565b509150505f60015f8681526020019081526020015f206040518060800160405290815f82015481526020016001820180546114f290612755565b80601f016020809104026020016040519081016040528092919081815260200182805461151e90612755565b80156115695780601f1061154057610100808354040283529160200191611569565b820191905f5260205f20905b81548152906001019060200180831161154c57829003601f168201915b505050505081526020016002820154815260200160038201548152505090505f816040015190505f8312156115b457826115a290612ce5565b816115ad91906126b2565b90506115c3565b82816115c09190612c7d565b90505b61168d7f000000000000000000000000000000000000000000000000000000000000000073ffffffffffffffffffffffffffffffffffffffff1663313ce5676040518163ffffffff1660e01b8152600401602060405180830381865afa15801561162f573d5f5f3e3d5ffd5b505050506040513d601f19601f820116820180604052508101906116539190612dfb565b600a61165f9190612f55565b836060015161166e9190612c7d565b60018361167b9190612c7d565b878a6113d0909392919063ffffffff16565b93505050509392505050565b6116a161134a565b73ffffffffffffffffffffffffffffffffffffffff166116bf6109a0565b73ffffffffffffffffffffffffffffffffffffffff161461171e576116e261134a565b6040517f118cdaa70000000000000000000000000000000000000000000000000000000081526004016117159190612021565b60405180910390fd5b565b5f5f5f9054906101000a900473ffffffffffffffffffffffffffffffffffffffff169050815f5f6101000a81548173ffffffffffffffffffffffffffffffffffffffff021916908373ffffffffffffffffffffffffffffffffffffffff1602179055508173ffffffffffffffffffffffffffffffffffffffff168173ffffffffffffffffffffffffffffffffffffffff167f8be0079c531659141344cd1fd0a4f28419497f9722a3daafe3b4186f6b6457e060405160405180910390a35050565b5f5f60065f9054906101000a900473ffffffffffffffffffffffffffffffffffffffff1673ffffffffffffffffffffffffffffffffffffffff1663f6c00927846040518263ffffffff1660e01b815260040161183d91906125bf565b606060405180830381865afa158015611858573d5f5f3e3d5ffd5b505050506040513d601f19601f8201168201806040525081019061187c9190612635565b509150505f60015f8581526020019081526020015f206040518060800160405290815f82015481526020016001820180546118b690612755565b80601f01602080910402602001604051908101604052809291908181526020018280546118e290612755565b801561192d5780601f106119045761010080835404028352916020019161192d565b820191905f5260205f20905b81548152906001019060200180831161191057829003601f168201915b505050505081526020016002820154815260200160038201548152505090505f816040015190505f831215611978578261196690612ce5565b8161197191906126b2565b9050611987565b82816119849190612c7d565b90505b611a526001826119979190612c7d565b7f000000000000000000000000000000000000000000000000000000000000000073ffffffffffffffffffffffffffffffffffffffff1663313ce5676040518163ffffffff1660e01b8152600401602060405180830381865afa158015611a00573d5f5f3e3d5ffd5b505050506040513d601f19601f82011682018060405250810190611a249190612dfb565b600a611a309190612f55565b8460600151611a3f9190612c7d565b6001896113d0909392919063ffffffff16565b935050505092915050565b611ad9848573ffffffffffffffffffffffffffffffffffffffff166323b872dd868686604051602401611a9293929190612f9f565b604051602081830303815290604052915060e01b6020820180517bffffffffffffffffffffffffffffffffffffffffffffffffffffffff8381831617835250505050611adf565b50505050565b5f5f60205f8451602086015f885af180611afe576040513d5f823e3d81fd5b3d92505f519150505f8214611b17576001811415611b32565b5f8473ffffffffffffffffffffffffffffffffffffffff163b145b15611b7457836040517f5274afe7000000000000000000000000000000000000000000000000000000008152600401611b6b9190612021565b60405180910390fd5b50505050565b5f60016002836003811115611b9257611b91612fd4565b5b611b9c9190613001565b60ff16149050919050565b5f8115159050919050565b5f5f83850290505f5f19858709828110838203039150505f8103611bea57838281611be057611bdf612dba565b5b0492505050611c90565b808411611c0957611c08611c035f861460126011611c97565b611cb0565b5b5f8486880990508281118203915080830392505f855f038616905080860495508084049350600181825f0304019050808302841793505f600287600302189050808702600203810290508087026002038102905080870260020381029050808702600203810290508087026002038102905080870260020381029050808502955050505050505b9392505050565b5f611ca184611ba7565b82841802821890509392505050565b634e487b715f52806020526024601cfd5b60405180608001604052805f8152602001606081526020015f81526020015f81525090565b5f604051905090565b5f5ffd5b5f5ffd5b5f819050919050565b611d0981611cf7565b8114611d13575f5ffd5b50565b5f81359050611d2481611d00565b92915050565b5f819050919050565b611d3c81611d2a565b8114611d46575f5ffd5b50565b5f81359050611d5781611d33565b92915050565b5f5f60408385031215611d7357611d72611cef565b5b5f611d8085828601611d16565b9250506020611d9185828601611d49565b9150509250929050565b5f5f60408385031215611db157611db0611cef565b5b5f611dbe85828601611d49565b9250506020611dcf85828601611d16565b9150509250929050565b611de281611d2a565b82525050565b5f602082019050611dfb5f830184611dd9565b92915050565b5f60208284031215611e1657611e15611cef565b5b5f611e2384828501611d49565b91505092915050565b5f5ffd5b5f5ffd5b5f601f19601f8301169050919050565b7f4e487b71000000000000000000000000000000000000000000000000000000005f52604160045260245ffd5b611e7a82611e34565b810181811067ffffffffffffffff82111715611e9957611e98611e44565b5b80604052505050565b5f611eab611ce6565b9050611eb78282611e71565b919050565b5f67ffffffffffffffff821115611ed657611ed5611e44565b5b611edf82611e34565b9050602081019050919050565b828183375f83830152505050565b5f611f0c611f0784611ebc565b611ea2565b905082815260208101848484011115611f2857611f27611e30565b5b611f33848285611eec565b509392505050565b5f82601f830112611f4f57611f4e611e2c565b5b8135611f5f848260208601611efa565b91505092915050565b5f60208284031215611f7d57611f7c611cef565b5b5f82013567ffffffffffffffff811115611f9a57611f99611cf3565b5b611fa684828501611f3b565b91505092915050565b5f8115159050919050565b611fc381611faf565b82525050565b5f602082019050611fdc5f830184611fba565b92915050565b5f73ffffffffffffffffffffffffffffffffffffffff82169050919050565b5f61200b82611fe2565b9050919050565b61201b81612001565b82525050565b5f6020820190506120345f830184612012565b92915050565b5f819050919050565b5f61205d61205861205384611fe2565b61203a565b611fe2565b9050919050565b5f61206e82612043565b9050919050565b5f61207f82612064565b9050919050565b61208f81612075565b82525050565b5f6020820190506120a85f830184612086565b92915050565b5f6120b882612001565b9050919050565b6120c8816120ae565b81146120d2575f5ffd5b50565b5f813590506120e3816120bf565b92915050565b5f602082840312156120fe576120fd611cef565b5b5f61210b848285016120d5565b91505092915050565b5f61211e82612064565b9050919050565b61212e81612114565b82525050565b5f6020820190506121475f830184612125565b92915050565b5f60ff82169050919050565b6121628161214d565b811461216c575f5ffd5b50565b5f8135905061217d81612159565b92915050565b5f6020828403121561219857612197611cef565b5b5f6121a58482850161216f565b91505092915050565b5f602082840312156121c3576121c2611cef565b5b5f6121d084828501611d16565b91505092915050565b6121e281611cf7565b82525050565b5f81519050919050565b5f82825260208201905092915050565b8281835e5f83830152505050565b5f61221a826121e8565b61222481856121f2565b9350612234818560208601612202565b61223d81611e34565b840191505092915050565b5f60808201905061225b5f8301876121d9565b818103602083015261226d8186612210565b905061227c6040830185611dd9565b6122896060830184611dd9565b95945050505050565b5f5f5f606084860312156122a9576122a8611cef565b5b5f84013567ffffffffffffffff8111156122c6576122c5611cf3565b5b6122d286828701611f3b565b935050602084013567ffffffffffffffff8111156122f3576122f2611cf3565b5b6122ff86828701611f3b565b925050604084013567ffffffffffffffff8111156123205761231f611cf3565b5b61232c86828701611f3b565b9150509250925092565b61233f81612001565b8114612349575f5ffd5b50565b5f8135905061235a81612336565b92915050565b5f5f6040838503121561237657612375611cef565b5b5f61238385828601611d16565b92505060206123948582860161234c565b9150509250929050565b600481106123aa575f5ffd5b50565b5f813590506123bb8161239e565b92915050565b5f5f5f606084860312156123d8576123d7611cef565b5b5f6123e586828701611d49565b93505060206123f686828701611d16565b9250506040612407868287016123ad565b9150509250925092565b5f61ffff82169050919050565b61242781612411565b82525050565b5f6020820190506124405f83018461241e565b92915050565b5f6020828403121561245b5761245a611cef565b5b5f6124688482850161234c565b91505092915050565b61247a81611cf7565b82525050565b5f82825260208201905092915050565b5f61249a826121e8565b6124a48185612480565b93506124b4818560208601612202565b6124bd81611e34565b840191505092915050565b6124d181611d2a565b82525050565b5f608083015f8301516124ec5f860182612471565b50602083015184820360208601526125048282612490565b915050604083015161251960408601826124c8565b50606083015161252c60608601826124c8565b508091505092915050565b5f6020820190508181035f83015261254f81846124d7565b905092915050565b7f416d6f756e74206e6f742076616c7565000000000000000000000000000000005f82015250565b5f61258b6010836121f2565b915061259682612557565b602082019050919050565b5f6020820190508181035f8301526125b88161257f565b9050919050565b5f6020820190506125d25f8301846121d9565b92915050565b6125e181611faf565b81146125eb575f5ffd5b50565b5f815190506125fc816125d8565b92915050565b5f819050919050565b61261481612602565b811461261e575f5ffd5b50565b5f8151905061262f8161260b565b92915050565b5f5f5f6060848603121561264c5761264b611cef565b5b5f612659868287016125ee565b935050602061266a86828701612621565b925050604061267b868287016125ee565b9150509250925092565b7f4e487b71000000000000000000000000000000000000000000000000000000005f52601160045260245ffd5b5f6126bc82611d2a565b91506126c783611d2a565b92508282039050818111156126df576126de612685565b5b92915050565b5f6080820190506126f85f830187612012565b6127056020830186611dd9565b6127126040830185611dd9565b61271f60608301846121d9565b95945050505050565b7f4e487b71000000000000000000000000000000000000000000000000000000005f52602260045260245ffd5b5f600282049050600182168061276c57607f821691505b60208210810361277f5761277e612728565b5b50919050565b5f81905092915050565b5f612799826121e8565b6127a38185612785565b93506127b3818560208601612202565b80840191505092915050565b5f6127ca828461278f565b915081905092915050565b7f47616d65206e6f742072656769737465726564000000000000000000000000005f82015250565b5f6128096013836121f2565b9150612814826127d5565b602082019050919050565b5f6020820190508181035f830152612836816127fd565b9050919050565b5f6060820190508181035f8301526128558186612210565b905081810360208301526128698185612210565b9050818103604083015261287d8184612210565b9050949350505050565b7f506f6f6c20616c726561647920726567697374657265640000000000000000005f82015250565b5f6128bb6017836121f2565b91506128c682612887565b602082019050919050565b5f6020820190508181035f8301526128e8816128af565b9050919050565b5f819050815f5260205f209050919050565b5f6020601f8301049050919050565b5f82821b905092915050565b5f6008830261294b7fffffffffffffffffffffffffffffffffffffffffffffffffffffffffffffffff82612910565b6129558683612910565b95508019841693508086168417925050509392505050565b5f61298761298261297d84611d2a565b61203a565b611d2a565b9050919050565b5f819050919050565b6129a08361296d565b6129b46129ac8261298e565b84845461291c565b825550505050565b5f5f905090565b6129cb6129bc565b6129d6818484612997565b505050565b5b818110156129f9576129ee5f826129c3565b6001810190506129dc565b5050565b601f821115612a3e57612a0f816128ef565b612a1884612901565b81016020851015612a27578190505b612a3b612a3385612901565b8301826129db565b50505b505050565b5f82821c905092915050565b5f612a5e5f1984600802612a43565b1980831691505092915050565b5f612a768383612a4f565b9150826002028217905092915050565b612a8f826121e8565b67ffffffffffffffff811115612aa857612aa7611e44565b5b612ab28254612755565b612abd8282856129fd565b5f60209050601f831160018114612aee575f8415612adc578287015190505b612ae68582612a6b565b865550612b4d565b601f198416612afc866128ef565b5f5b82811015612b2357848901518255600182019150602085019450602081019050612afe565b86831015612b405784890151612b3c601f891682612a4f565b8355505b6001600288020188555050505b505050505050565b5f6080820190508181035f830152612b6d8187612210565b90508181036020830152612b818186612210565b90508181036040830152612b958185612210565b9050612ba460608301846121d9565b95945050505050565b7f416d6f756e742063616e6e6f74206265207a65726f00000000000000000000005f82015250565b5f612be16015836121f2565b9150612bec82612bad565b602082019050919050565b5f6020820190508181035f830152612c0e81612bd5565b9050919050565b7f506f6f6c206e6f742061637469766500000000000000000000000000000000005f82015250565b5f612c49600f836121f2565b9150612c5482612c15565b602082019050919050565b5f6020820190508181035f830152612c7681612c3d565b9050919050565b5f612c8782611d2a565b9150612c9283611d2a565b9250828201905080821115612caa57612ca9612685565b5b92915050565b5f606082019050612cc35f830186612012565b612cd06020830185611dd9565b612cdd60408301846121d9565b949350505050565b5f612cef82612602565b91507f80000000000000000000000000000000000000000000000000000000000000008203612d2157612d20612685565b5b815f039050919050565b7f4465707420616d6f756e742076616c7565206e6f742076616c696400000000005f82015250565b5f612d5f601b836121f2565b9150612d6a82612d2b565b602082019050919050565b5f6020820190508181035f830152612d8c81612d53565b9050919050565b5f604082019050612da65f830185612012565b612db36020830184611dd9565b9392505050565b7f4e487b71000000000000000000000000000000000000000000000000000000005f52601260045260245ffd5b5f81519050612df581612159565b92915050565b5f60208284031215612e1057612e0f611cef565b5b5f612e1d84828501612de7565b91505092915050565b5f8160011c9050919050565b5f5f8291508390505b6001851115612e7b57808604811115612e5757612e56612685565b5b6001851615612e665780820291505b8081029050612e7485612e26565b9450612e3b565b94509492505050565b5f82612e935760019050612f4e565b81612ea0575f9050612f4e565b8160018114612eb65760028114612ec057612eef565b6001915050612f4e565b60ff841115612ed257612ed1612685565b5b8360020a915084821115612ee957612ee8612685565b5b50612f4e565b5060208310610133831016604e8410600b8410161715612f245782820a905083811115612f1f57612f1e612685565b5b612f4e565b612f318484846001612e32565b92509050818404811115612f4857612f47612685565b5b81810290505b9392505050565b5f612f5f82611d2a565b9150612f6a8361214d565b9250612f977fffffffffffffffffffffffffffffffffffffffffffffffffffffffffffffffff8484612e84565b905092915050565b5f606082019050612fb25f830186612012565b612fbf6020830185612012565b612fcc6040830184611dd9565b949350505050565b7f4e487b71000000000000000000000000000000000000000000000000000000005f52602160045260245ffd5b5f61300b8261214d565b91506130168361214d565b92508261302657613025612dba565b5b82820690509291505056fea26469706673582212202a5fa09ec7536fa97bd9793ace660bdafa74014a2be6400706b813ea18338ff164736f6c634300081c0033","linkReferences":{}},"methodIdentifiers":{"addGame(string)":"e89826ac","convertToAssets(uint256,bytes32)":"76baa894","convertToShares(uint256,bytes32,uint8)":"e49fd42b","createPool(string,string,string)":"b0ed4450","deposit(uint256,bytes32)":"c9630cb0","eBolt()":"71b2e027","feePerc()":"ef41ea7e","gamesRegistered(string)":"45e4487a","getPool(bytes32)":"f6c00927","oracle()":"7dc0d1d0","owner()":"8da5cb5b","poolInfo(bytes32)":"8cebd942","previewDeposit(uint256,bytes32)":"53370141","previewFee(uint256)":"35e856f2","previewWithdraw(uint256,bytes32)":"1c9cab2e","renounceOwnership()":"715018a6","setDevFee(uint8)":"87f8fc57","setOracle(address)":"7adbf973","setTreasury(address)":"f0f44260","sharesByAddress(bytes32,address)":"b52228dd","transferOwnership(address)":"f2fde38b","treasury()":"61d027b3","usersRegistered(string)":"a160e32a","withdraw(bytes32,uint256)":"040cf020"},"id":56}