{"abi":[{"type":"constructor","inputs":[{"name":"_notary","type":"address","internalType":"address"}],"stateMutability":"nonpayable"},{"type":"function","name":"DOMAIN_SEPARATOR","inputs":[],"outputs":[{"name":"","type":"bytes32","internalType":"bytes32"}],"stateMutability":"view"},{"type":"function","name":"allowance","inputs":[{"name":"owner","type":"address","internalType":"address"},{"name":"spender","type":"address","internalType":"address"}],"outputs":[{"name":"","type":"uint256","internalType":"uint256"}],"stateMutability":"view"},{"type":"function","name":"approve","inputs":[{"name":"spender","type":"address","internalType":"address"},{"name":"value","type":"uint256","internalType":"uint256"}],"outputs":[{"name":"","type":"bool","internalType":"bool"}],"stateMutability":"nonpayable"},{"type":"function","name":"balanceOf","inputs":[{"name":"account","type":"address","internalType":"address"}],"outputs":[{"name":"","type":"uint256","internalType":"uint256"}],"stateMutability":"view"},{"type":"function","name":"burn","inputs":[{"name":"value","type":"uint256","internalType":"uint256"}],"outputs":[],"stateMutability":"nonpayable"},{"type":"function","name":"burnFrom","inputs":[{"name":"account","type":"address","internalType":"address"},{"name":"value","type":"uint256","internalType":"uint256"}],"outputs":[],"stateMutability":"nonpayable"},{"type":"function","name":"decimals","inputs":[],"outputs":[{"name":"","type":"uint8","internalType":"uint8"}],"stateMutability":"view"},{"type":"function","name":"eip712Domain","inputs":[],"outputs":[{"name":"fields","type":"bytes1","internalType":"bytes1"},{"name":"name","type":"string","internalType":"string"},{"name":"version","type":"string","internalType":"string"},{"name":"chainId","type":"uint256","internalType":"uint256"},{"name":"verifyingContract","type":"address","internalType":"address"},{"name":"salt","type":"bytes32","internalType":"bytes32"},{"name":"extensions","type":"uint256[]","internalType":"uint256[]"}],"stateMutability":"view"},{"type":"function","name":"hashesUsed","inputs":[{"name":"","type":"bytes32","internalType":"bytes32"}],"outputs":[{"name":"","type":"bool","internalType":"bool"}],"stateMutability":"view"},{"type":"function","name":"mint","inputs":[{"name":"to","type":"address","internalType":"address"},{"name":"amount","type":"uint256","internalType":"uint256"}],"outputs":[],"stateMutability":"nonpayable"},{"type":"function","name":"mintWithSignedMessage","inputs":[{"name":"_signature","type":"bytes","internalType":"bytes"},{"name":"_nonce","type":"uint256","internalType":"uint256"},{"name":"_amountToMint","type":"uint256","internalType":"uint256"}],"outputs":[],"stateMutability":"nonpayable"},{"type":"function","name":"name","inputs":[],"outputs":[{"name":"","type":"string","internalType":"string"}],"stateMutability":"view"},{"type":"function","name":"nonces","inputs":[{"name":"owner","type":"address","internalType":"address"}],"outputs":[{"name":"","type":"uint256","internalType":"uint256"}],"stateMutability":"view"},{"type":"function","name":"notary","inputs":[],"outputs":[{"name":"","type":"address","internalType":"address"}],"stateMutability":"view"},{"type":"function","name":"owner","inputs":[],"outputs":[{"name":"","type":"address","internalType":"address"}],"stateMutability":"view"},{"type":"function","name":"pause","inputs":[],"outputs":[],"stateMutability":"nonpayable"},{"type":"function","name":"paused","inputs":[],"outputs":[{"name":"","type":"bool","internalType":"bool"}],"stateMutability":"view"},{"type":"function","name":"permit","inputs":[{"name":"owner","type":"address","internalType":"address"},{"name":"spender","type":"address","internalType":"address"},{"name":"value","type":"uint256","internalType":"uint256"},{"name":"deadline","type":"uint256","internalType":"uint256"},{"name":"v","type":"uint8","internalType":"uint8"},{"name":"r","type":"bytes32","internalType":"bytes32"},{"name":"s","type":"bytes32","internalType":"bytes32"}],"outputs":[],"stateMutability":"nonpayable"},{"type":"function","name":"renounceOwnership","inputs":[],"outputs":[],"stateMutability":"nonpayable"},{"type":"function","name":"setNotary","inputs":[{"name":"_notary","type":"address","internalType":"address"}],"outputs":[],"stateMutability":"nonpayable"},{"type":"function","name":"symbol","inputs":[],"outputs":[{"name":"","type":"string","internalType":"string"}],"stateMutability":"view"},{"type":"function","name":"totalSupply","inputs":[],"outputs":[{"name":"","type":"uint256","internalType":"uint256"}],"stateMutability":"view"},{"type":"function","name":"transfer","inputs":[{"name":"to","type":"address","internalType":"address"},{"name":"value","type":"uint256","internalType":"uint256"}],"outputs":[{"name":"","type":"bool","internalType":"bool"}],"stateMutability":"nonpayable"},{"type":"function","name":"transferFrom","inputs":[{"name":"from","type":"address","internalType":"address"},{"name":"to","type":"address","internalType":"address"},{"name":"value","type":"uint256","internalType":"uint256"}],"outputs":[{"name":"","type":"bool","internalType":"bool"}],"stateMutability":"nonpayable"},{"type":"function","name":"transferOwnership","inputs":[{"name":"newOwner","type":"address","internalType":"address"}],"outputs":[],"stateMutability":"nonpayable"},{"type":"function","name":"unpause","inputs":[],"outputs":[],"stateMutability":"nonpayable"},{"type":"event","name":"Approval","inputs":[{"name":"owner","type":"address","indexed":true,"internalType":"address"},{"name":"spender","type":"address","indexed":true,"internalType":"address"},{"name":"value","type":"uint256","indexed":false,"internalType":"uint256"}],"anonymous":false},{"type":"event","name":"EIP712DomainChanged","inputs":[],"anonymous":false},{"type":"event","name":"NewHashRegistered","inputs":[{"name":"hashRegistered","type":"bytes32","indexed":false,"internalType":"bytes32"},{"name":"signedBy","type":"address","indexed":false,"internalType":"address"},{"name":"redeemedBy","type":"address","indexed":false,"internalType":"address"}],"anonymous":false},{"type":"event","name":"NotaryAddressChanged","inputs":[{"name":"oldAddress","type":"address","indexed":false,"internalType":"address"},{"name":"newAddress","type":"address","indexed":false,"internalType":"address"}],"anonymous":false},{"type":"event","name":"OwnershipTransferred","inputs":[{"name":"previousOwner","type":"address","indexed":true,"internalType":"address"},{"name":"newOwner","type":"address","indexed":true,"internalType":"address"}],"anonymous":false},{"type":"event","name":"Paused","inputs":[{"name":"account","type":"address","indexed":false,"internalType":"address"}],"anonymous":false},{"type":"event","name":"Transfer","inputs":[{"name":"from","type":"address","indexed":true,"internalType":"address"},{"name":"to","type":"address","indexed":true,"internalType":"address"},{"name":"value","type":"uint256","indexed":false,"internalType":"uint256"}],"anonymous":false},{"type":"event","name":"Unpaused","inputs":[{"name":"account","type":"address","indexed":false,"internalType":"address"}],"anonymous":false},{"type":"error","name":"ECDSAInvalidSignature","inputs":[]},{"type":"error","name":"ECDSAInvalidSignatureLength","inputs":[{"name":"length","type":"uint256","internalType":"uint256"}]},{"type":"error","name":"ECDSAInvalidSignatureS","inputs":[{"name":"s","type":"bytes32","internalType":"bytes32"}]},{"type":"error","name":"ERC20InsufficientAllowance","inputs":[{"name":"spender","type":"address","internalType":"address"},{"name":"allowance","type":"uint256","internalType":"uint256"},{"name":"needed","type":"uint256","internalType":"uint256"}]},{"type":"error","name":"ERC20InsufficientBalance","inputs":[{"name":"sender","type":"address","internalType":"address"},{"name":"balance","type":"uint256","internalType":"uint256"},{"name":"needed","type":"uint256","internalType":"uint256"}]},{"type":"error","name":"ERC20InvalidApprover","inputs":[{"name":"approver","type":"address","internalType":"address"}]},{"type":"error","name":"ERC20InvalidReceiver","inputs":[{"name":"receiver","type":"address","internalType":"address"}]},{"type":"error","name":"ERC20InvalidSender","inputs":[{"name":"sender","type":"address","internalType":"address"}]},{"type":"error","name":"ERC20InvalidSpender","inputs":[{"name":"spender","type":"address","internalType":"address"}]},{"type":"error","name":"ERC2612ExpiredSignature","inputs":[{"name":"deadline","type":"uint256","internalType":"uint256"}]},{"type":"error","name":"ERC2612InvalidSigner","inputs":[{"name":"signer","type":"address","internalType":"address"},{"name":"owner","type":"address","internalType":"address"}]},{"type":"error","name":"EnforcedPause","inputs":[]},{"type":"error","name":"ExpectedPause","inputs":[]},{"type":"error","name":"InvalidAccountNonce","inputs":[{"name":"account","type":"address","internalType":"address"},{"name":"currentNonce","type":"uint256","internalType":"uint256"}]},{"type":"error","name":"InvalidShortString","inputs":[]},{"type":"error","name":"OwnableInvalidOwner","inputs":[{"name":"owner","type":"address","internalType":"address"}]},{"type":"error","name":"OwnableUnauthorizedAccount","inputs":[{"name":"account","type":"address","internalType":"address"}]},{"type":"error","name":"StringTooLong","inputs":[{"name":"str","type":"string","internalType":"string"}]}],"bytecode":{"object":"0x610160604052348015610010575f5ffd5b5060405161392138038061392183398181016040528101906100329190610863565b6040518060400160405280600481526020017f426f6c7400000000000000000000000000000000000000000000000000000000815250806040518060400160405280600181526020017f3100000000000000000000000000000000000000000000000000000000000000815250336040518060400160405280600481526020017f426f6c74000000000000000000000000000000000000000000000000000000008152506040518060400160405280600381526020017f424c540000000000000000000000000000000000000000000000000000000000815250816003908161011b9190610acb565b50806004908161012b9190610acb565b5050505f60055f6101000a81548160ff0219169083151502179055505f73ffffffffffffffffffffffffffffffffffffffff168173ffffffffffffffffffffffffffffffffffffffff16036101b7575f6040517f1e4fbdf70000000000000000000000000000000000000000000000000000000081526004016101ae9190610ba9565b60405180910390fd5b6101c6816102ef60201b60201c565b506101db6006836103b460201b90919060201c565b61012081815250506101f76007826103b460201b90919060201c565b6101408181525050818051906020012060e08181525050808051906020012061010081815250504660a0818152505061023461040160201b60201c565b608081815250503073ffffffffffffffffffffffffffffffffffffffff1660c08173ffffffffffffffffffffffffffffffffffffffff16815250505050506102a93361028461045b60201b60201c565b600a6102909190610d2a565b6298968061029e9190610d74565b61046360201b60201c565b80600a5f6101000a81548173ffffffffffffffffffffffffffffffffffffffff021916908373ffffffffffffffffffffffffffffffffffffffff16021790555050610fc7565b5f600560019054906101000a900473ffffffffffffffffffffffffffffffffffffffff16905081600560016101000a81548173ffffffffffffffffffffffffffffffffffffffff021916908373ffffffffffffffffffffffffffffffffffffffff1602179055508173ffffffffffffffffffffffffffffffffffffffff168173ffffffffffffffffffffffffffffffffffffffff167f8be0079c531659141344cd1fd0a4f28419497f9722a3daafe3b4186f6b6457e060405160405180910390a35050565b5f6020835110156103d5576103ce836104e860201b60201c565b90506103fb565b826103e58361054d60201b60201c565b5f0190816103f39190610acb565b5060ff5f1b90505b92915050565b5f7f8b73c3c69bb8fe3d512ecc4cf759cc79239f7b179b0ffacaa9a75d522b39400f60e051610100514630604051602001610440959493929190610ddc565b60405160208183030381529060405280519060200120905090565b5f6012905090565b5f73ffffffffffffffffffffffffffffffffffffffff168273ffffffffffffffffffffffffffffffffffffffff16036104d3575f6040517fec442f050000000000000000000000000000000000000000000000000000000081526004016104ca9190610ba9565b60405180910390fd5b6104e45f838361055660201b60201c565b5050565b5f5f829050601f8151111561053457826040517f305a27a900000000000000000000000000000000000000000000000000000000815260040161052b9190610e93565b60405180910390fd5b80518161054090610ee0565b5f1c175f1b915050919050565b5f819050919050565b61056783838361056c60201b60201c565b505050565b61057a61059060201b60201c565b61058b8383836105d760201b60201c565b505050565b61059e6107f060201b60201c565b156105d5576040517fd93c066500000000000000000000000000000000000000000000000000000000815260040160405180910390fd5b565b5f73ffffffffffffffffffffffffffffffffffffffff168373ffffffffffffffffffffffffffffffffffffffff1603610627578060025f82825461061b9190610f46565b925050819055506106f5565b5f5f5f8573ffffffffffffffffffffffffffffffffffffffff1673ffffffffffffffffffffffffffffffffffffffff1681526020019081526020015f20549050818110156106b0578381836040517fe450d38c0000000000000000000000000000000000000000000000000000000081526004016106a793929190610f79565b60405180910390fd5b8181035f5f8673ffffffffffffffffffffffffffffffffffffffff1673ffffffffffffffffffffffffffffffffffffffff1681526020019081526020015f2081905550505b5f73ffffffffffffffffffffffffffffffffffffffff168273ffffffffffffffffffffffffffffffffffffffff160361073c578060025f8282540392505081905550610786565b805f5f8473ffffffffffffffffffffffffffffffffffffffff1673ffffffffffffffffffffffffffffffffffffffff1681526020019081526020015f205f82825401925050819055505b8173ffffffffffffffffffffffffffffffffffffffff168373ffffffffffffffffffffffffffffffffffffffff167fddf252ad1be2c89b69c2b068fc378daa952ba7f163c4a11628f55a4df523b3ef836040516107e39190610fae565b60405180910390a3505050565b5f60055f9054906101000a900460ff16905090565b5f5ffd5b5f73ffffffffffffffffffffffffffffffffffffffff82169050919050565b5f61083282610809565b9050919050565b61084281610828565b811461084c575f5ffd5b50565b5f8151905061085d81610839565b92915050565b5f6020828403121561087857610877610805565b5b5f6108858482850161084f565b91505092915050565b5f81519050919050565b7f4e487b71000000000000000000000000000000000000000000000000000000005f52604160045260245ffd5b7f4e487b71000000000000000000000000000000000000000000000000000000005f52602260045260245ffd5b5f600282049050600182168061090957607f821691505b60208210810361091c5761091b6108c5565b5b50919050565b5f819050815f5260205f209050919050565b5f6020601f8301049050919050565b5f82821b905092915050565b5f6008830261097e7fffffffffffffffffffffffffffffffffffffffffffffffffffffffffffffffff82610943565b6109888683610943565b95508019841693508086168417925050509392505050565b5f819050919050565b5f819050919050565b5f6109cc6109c76109c2846109a0565b6109a9565b6109a0565b9050919050565b5f819050919050565b6109e5836109b2565b6109f96109f1826109d3565b84845461094f565b825550505050565b5f5f905090565b610a10610a01565b610a1b8184846109dc565b505050565b5b81811015610a3e57610a335f82610a08565b600181019050610a21565b5050565b601f821115610a8357610a5481610922565b610a5d84610934565b81016020851015610a6c578190505b610a80610a7885610934565b830182610a20565b50505b505050565b5f82821c905092915050565b5f610aa35f1984600802610a88565b1980831691505092915050565b5f610abb8383610a94565b9150826002028217905092915050565b610ad48261088e565b67ffffffffffffffff811115610aed57610aec610898565b5b610af782546108f2565b610b02828285610a42565b5f60209050601f831160018114610b33575f8415610b21578287015190505b610b2b8582610ab0565b865550610b92565b601f198416610b4186610922565b5f5b82811015610b6857848901518255600182019150602085019450602081019050610b43565b86831015610b855784890151610b81601f891682610a94565b8355505b6001600288020188555050505b505050505050565b610ba381610828565b82525050565b5f602082019050610bbc5f830184610b9a565b92915050565b7f4e487b71000000000000000000000000000000000000000000000000000000005f52601160045260245ffd5b5f8160011c9050919050565b5f5f8291508390505b6001851115610c4457808604811115610c2057610c1f610bc2565b5b6001851615610c2f5780820291505b8081029050610c3d85610bef565b9450610c04565b94509492505050565b5f82610c5c5760019050610d17565b81610c69575f9050610d17565b8160018114610c7f5760028114610c8957610cb8565b6001915050610d17565b60ff841115610c9b57610c9a610bc2565b5b8360020a915084821115610cb257610cb1610bc2565b5b50610d17565b5060208310610133831016604e8410600b8410161715610ced5782820a905083811115610ce857610ce7610bc2565b5b610d17565b610cfa8484846001610bfb565b92509050818404811115610d1157610d10610bc2565b5b81810290505b9392505050565b5f60ff82169050919050565b5f610d34826109a0565b9150610d3f83610d1e565b9250610d6c7fffffffffffffffffffffffffffffffffffffffffffffffffffffffffffffffff8484610c4d565b905092915050565b5f610d7e826109a0565b9150610d89836109a0565b9250828202610d97816109a0565b91508282048414831517610dae57610dad610bc2565b5b5092915050565b5f819050919050565b610dc781610db5565b82525050565b610dd6816109a0565b82525050565b5f60a082019050610def5f830188610dbe565b610dfc6020830187610dbe565b610e096040830186610dbe565b610e166060830185610dcd565b610e236080830184610b9a565b9695505050505050565b5f82825260208201905092915050565b8281835e5f83830152505050565b5f601f19601f8301169050919050565b5f610e658261088e565b610e6f8185610e2d565b9350610e7f818560208601610e3d565b610e8881610e4b565b840191505092915050565b5f6020820190508181035f830152610eab8184610e5b565b905092915050565b5f81519050919050565b5f819050602082019050919050565b5f610ed78251610db5565b80915050919050565b5f610eea82610eb3565b82610ef484610ebd565b9050610eff81610ecc565b92506020821015610f3f57610f3a7fffffffffffffffffffffffffffffffffffffffffffffffffffffffffffffffff83602003600802610943565b831692505b5050919050565b5f610f50826109a0565b9150610f5b836109a0565b9250828201905080821115610f7357610f72610bc2565b5b92915050565b5f606082019050610f8c5f830186610b9a565b610f996020830185610dcd565b610fa66040830184610dcd565b949350505050565b5f602082019050610fc15f830184610dcd565b92915050565b60805160a05160c05160e0516101005161012051610140516129096110185f395f61132e01525f6112f301525f61164801525f61162701525f610ee401525f610f3a01525f610f6301526129095ff3fe608060405234801561000f575f5ffd5b506004361061018c575f3560e01c80637ecebe00116100dc578063a394a0e611610095578063d505accf1161006f578063d505accf14610452578063dc1dc94d1461046e578063dd62ed3e1461048a578063f2fde38b146104ba5761018c565b8063a394a0e6146103d6578063a9059cbb146103f2578063b826c58b146104225761018c565b80637ecebe001461031e5780638456cb591461034e57806384b0196e146103585780638da5cb5b1461037c57806395d89b411461039a5780639d54c79d146103b85761018c565b80633f4ba83a116101495780635c975abb116101235780635c975abb146102aa57806370a08231146102c8578063715018a6146102f857806379cc6790146103025761018c565b80633f4ba83a1461026857806340c10f191461027257806342966c681461028e5761018c565b806306fdde0314610190578063095ea7b3146101ae57806318160ddd146101de57806323b872dd146101fc578063313ce5671461022c5780633644e5151461024a575b5f5ffd5b6101986104d6565b6040516101a59190611e05565b60405180910390f35b6101c860048036038101906101c39190611ec3565b610566565b6040516101d59190611f1b565b60405180910390f35b6101e6610588565b6040516101f39190611f43565b60405180910390f35b61021660048036038101906102119190611f5c565b610591565b6040516102239190611f1b565b60405180910390f35b6102346105bf565b6040516102419190611fc7565b60405180910390f35b6102526105c7565b60405161025f9190611ff8565b60405180910390f35b6102706105d5565b005b61028c60048036038101906102879190611ec3565b6105e7565b005b6102a860048036038101906102a39190612011565b6105fd565b005b6102b2610611565b6040516102bf9190611f1b565b60405180910390f35b6102e260048036038101906102dd919061203c565b610626565b6040516102ef9190611f43565b60405180910390f35b61030061066b565b005b61031c60048036038101906103179190611ec3565b61067e565b005b6103386004803603810190610333919061203c565b61069e565b6040516103459190611f43565b60405180910390f35b6103566106af565b005b6103606106c1565b6040516103739796959493929190612167565b60405180910390f35b610384610766565b60405161039191906121e9565b60405180910390f35b6103a261078f565b6040516103af9190611e05565b60405180910390f35b6103c061081f565b6040516103cd91906121e9565b60405180910390f35b6103f060048036038101906103eb919061203c565b610844565b005b61040c60048036038101906104079190611ec3565b6108ee565b6040516104199190611f1b565b60405180910390f35b61043c6004803603810190610437919061222c565b610910565b6040516104499190611f1b565b60405180910390f35b61046c60048036038101906104679190612281565b61092d565b005b6104886004803603810190610483919061244a565b610a72565b005b6104a4600480360381019061049f91906124b6565b610c40565b6040516104b19190611f43565b60405180910390f35b6104d460048036038101906104cf919061203c565b610cc2565b005b6060600380546104e590612521565b80601f016020809104026020016040519081016040528092919081815260200182805461051190612521565b801561055c5780601f106105335761010080835404028352916020019161055c565b820191905f5260205f20905b81548152906001019060200180831161053f57829003601f168201915b5050505050905090565b5f5f610570610d46565b905061057d818585610d4d565b600191505092915050565b5f600254905090565b5f5f61059b610d46565b90506105a8858285610d5f565b6105b3858585610df1565b60019150509392505050565b5f6012905090565b5f6105d0610ee1565b905090565b6105dd610f97565b6105e561101e565b565b6105ef610f97565b6105f9828261107f565b5050565b61060e610608610d46565b826110fe565b50565b5f60055f9054906101000a900460ff16905090565b5f5f5f8373ffffffffffffffffffffffffffffffffffffffff1673ffffffffffffffffffffffffffffffffffffffff1681526020019081526020015f20549050919050565b610673610f97565b61067c5f61117d565b565b6106908261068a610d46565b83610d5f565b61069a82826110fe565b5050565b5f6106a882611242565b9050919050565b6106b7610f97565b6106bf611288565b565b5f6060805f5f5f60606106d26112ea565b6106da611325565b46305f5f1b5f67ffffffffffffffff8111156106f9576106f8612326565b5b6040519080825280602002602001820160405280156107275781602001602082028036833780820191505090505b507f0f00000000000000000000000000000000000000000000000000000000000000959493929190965096509650965096509650965090919293949596565b5f600560019054906101000a900473ffffffffffffffffffffffffffffffffffffffff16905090565b60606004805461079e90612521565b80601f01602080910402602001604051908101604052809291908181526020018280546107ca90612521565b80156108155780601f106107ec57610100808354040283529160200191610815565b820191905f5260205f20905b8154815290600101906020018083116107f857829003601f168201915b5050505050905090565b600a5f9054906101000a900473ffffffffffffffffffffffffffffffffffffffff1681565b61084c610f97565b5f600a5f9054906101000a900473ffffffffffffffffffffffffffffffffffffffff16905081600a5f6101000a81548173ffffffffffffffffffffffffffffffffffffffff021916908373ffffffffffffffffffffffffffffffffffffffff1602179055507fa94cf4562a6caecc59a06c2553bfb0cdd847592a8f57d63ecf8de57e0141239c81836040516108e2929190612551565b60405180910390a15050565b5f5f6108f8610d46565b9050610905818585610df1565b600191505092915050565b6009602052805f5260405f205f915054906101000a900460ff1681565b8342111561097257836040517f627913020000000000000000000000000000000000000000000000000000000081526004016109699190611f43565b60405180910390fd5b5f7f6e71edae12b1b97f4d1f60370fef10105fa2faae0126114a169c64845d6126c98888886109a08c611360565b896040516020016109b696959493929190612578565b6040516020818303038152906040528051906020012090505f6109d8826113b3565b90505f6109e7828787876113cc565b90508973ffffffffffffffffffffffffffffffffffffffff168173ffffffffffffffffffffffffffffffffffffffff1614610a5b57808a6040517f4b800e46000000000000000000000000000000000000000000000000000000008152600401610a52929190612551565b60405180910390fd5b610a668a8a8a610d4d565b50505050505050505050565b5f82610a7c610d46565b83604051602001610a8f9392919061263c565b60405160208183030381529060405280519060200120905060095f8281526020019081526020015f205f9054906101000a900460ff1615610b05576040517f08c379a0000000000000000000000000000000000000000000000000000000008152600401610afc906126c2565b60405180910390fd5b600a5f9054906101000a900473ffffffffffffffffffffffffffffffffffffffff1673ffffffffffffffffffffffffffffffffffffffff16610b4782866113fa565b73ffffffffffffffffffffffffffffffffffffffff1614610b9d576040517f08c379a0000000000000000000000000000000000000000000000000000000008152600401610b949061272a565b60405180910390fd5b610bae610ba8610d46565b8361107f565b600160095f8381526020019081526020015f205f6101000a81548160ff0219169083151502179055507fd0d896fcae2d51791202f512511ffbeb70906b18232de48f5eddd822a939d53c81600a5f9054906101000a900473ffffffffffffffffffffffffffffffffffffffff16610c23610d46565b604051610c3293929190612748565b60405180910390a150505050565b5f60015f8473ffffffffffffffffffffffffffffffffffffffff1673ffffffffffffffffffffffffffffffffffffffff1681526020019081526020015f205f8373ffffffffffffffffffffffffffffffffffffffff1673ffffffffffffffffffffffffffffffffffffffff1681526020019081526020015f2054905092915050565b610cca610f97565b5f73ffffffffffffffffffffffffffffffffffffffff168173ffffffffffffffffffffffffffffffffffffffff1603610d3a575f6040517f1e4fbdf7000000000000000000000000000000000000000000000000000000008152600401610d3191906121e9565b60405180910390fd5b610d438161117d565b50565b5f33905090565b610d5a8383836001611424565b505050565b5f610d6a8484610c40565b90507fffffffffffffffffffffffffffffffffffffffffffffffffffffffffffffffff8114610deb5781811015610ddc578281836040517ffb8f41b2000000000000000000000000000000000000000000000000000000008152600401610dd39392919061277d565b60405180910390fd5b610dea84848484035f611424565b5b50505050565b5f73ffffffffffffffffffffffffffffffffffffffff168373ffffffffffffffffffffffffffffffffffffffff1603610e61575f6040517f96c6fd1e000000000000000000000000000000000000000000000000000000008152600401610e5891906121e9565b60405180910390fd5b5f73ffffffffffffffffffffffffffffffffffffffff168273ffffffffffffffffffffffffffffffffffffffff1603610ed1575f6040517fec442f05000000000000000000000000000000000000000000000000000000008152600401610ec891906121e9565b60405180910390fd5b610edc8383836115f3565b505050565b5f7f000000000000000000000000000000000000000000000000000000000000000073ffffffffffffffffffffffffffffffffffffffff163073ffffffffffffffffffffffffffffffffffffffff16148015610f5c57507f000000000000000000000000000000000000000000000000000000000000000046145b15610f89577f00000000000000000000000000000000000000000000000000000000000000009050610f94565b610f91611603565b90505b90565b610f9f610d46565b73ffffffffffffffffffffffffffffffffffffffff16610fbd610766565b73ffffffffffffffffffffffffffffffffffffffff161461101c57610fe0610d46565b6040517f118cdaa700000000000000000000000000000000000000000000000000000000815260040161101391906121e9565b60405180910390fd5b565b611026611698565b5f60055f6101000a81548160ff0219169083151502179055507f5db9ee0a495bf2e6ff9c91a7834c1ba4fdd244a5e8aa4e537bd38aeae4b073aa611068610d46565b60405161107591906121e9565b60405180910390a1565b5f73ffffffffffffffffffffffffffffffffffffffff168273ffffffffffffffffffffffffffffffffffffffff16036110ef575f6040517fec442f050000000000000000000000000000000000000000000000000000000081526004016110e691906121e9565b60405180910390fd5b6110fa5f83836115f3565b5050565b5f73ffffffffffffffffffffffffffffffffffffffff168273ffffffffffffffffffffffffffffffffffffffff160361116e575f6040517f96c6fd1e00000000000000000000000000000000000000000000000000000000815260040161116591906121e9565b60405180910390fd5b611179825f836115f3565b5050565b5f600560019054906101000a900473ffffffffffffffffffffffffffffffffffffffff16905081600560016101000a81548173ffffffffffffffffffffffffffffffffffffffff021916908373ffffffffffffffffffffffffffffffffffffffff1602179055508173ffffffffffffffffffffffffffffffffffffffff168173ffffffffffffffffffffffffffffffffffffffff167f8be0079c531659141344cd1fd0a4f28419497f9722a3daafe3b4186f6b6457e060405160405180910390a35050565b5f60085f8373ffffffffffffffffffffffffffffffffffffffff1673ffffffffffffffffffffffffffffffffffffffff1681526020019081526020015f20549050919050565b6112906116d8565b600160055f6101000a81548160ff0219169083151502179055507f62e78cea01bee320cd4e420270b5ea74000d11b0c9f74754ebdbfc544b05a2586112d3610d46565b6040516112e091906121e9565b60405180910390a1565b606061132060067f000000000000000000000000000000000000000000000000000000000000000061171990919063ffffffff16565b905090565b606061135b60077f000000000000000000000000000000000000000000000000000000000000000061171990919063ffffffff16565b905090565b5f60085f8373ffffffffffffffffffffffffffffffffffffffff1673ffffffffffffffffffffffffffffffffffffffff1681526020019081526020015f205f815480929190600101919050559050919050565b5f6113c56113bf610ee1565b836117c6565b9050919050565b5f5f5f5f6113dc88888888611806565b9250925092506113ec82826118ed565b829350505050949350505050565b5f5f5f5f6114088686611a4f565b92509250925061141882826118ed565b82935050505092915050565b5f73ffffffffffffffffffffffffffffffffffffffff168473ffffffffffffffffffffffffffffffffffffffff1603611494575f6040517fe602df0500000000000000000000000000000000000000000000000000000000815260040161148b91906121e9565b60405180910390fd5b5f73ffffffffffffffffffffffffffffffffffffffff168373ffffffffffffffffffffffffffffffffffffffff1603611504575f6040517f94280d620000000000000000000000000000000000000000000000000000000081526004016114fb91906121e9565b60405180910390fd5b8160015f8673ffffffffffffffffffffffffffffffffffffffff1673ffffffffffffffffffffffffffffffffffffffff1681526020019081526020015f205f8573ffffffffffffffffffffffffffffffffffffffff1673ffffffffffffffffffffffffffffffffffffffff1681526020019081526020015f208190555080156115ed578273ffffffffffffffffffffffffffffffffffffffff168473ffffffffffffffffffffffffffffffffffffffff167f8c5be1e5ebec7d5bd14f71427d1e84f3dd0314c0f7b2291e5b200ac8c7c3b925846040516115e49190611f43565b60405180910390a35b50505050565b6115fe838383611aa4565b505050565b5f7f8b73c3c69bb8fe3d512ecc4cf759cc79239f7b179b0ffacaa9a75d522b39400f7f00000000000000000000000000000000000000000000000000000000000000007f0000000000000000000000000000000000000000000000000000000000000000463060405160200161167d9594939291906127b2565b60405160208183030381529060405280519060200120905090565b6116a0610611565b6116d6576040517f8dfc202b00000000000000000000000000000000000000000000000000000000815260040160405180910390fd5b565b6116e0610611565b15611717576040517fd93c066500000000000000000000000000000000000000000000000000000000815260040160405180910390fd5b565b606060ff5f1b83146117355761172e83611abc565b90506117c0565b81805461174190612521565b80601f016020809104026020016040519081016040528092919081815260200182805461176d90612521565b80156117b85780601f1061178f576101008083540402835291602001916117b8565b820191905f5260205f20905b81548152906001019060200180831161179b57829003601f168201915b505050505090505b92915050565b5f6040517f190100000000000000000000000000000000000000000000000000000000000081528360028201528260228201526042812091505092915050565b5f5f5f7f7fffffffffffffffffffffffffffffff5d576e7357a4501ddfe92f46681b20a0845f1c1115611842575f6003859250925092506118e3565b5f6001888888886040515f81526020016040526040516118659493929190612803565b6020604051602081039080840390855afa158015611885573d5f5f3e3d5ffd5b5050506020604051035190505f73ffffffffffffffffffffffffffffffffffffffff168173ffffffffffffffffffffffffffffffffffffffff16036118d6575f60015f5f1b935093509350506118e3565b805f5f5f1b935093509350505b9450945094915050565b5f6003811115611900576118ff612846565b5b82600381111561191357611912612846565b5b0315611a4b576001600381111561192d5761192c612846565b5b8260038111156119405761193f612846565b5b03611977576040517ff645eedf00000000000000000000000000000000000000000000000000000000815260040160405180910390fd5b6002600381111561198b5761198a612846565b5b82600381111561199e5761199d612846565b5b036119e257805f1c6040517ffce698f70000000000000000000000000000000000000000000000000000000081526004016119d99190611f43565b60405180910390fd5b6003808111156119f5576119f4612846565b5b826003811115611a0857611a07612846565b5b03611a4a57806040517fd78bce0c000000000000000000000000000000000000000000000000000000008152600401611a419190611ff8565b60405180910390fd5b5b5050565b5f5f5f6041845103611a8f575f5f5f602087015192506040870151915060608701515f1a9050611a8188828585611806565b955095509550505050611a9d565b5f600285515f1b9250925092505b9250925092565b611aac6116d8565b611ab7838383611b2e565b505050565b60605f611ac883611d47565b90505f602067ffffffffffffffff811115611ae657611ae5612326565b5b6040519080825280601f01601f191660200182016040528015611b185781602001600182028036833780820191505090505b5090508181528360208201528092505050919050565b5f73ffffffffffffffffffffffffffffffffffffffff168373ffffffffffffffffffffffffffffffffffffffff1603611b7e578060025f828254611b7291906128a0565b92505081905550611c4c565b5f5f5f8573ffffffffffffffffffffffffffffffffffffffff1673ffffffffffffffffffffffffffffffffffffffff1681526020019081526020015f2054905081811015611c07578381836040517fe450d38c000000000000000000000000000000000000000000000000000000008152600401611bfe9392919061277d565b60405180910390fd5b8181035f5f8673ffffffffffffffffffffffffffffffffffffffff1673ffffffffffffffffffffffffffffffffffffffff1681526020019081526020015f2081905550505b5f73ffffffffffffffffffffffffffffffffffffffff168273ffffffffffffffffffffffffffffffffffffffff1603611c93578060025f8282540392505081905550611cdd565b805f5f8473ffffffffffffffffffffffffffffffffffffffff1673ffffffffffffffffffffffffffffffffffffffff1681526020019081526020015f205f82825401925050819055505b8173ffffffffffffffffffffffffffffffffffffffff168373ffffffffffffffffffffffffffffffffffffffff167fddf252ad1be2c89b69c2b068fc378daa952ba7f163c4a11628f55a4df523b3ef83604051611d3a9190611f43565b60405180910390a3505050565b5f5f60ff835f1c169050601f811115611d8c576040517fb3512b0c00000000000000000000000000000000000000000000000000000000815260040160405180910390fd5b80915050919050565b5f81519050919050565b5f82825260208201905092915050565b8281835e5f83830152505050565b5f601f19601f8301169050919050565b5f611dd782611d95565b611de18185611d9f565b9350611df1818560208601611daf565b611dfa81611dbd565b840191505092915050565b5f6020820190508181035f830152611e1d8184611dcd565b905092915050565b5f604051905090565b5f5ffd5b5f5ffd5b5f73ffffffffffffffffffffffffffffffffffffffff82169050919050565b5f611e5f82611e36565b9050919050565b611e6f81611e55565b8114611e79575f5ffd5b50565b5f81359050611e8a81611e66565b92915050565b5f819050919050565b611ea281611e90565b8114611eac575f5ffd5b50565b5f81359050611ebd81611e99565b92915050565b5f5f60408385031215611ed957611ed8611e2e565b5b5f611ee685828601611e7c565b9250506020611ef785828601611eaf565b9150509250929050565b5f8115159050919050565b611f1581611f01565b82525050565b5f602082019050611f2e5f830184611f0c565b92915050565b611f3d81611e90565b82525050565b5f602082019050611f565f830184611f34565b92915050565b5f5f5f60608486031215611f7357611f72611e2e565b5b5f611f8086828701611e7c565b9350506020611f9186828701611e7c565b9250506040611fa286828701611eaf565b9150509250925092565b5f60ff82169050919050565b611fc181611fac565b82525050565b5f602082019050611fda5f830184611fb8565b92915050565b5f819050919050565b611ff281611fe0565b82525050565b5f60208201905061200b5f830184611fe9565b92915050565b5f6020828403121561202657612025611e2e565b5b5f61203384828501611eaf565b91505092915050565b5f6020828403121561205157612050611e2e565b5b5f61205e84828501611e7c565b91505092915050565b5f7fff0000000000000000000000000000000000000000000000000000000000000082169050919050565b61209b81612067565b82525050565b6120aa81611e55565b82525050565b5f81519050919050565b5f82825260208201905092915050565b5f819050602082019050919050565b6120e281611e90565b82525050565b5f6120f383836120d9565b60208301905092915050565b5f602082019050919050565b5f612115826120b0565b61211f81856120ba565b935061212a836120ca565b805f5b8381101561215a57815161214188826120e8565b975061214c836120ff565b92505060018101905061212d565b5085935050505092915050565b5f60e08201905061217a5f83018a612092565b818103602083015261218c8189611dcd565b905081810360408301526121a08188611dcd565b90506121af6060830187611f34565b6121bc60808301866120a1565b6121c960a0830185611fe9565b81810360c08301526121db818461210b565b905098975050505050505050565b5f6020820190506121fc5f8301846120a1565b92915050565b61220b81611fe0565b8114612215575f5ffd5b50565b5f8135905061222681612202565b92915050565b5f6020828403121561224157612240611e2e565b5b5f61224e84828501612218565b91505092915050565b61226081611fac565b811461226a575f5ffd5b50565b5f8135905061227b81612257565b92915050565b5f5f5f5f5f5f5f60e0888a03121561229c5761229b611e2e565b5b5f6122a98a828b01611e7c565b97505060206122ba8a828b01611e7c565b96505060406122cb8a828b01611eaf565b95505060606122dc8a828b01611eaf565b94505060806122ed8a828b0161226d565b93505060a06122fe8a828b01612218565b92505060c061230f8a828b01612218565b91505092959891949750929550565b5f5ffd5b5f5ffd5b7f4e487b71000000000000000000000000000000000000000000000000000000005f52604160045260245ffd5b61235c82611dbd565b810181811067ffffffffffffffff8211171561237b5761237a612326565b5b80604052505050565b5f61238d611e25565b90506123998282612353565b919050565b5f67ffffffffffffffff8211156123b8576123b7612326565b5b6123c182611dbd565b9050602081019050919050565b828183375f83830152505050565b5f6123ee6123e98461239e565b612384565b90508281526020810184848401111561240a57612409612322565b5b6124158482856123ce565b509392505050565b5f82601f8301126124315761243061231e565b5b81356124418482602086016123dc565b91505092915050565b5f5f5f6060848603121561246157612460611e2e565b5b5f84013567ffffffffffffffff81111561247e5761247d611e32565b5b61248a8682870161241d565b935050602061249b86828701611eaf565b92505060406124ac86828701611eaf565b9150509250925092565b5f5f604083850312156124cc576124cb611e2e565b5b5f6124d985828601611e7c565b92505060206124ea85828601611e7c565b9150509250929050565b7f4e487b71000000000000000000000000000000000000000000000000000000005f52602260045260245ffd5b5f600282049050600182168061253857607f821691505b60208210810361254b5761254a6124f4565b5b50919050565b5f6040820190506125645f8301856120a1565b61257160208301846120a1565b9392505050565b5f60c08201905061258b5f830189611fe9565b61259860208301886120a1565b6125a560408301876120a1565b6125b26060830186611f34565b6125bf6080830185611f34565b6125cc60a0830184611f34565b979650505050505050565b5f819050919050565b6125f16125ec82611e90565b6125d7565b82525050565b5f8160601b9050919050565b5f61260d826125f7565b9050919050565b5f61261e82612603565b9050919050565b61263661263182611e55565b612614565b82525050565b5f61264782866125e0565b6020820191506126578285612625565b60148201915061266782846125e0565b602082019150819050949350505050565b7f48617368206e6f742076616c69640000000000000000000000000000000000005f82015250565b5f6126ac600e83611d9f565b91506126b782612678565b602082019050919050565b5f6020820190508181035f8301526126d9816126a0565b9050919050565b7f5369676e617475726520646f6573206e6f74206d61746368206e6f74617279005f82015250565b5f612714601f83611d9f565b915061271f826126e0565b602082019050919050565b5f6020820190508181035f83015261274181612708565b9050919050565b5f60608201905061275b5f830186611fe9565b61276860208301856120a1565b61277560408301846120a1565b949350505050565b5f6060820190506127905f8301866120a1565b61279d6020830185611f34565b6127aa6040830184611f34565b949350505050565b5f60a0820190506127c55f830188611fe9565b6127d26020830187611fe9565b6127df6040830186611fe9565b6127ec6060830185611f34565b6127f960808301846120a1565b9695505050505050565b5f6080820190506128165f830187611fe9565b6128236020830186611fb8565b6128306040830185611fe9565b61283d6060830184611fe9565b95945050505050565b7f4e487b71000000000000000000000000000000000000000000000000000000005f52602160045260245ffd5b7f4e487b71000000000000000000000000000000000000000000000000000000005f52601160045260245ffd5b5f6128aa82611e90565b91506128b583611e90565b92508282019050808211156128cd576128cc612873565b5b9291505056fea26469706673582212203dba0212f543bc58ce558727aef603dc1910095e4a5568d4a6609da8d43b01a064736f6c634300081c0033","linkReferences":{}},"methodIdentifiers":{"DOMAIN_SEPARATOR()":"3644e515","allowance(address,address)":"dd62ed3e","approve(address,uint256)":"095ea7b3","balanceOf(address)":"70a08231","burn(uint256)":"42966c68","burnFrom(address,uint256)":"79cc6790","decimals()":"313ce567","eip712Domain()":"84b0196e","hashesUsed(bytes32)":"b826c58b","mint(address,uint256)":"40c10f19","mintWithSignedMessage(bytes,uint256,uint256)":"dc1dc94d","name()":"06fdde03","nonces(address)":"7ecebe00","notary()":"9d54c79d","owner()":"8da5cb5b","pause()":"8456cb59","paused()":"5c975abb","permit(address,address,uint256,uint256,uint8,bytes32,bytes32)":"d505accf","renounceOwnership()":"715018a6","setNotary(address)":"a394a0e6","symbol()":"95d89b41","totalSupply()":"18160ddd","transfer(address,uint256)":"a9059cbb","transferFrom(address,address,uint256)":"23b872dd","transferOwnership(address)":"f2fde38b","unpause()":"3f4ba83a"},"id":48}