{"abi":[{"type":"constructor","inputs":[{"name":"_initialOwner","type":"address","internalType":"address"},{"name":"_messageSigner","type":"address","internalType":"address"}],"stateMutability":"nonpayable"},{"type":"function","name":"DOMAIN_SEPARATOR","inputs":[],"outputs":[{"name":"","type":"bytes32","internalType":"bytes32"}],"stateMutability":"view"},{"type":"function","name":"MAX_SUPPLY","inputs":[],"outputs":[{"name":"","type":"uint256","internalType":"uint256"}],"stateMutability":"view"},{"type":"function","name":"allowance","inputs":[{"name":"owner","type":"address","internalType":"address"},{"name":"spender","type":"address","internalType":"address"}],"outputs":[{"name":"","type":"uint256","internalType":"uint256"}],"stateMutability":"view"},{"type":"function","name":"approve","inputs":[{"name":"spender","type":"address","internalType":"address"},{"name":"value","type":"uint256","internalType":"uint256"}],"outputs":[{"name":"","type":"bool","internalType":"bool"}],"stateMutability":"nonpayable"},{"type":"function","name":"balanceOf","inputs":[{"name":"account","type":"address","internalType":"address"}],"outputs":[{"name":"","type":"uint256","internalType":"uint256"}],"stateMutability":"view"},{"type":"function","name":"burn","inputs":[{"name":"value","type":"uint256","internalType":"uint256"}],"outputs":[],"stateMutability":"nonpayable"},{"type":"function","name":"burnFrom","inputs":[{"name":"account","type":"address","internalType":"address"},{"name":"value","type":"uint256","internalType":"uint256"}],"outputs":[],"stateMutability":"nonpayable"},{"type":"function","name":"cap","inputs":[],"outputs":[{"name":"","type":"uint256","internalType":"uint256"}],"stateMutability":"view"},{"type":"function","name":"decimals","inputs":[],"outputs":[{"name":"","type":"uint8","internalType":"uint8"}],"stateMutability":"view"},{"type":"function","name":"eip712Domain","inputs":[],"outputs":[{"name":"fields","type":"bytes1","internalType":"bytes1"},{"name":"name","type":"string","internalType":"string"},{"name":"version","type":"string","internalType":"string"},{"name":"chainId","type":"uint256","internalType":"uint256"},{"name":"verifyingContract","type":"address","internalType":"address"},{"name":"salt","type":"bytes32","internalType":"bytes32"},{"name":"extensions","type":"uint256[]","internalType":"uint256[]"}],"stateMutability":"view"},{"type":"function","name":"hashRegistry","inputs":[{"name":"","type":"bytes32","internalType":"bytes32"}],"outputs":[{"name":"","type":"bool","internalType":"bool"}],"stateMutability":"view"},{"type":"function","name":"mint","inputs":[{"name":"to","type":"address","internalType":"address"},{"name":"amount","type":"uint256","internalType":"uint256"}],"outputs":[],"stateMutability":"nonpayable"},{"type":"function","name":"mintWithMessage","inputs":[{"name":"_hash","type":"bytes32","internalType":"bytes32"},{"name":"_amount","type":"uint256","internalType":"uint256"},{"name":"_nonce","type":"uint256","internalType":"uint256"},{"name":"_signature","type":"bytes","internalType":"bytes"}],"outputs":[],"stateMutability":"nonpayable"},{"type":"function","name":"name","inputs":[],"outputs":[{"name":"","type":"string","internalType":"string"}],"stateMutability":"view"},{"type":"function","name":"nonces","inputs":[{"name":"owner","type":"address","internalType":"address"}],"outputs":[{"name":"","type":"uint256","internalType":"uint256"}],"stateMutability":"view"},{"type":"function","name":"owner","inputs":[],"outputs":[{"name":"","type":"address","internalType":"address"}],"stateMutability":"view"},{"type":"function","name":"pause","inputs":[],"outputs":[],"stateMutability":"nonpayable"},{"type":"function","name":"paused","inputs":[],"outputs":[{"name":"","type":"bool","internalType":"bool"}],"stateMutability":"view"},{"type":"function","name":"permit","inputs":[{"name":"owner","type":"address","internalType":"address"},{"name":"spender","type":"address","internalType":"address"},{"name":"value","type":"uint256","internalType":"uint256"},{"name":"deadline","type":"uint256","internalType":"uint256"},{"name":"v","type":"uint8","internalType":"uint8"},{"name":"r","type":"bytes32","internalType":"bytes32"},{"name":"s","type":"bytes32","internalType":"bytes32"}],"outputs":[],"stateMutability":"nonpayable"},{"type":"function","name":"renounceOwnership","inputs":[],"outputs":[],"stateMutability":"nonpayable"},{"type":"function","name":"safeEBoltTransfer","inputs":[{"name":"_to","type":"address","internalType":"address"},{"name":"_amount","type":"uint256","internalType":"uint256"}],"outputs":[],"stateMutability":"nonpayable"},{"type":"function","name":"setStakingContract","inputs":[{"name":"_addr","type":"address","internalType":"address"}],"outputs":[],"stateMutability":"nonpayable"},{"type":"function","name":"symbol","inputs":[],"outputs":[{"name":"","type":"string","internalType":"string"}],"stateMutability":"view"},{"type":"function","name":"totalSupply","inputs":[],"outputs":[{"name":"","type":"uint256","internalType":"uint256"}],"stateMutability":"view"},{"type":"function","name":"transfer","inputs":[{"name":"to","type":"address","internalType":"address"},{"name":"value","type":"uint256","internalType":"uint256"}],"outputs":[{"name":"","type":"bool","internalType":"bool"}],"stateMutability":"nonpayable"},{"type":"function","name":"transferFrom","inputs":[{"name":"from","type":"address","internalType":"address"},{"name":"to","type":"address","internalType":"address"},{"name":"value","type":"uint256","internalType":"uint256"}],"outputs":[{"name":"","type":"bool","internalType":"bool"}],"stateMutability":"nonpayable"},{"type":"function","name":"transferOwnership","inputs":[{"name":"newOwner","type":"address","internalType":"address"}],"outputs":[],"stateMutability":"nonpayable"},{"type":"function","name":"unpause","inputs":[],"outputs":[],"stateMutability":"nonpayable"},{"type":"event","name":"Approval","inputs":[{"name":"owner","type":"address","indexed":true,"internalType":"address"},{"name":"spender","type":"address","indexed":true,"internalType":"address"},{"name":"value","type":"uint256","indexed":false,"internalType":"uint256"}],"anonymous":false},{"type":"event","name":"EIP712DomainChanged","inputs":[],"anonymous":false},{"type":"event","name":"MintWithMessage","inputs":[{"name":"to","type":"address","indexed":false,"internalType":"address"},{"name":"hashUsed","type":"bytes32","indexed":false,"internalType":"bytes32"},{"name":"signatureUsed","type":"bytes","indexed":false,"internalType":"bytes"},{"name":"amountMinted","type":"uint256","indexed":false,"internalType":"uint256"},{"name":"nonceUsed","type":"uint256","indexed":false,"internalType":"uint256"}],"anonymous":false},{"type":"event","name":"OwnershipTransferred","inputs":[{"name":"previousOwner","type":"address","indexed":true,"internalType":"address"},{"name":"newOwner","type":"address","indexed":true,"internalType":"address"}],"anonymous":false},{"type":"event","name":"Paused","inputs":[{"name":"account","type":"address","indexed":false,"internalType":"address"}],"anonymous":false},{"type":"event","name":"Transfer","inputs":[{"name":"from","type":"address","indexed":true,"internalType":"address"},{"name":"to","type":"address","indexed":true,"internalType":"address"},{"name":"value","type":"uint256","indexed":false,"internalType":"uint256"}],"anonymous":false},{"type":"event","name":"Unpaused","inputs":[{"name":"account","type":"address","indexed":false,"internalType":"address"}],"anonymous":false},{"type":"error","name":"ECDSAInvalidSignature","inputs":[]},{"type":"error","name":"ECDSAInvalidSignatureLength","inputs":[{"name":"length","type":"uint256","internalType":"uint256"}]},{"type":"error","name":"ECDSAInvalidSignatureS","inputs":[{"name":"s","type":"bytes32","internalType":"bytes32"}]},{"type":"error","name":"ERC20ExceededCap","inputs":[{"name":"increasedSupply","type":"uint256","internalType":"uint256"},{"name":"cap","type":"uint256","internalType":"uint256"}]},{"type":"error","name":"ERC20InsufficientAllowance","inputs":[{"name":"spender","type":"address","internalType":"address"},{"name":"allowance","type":"uint256","internalType":"uint256"},{"name":"needed","type":"uint256","internalType":"uint256"}]},{"type":"error","name":"ERC20InsufficientBalance","inputs":[{"name":"sender","type":"address","internalType":"address"},{"name":"balance","type":"uint256","internalType":"uint256"},{"name":"needed","type":"uint256","internalType":"uint256"}]},{"type":"error","name":"ERC20InvalidApprover","inputs":[{"name":"approver","type":"address","internalType":"address"}]},{"type":"error","name":"ERC20InvalidCap","inputs":[{"name":"cap","type":"uint256","internalType":"uint256"}]},{"type":"error","name":"ERC20InvalidReceiver","inputs":[{"name":"receiver","type":"address","internalType":"address"}]},{"type":"error","name":"ERC20InvalidSender","inputs":[{"name":"sender","type":"address","internalType":"address"}]},{"type":"error","name":"ERC20InvalidSpender","inputs":[{"name":"spender","type":"address","internalType":"address"}]},{"type":"error","name":"ERC2612ExpiredSignature","inputs":[{"name":"deadline","type":"uint256","internalType":"uint256"}]},{"type":"error","name":"ERC2612InvalidSigner","inputs":[{"name":"signer","type":"address","internalType":"address"},{"name":"owner","type":"address","internalType":"address"}]},{"type":"error","name":"EnforcedPause","inputs":[]},{"type":"error","name":"ExpectedPause","inputs":[]},{"type":"error","name":"InvalidAccountNonce","inputs":[{"name":"account","type":"address","internalType":"address"},{"name":"currentNonce","type":"uint256","internalType":"uint256"}]},{"type":"error","name":"InvalidShortString","inputs":[]},{"type":"error","name":"OwnableInvalidOwner","inputs":[{"name":"owner","type":"address","internalType":"address"}]},{"type":"error","name":"OwnableUnauthorizedAccount","inputs":[{"name":"account","type":"address","internalType":"address"}]},{"type":"error","name":"StringTooLong","inputs":[{"name":"str","type":"string","internalType":"string"}]}],"bytecode":{"object":"0x610180604052348015610010575f5ffd5b50604051613caa380380613caa83398181016040528101906100329190610985565b670de0b6b3a76400006040518060400160405280600481526020017f426f6c7400000000000000000000000000000000000000000000000000000000815250806040518060400160405280600181526020017f3100000000000000000000000000000000000000000000000000000000000000815250856040518060400160405280600481526020017f426f6c74000000000000000000000000000000000000000000000000000000008152506040518060400160405280600381526020017f424c54000000000000000000000000000000000000000000000000000000000081525081600390816101249190610c00565b5080600490816101349190610c00565b5050505f60055f6101000a81548160ff0219169083151502179055505f73ffffffffffffffffffffffffffffffffffffffff168173ffffffffffffffffffffffffffffffffffffffff16036101c0575f6040517f1e4fbdf70000000000000000000000000000000000000000000000000000000081526004016101b79190610cde565b60405180910390fd5b6101cf8161034960201b60201c565b506101e460068361040e60201b90919060201c565b610120818152505061020060078261040e60201b90919060201c565b6101408181525050818051906020012060e08181525050808051906020012061010081815250504660a0818152505061023d61045b60201b60201c565b608081815250503073ffffffffffffffffffffffffffffffffffffffff1660c08173ffffffffffffffffffffffffffffffffffffffff16815250505050505f81036102bf575f6040517f392e1e270000000000000000000000000000000000000000000000000000000081526004016102b69190610d30565b60405180910390fd5b80610160818152505050610302306102db6104b560201b60201c565b600a6102e79190610eb1565b64037e11d6006102f79190610efb565b6104bd60201b60201c565b80600b5f6101000a81548173ffffffffffffffffffffffffffffffffffffffff021916908373ffffffffffffffffffffffffffffffffffffffff1602179055505050611175565b5f600560019054906101000a900473ffffffffffffffffffffffffffffffffffffffff16905081600560016101000a81548173ffffffffffffffffffffffffffffffffffffffff021916908373ffffffffffffffffffffffffffffffffffffffff1602179055508173ffffffffffffffffffffffffffffffffffffffff168173ffffffffffffffffffffffffffffffffffffffff167f8be0079c531659141344cd1fd0a4f28419497f9722a3daafe3b4186f6b6457e060405160405180910390a35050565b5f60208351101561042f576104288361054260201b60201c565b9050610455565b8261043f836105a760201b60201c565b5f01908161044d9190610c00565b5060ff5f1b90505b92915050565b5f7f8b73c3c69bb8fe3d512ecc4cf759cc79239f7b179b0ffacaa9a75d522b39400f60e05161010051463060405160200161049a959493929190610f63565b60405160208183030381529060405280519060200120905090565b5f6006905090565b5f73ffffffffffffffffffffffffffffffffffffffff168273ffffffffffffffffffffffffffffffffffffffff160361052d575f6040517fec442f050000000000000000000000000000000000000000000000000000000081526004016105249190610cde565b60405180910390fd5b61053e5f83836105b060201b60201c565b5050565b5f5f829050601f8151111561058e57826040517f305a27a9000000000000000000000000000000000000000000000000000000008152600401610585919061101a565b60405180910390fd5b80518161059a90611067565b5f1c175f1b915050919050565b5f819050919050565b6105c18383836105c660201b60201c565b505050565b6105d783838361067b60201b60201c565b5f73ffffffffffffffffffffffffffffffffffffffff168373ffffffffffffffffffffffffffffffffffffffff1603610676575f61061961069f60201b60201c565b90505f61062a6106a960201b60201c565b9050818111156106735780826040517f9e79f85400000000000000000000000000000000000000000000000000000000815260040161066a9291906110cd565b60405180910390fd5b50505b505050565b6106896106b260201b60201c565b61069a8383836106f960201b60201c565b505050565b5f61016051905090565b5f600254905090565b6106c061091260201b60201c565b156106f7576040517fd93c066500000000000000000000000000000000000000000000000000000000815260040160405180910390fd5b565b5f73ffffffffffffffffffffffffffffffffffffffff168373ffffffffffffffffffffffffffffffffffffffff1603610749578060025f82825461073d91906110f4565b92505081905550610817565b5f5f5f8573ffffffffffffffffffffffffffffffffffffffff1673ffffffffffffffffffffffffffffffffffffffff1681526020019081526020015f20549050818110156107d2578381836040517fe450d38c0000000000000000000000000000000000000000000000000000000081526004016107c993929190611127565b60405180910390fd5b8181035f5f8673ffffffffffffffffffffffffffffffffffffffff1673ffffffffffffffffffffffffffffffffffffffff1681526020019081526020015f2081905550505b5f73ffffffffffffffffffffffffffffffffffffffff168273ffffffffffffffffffffffffffffffffffffffff160361085e578060025f82825403925050819055506108a8565b805f5f8473ffffffffffffffffffffffffffffffffffffffff1673ffffffffffffffffffffffffffffffffffffffff1681526020019081526020015f205f82825401925050819055505b8173ffffffffffffffffffffffffffffffffffffffff168373ffffffffffffffffffffffffffffffffffffffff167fddf252ad1be2c89b69c2b068fc378daa952ba7f163c4a11628f55a4df523b3ef83604051610905919061115c565b60405180910390a3505050565b5f60055f9054906101000a900460ff16905090565b5f5ffd5b5f73ffffffffffffffffffffffffffffffffffffffff82169050919050565b5f6109548261092b565b9050919050565b6109648161094a565b811461096e575f5ffd5b50565b5f8151905061097f8161095b565b92915050565b5f5f6040838503121561099b5761099a610927565b5b5f6109a885828601610971565b92505060206109b985828601610971565b9150509250929050565b5f81519050919050565b7f4e487b71000000000000000000000000000000000000000000000000000000005f52604160045260245ffd5b7f4e487b71000000000000000000000000000000000000000000000000000000005f52602260045260245ffd5b5f6002820490506001821680610a3e57607f821691505b602082108103610a5157610a506109fa565b5b50919050565b5f819050815f5260205f209050919050565b5f6020601f8301049050919050565b5f82821b905092915050565b5f60088302610ab37fffffffffffffffffffffffffffffffffffffffffffffffffffffffffffffffff82610a78565b610abd8683610a78565b95508019841693508086168417925050509392505050565b5f819050919050565b5f819050919050565b5f610b01610afc610af784610ad5565b610ade565b610ad5565b9050919050565b5f819050919050565b610b1a83610ae7565b610b2e610b2682610b08565b848454610a84565b825550505050565b5f5f905090565b610b45610b36565b610b50818484610b11565b505050565b5b81811015610b7357610b685f82610b3d565b600181019050610b56565b5050565b601f821115610bb857610b8981610a57565b610b9284610a69565b81016020851015610ba1578190505b610bb5610bad85610a69565b830182610b55565b50505b505050565b5f82821c905092915050565b5f610bd85f1984600802610bbd565b1980831691505092915050565b5f610bf08383610bc9565b9150826002028217905092915050565b610c09826109c3565b67ffffffffffffffff811115610c2257610c216109cd565b5b610c2c8254610a27565b610c37828285610b77565b5f60209050601f831160018114610c68575f8415610c56578287015190505b610c608582610be5565b865550610cc7565b601f198416610c7686610a57565b5f5b82811015610c9d57848901518255600182019150602085019450602081019050610c78565b86831015610cba5784890151610cb6601f891682610bc9565b8355505b6001600288020188555050505b505050505050565b610cd88161094a565b82525050565b5f602082019050610cf15f830184610ccf565b92915050565b5f819050919050565b5f610d1a610d15610d1084610cf7565b610ade565b610ad5565b9050919050565b610d2a81610d00565b82525050565b5f602082019050610d435f830184610d21565b92915050565b7f4e487b71000000000000000000000000000000000000000000000000000000005f52601160045260245ffd5b5f8160011c9050919050565b5f5f8291508390505b6001851115610dcb57808604811115610da757610da6610d49565b5b6001851615610db65780820291505b8081029050610dc485610d76565b9450610d8b565b94509492505050565b5f82610de35760019050610e9e565b81610df0575f9050610e9e565b8160018114610e065760028114610e1057610e3f565b6001915050610e9e565b60ff841115610e2257610e21610d49565b5b8360020a915084821115610e3957610e38610d49565b5b50610e9e565b5060208310610133831016604e8410600b8410161715610e745782820a905083811115610e6f57610e6e610d49565b5b610e9e565b610e818484846001610d82565b92509050818404811115610e9857610e97610d49565b5b81810290505b9392505050565b5f60ff82169050919050565b5f610ebb82610ad5565b9150610ec683610ea5565b9250610ef37fffffffffffffffffffffffffffffffffffffffffffffffffffffffffffffffff8484610dd4565b905092915050565b5f610f0582610ad5565b9150610f1083610ad5565b9250828202610f1e81610ad5565b91508282048414831517610f3557610f34610d49565b5b5092915050565b5f819050919050565b610f4e81610f3c565b82525050565b610f5d81610ad5565b82525050565b5f60a082019050610f765f830188610f45565b610f836020830187610f45565b610f906040830186610f45565b610f9d6060830185610f54565b610faa6080830184610ccf565b9695505050505050565b5f82825260208201905092915050565b8281835e5f83830152505050565b5f601f19601f8301169050919050565b5f610fec826109c3565b610ff68185610fb4565b9350611006818560208601610fc4565b61100f81610fd2565b840191505092915050565b5f6020820190508181035f8301526110328184610fe2565b905092915050565b5f81519050919050565b5f819050602082019050919050565b5f61105e8251610f3c565b80915050919050565b5f6110718261103a565b8261107b84611044565b905061108681611053565b925060208210156110c6576110c17fffffffffffffffffffffffffffffffffffffffffffffffffffffffffffffffff83602003600802610a78565b831692505b5050919050565b5f6040820190506110e05f830185610f54565b6110ed6020830184610f54565b9392505050565b5f6110fe82610ad5565b915061110983610ad5565b925082820190508082111561112157611120610d49565b5b92915050565b5f60608201905061113a5f830186610ccf565b6111476020830185610f54565b6111546040830184610f54565b949350505050565b5f60208201905061116f5f830184610f54565b92915050565b60805160a05160c05160e05161010051610120516101405161016051612ada6111d05f395f6107df01525f6113e901525f6113ae01525f61189001525f61186f01525f61101e01525f61107401525f61109d0152612ada5ff3fe608060405234801561000f575f5ffd5b50600436106101c2575f3560e01c806370a08231116100f757806395d89b4111610095578063afc822dc1161006f578063afc822dc146104c2578063d505accf146104de578063dd62ed3e146104fa578063f2fde38b1461052a576101c2565b806395d89b41146104585780639dd373b914610476578063a9059cbb14610492576101c2565b80637ecebe00116100d15780637ecebe00146103dc5780638456cb591461040c57806384b0196e146104165780638da5cb5b1461043a576101c2565b806370a0823114610386578063715018a6146103b657806379cc6790146103c0576101c2565b806332cb6b0c116101645780633f4ba83a1161013e5780633f4ba83a1461032657806340c10f191461033057806342966c681461034c5780635c975abb14610368576101c2565b806332cb6b0c146102cc578063355274ea146102ea5780633644e51514610308576101c2565b80631b5f656e116101a05780631b5f656e146102325780631f8701d91461024e57806323b872dd1461027e578063313ce567146102ae576101c2565b806306fdde03146101c6578063095ea7b3146101e457806318160ddd14610214575b5f5ffd5b6101ce610546565b6040516101db9190611f39565b60405180910390f35b6101fe60048036038101906101f99190611ff7565b6105d6565b60405161020b919061204f565b60405180910390f35b61021c6105f8565b6040516102299190612077565b60405180910390f35b61024c600480360381019061024791906121ef565b610601565b005b6102686004803603810190610263919061226f565b61077d565b604051610275919061204f565b60405180910390f35b6102986004803603810190610293919061229a565b61079a565b6040516102a5919061204f565b60405180910390f35b6102b66107c8565b6040516102c39190612305565b60405180910390f35b6102d46107d0565b6040516102e19190612077565b60405180910390f35b6102f26107dc565b6040516102ff9190612077565b60405180910390f35b610310610803565b60405161031d919061232d565b60405180910390f35b61032e610811565b005b61034a60048036038101906103459190611ff7565b610823565b005b61036660048036038101906103619190612346565b610839565b005b61037061084d565b60405161037d919061204f565b60405180910390f35b6103a0600480360381019061039b9190612371565b610862565b6040516103ad9190612077565b60405180910390f35b6103be6108a7565b005b6103da60048036038101906103d59190611ff7565b6108ba565b005b6103f660048036038101906103f19190612371565b6108da565b6040516104039190612077565b60405180910390f35b6104146108eb565b005b61041e6108fd565b604051610431979695949392919061249c565b60405180910390f35b6104426109a2565b60405161044f919061251e565b60405180910390f35b6104606109cb565b60405161046d9190611f39565b60405180910390f35b610490600480360381019061048b9190612371565b610a5b565b005b6104ac60048036038101906104a79190611ff7565b610aa6565b6040516104b9919061204f565b60405180910390f35b6104dc60048036038101906104d79190611ff7565b610ac8565b005b6104f860048036038101906104f39190612561565b610b8c565b005b610514600480360381019061050f91906125fe565b610cd1565b6040516105219190612077565b60405180910390f35b610544600480360381019061053f9190612371565b610d53565b005b60606003805461055590612669565b80601f016020809104026020016040519081016040528092919081815260200182805461058190612669565b80156105cc5780601f106105a3576101008083540402835291602001916105cc565b820191905f5260205f20905b8154815290600101906020018083116105af57829003601f168201915b5050505050905090565b5f5f6105e0610dd7565b90506105ed818585610dde565b600191505092915050565b5f600254905090565b600a5f8581526020019081526020015f205f9054906101000a900460ff161561065f576040517f08c379a0000000000000000000000000000000000000000000000000000000008152600401610656906126e3565b60405180910390fd5b600b5f9054906101000a900473ffffffffffffffffffffffffffffffffffffffff1673ffffffffffffffffffffffffffffffffffffffff166106a18583610df0565b73ffffffffffffffffffffffffffffffffffffffff16146106f7576040517f08c379a00000000000000000000000000000000000000000000000000000000081526004016106ee9061274b565b60405180910390fd5b610708610702610dd7565b84610e1a565b6001600a5f8681526020019081526020015f205f6101000a81548160ff0219169083151502179055507f8c31a1c31f7af2edf6a581459d8d5d7753d19c5623bbd66f4ce90301da78cb8661075a610dd7565b8583868660405161076f9594939291906127bb565b60405180910390a150505050565b600a602052805f5260405f205f915054906101000a900460ff1681565b5f5f6107a4610dd7565b90506107b1858285610e99565b6107bc858585610f2b565b60019150509392505050565b5f6006905090565b670de0b6b3a764000081565b5f7f0000000000000000000000000000000000000000000000000000000000000000905090565b5f61080c61101b565b905090565b6108196110d1565b610821611158565b565b61082b6110d1565b6108358282610e1a565b5050565b61084a610844610dd7565b826111b9565b50565b5f60055f9054906101000a900460ff16905090565b5f5f5f8373ffffffffffffffffffffffffffffffffffffffff1673ffffffffffffffffffffffffffffffffffffffff1681526020019081526020015f20549050919050565b6108af6110d1565b6108b85f611238565b565b6108cc826108c6610dd7565b83610e99565b6108d682826111b9565b5050565b5f6108e4826112fd565b9050919050565b6108f36110d1565b6108fb611343565b565b5f6060805f5f5f606061090e6113a5565b6109166113e0565b46305f5f1b5f67ffffffffffffffff811115610935576109346120cb565b5b6040519080825280602002602001820160405280156109635781602001602082028036833780820191505090505b507f0f00000000000000000000000000000000000000000000000000000000000000959493929190965096509650965096509650965090919293949596565b5f600560019054906101000a900473ffffffffffffffffffffffffffffffffffffffff16905090565b6060600480546109da90612669565b80601f0160208091040260200160405190810160405280929190818152602001828054610a0690612669565b8015610a515780601f10610a2857610100808354040283529160200191610a51565b820191905f5260205f20905b815481529060010190602001808311610a3457829003601f168201915b5050505050905090565b610a636110d1565b8060095f6101000a81548173ffffffffffffffffffffffffffffffffffffffff021916908373ffffffffffffffffffffffffffffffffffffffff16021790555050565b5f5f610ab0610dd7565b9050610abd818585610f2b565b600191505092915050565b60095f9054906101000a900473ffffffffffffffffffffffffffffffffffffffff1673ffffffffffffffffffffffffffffffffffffffff163373ffffffffffffffffffffffffffffffffffffffff1614610b57576040517f08c379a0000000000000000000000000000000000000000000000000000000008152600401610b4e90612883565b60405180910390fd5b5f610b6130610862565b905080821115610b7b57610b76308483610f2b565b610b87565b610b86308484610f2b565b5b505050565b83421115610bd157836040517f62791302000000000000000000000000000000000000000000000000000000008152600401610bc89190612077565b60405180910390fd5b5f7f6e71edae12b1b97f4d1f60370fef10105fa2faae0126114a169c64845d6126c9888888610bff8c61141b565b89604051602001610c15969594939291906128a1565b6040516020818303038152906040528051906020012090505f610c378261146e565b90505f610c4682878787611487565b90508973ffffffffffffffffffffffffffffffffffffffff168173ffffffffffffffffffffffffffffffffffffffff1614610cba57808a6040517f4b800e46000000000000000000000000000000000000000000000000000000008152600401610cb1929190612900565b60405180910390fd5b610cc58a8a8a610dde565b50505050505050505050565b5f60015f8473ffffffffffffffffffffffffffffffffffffffff1673ffffffffffffffffffffffffffffffffffffffff1681526020019081526020015f205f8373ffffffffffffffffffffffffffffffffffffffff1673ffffffffffffffffffffffffffffffffffffffff1681526020019081526020015f2054905092915050565b610d5b6110d1565b5f73ffffffffffffffffffffffffffffffffffffffff168173ffffffffffffffffffffffffffffffffffffffff1603610dcb575f6040517f1e4fbdf7000000000000000000000000000000000000000000000000000000008152600401610dc2919061251e565b60405180910390fd5b610dd481611238565b50565b5f33905090565b610deb83838360016114b5565b505050565b5f5f5f5f610dfe8686611684565b925092509250610e0e82826116d9565b82935050505092915050565b5f73ffffffffffffffffffffffffffffffffffffffff168273ffffffffffffffffffffffffffffffffffffffff1603610e8a575f6040517fec442f05000000000000000000000000000000000000000000000000000000008152600401610e81919061251e565b60405180910390fd5b610e955f838361183b565b5050565b5f610ea48484610cd1565b90507fffffffffffffffffffffffffffffffffffffffffffffffffffffffffffffffff8114610f255781811015610f16578281836040517ffb8f41b2000000000000000000000000000000000000000000000000000000008152600401610f0d93929190612927565b60405180910390fd5b610f2484848484035f6114b5565b5b50505050565b5f73ffffffffffffffffffffffffffffffffffffffff168373ffffffffffffffffffffffffffffffffffffffff1603610f9b575f6040517f96c6fd1e000000000000000000000000000000000000000000000000000000008152600401610f92919061251e565b60405180910390fd5b5f73ffffffffffffffffffffffffffffffffffffffff168273ffffffffffffffffffffffffffffffffffffffff160361100b575f6040517fec442f05000000000000000000000000000000000000000000000000000000008152600401611002919061251e565b60405180910390fd5b61101683838361183b565b505050565b5f7f000000000000000000000000000000000000000000000000000000000000000073ffffffffffffffffffffffffffffffffffffffff163073ffffffffffffffffffffffffffffffffffffffff1614801561109657507f000000000000000000000000000000000000000000000000000000000000000046145b156110c3577f000000000000000000000000000000000000000000000000000000000000000090506110ce565b6110cb61184b565b90505b90565b6110d9610dd7565b73ffffffffffffffffffffffffffffffffffffffff166110f76109a2565b73ffffffffffffffffffffffffffffffffffffffff16146111565761111a610dd7565b6040517f118cdaa700000000000000000000000000000000000000000000000000000000815260040161114d919061251e565b60405180910390fd5b565b6111606118e0565b5f60055f6101000a81548160ff0219169083151502179055507f5db9ee0a495bf2e6ff9c91a7834c1ba4fdd244a5e8aa4e537bd38aeae4b073aa6111a2610dd7565b6040516111af919061251e565b60405180910390a1565b5f73ffffffffffffffffffffffffffffffffffffffff168273ffffffffffffffffffffffffffffffffffffffff1603611229575f6040517f96c6fd1e000000000000000000000000000000000000000000000000000000008152600401611220919061251e565b60405180910390fd5b611234825f8361183b565b5050565b5f600560019054906101000a900473ffffffffffffffffffffffffffffffffffffffff16905081600560016101000a81548173ffffffffffffffffffffffffffffffffffffffff021916908373ffffffffffffffffffffffffffffffffffffffff1602179055508173ffffffffffffffffffffffffffffffffffffffff168173ffffffffffffffffffffffffffffffffffffffff167f8be0079c531659141344cd1fd0a4f28419497f9722a3daafe3b4186f6b6457e060405160405180910390a35050565b5f60085f8373ffffffffffffffffffffffffffffffffffffffff1673ffffffffffffffffffffffffffffffffffffffff1681526020019081526020015f20549050919050565b61134b611920565b600160055f6101000a81548160ff0219169083151502179055507f62e78cea01bee320cd4e420270b5ea74000d11b0c9f74754ebdbfc544b05a25861138e610dd7565b60405161139b919061251e565b60405180910390a1565b60606113db60067f000000000000000000000000000000000000000000000000000000000000000061196190919063ffffffff16565b905090565b606061141660077f000000000000000000000000000000000000000000000000000000000000000061196190919063ffffffff16565b905090565b5f60085f8373ffffffffffffffffffffffffffffffffffffffff1673ffffffffffffffffffffffffffffffffffffffff1681526020019081526020015f205f815480929190600101919050559050919050565b5f61148061147a61101b565b83611a0e565b9050919050565b5f5f5f5f61149788888888611a4e565b9250925092506114a782826116d9565b829350505050949350505050565b5f73ffffffffffffffffffffffffffffffffffffffff168473ffffffffffffffffffffffffffffffffffffffff1603611525575f6040517fe602df0500000000000000000000000000000000000000000000000000000000815260040161151c919061251e565b60405180910390fd5b5f73ffffffffffffffffffffffffffffffffffffffff168373ffffffffffffffffffffffffffffffffffffffff1603611595575f6040517f94280d6200000000000000000000000000000000000000000000000000000000815260040161158c919061251e565b60405180910390fd5b8160015f8673ffffffffffffffffffffffffffffffffffffffff1673ffffffffffffffffffffffffffffffffffffffff1681526020019081526020015f205f8573ffffffffffffffffffffffffffffffffffffffff1673ffffffffffffffffffffffffffffffffffffffff1681526020019081526020015f2081905550801561167e578273ffffffffffffffffffffffffffffffffffffffff168473ffffffffffffffffffffffffffffffffffffffff167f8c5be1e5ebec7d5bd14f71427d1e84f3dd0314c0f7b2291e5b200ac8c7c3b925846040516116759190612077565b60405180910390a35b50505050565b5f5f5f60418451036116c4575f5f5f602087015192506040870151915060608701515f1a90506116b688828585611a4e565b9550955095505050506116d2565b5f600285515f1b9250925092505b9250925092565b5f60038111156116ec576116eb61295c565b5b8260038111156116ff576116fe61295c565b5b031561183757600160038111156117195761171861295c565b5b82600381111561172c5761172b61295c565b5b03611763576040517ff645eedf00000000000000000000000000000000000000000000000000000000815260040160405180910390fd5b600260038111156117775761177661295c565b5b82600381111561178a5761178961295c565b5b036117ce57805f1c6040517ffce698f70000000000000000000000000000000000000000000000000000000081526004016117c59190612077565b60405180910390fd5b6003808111156117e1576117e061295c565b5b8260038111156117f4576117f361295c565b5b0361183657806040517fd78bce0c00000000000000000000000000000000000000000000000000000000815260040161182d919061232d565b60405180910390fd5b5b5050565b611846838383611b35565b505050565b5f7f8b73c3c69bb8fe3d512ecc4cf759cc79239f7b179b0ffacaa9a75d522b39400f7f00000000000000000000000000000000000000000000000000000000000000007f000000000000000000000000000000000000000000000000000000000000000046306040516020016118c5959493929190612989565b60405160208183030381529060405280519060200120905090565b6118e861084d565b61191e576040517f8dfc202b00000000000000000000000000000000000000000000000000000000815260040160405180910390fd5b565b61192861084d565b1561195f576040517fd93c066500000000000000000000000000000000000000000000000000000000815260040160405180910390fd5b565b606060ff5f1b831461197d5761197683611bd8565b9050611a08565b81805461198990612669565b80601f01602080910402602001604051908101604052809291908181526020018280546119b590612669565b8015611a005780601f106119d757610100808354040283529160200191611a00565b820191905f5260205f20905b8154815290600101906020018083116119e357829003601f168201915b505050505090505b92915050565b5f6040517f190100000000000000000000000000000000000000000000000000000000000081528360028201528260228201526042812091505092915050565b5f5f5f7f7fffffffffffffffffffffffffffffff5d576e7357a4501ddfe92f46681b20a0845f1c1115611a8a575f600385925092509250611b2b565b5f6001888888886040515f8152602001604052604051611aad94939291906129da565b6020604051602081039080840390855afa158015611acd573d5f5f3e3d5ffd5b5050506020604051035190505f73ffffffffffffffffffffffffffffffffffffffff168173ffffffffffffffffffffffffffffffffffffffff1603611b1e575f60015f5f1b93509350935050611b2b565b805f5f5f1b935093509350505b9450945094915050565b611b40838383611c4a565b5f73ffffffffffffffffffffffffffffffffffffffff168373ffffffffffffffffffffffffffffffffffffffff1603611bd3575f611b7c6107dc565b90505f611b876105f8565b905081811115611bd05780826040517f9e79f854000000000000000000000000000000000000000000000000000000008152600401611bc7929190612a1d565b60405180910390fd5b50505b505050565b60605f611be483611c62565b90505f602067ffffffffffffffff811115611c0257611c016120cb565b5b6040519080825280601f01601f191660200182016040528015611c345781602001600182028036833780820191505090505b5090508181528360208201528092505050919050565b611c52611920565b611c5d838383611cb0565b505050565b5f5f60ff835f1c169050601f811115611ca7576040517fb3512b0c00000000000000000000000000000000000000000000000000000000815260040160405180910390fd5b80915050919050565b5f73ffffffffffffffffffffffffffffffffffffffff168373ffffffffffffffffffffffffffffffffffffffff1603611d00578060025f828254611cf49190612a71565b92505081905550611dce565b5f5f5f8573ffffffffffffffffffffffffffffffffffffffff1673ffffffffffffffffffffffffffffffffffffffff1681526020019081526020015f2054905081811015611d89578381836040517fe450d38c000000000000000000000000000000000000000000000000000000008152600401611d8093929190612927565b60405180910390fd5b8181035f5f8673ffffffffffffffffffffffffffffffffffffffff1673ffffffffffffffffffffffffffffffffffffffff1681526020019081526020015f2081905550505b5f73ffffffffffffffffffffffffffffffffffffffff168273ffffffffffffffffffffffffffffffffffffffff1603611e15578060025f8282540392505081905550611e5f565b805f5f8473ffffffffffffffffffffffffffffffffffffffff1673ffffffffffffffffffffffffffffffffffffffff1681526020019081526020015f205f82825401925050819055505b8173ffffffffffffffffffffffffffffffffffffffff168373ffffffffffffffffffffffffffffffffffffffff167fddf252ad1be2c89b69c2b068fc378daa952ba7f163c4a11628f55a4df523b3ef83604051611ebc9190612077565b60405180910390a3505050565b5f81519050919050565b5f82825260208201905092915050565b8281835e5f83830152505050565b5f601f19601f8301169050919050565b5f611f0b82611ec9565b611f158185611ed3565b9350611f25818560208601611ee3565b611f2e81611ef1565b840191505092915050565b5f6020820190508181035f830152611f518184611f01565b905092915050565b5f604051905090565b5f5ffd5b5f5ffd5b5f73ffffffffffffffffffffffffffffffffffffffff82169050919050565b5f611f9382611f6a565b9050919050565b611fa381611f89565b8114611fad575f5ffd5b50565b5f81359050611fbe81611f9a565b92915050565b5f819050919050565b611fd681611fc4565b8114611fe0575f5ffd5b50565b5f81359050611ff181611fcd565b92915050565b5f5f6040838503121561200d5761200c611f62565b5b5f61201a85828601611fb0565b925050602061202b85828601611fe3565b9150509250929050565b5f8115159050919050565b61204981612035565b82525050565b5f6020820190506120625f830184612040565b92915050565b61207181611fc4565b82525050565b5f60208201905061208a5f830184612068565b92915050565b5f819050919050565b6120a281612090565b81146120ac575f5ffd5b50565b5f813590506120bd81612099565b92915050565b5f5ffd5b5f5ffd5b7f4e487b71000000000000000000000000000000000000000000000000000000005f52604160045260245ffd5b61210182611ef1565b810181811067ffffffffffffffff821117156121205761211f6120cb565b5b80604052505050565b5f612132611f59565b905061213e82826120f8565b919050565b5f67ffffffffffffffff82111561215d5761215c6120cb565b5b61216682611ef1565b9050602081019050919050565b828183375f83830152505050565b5f61219361218e84612143565b612129565b9050828152602081018484840111156121af576121ae6120c7565b5b6121ba848285612173565b509392505050565b5f82601f8301126121d6576121d56120c3565b5b81356121e6848260208601612181565b91505092915050565b5f5f5f5f6080858703121561220757612206611f62565b5b5f612214878288016120af565b945050602061222587828801611fe3565b935050604061223687828801611fe3565b925050606085013567ffffffffffffffff81111561225757612256611f66565b5b612263878288016121c2565b91505092959194509250565b5f6020828403121561228457612283611f62565b5b5f612291848285016120af565b91505092915050565b5f5f5f606084860312156122b1576122b0611f62565b5b5f6122be86828701611fb0565b93505060206122cf86828701611fb0565b92505060406122e086828701611fe3565b9150509250925092565b5f60ff82169050919050565b6122ff816122ea565b82525050565b5f6020820190506123185f8301846122f6565b92915050565b61232781612090565b82525050565b5f6020820190506123405f83018461231e565b92915050565b5f6020828403121561235b5761235a611f62565b5b5f61236884828501611fe3565b91505092915050565b5f6020828403121561238657612385611f62565b5b5f61239384828501611fb0565b91505092915050565b5f7fff0000000000000000000000000000000000000000000000000000000000000082169050919050565b6123d08161239c565b82525050565b6123df81611f89565b82525050565b5f81519050919050565b5f82825260208201905092915050565b5f819050602082019050919050565b61241781611fc4565b82525050565b5f612428838361240e565b60208301905092915050565b5f602082019050919050565b5f61244a826123e5565b61245481856123ef565b935061245f836123ff565b805f5b8381101561248f578151612476888261241d565b975061248183612434565b925050600181019050612462565b5085935050505092915050565b5f60e0820190506124af5f83018a6123c7565b81810360208301526124c18189611f01565b905081810360408301526124d58188611f01565b90506124e46060830187612068565b6124f160808301866123d6565b6124fe60a083018561231e565b81810360c08301526125108184612440565b905098975050505050505050565b5f6020820190506125315f8301846123d6565b92915050565b612540816122ea565b811461254a575f5ffd5b50565b5f8135905061255b81612537565b92915050565b5f5f5f5f5f5f5f60e0888a03121561257c5761257b611f62565b5b5f6125898a828b01611fb0565b975050602061259a8a828b01611fb0565b96505060406125ab8a828b01611fe3565b95505060606125bc8a828b01611fe3565b94505060806125cd8a828b0161254d565b93505060a06125de8a828b016120af565b92505060c06125ef8a828b016120af565b91505092959891949750929550565b5f5f6040838503121561261457612613611f62565b5b5f61262185828601611fb0565b925050602061263285828601611fb0565b9150509250929050565b7f4e487b71000000000000000000000000000000000000000000000000000000005f52602260045260245ffd5b5f600282049050600182168061268057607f821691505b6020821081036126935761269261263c565b5b50919050565b7f4861736820616c726561647920757365640000000000000000000000000000005f82015250565b5f6126cd601183611ed3565b91506126d882612699565b602082019050919050565b5f6020820190508181035f8301526126fa816126c1565b9050919050565b7f556e617574686f72697a6564206d696e740000000000000000000000000000005f82015250565b5f612735601183611ed3565b915061274082612701565b602082019050919050565b5f6020820190508181035f83015261276281612729565b9050919050565b5f81519050919050565b5f82825260208201905092915050565b5f61278d82612769565b6127978185612773565b93506127a7818560208601611ee3565b6127b081611ef1565b840191505092915050565b5f60a0820190506127ce5f8301886123d6565b6127db602083018761231e565b81810360408301526127ed8186612783565b90506127fc6060830185612068565b6128096080830184612068565b9695505050505050565b7f4f6e6c79207374616b696e6720636f6e74726163742063616e2063616c6c20745f8201527f6869730000000000000000000000000000000000000000000000000000000000602082015250565b5f61286d602383611ed3565b915061287882612813565b604082019050919050565b5f6020820190508181035f83015261289a81612861565b9050919050565b5f60c0820190506128b45f83018961231e565b6128c160208301886123d6565b6128ce60408301876123d6565b6128db6060830186612068565b6128e86080830185612068565b6128f560a0830184612068565b979650505050505050565b5f6040820190506129135f8301856123d6565b61292060208301846123d6565b9392505050565b5f60608201905061293a5f8301866123d6565b6129476020830185612068565b6129546040830184612068565b949350505050565b7f4e487b71000000000000000000000000000000000000000000000000000000005f52602160045260245ffd5b5f60a08201905061299c5f83018861231e565b6129a9602083018761231e565b6129b6604083018661231e565b6129c36060830185612068565b6129d060808301846123d6565b9695505050505050565b5f6080820190506129ed5f83018761231e565b6129fa60208301866122f6565b612a07604083018561231e565b612a14606083018461231e565b95945050505050565b5f604082019050612a305f830185612068565b612a3d6020830184612068565b9392505050565b7f4e487b71000000000000000000000000000000000000000000000000000000005f52601160045260245ffd5b5f612a7b82611fc4565b9150612a8683611fc4565b9250828201905080821115612a9e57612a9d612a44565b5b9291505056fea2646970667358221220dba5b7e54a5234c0c549ab7a6db123ce53f401bb8fb9baf5c210078d4db0363c64736f6c634300081c0033","linkReferences":{}},"methodIdentifiers":{"DOMAIN_SEPARATOR()":"3644e515","MAX_SUPPLY()":"32cb6b0c","allowance(address,address)":"dd62ed3e","approve(address,uint256)":"095ea7b3","balanceOf(address)":"70a08231","burn(uint256)":"42966c68","burnFrom(address,uint256)":"79cc6790","cap()":"355274ea","decimals()":"313ce567","eip712Domain()":"84b0196e","hashRegistry(bytes32)":"1f8701d9","mint(address,uint256)":"40c10f19","mintWithMessage(bytes32,uint256,uint256,bytes)":"1b5f656e","name()":"06fdde03","nonces(address)":"7ecebe00","owner()":"8da5cb5b","pause()":"8456cb59","paused()":"5c975abb","permit(address,address,uint256,uint256,uint8,bytes32,bytes32)":"d505accf","renounceOwnership()":"715018a6","safeEBoltTransfer(address,uint256)":"afc822dc","setStakingContract(address)":"9dd373b9","symbol()":"95d89b41","totalSupply()":"18160ddd","transfer(address,uint256)":"a9059cbb","transferFrom(address,address,uint256)":"23b872dd","transferOwnership(address)":"f2fde38b","unpause()":"3f4ba83a"},"id":54}