{"abi":[{"type":"constructor","inputs":[{"name":"_initialOwner","type":"address","internalType":"address"},{"name":"_messageSigner","type":"address","internalType":"address"}],"stateMutability":"nonpayable"},{"type":"function","name":"DOMAIN_SEPARATOR","inputs":[],"outputs":[{"name":"","type":"bytes32","internalType":"bytes32"}],"stateMutability":"view"},{"type":"function","name":"MAX_SUPPLY","inputs":[],"outputs":[{"name":"","type":"uint256","internalType":"uint256"}],"stateMutability":"view"},{"type":"function","name":"allowance","inputs":[{"name":"owner","type":"address","internalType":"address"},{"name":"spender","type":"address","internalType":"address"}],"outputs":[{"name":"","type":"uint256","internalType":"uint256"}],"stateMutability":"view"},{"type":"function","name":"approve","inputs":[{"name":"spender","type":"address","internalType":"address"},{"name":"value","type":"uint256","internalType":"uint256"}],"outputs":[{"name":"","type":"bool","internalType":"bool"}],"stateMutability":"nonpayable"},{"type":"function","name":"balanceOf","inputs":[{"name":"account","type":"address","internalType":"address"}],"outputs":[{"name":"","type":"uint256","internalType":"uint256"}],"stateMutability":"view"},{"type":"function","name":"burn","inputs":[{"name":"value","type":"uint256","internalType":"uint256"}],"outputs":[],"stateMutability":"nonpayable"},{"type":"function","name":"burnFrom","inputs":[{"name":"account","type":"address","internalType":"address"},{"name":"value","type":"uint256","internalType":"uint256"}],"outputs":[],"stateMutability":"nonpayable"},{"type":"function","name":"cap","inputs":[],"outputs":[{"name":"","type":"uint256","internalType":"uint256"}],"stateMutability":"view"},{"type":"function","name":"decimals","inputs":[],"outputs":[{"name":"","type":"uint8","internalType":"uint8"}],"stateMutability":"view"},{"type":"function","name":"eip712Domain","inputs":[],"outputs":[{"name":"fields","type":"bytes1","internalType":"bytes1"},{"name":"name","type":"string","internalType":"string"},{"name":"version","type":"string","internalType":"string"},{"name":"chainId","type":"uint256","internalType":"uint256"},{"name":"verifyingContract","type":"address","internalType":"address"},{"name":"salt","type":"bytes32","internalType":"bytes32"},{"name":"extensions","type":"uint256[]","internalType":"uint256[]"}],"stateMutability":"view"},{"type":"function","name":"hashRegistry","inputs":[{"name":"","type":"bytes32","internalType":"bytes32"}],"outputs":[{"name":"","type":"bool","internalType":"bool"}],"stateMutability":"view"},{"type":"function","name":"mint","inputs":[{"name":"to","type":"address","internalType":"address"},{"name":"amount","type":"uint256","internalType":"uint256"}],"outputs":[],"stateMutability":"nonpayable"},{"type":"function","name":"mintWithMessage","inputs":[{"name":"_amount","type":"uint256","internalType":"uint256"},{"name":"_nonce","type":"uint256","internalType":"uint256"},{"name":"_signature","type":"bytes","internalType":"bytes"}],"outputs":[],"stateMutability":"nonpayable"},{"type":"function","name":"name","inputs":[],"outputs":[{"name":"","type":"string","internalType":"string"}],"stateMutability":"view"},{"type":"function","name":"nonces","inputs":[{"name":"owner","type":"address","internalType":"address"}],"outputs":[{"name":"","type":"uint256","internalType":"uint256"}],"stateMutability":"view"},{"type":"function","name":"owner","inputs":[],"outputs":[{"name":"","type":"address","internalType":"address"}],"stateMutability":"view"},{"type":"function","name":"pause","inputs":[],"outputs":[],"stateMutability":"nonpayable"},{"type":"function","name":"paused","inputs":[],"outputs":[{"name":"","type":"bool","internalType":"bool"}],"stateMutability":"view"},{"type":"function","name":"permit","inputs":[{"name":"owner","type":"address","internalType":"address"},{"name":"spender","type":"address","internalType":"address"},{"name":"value","type":"uint256","internalType":"uint256"},{"name":"deadline","type":"uint256","internalType":"uint256"},{"name":"v","type":"uint8","internalType":"uint8"},{"name":"r","type":"bytes32","internalType":"bytes32"},{"name":"s","type":"bytes32","internalType":"bytes32"}],"outputs":[],"stateMutability":"nonpayable"},{"type":"function","name":"renounceOwnership","inputs":[],"outputs":[],"stateMutability":"nonpayable"},{"type":"function","name":"safeEBoltTransfer","inputs":[{"name":"_to","type":"address","internalType":"address"},{"name":"_amount","type":"uint256","internalType":"uint256"}],"outputs":[],"stateMutability":"nonpayable"},{"type":"function","name":"setStakingContract","inputs":[{"name":"_addr","type":"address","internalType":"address"}],"outputs":[],"stateMutability":"nonpayable"},{"type":"function","name":"symbol","inputs":[],"outputs":[{"name":"","type":"string","internalType":"string"}],"stateMutability":"view"},{"type":"function","name":"totalSupply","inputs":[],"outputs":[{"name":"","type":"uint256","internalType":"uint256"}],"stateMutability":"view"},{"type":"function","name":"transfer","inputs":[{"name":"to","type":"address","internalType":"address"},{"name":"value","type":"uint256","internalType":"uint256"}],"outputs":[{"name":"","type":"bool","internalType":"bool"}],"stateMutability":"nonpayable"},{"type":"function","name":"transferFrom","inputs":[{"name":"from","type":"address","internalType":"address"},{"name":"to","type":"address","internalType":"address"},{"name":"value","type":"uint256","internalType":"uint256"}],"outputs":[{"name":"","type":"bool","internalType":"bool"}],"stateMutability":"nonpayable"},{"type":"function","name":"transferOwnership","inputs":[{"name":"newOwner","type":"address","internalType":"address"}],"outputs":[],"stateMutability":"nonpayable"},{"type":"function","name":"unpause","inputs":[],"outputs":[],"stateMutability":"nonpayable"},{"type":"event","name":"Approval","inputs":[{"name":"owner","type":"address","indexed":true,"internalType":"address"},{"name":"spender","type":"address","indexed":true,"internalType":"address"},{"name":"value","type":"uint256","indexed":false,"internalType":"uint256"}],"anonymous":false},{"type":"event","name":"EIP712DomainChanged","inputs":[],"anonymous":false},{"type":"event","name":"MintWithMessage","inputs":[{"name":"to","type":"address","indexed":false,"internalType":"address"},{"name":"hashUsed","type":"bytes32","indexed":false,"internalType":"bytes32"},{"name":"signatureUsed","type":"bytes","indexed":false,"internalType":"bytes"},{"name":"amount","type":"uint256","indexed":false,"internalType":"uint256"},{"name":"nonceUsed","type":"uint256","indexed":false,"internalType":"uint256"}],"anonymous":false},{"type":"event","name":"OwnershipTransferred","inputs":[{"name":"previousOwner","type":"address","indexed":true,"internalType":"address"},{"name":"newOwner","type":"address","indexed":true,"internalType":"address"}],"anonymous":false},{"type":"event","name":"Paused","inputs":[{"name":"account","type":"address","indexed":false,"internalType":"address"}],"anonymous":false},{"type":"event","name":"Transfer","inputs":[{"name":"from","type":"address","indexed":true,"internalType":"address"},{"name":"to","type":"address","indexed":true,"internalType":"address"},{"name":"value","type":"uint256","indexed":false,"internalType":"uint256"}],"anonymous":false},{"type":"event","name":"Unpaused","inputs":[{"name":"account","type":"address","indexed":false,"internalType":"address"}],"anonymous":false},{"type":"error","name":"ECDSAInvalidSignature","inputs":[]},{"type":"error","name":"ECDSAInvalidSignatureLength","inputs":[{"name":"length","type":"uint256","internalType":"uint256"}]},{"type":"error","name":"ECDSAInvalidSignatureS","inputs":[{"name":"s","type":"bytes32","internalType":"bytes32"}]},{"type":"error","name":"ERC20ExceededCap","inputs":[{"name":"increasedSupply","type":"uint256","internalType":"uint256"},{"name":"cap","type":"uint256","internalType":"uint256"}]},{"type":"error","name":"ERC20InsufficientAllowance","inputs":[{"name":"spender","type":"address","internalType":"address"},{"name":"allowance","type":"uint256","internalType":"uint256"},{"name":"needed","type":"uint256","internalType":"uint256"}]},{"type":"error","name":"ERC20InsufficientBalance","inputs":[{"name":"sender","type":"address","internalType":"address"},{"name":"balance","type":"uint256","internalType":"uint256"},{"name":"needed","type":"uint256","internalType":"uint256"}]},{"type":"error","name":"ERC20InvalidApprover","inputs":[{"name":"approver","type":"address","internalType":"address"}]},{"type":"error","name":"ERC20InvalidCap","inputs":[{"name":"cap","type":"uint256","internalType":"uint256"}]},{"type":"error","name":"ERC20InvalidReceiver","inputs":[{"name":"receiver","type":"address","internalType":"address"}]},{"type":"error","name":"ERC20InvalidSender","inputs":[{"name":"sender","type":"address","internalType":"address"}]},{"type":"error","name":"ERC20InvalidSpender","inputs":[{"name":"spender","type":"address","internalType":"address"}]},{"type":"error","name":"ERC2612ExpiredSignature","inputs":[{"name":"deadline","type":"uint256","internalType":"uint256"}]},{"type":"error","name":"ERC2612InvalidSigner","inputs":[{"name":"signer","type":"address","internalType":"address"},{"name":"owner","type":"address","internalType":"address"}]},{"type":"error","name":"EnforcedPause","inputs":[]},{"type":"error","name":"ExpectedPause","inputs":[]},{"type":"error","name":"InvalidAccountNonce","inputs":[{"name":"account","type":"address","internalType":"address"},{"name":"currentNonce","type":"uint256","internalType":"uint256"}]},{"type":"error","name":"InvalidShortString","inputs":[]},{"type":"error","name":"OwnableInvalidOwner","inputs":[{"name":"owner","type":"address","internalType":"address"}]},{"type":"error","name":"OwnableUnauthorizedAccount","inputs":[{"name":"account","type":"address","internalType":"address"}]},{"type":"error","name":"StringTooLong","inputs":[{"name":"str","type":"string","internalType":"string"}]}],"bytecode":{"object":"0x610180604052348015610010575f5ffd5b50604051613d71380380613d7183398181016040528101906100329190610985565b670de0b6b3a76400006040518060400160405280600481526020017f426f6c7400000000000000000000000000000000000000000000000000000000815250806040518060400160405280600181526020017f3100000000000000000000000000000000000000000000000000000000000000815250856040518060400160405280600481526020017f426f6c74000000000000000000000000000000000000000000000000000000008152506040518060400160405280600381526020017f424c54000000000000000000000000000000000000000000000000000000000081525081600390816101249190610c00565b5080600490816101349190610c00565b5050505f60055f6101000a81548160ff0219169083151502179055505f73ffffffffffffffffffffffffffffffffffffffff168173ffffffffffffffffffffffffffffffffffffffff16036101c0575f6040517f1e4fbdf70000000000000000000000000000000000000000000000000000000081526004016101b79190610cde565b60405180910390fd5b6101cf8161034960201b60201c565b506101e460068361040e60201b90919060201c565b610120818152505061020060078261040e60201b90919060201c565b6101408181525050818051906020012060e08181525050808051906020012061010081815250504660a0818152505061023d61045b60201b60201c565b608081815250503073ffffffffffffffffffffffffffffffffffffffff1660c08173ffffffffffffffffffffffffffffffffffffffff16815250505050505f81036102bf575f6040517f392e1e270000000000000000000000000000000000000000000000000000000081526004016102b69190610d30565b60405180910390fd5b80610160818152505050610302306102db6104b560201b60201c565b600a6102e79190610eb1565b64037e11d6006102f79190610efb565b6104bd60201b60201c565b80600b5f6101000a81548173ffffffffffffffffffffffffffffffffffffffff021916908373ffffffffffffffffffffffffffffffffffffffff1602179055505050611175565b5f600560019054906101000a900473ffffffffffffffffffffffffffffffffffffffff16905081600560016101000a81548173ffffffffffffffffffffffffffffffffffffffff021916908373ffffffffffffffffffffffffffffffffffffffff1602179055508173ffffffffffffffffffffffffffffffffffffffff168173ffffffffffffffffffffffffffffffffffffffff167f8be0079c531659141344cd1fd0a4f28419497f9722a3daafe3b4186f6b6457e060405160405180910390a35050565b5f60208351101561042f576104288361054260201b60201c565b9050610455565b8261043f836105a760201b60201c565b5f01908161044d9190610c00565b5060ff5f1b90505b92915050565b5f7f8b73c3c69bb8fe3d512ecc4cf759cc79239f7b179b0ffacaa9a75d522b39400f60e05161010051463060405160200161049a959493929190610f63565b60405160208183030381529060405280519060200120905090565b5f6006905090565b5f73ffffffffffffffffffffffffffffffffffffffff168273ffffffffffffffffffffffffffffffffffffffff160361052d575f6040517fec442f050000000000000000000000000000000000000000000000000000000081526004016105249190610cde565b60405180910390fd5b61053e5f83836105b060201b60201c565b5050565b5f5f829050601f8151111561058e57826040517f305a27a9000000000000000000000000000000000000000000000000000000008152600401610585919061101a565b60405180910390fd5b80518161059a90611067565b5f1c175f1b915050919050565b5f819050919050565b6105c18383836105c660201b60201c565b505050565b6105d783838361067b60201b60201c565b5f73ffffffffffffffffffffffffffffffffffffffff168373ffffffffffffffffffffffffffffffffffffffff1603610676575f61061961069f60201b60201c565b90505f61062a6106a960201b60201c565b9050818111156106735780826040517f9e79f85400000000000000000000000000000000000000000000000000000000815260040161066a9291906110cd565b60405180910390fd5b50505b505050565b6106896106b260201b60201c565b61069a8383836106f960201b60201c565b505050565b5f61016051905090565b5f600254905090565b6106c061091260201b60201c565b156106f7576040517fd93c066500000000000000000000000000000000000000000000000000000000815260040160405180910390fd5b565b5f73ffffffffffffffffffffffffffffffffffffffff168373ffffffffffffffffffffffffffffffffffffffff1603610749578060025f82825461073d91906110f4565b92505081905550610817565b5f5f5f8573ffffffffffffffffffffffffffffffffffffffff1673ffffffffffffffffffffffffffffffffffffffff1681526020019081526020015f20549050818110156107d2578381836040517fe450d38c0000000000000000000000000000000000000000000000000000000081526004016107c993929190611127565b60405180910390fd5b8181035f5f8673ffffffffffffffffffffffffffffffffffffffff1673ffffffffffffffffffffffffffffffffffffffff1681526020019081526020015f2081905550505b5f73ffffffffffffffffffffffffffffffffffffffff168273ffffffffffffffffffffffffffffffffffffffff160361085e578060025f82825403925050819055506108a8565b805f5f8473ffffffffffffffffffffffffffffffffffffffff1673ffffffffffffffffffffffffffffffffffffffff1681526020019081526020015f205f82825401925050819055505b8173ffffffffffffffffffffffffffffffffffffffff168373ffffffffffffffffffffffffffffffffffffffff167fddf252ad1be2c89b69c2b068fc378daa952ba7f163c4a11628f55a4df523b3ef83604051610905919061115c565b60405180910390a3505050565b5f60055f9054906101000a900460ff16905090565b5f5ffd5b5f73ffffffffffffffffffffffffffffffffffffffff82169050919050565b5f6109548261092b565b9050919050565b6109648161094a565b811461096e575f5ffd5b50565b5f8151905061097f8161095b565b92915050565b5f5f6040838503121561099b5761099a610927565b5b5f6109a885828601610971565b92505060206109b985828601610971565b9150509250929050565b5f81519050919050565b7f4e487b71000000000000000000000000000000000000000000000000000000005f52604160045260245ffd5b7f4e487b71000000000000000000000000000000000000000000000000000000005f52602260045260245ffd5b5f6002820490506001821680610a3e57607f821691505b602082108103610a5157610a506109fa565b5b50919050565b5f819050815f5260205f209050919050565b5f6020601f8301049050919050565b5f82821b905092915050565b5f60088302610ab37fffffffffffffffffffffffffffffffffffffffffffffffffffffffffffffffff82610a78565b610abd8683610a78565b95508019841693508086168417925050509392505050565b5f819050919050565b5f819050919050565b5f610b01610afc610af784610ad5565b610ade565b610ad5565b9050919050565b5f819050919050565b610b1a83610ae7565b610b2e610b2682610b08565b848454610a84565b825550505050565b5f5f905090565b610b45610b36565b610b50818484610b11565b505050565b5b81811015610b7357610b685f82610b3d565b600181019050610b56565b5050565b601f821115610bb857610b8981610a57565b610b9284610a69565b81016020851015610ba1578190505b610bb5610bad85610a69565b830182610b55565b50505b505050565b5f82821c905092915050565b5f610bd85f1984600802610bbd565b1980831691505092915050565b5f610bf08383610bc9565b9150826002028217905092915050565b610c09826109c3565b67ffffffffffffffff811115610c2257610c216109cd565b5b610c2c8254610a27565b610c37828285610b77565b5f60209050601f831160018114610c68575f8415610c56578287015190505b610c608582610be5565b865550610cc7565b601f198416610c7686610a57565b5f5b82811015610c9d57848901518255600182019150602085019450602081019050610c78565b86831015610cba5784890151610cb6601f891682610bc9565b8355505b6001600288020188555050505b505050505050565b610cd88161094a565b82525050565b5f602082019050610cf15f830184610ccf565b92915050565b5f819050919050565b5f610d1a610d15610d1084610cf7565b610ade565b610ad5565b9050919050565b610d2a81610d00565b82525050565b5f602082019050610d435f830184610d21565b92915050565b7f4e487b71000000000000000000000000000000000000000000000000000000005f52601160045260245ffd5b5f8160011c9050919050565b5f5f8291508390505b6001851115610dcb57808604811115610da757610da6610d49565b5b6001851615610db65780820291505b8081029050610dc485610d76565b9450610d8b565b94509492505050565b5f82610de35760019050610e9e565b81610df0575f9050610e9e565b8160018114610e065760028114610e1057610e3f565b6001915050610e9e565b60ff841115610e2257610e21610d49565b5b8360020a915084821115610e3957610e38610d49565b5b50610e9e565b5060208310610133831016604e8410600b8410161715610e745782820a905083811115610e6f57610e6e610d49565b5b610e9e565b610e818484846001610d82565b92509050818404811115610e9857610e97610d49565b5b81810290505b9392505050565b5f60ff82169050919050565b5f610ebb82610ad5565b9150610ec683610ea5565b9250610ef37fffffffffffffffffffffffffffffffffffffffffffffffffffffffffffffffff8484610dd4565b905092915050565b5f610f0582610ad5565b9150610f1083610ad5565b9250828202610f1e81610ad5565b91508282048414831517610f3557610f34610d49565b5b5092915050565b5f819050919050565b610f4e81610f3c565b82525050565b610f5d81610ad5565b82525050565b5f60a082019050610f765f830188610f45565b610f836020830187610f45565b610f906040830186610f45565b610f9d6060830185610f54565b610faa6080830184610ccf565b9695505050505050565b5f82825260208201905092915050565b8281835e5f83830152505050565b5f601f19601f8301169050919050565b5f610fec826109c3565b610ff68185610fb4565b9350611006818560208601610fc4565b61100f81610fd2565b840191505092915050565b5f6020820190508181035f8301526110328184610fe2565b905092915050565b5f81519050919050565b5f819050602082019050919050565b5f61105e8251610f3c565b80915050919050565b5f6110718261103a565b8261107b84611044565b905061108681611053565b925060208210156110c6576110c17fffffffffffffffffffffffffffffffffffffffffffffffffffffffffffffffff83602003600802610a78565b831692505b5050919050565b5f6040820190506110e05f830185610f54565b6110ed6020830184610f54565b9392505050565b5f6110fe82610ad5565b915061110983610ad5565b925082820190508082111561112157611120610d49565b5b92915050565b5f60608201905061113a5f830186610ccf565b6111476020830185610f54565b6111546040830184610f54565b949350505050565b5f60208201905061116f5f830184610f54565b92915050565b60805160a05160c05160e05161010051610120516101405161016051612ba16111d05f395f61066301525f6113d301525f61139801525f6116ed01525f6116cc01525f610f8901525f610fdf01525f6110080152612ba15ff3fe608060405234801561000f575f5ffd5b50600436106101c2575f3560e01c8063715018a6116100f75780639dd373b911610095578063d505accf1161006f578063d505accf146104c2578063dd62ed3e146104de578063eba88c4c1461050e578063f2fde38b1461052a576101c2565b80639dd373b91461045a578063a9059cbb14610476578063afc822dc146104a6576101c2565b80638456cb59116100d15780638456cb59146103f057806384b0196e146103fa5780638da5cb5b1461041e57806395d89b411461043c576101c2565b8063715018a61461039a57806379cc6790146103a45780637ecebe00146103c0576101c2565b8063355274ea1161016457806340c10f191161013e57806340c10f191461031457806342966c68146103305780635c975abb1461034c57806370a082311461036a576101c2565b8063355274ea146102ce5780633644e515146102ec5780633f4ba83a1461030a576101c2565b80631f8701d9116101a05780631f8701d91461023257806323b872dd14610262578063313ce5671461029257806332cb6b0c146102b0576101c2565b806306fdde03146101c6578063095ea7b3146101e457806318160ddd14610214575b5f5ffd5b6101ce610546565b6040516101db9190611f4d565b60405180910390f35b6101fe60048036038101906101f9919061200b565b6105d6565b60405161020b9190612063565b60405180910390f35b61021c6105f8565b604051610229919061208b565b60405180910390f35b61024c600480360381019061024791906120d7565b610601565b6040516102599190612063565b60405180910390f35b61027c60048036038101906102779190612102565b61061e565b6040516102899190612063565b60405180910390f35b61029a61064c565b6040516102a7919061216d565b60405180910390f35b6102b8610654565b6040516102c5919061208b565b60405180910390f35b6102d6610660565b6040516102e3919061208b565b60405180910390f35b6102f4610687565b6040516103019190612195565b60405180910390f35b610312610695565b005b61032e6004803603810190610329919061200b565b6106a7565b005b61034a600480360381019061034591906121ae565b6106bd565b005b6103546106d1565b6040516103619190612063565b60405180910390f35b610384600480360381019061037f91906121d9565b6106e6565b604051610391919061208b565b60405180910390f35b6103a261072b565b005b6103be60048036038101906103b9919061200b565b61073e565b005b6103da60048036038101906103d591906121d9565b61075e565b6040516103e7919061208b565b60405180910390f35b6103f861076f565b005b610402610781565b6040516104159796959493929190612304565b60405180910390f35b610426610826565b6040516104339190612386565b60405180910390f35b61044461084f565b6040516104519190611f4d565b60405180910390f35b610474600480360381019061046f91906121d9565b6108df565b005b610490600480360381019061048b919061200b565b61092a565b60405161049d9190612063565b60405180910390f35b6104c060048036038101906104bb919061200b565b61094c565b005b6104dc60048036038101906104d791906123c9565b610a10565b005b6104f860048036038101906104f39190612466565b610b55565b604051610505919061208b565b60405180910390f35b610528600480360381019061052391906125d0565b610bd7565b005b610544600480360381019061053f91906121d9565b610d67565b005b60606003805461055590612669565b80601f016020809104026020016040519081016040528092919081815260200182805461058190612669565b80156105cc5780601f106105a3576101008083540402835291602001916105cc565b820191905f5260205f20905b8154815290600101906020018083116105af57829003601f168201915b5050505050905090565b5f5f6105e0610deb565b90506105ed818585610df2565b600191505092915050565b5f600254905090565b600a602052805f5260405f205f915054906101000a900460ff1681565b5f5f610628610deb565b9050610635858285610e04565b610640858585610e96565b60019150509392505050565b5f6006905090565b670de0b6b3a764000081565b5f7f0000000000000000000000000000000000000000000000000000000000000000905090565b5f610690610f86565b905090565b61069d61103c565b6106a56110c3565b565b6106af61103c565b6106b98282611124565b5050565b6106ce6106c8610deb565b826111a3565b50565b5f60055f9054906101000a900460ff16905090565b5f5f5f8373ffffffffffffffffffffffffffffffffffffffff1673ffffffffffffffffffffffffffffffffffffffff1681526020019081526020015f20549050919050565b61073361103c565b61073c5f611222565b565b6107508261074a610deb565b83610e04565b61075a82826111a3565b5050565b5f610768826112e7565b9050919050565b61077761103c565b61077f61132d565b565b5f6060805f5f5f606061079261138f565b61079a6113ca565b46305f5f1b5f67ffffffffffffffff8111156107b9576107b86124ac565b5b6040519080825280602002602001820160405280156107e75781602001602082028036833780820191505090505b507f0f00000000000000000000000000000000000000000000000000000000000000959493929190965096509650965096509650965090919293949596565b5f600560019054906101000a900473ffffffffffffffffffffffffffffffffffffffff16905090565b60606004805461085e90612669565b80601f016020809104026020016040519081016040528092919081815260200182805461088a90612669565b80156108d55780601f106108ac576101008083540402835291602001916108d5565b820191905f5260205f20905b8154815290600101906020018083116108b857829003601f168201915b5050505050905090565b6108e761103c565b8060095f6101000a81548173ffffffffffffffffffffffffffffffffffffffff021916908373ffffffffffffffffffffffffffffffffffffffff16021790555050565b5f5f610934610deb565b9050610941818585610e96565b600191505092915050565b60095f9054906101000a900473ffffffffffffffffffffffffffffffffffffffff1673ffffffffffffffffffffffffffffffffffffffff163373ffffffffffffffffffffffffffffffffffffffff16146109db576040517f08c379a00000000000000000000000000000000000000000000000000000000081526004016109d290612709565b60405180910390fd5b5f6109e5306106e6565b9050808211156109ff576109fa308483610e96565b610a0b565b610a0a308484610e96565b5b505050565b83421115610a5557836040517f62791302000000000000000000000000000000000000000000000000000000008152600401610a4c919061208b565b60405180910390fd5b5f7f6e71edae12b1b97f4d1f60370fef10105fa2faae0126114a169c64845d6126c9888888610a838c611405565b89604051602001610a9996959493929190612727565b6040516020818303038152906040528051906020012090505f610abb82611458565b90505f610aca82878787611471565b90508973ffffffffffffffffffffffffffffffffffffffff168173ffffffffffffffffffffffffffffffffffffffff1614610b3e57808a6040517f4b800e46000000000000000000000000000000000000000000000000000000008152600401610b35929190612786565b60405180910390fd5b610b498a8a8a610df2565b50505050505050505050565b5f60015f8473ffffffffffffffffffffffffffffffffffffffff1673ffffffffffffffffffffffffffffffffffffffff1681526020019081526020015f205f8373ffffffffffffffffffffffffffffffffffffffff1673ffffffffffffffffffffffffffffffffffffffff1681526020019081526020015f2054905092915050565b5f823385604051602001610bed93929190612812565b604051602081830303815290604052805190602001209050610c0d610826565b73ffffffffffffffffffffffffffffffffffffffff16610c2d828461149f565b73ffffffffffffffffffffffffffffffffffffffff1614610c83576040517f08c379a0000000000000000000000000000000000000000000000000000000008152600401610c7a906128be565b60405180910390fd5b600a5f8281526020019081526020015f205f9054906101000a900460ff1615610ce1576040517f08c379a0000000000000000000000000000000000000000000000000000000008152600401610cd890612926565b60405180910390fd5b610cf2610cec610deb565b85611124565b6001600a5f8381526020019081526020015f205f6101000a81548160ff0219169083151502179055507f8c31a1c31f7af2edf6a581459d8d5d7753d19c5623bbd66f4ce90301da78cb86610d44610deb565b82848787604051610d59959493929190612996565b60405180910390a150505050565b610d6f61103c565b5f73ffffffffffffffffffffffffffffffffffffffff168173ffffffffffffffffffffffffffffffffffffffff1603610ddf575f6040517f1e4fbdf7000000000000000000000000000000000000000000000000000000008152600401610dd69190612386565b60405180910390fd5b610de881611222565b50565b5f33905090565b610dff83838360016114c9565b505050565b5f610e0f8484610b55565b90507fffffffffffffffffffffffffffffffffffffffffffffffffffffffffffffffff8114610e905781811015610e81578281836040517ffb8f41b2000000000000000000000000000000000000000000000000000000008152600401610e78939291906129ee565b60405180910390fd5b610e8f84848484035f6114c9565b5b50505050565b5f73ffffffffffffffffffffffffffffffffffffffff168373ffffffffffffffffffffffffffffffffffffffff1603610f06575f6040517f96c6fd1e000000000000000000000000000000000000000000000000000000008152600401610efd9190612386565b60405180910390fd5b5f73ffffffffffffffffffffffffffffffffffffffff168273ffffffffffffffffffffffffffffffffffffffff1603610f76575f6040517fec442f05000000000000000000000000000000000000000000000000000000008152600401610f6d9190612386565b60405180910390fd5b610f81838383611698565b505050565b5f7f000000000000000000000000000000000000000000000000000000000000000073ffffffffffffffffffffffffffffffffffffffff163073ffffffffffffffffffffffffffffffffffffffff1614801561100157507f000000000000000000000000000000000000000000000000000000000000000046145b1561102e577f00000000000000000000000000000000000000000000000000000000000000009050611039565b6110366116a8565b90505b90565b611044610deb565b73ffffffffffffffffffffffffffffffffffffffff16611062610826565b73ffffffffffffffffffffffffffffffffffffffff16146110c157611085610deb565b6040517f118cdaa70000000000000000000000000000000000000000000000000000000081526004016110b89190612386565b60405180910390fd5b565b6110cb61173d565b5f60055f6101000a81548160ff0219169083151502179055507f5db9ee0a495bf2e6ff9c91a7834c1ba4fdd244a5e8aa4e537bd38aeae4b073aa61110d610deb565b60405161111a9190612386565b60405180910390a1565b5f73ffffffffffffffffffffffffffffffffffffffff168273ffffffffffffffffffffffffffffffffffffffff1603611194575f6040517fec442f0500000000000000000000000000000000000000000000000000000000815260040161118b9190612386565b60405180910390fd5b61119f5f8383611698565b5050565b5f73ffffffffffffffffffffffffffffffffffffffff168273ffffffffffffffffffffffffffffffffffffffff1603611213575f6040517f96c6fd1e00000000000000000000000000000000000000000000000000000000815260040161120a9190612386565b60405180910390fd5b61121e825f83611698565b5050565b5f600560019054906101000a900473ffffffffffffffffffffffffffffffffffffffff16905081600560016101000a81548173ffffffffffffffffffffffffffffffffffffffff021916908373ffffffffffffffffffffffffffffffffffffffff1602179055508173ffffffffffffffffffffffffffffffffffffffff168173ffffffffffffffffffffffffffffffffffffffff167f8be0079c531659141344cd1fd0a4f28419497f9722a3daafe3b4186f6b6457e060405160405180910390a35050565b5f60085f8373ffffffffffffffffffffffffffffffffffffffff1673ffffffffffffffffffffffffffffffffffffffff1681526020019081526020015f20549050919050565b61133561177d565b600160055f6101000a81548160ff0219169083151502179055507f62e78cea01bee320cd4e420270b5ea74000d11b0c9f74754ebdbfc544b05a258611378610deb565b6040516113859190612386565b60405180910390a1565b60606113c560067f00000000000000000000000000000000000000000000000000000000000000006117be90919063ffffffff16565b905090565b606061140060077f00000000000000000000000000000000000000000000000000000000000000006117be90919063ffffffff16565b905090565b5f60085f8373ffffffffffffffffffffffffffffffffffffffff1673ffffffffffffffffffffffffffffffffffffffff1681526020019081526020015f205f815480929190600101919050559050919050565b5f61146a611464610f86565b8361186b565b9050919050565b5f5f5f5f611481888888886118ab565b9250925092506114918282611992565b829350505050949350505050565b5f5f5f5f6114ad8686611af4565b9250925092506114bd8282611992565b82935050505092915050565b5f73ffffffffffffffffffffffffffffffffffffffff168473ffffffffffffffffffffffffffffffffffffffff1603611539575f6040517fe602df050000000000000000000000000000000000000000000000000000000081526004016115309190612386565b60405180910390fd5b5f73ffffffffffffffffffffffffffffffffffffffff168373ffffffffffffffffffffffffffffffffffffffff16036115a9575f6040517f94280d620000000000000000000000000000000000000000000000000000000081526004016115a09190612386565b60405180910390fd5b8160015f8673ffffffffffffffffffffffffffffffffffffffff1673ffffffffffffffffffffffffffffffffffffffff1681526020019081526020015f205f8573ffffffffffffffffffffffffffffffffffffffff1673ffffffffffffffffffffffffffffffffffffffff1681526020019081526020015f20819055508015611692578273ffffffffffffffffffffffffffffffffffffffff168473ffffffffffffffffffffffffffffffffffffffff167f8c5be1e5ebec7d5bd14f71427d1e84f3dd0314c0f7b2291e5b200ac8c7c3b92584604051611689919061208b565b60405180910390a35b50505050565b6116a3838383611b49565b505050565b5f7f8b73c3c69bb8fe3d512ecc4cf759cc79239f7b179b0ffacaa9a75d522b39400f7f00000000000000000000000000000000000000000000000000000000000000007f00000000000000000000000000000000000000000000000000000000000000004630604051602001611722959493929190612a23565b60405160208183030381529060405280519060200120905090565b6117456106d1565b61177b576040517f8dfc202b00000000000000000000000000000000000000000000000000000000815260040160405180910390fd5b565b6117856106d1565b156117bc576040517fd93c066500000000000000000000000000000000000000000000000000000000815260040160405180910390fd5b565b606060ff5f1b83146117da576117d383611bec565b9050611865565b8180546117e690612669565b80601f016020809104026020016040519081016040528092919081815260200182805461181290612669565b801561185d5780601f106118345761010080835404028352916020019161185d565b820191905f5260205f20905b81548152906001019060200180831161184057829003601f168201915b505050505090505b92915050565b5f6040517f190100000000000000000000000000000000000000000000000000000000000081528360028201528260228201526042812091505092915050565b5f5f5f7f7fffffffffffffffffffffffffffffff5d576e7357a4501ddfe92f46681b20a0845f1c11156118e7575f600385925092509250611988565b5f6001888888886040515f815260200160405260405161190a9493929190612a74565b6020604051602081039080840390855afa15801561192a573d5f5f3e3d5ffd5b5050506020604051035190505f73ffffffffffffffffffffffffffffffffffffffff168173ffffffffffffffffffffffffffffffffffffffff160361197b575f60015f5f1b93509350935050611988565b805f5f5f1b935093509350505b9450945094915050565b5f60038111156119a5576119a4612ab7565b5b8260038111156119b8576119b7612ab7565b5b0315611af057600160038111156119d2576119d1612ab7565b5b8260038111156119e5576119e4612ab7565b5b03611a1c576040517ff645eedf00000000000000000000000000000000000000000000000000000000815260040160405180910390fd5b60026003811115611a3057611a2f612ab7565b5b826003811115611a4357611a42612ab7565b5b03611a8757805f1c6040517ffce698f7000000000000000000000000000000000000000000000000000000008152600401611a7e919061208b565b60405180910390fd5b600380811115611a9a57611a99612ab7565b5b826003811115611aad57611aac612ab7565b5b03611aef57806040517fd78bce0c000000000000000000000000000000000000000000000000000000008152600401611ae69190612195565b60405180910390fd5b5b5050565b5f5f5f6041845103611b34575f5f5f602087015192506040870151915060608701515f1a9050611b26888285856118ab565b955095509550505050611b42565b5f600285515f1b9250925092505b9250925092565b611b54838383611c5e565b5f73ffffffffffffffffffffffffffffffffffffffff168373ffffffffffffffffffffffffffffffffffffffff1603611be7575f611b90610660565b90505f611b9b6105f8565b905081811115611be45780826040517f9e79f854000000000000000000000000000000000000000000000000000000008152600401611bdb929190612ae4565b60405180910390fd5b50505b505050565b60605f611bf883611c76565b90505f602067ffffffffffffffff811115611c1657611c156124ac565b5b6040519080825280601f01601f191660200182016040528015611c485781602001600182028036833780820191505090505b5090508181528360208201528092505050919050565b611c6661177d565b611c71838383611cc4565b505050565b5f5f60ff835f1c169050601f811115611cbb576040517fb3512b0c00000000000000000000000000000000000000000000000000000000815260040160405180910390fd5b80915050919050565b5f73ffffffffffffffffffffffffffffffffffffffff168373ffffffffffffffffffffffffffffffffffffffff1603611d14578060025f828254611d089190612b38565b92505081905550611de2565b5f5f5f8573ffffffffffffffffffffffffffffffffffffffff1673ffffffffffffffffffffffffffffffffffffffff1681526020019081526020015f2054905081811015611d9d578381836040517fe450d38c000000000000000000000000000000000000000000000000000000008152600401611d94939291906129ee565b60405180910390fd5b8181035f5f8673ffffffffffffffffffffffffffffffffffffffff1673ffffffffffffffffffffffffffffffffffffffff1681526020019081526020015f2081905550505b5f73ffffffffffffffffffffffffffffffffffffffff168273ffffffffffffffffffffffffffffffffffffffff1603611e29578060025f8282540392505081905550611e73565b805f5f8473ffffffffffffffffffffffffffffffffffffffff1673ffffffffffffffffffffffffffffffffffffffff1681526020019081526020015f205f82825401925050819055505b8173ffffffffffffffffffffffffffffffffffffffff168373ffffffffffffffffffffffffffffffffffffffff167fddf252ad1be2c89b69c2b068fc378daa952ba7f163c4a11628f55a4df523b3ef83604051611ed0919061208b565b60405180910390a3505050565b5f81519050919050565b5f82825260208201905092915050565b8281835e5f83830152505050565b5f601f19601f8301169050919050565b5f611f1f82611edd565b611f298185611ee7565b9350611f39818560208601611ef7565b611f4281611f05565b840191505092915050565b5f6020820190508181035f830152611f658184611f15565b905092915050565b5f604051905090565b5f5ffd5b5f5ffd5b5f73ffffffffffffffffffffffffffffffffffffffff82169050919050565b5f611fa782611f7e565b9050919050565b611fb781611f9d565b8114611fc1575f5ffd5b50565b5f81359050611fd281611fae565b92915050565b5f819050919050565b611fea81611fd8565b8114611ff4575f5ffd5b50565b5f8135905061200581611fe1565b92915050565b5f5f6040838503121561202157612020611f76565b5b5f61202e85828601611fc4565b925050602061203f85828601611ff7565b9150509250929050565b5f8115159050919050565b61205d81612049565b82525050565b5f6020820190506120765f830184612054565b92915050565b61208581611fd8565b82525050565b5f60208201905061209e5f83018461207c565b92915050565b5f819050919050565b6120b6816120a4565b81146120c0575f5ffd5b50565b5f813590506120d1816120ad565b92915050565b5f602082840312156120ec576120eb611f76565b5b5f6120f9848285016120c3565b91505092915050565b5f5f5f6060848603121561211957612118611f76565b5b5f61212686828701611fc4565b935050602061213786828701611fc4565b925050604061214886828701611ff7565b9150509250925092565b5f60ff82169050919050565b61216781612152565b82525050565b5f6020820190506121805f83018461215e565b92915050565b61218f816120a4565b82525050565b5f6020820190506121a85f830184612186565b92915050565b5f602082840312156121c3576121c2611f76565b5b5f6121d084828501611ff7565b91505092915050565b5f602082840312156121ee576121ed611f76565b5b5f6121fb84828501611fc4565b91505092915050565b5f7fff0000000000000000000000000000000000000000000000000000000000000082169050919050565b61223881612204565b82525050565b61224781611f9d565b82525050565b5f81519050919050565b5f82825260208201905092915050565b5f819050602082019050919050565b61227f81611fd8565b82525050565b5f6122908383612276565b60208301905092915050565b5f602082019050919050565b5f6122b28261224d565b6122bc8185612257565b93506122c783612267565b805f5b838110156122f75781516122de8882612285565b97506122e98361229c565b9250506001810190506122ca565b5085935050505092915050565b5f60e0820190506123175f83018a61222f565b81810360208301526123298189611f15565b9050818103604083015261233d8188611f15565b905061234c606083018761207c565b612359608083018661223e565b61236660a0830185612186565b81810360c083015261237881846122a8565b905098975050505050505050565b5f6020820190506123995f83018461223e565b92915050565b6123a881612152565b81146123b2575f5ffd5b50565b5f813590506123c38161239f565b92915050565b5f5f5f5f5f5f5f60e0888a0312156123e4576123e3611f76565b5b5f6123f18a828b01611fc4565b97505060206124028a828b01611fc4565b96505060406124138a828b01611ff7565b95505060606124248a828b01611ff7565b94505060806124358a828b016123b5565b93505060a06124468a828b016120c3565b92505060c06124578a828b016120c3565b91505092959891949750929550565b5f5f6040838503121561247c5761247b611f76565b5b5f61248985828601611fc4565b925050602061249a85828601611fc4565b9150509250929050565b5f5ffd5b5f5ffd5b7f4e487b71000000000000000000000000000000000000000000000000000000005f52604160045260245ffd5b6124e282611f05565b810181811067ffffffffffffffff82111715612501576125006124ac565b5b80604052505050565b5f612513611f6d565b905061251f82826124d9565b919050565b5f67ffffffffffffffff82111561253e5761253d6124ac565b5b61254782611f05565b9050602081019050919050565b828183375f83830152505050565b5f61257461256f84612524565b61250a565b9050828152602081018484840111156125905761258f6124a8565b5b61259b848285612554565b509392505050565b5f82601f8301126125b7576125b66124a4565b5b81356125c7848260208601612562565b91505092915050565b5f5f5f606084860312156125e7576125e6611f76565b5b5f6125f486828701611ff7565b935050602061260586828701611ff7565b925050604084013567ffffffffffffffff81111561262657612625611f7a565b5b612632868287016125a3565b9150509250925092565b7f4e487b71000000000000000000000000000000000000000000000000000000005f52602260045260245ffd5b5f600282049050600182168061268057607f821691505b6020821081036126935761269261263c565b5b50919050565b7f4f6e6c79207374616b696e6720636f6e74726163742063616e2063616c6c20745f8201527f6869730000000000000000000000000000000000000000000000000000000000602082015250565b5f6126f3602383611ee7565b91506126fe82612699565b604082019050919050565b5f6020820190508181035f830152612720816126e7565b9050919050565b5f60c08201905061273a5f830189612186565b612747602083018861223e565b612754604083018761223e565b612761606083018661207c565b61276e608083018561207c565b61277b60a083018461207c565b979650505050505050565b5f6040820190506127995f83018561223e565b6127a6602083018461223e565b9392505050565b5f819050919050565b6127c76127c282611fd8565b6127ad565b82525050565b5f8160601b9050919050565b5f6127e3826127cd565b9050919050565b5f6127f4826127d9565b9050919050565b61280c61280782611f9d565b6127ea565b82525050565b5f61281d82866127b6565b60208201915061282d82856127fb565b60148201915061283d82846127b6565b602082019150819050949350505050565b7f54686973206d65737361676520776173206e6f74207369676e656420627920745f8201527f6865206f776e6572206f662074686520636f6e74726163740000000000000000602082015250565b5f6128a8603883611ee7565b91506128b38261284e565b604082019050919050565b5f6020820190508181035f8301526128d58161289c565b9050919050565b7f4861736820616c726561647920757365640000000000000000000000000000005f82015250565b5f612910601183611ee7565b915061291b826128dc565b602082019050919050565b5f6020820190508181035f83015261293d81612904565b9050919050565b5f81519050919050565b5f82825260208201905092915050565b5f61296882612944565b612972818561294e565b9350612982818560208601611ef7565b61298b81611f05565b840191505092915050565b5f60a0820190506129a95f83018861223e565b6129b66020830187612186565b81810360408301526129c8818661295e565b90506129d7606083018561207c565b6129e4608083018461207c565b9695505050505050565b5f606082019050612a015f83018661223e565b612a0e602083018561207c565b612a1b604083018461207c565b949350505050565b5f60a082019050612a365f830188612186565b612a436020830187612186565b612a506040830186612186565b612a5d606083018561207c565b612a6a608083018461223e565b9695505050505050565b5f608082019050612a875f830187612186565b612a94602083018661215e565b612aa16040830185612186565b612aae6060830184612186565b95945050505050565b7f4e487b71000000000000000000000000000000000000000000000000000000005f52602160045260245ffd5b5f604082019050612af75f83018561207c565b612b04602083018461207c565b9392505050565b7f4e487b71000000000000000000000000000000000000000000000000000000005f52601160045260245ffd5b5f612b4282611fd8565b9150612b4d83611fd8565b9250828201905080821115612b6557612b64612b0b565b5b9291505056fea26469706673582212209594d963cb9d7b9bd987214a5eff17d0be9b4aa5dfcbe56702bb05f83712c92764736f6c634300081c0033","linkReferences":{}},"methodIdentifiers":{"DOMAIN_SEPARATOR()":"3644e515","MAX_SUPPLY()":"32cb6b0c","allowance(address,address)":"dd62ed3e","approve(address,uint256)":"095ea7b3","balanceOf(address)":"70a08231","burn(uint256)":"42966c68","burnFrom(address,uint256)":"79cc6790","cap()":"355274ea","decimals()":"313ce567","eip712Domain()":"84b0196e","hashRegistry(bytes32)":"1f8701d9","mint(address,uint256)":"40c10f19","mintWithMessage(uint256,uint256,bytes)":"eba88c4c","name()":"06fdde03","nonces(address)":"7ecebe00","owner()":"8da5cb5b","pause()":"8456cb59","paused()":"5c975abb","permit(address,address,uint256,uint256,uint8,bytes32,bytes32)":"d505accf","renounceOwnership()":"715018a6","safeEBoltTransfer(address,uint256)":"afc822dc","setStakingContract(address)":"9dd373b9","symbol()":"95d89b41","totalSupply()":"18160ddd","transfer(address,uint256)":"a9059cbb","transferFrom(address,address,uint256)":"23b872dd","transferOwnership(address)":"f2fde38b","unpause()":"3f4ba83a"},"id":54}