{"abi":[{"type":"constructor","inputs":[{"name":"_initialOwner","type":"address","internalType":"address"}],"stateMutability":"nonpayable"},{"type":"function","name":"DOMAIN_SEPARATOR","inputs":[],"outputs":[{"name":"","type":"bytes32","internalType":"bytes32"}],"stateMutability":"view"},{"type":"function","name":"MAX_SUPPLY","inputs":[],"outputs":[{"name":"","type":"uint256","internalType":"uint256"}],"stateMutability":"view"},{"type":"function","name":"allowance","inputs":[{"name":"owner","type":"address","internalType":"address"},{"name":"spender","type":"address","internalType":"address"}],"outputs":[{"name":"","type":"uint256","internalType":"uint256"}],"stateMutability":"view"},{"type":"function","name":"approve","inputs":[{"name":"spender","type":"address","internalType":"address"},{"name":"value","type":"uint256","internalType":"uint256"}],"outputs":[{"name":"","type":"bool","internalType":"bool"}],"stateMutability":"nonpayable"},{"type":"function","name":"balanceOf","inputs":[{"name":"account","type":"address","internalType":"address"}],"outputs":[{"name":"","type":"uint256","internalType":"uint256"}],"stateMutability":"view"},{"type":"function","name":"burn","inputs":[{"name":"value","type":"uint256","internalType":"uint256"}],"outputs":[],"stateMutability":"nonpayable"},{"type":"function","name":"burnFrom","inputs":[{"name":"account","type":"address","internalType":"address"},{"name":"value","type":"uint256","internalType":"uint256"}],"outputs":[],"stateMutability":"nonpayable"},{"type":"function","name":"cap","inputs":[],"outputs":[{"name":"","type":"uint256","internalType":"uint256"}],"stateMutability":"view"},{"type":"function","name":"decimals","inputs":[],"outputs":[{"name":"","type":"uint8","internalType":"uint8"}],"stateMutability":"view"},{"type":"function","name":"eip712Domain","inputs":[],"outputs":[{"name":"fields","type":"bytes1","internalType":"bytes1"},{"name":"name","type":"string","internalType":"string"},{"name":"version","type":"string","internalType":"string"},{"name":"chainId","type":"uint256","internalType":"uint256"},{"name":"verifyingContract","type":"address","internalType":"address"},{"name":"salt","type":"bytes32","internalType":"bytes32"},{"name":"extensions","type":"uint256[]","internalType":"uint256[]"}],"stateMutability":"view"},{"type":"function","name":"mint","inputs":[{"name":"to","type":"address","internalType":"address"},{"name":"amount","type":"uint256","internalType":"uint256"}],"outputs":[],"stateMutability":"nonpayable"},{"type":"function","name":"name","inputs":[],"outputs":[{"name":"","type":"string","internalType":"string"}],"stateMutability":"view"},{"type":"function","name":"nonces","inputs":[{"name":"owner","type":"address","internalType":"address"}],"outputs":[{"name":"","type":"uint256","internalType":"uint256"}],"stateMutability":"view"},{"type":"function","name":"owner","inputs":[],"outputs":[{"name":"","type":"address","internalType":"address"}],"stateMutability":"view"},{"type":"function","name":"pause","inputs":[],"outputs":[],"stateMutability":"nonpayable"},{"type":"function","name":"paused","inputs":[],"outputs":[{"name":"","type":"bool","internalType":"bool"}],"stateMutability":"view"},{"type":"function","name":"permit","inputs":[{"name":"owner","type":"address","internalType":"address"},{"name":"spender","type":"address","internalType":"address"},{"name":"value","type":"uint256","internalType":"uint256"},{"name":"deadline","type":"uint256","internalType":"uint256"},{"name":"v","type":"uint8","internalType":"uint8"},{"name":"r","type":"bytes32","internalType":"bytes32"},{"name":"s","type":"bytes32","internalType":"bytes32"}],"outputs":[],"stateMutability":"nonpayable"},{"type":"function","name":"renounceOwnership","inputs":[],"outputs":[],"stateMutability":"nonpayable"},{"type":"function","name":"safeEBoltTransfer","inputs":[{"name":"_to","type":"address","internalType":"address"},{"name":"_amount","type":"uint256","internalType":"uint256"}],"outputs":[],"stateMutability":"nonpayable"},{"type":"function","name":"setStakingContract","inputs":[{"name":"_addr","type":"address","internalType":"address"}],"outputs":[],"stateMutability":"nonpayable"},{"type":"function","name":"symbol","inputs":[],"outputs":[{"name":"","type":"string","internalType":"string"}],"stateMutability":"view"},{"type":"function","name":"totalSupply","inputs":[],"outputs":[{"name":"","type":"uint256","internalType":"uint256"}],"stateMutability":"view"},{"type":"function","name":"transfer","inputs":[{"name":"to","type":"address","internalType":"address"},{"name":"value","type":"uint256","internalType":"uint256"}],"outputs":[{"name":"","type":"bool","internalType":"bool"}],"stateMutability":"nonpayable"},{"type":"function","name":"transferFrom","inputs":[{"name":"from","type":"address","internalType":"address"},{"name":"to","type":"address","internalType":"address"},{"name":"value","type":"uint256","internalType":"uint256"}],"outputs":[{"name":"","type":"bool","internalType":"bool"}],"stateMutability":"nonpayable"},{"type":"function","name":"transferOwnership","inputs":[{"name":"newOwner","type":"address","internalType":"address"}],"outputs":[],"stateMutability":"nonpayable"},{"type":"function","name":"unpause","inputs":[],"outputs":[],"stateMutability":"nonpayable"},{"type":"event","name":"Approval","inputs":[{"name":"owner","type":"address","indexed":true,"internalType":"address"},{"name":"spender","type":"address","indexed":true,"internalType":"address"},{"name":"value","type":"uint256","indexed":false,"internalType":"uint256"}],"anonymous":false},{"type":"event","name":"EIP712DomainChanged","inputs":[],"anonymous":false},{"type":"event","name":"OwnershipTransferred","inputs":[{"name":"previousOwner","type":"address","indexed":true,"internalType":"address"},{"name":"newOwner","type":"address","indexed":true,"internalType":"address"}],"anonymous":false},{"type":"event","name":"Paused","inputs":[{"name":"account","type":"address","indexed":false,"internalType":"address"}],"anonymous":false},{"type":"event","name":"Transfer","inputs":[{"name":"from","type":"address","indexed":true,"internalType":"address"},{"name":"to","type":"address","indexed":true,"internalType":"address"},{"name":"value","type":"uint256","indexed":false,"internalType":"uint256"}],"anonymous":false},{"type":"event","name":"Unpaused","inputs":[{"name":"account","type":"address","indexed":false,"internalType":"address"}],"anonymous":false},{"type":"error","name":"ECDSAInvalidSignature","inputs":[]},{"type":"error","name":"ECDSAInvalidSignatureLength","inputs":[{"name":"length","type":"uint256","internalType":"uint256"}]},{"type":"error","name":"ECDSAInvalidSignatureS","inputs":[{"name":"s","type":"bytes32","internalType":"bytes32"}]},{"type":"error","name":"ERC20ExceededCap","inputs":[{"name":"increasedSupply","type":"uint256","internalType":"uint256"},{"name":"cap","type":"uint256","internalType":"uint256"}]},{"type":"error","name":"ERC20InsufficientAllowance","inputs":[{"name":"spender","type":"address","internalType":"address"},{"name":"allowance","type":"uint256","internalType":"uint256"},{"name":"needed","type":"uint256","internalType":"uint256"}]},{"type":"error","name":"ERC20InsufficientBalance","inputs":[{"name":"sender","type":"address","internalType":"address"},{"name":"balance","type":"uint256","internalType":"uint256"},{"name":"needed","type":"uint256","internalType":"uint256"}]},{"type":"error","name":"ERC20InvalidApprover","inputs":[{"name":"approver","type":"address","internalType":"address"}]},{"type":"error","name":"ERC20InvalidCap","inputs":[{"name":"cap","type":"uint256","internalType":"uint256"}]},{"type":"error","name":"ERC20InvalidReceiver","inputs":[{"name":"receiver","type":"address","internalType":"address"}]},{"type":"error","name":"ERC20InvalidSender","inputs":[{"name":"sender","type":"address","internalType":"address"}]},{"type":"error","name":"ERC20InvalidSpender","inputs":[{"name":"spender","type":"address","internalType":"address"}]},{"type":"error","name":"ERC2612ExpiredSignature","inputs":[{"name":"deadline","type":"uint256","internalType":"uint256"}]},{"type":"error","name":"ERC2612InvalidSigner","inputs":[{"name":"signer","type":"address","internalType":"address"},{"name":"owner","type":"address","internalType":"address"}]},{"type":"error","name":"EnforcedPause","inputs":[]},{"type":"error","name":"ExpectedPause","inputs":[]},{"type":"error","name":"InvalidAccountNonce","inputs":[{"name":"account","type":"address","internalType":"address"},{"name":"currentNonce","type":"uint256","internalType":"uint256"}]},{"type":"error","name":"InvalidShortString","inputs":[]},{"type":"error","name":"OwnableInvalidOwner","inputs":[{"name":"owner","type":"address","internalType":"address"}]},{"type":"error","name":"OwnableUnauthorizedAccount","inputs":[{"name":"account","type":"address","internalType":"address"}]},{"type":"error","name":"StringTooLong","inputs":[{"name":"str","type":"string","internalType":"string"}]}],"bytecode":{"object":"0x610180604052348015610010575f5ffd5b5060405161368938038061368983398181016040528101906100329190610942565b670de0b6b3a76400006040518060400160405280600481526020017f426f6c7400000000000000000000000000000000000000000000000000000000815250806040518060400160405280600181526020017f3100000000000000000000000000000000000000000000000000000000000000815250846040518060400160405280600481526020017f426f6c74000000000000000000000000000000000000000000000000000000008152506040518060400160405280600381526020017f424c54000000000000000000000000000000000000000000000000000000000081525081600390816101249190610baa565b5080600490816101349190610baa565b5050505f60055f6101000a81548160ff0219169083151502179055505f73ffffffffffffffffffffffffffffffffffffffff168173ffffffffffffffffffffffffffffffffffffffff16036101c0575f6040517f1e4fbdf70000000000000000000000000000000000000000000000000000000081526004016101b79190610c88565b60405180910390fd5b6101cf8161030660201b60201c565b506101e46006836103cb60201b90919060201c565b61012081815250506102006007826103cb60201b90919060201c565b6101408181525050818051906020012060e08181525050808051906020012061010081815250504660a0818152505061023d61041860201b60201c565b608081815250503073ffffffffffffffffffffffffffffffffffffffff1660c08173ffffffffffffffffffffffffffffffffffffffff16815250505050505f81036102bf575f6040517f392e1e270000000000000000000000000000000000000000000000000000000081526004016102b69190610cda565b60405180910390fd5b80610160818152505050610300306102db61047260201b60201c565b600a6102e79190610e5b565b622625a06102f59190610ea5565b61047a60201b60201c565b5061111f565b5f600560019054906101000a900473ffffffffffffffffffffffffffffffffffffffff16905081600560016101000a81548173ffffffffffffffffffffffffffffffffffffffff021916908373ffffffffffffffffffffffffffffffffffffffff1602179055508173ffffffffffffffffffffffffffffffffffffffff168173ffffffffffffffffffffffffffffffffffffffff167f8be0079c531659141344cd1fd0a4f28419497f9722a3daafe3b4186f6b6457e060405160405180910390a35050565b5f6020835110156103ec576103e5836104ff60201b60201c565b9050610412565b826103fc8361056460201b60201c565b5f01908161040a9190610baa565b5060ff5f1b90505b92915050565b5f7f8b73c3c69bb8fe3d512ecc4cf759cc79239f7b179b0ffacaa9a75d522b39400f60e051610100514630604051602001610457959493929190610f0d565b60405160208183030381529060405280519060200120905090565b5f6006905090565b5f73ffffffffffffffffffffffffffffffffffffffff168273ffffffffffffffffffffffffffffffffffffffff16036104ea575f6040517fec442f050000000000000000000000000000000000000000000000000000000081526004016104e19190610c88565b60405180910390fd5b6104fb5f838361056d60201b60201c565b5050565b5f5f829050601f8151111561054b57826040517f305a27a90000000000000000000000000000000000000000000000000000000081526004016105429190610fc4565b60405180910390fd5b80518161055790611011565b5f1c175f1b915050919050565b5f819050919050565b61057e83838361058360201b60201c565b505050565b61059483838361063860201b60201c565b5f73ffffffffffffffffffffffffffffffffffffffff168373ffffffffffffffffffffffffffffffffffffffff1603610633575f6105d661065c60201b60201c565b90505f6105e761066660201b60201c565b9050818111156106305780826040517f9e79f854000000000000000000000000000000000000000000000000000000008152600401610627929190611077565b60405180910390fd5b50505b505050565b61064661066f60201b60201c565b6106578383836106b660201b60201c565b505050565b5f61016051905090565b5f600254905090565b61067d6108cf60201b60201c565b156106b4576040517fd93c066500000000000000000000000000000000000000000000000000000000815260040160405180910390fd5b565b5f73ffffffffffffffffffffffffffffffffffffffff168373ffffffffffffffffffffffffffffffffffffffff1603610706578060025f8282546106fa919061109e565b925050819055506107d4565b5f5f5f8573ffffffffffffffffffffffffffffffffffffffff1673ffffffffffffffffffffffffffffffffffffffff1681526020019081526020015f205490508181101561078f578381836040517fe450d38c000000000000000000000000000000000000000000000000000000008152600401610786939291906110d1565b60405180910390fd5b8181035f5f8673ffffffffffffffffffffffffffffffffffffffff1673ffffffffffffffffffffffffffffffffffffffff1681526020019081526020015f2081905550505b5f73ffffffffffffffffffffffffffffffffffffffff168273ffffffffffffffffffffffffffffffffffffffff160361081b578060025f8282540392505081905550610865565b805f5f8473ffffffffffffffffffffffffffffffffffffffff1673ffffffffffffffffffffffffffffffffffffffff1681526020019081526020015f205f82825401925050819055505b8173ffffffffffffffffffffffffffffffffffffffff168373ffffffffffffffffffffffffffffffffffffffff167fddf252ad1be2c89b69c2b068fc378daa952ba7f163c4a11628f55a4df523b3ef836040516108c29190611106565b60405180910390a3505050565b5f60055f9054906101000a900460ff16905090565b5f5ffd5b5f73ffffffffffffffffffffffffffffffffffffffff82169050919050565b5f610911826108e8565b9050919050565b61092181610907565b811461092b575f5ffd5b50565b5f8151905061093c81610918565b92915050565b5f60208284031215610957576109566108e4565b5b5f6109648482850161092e565b91505092915050565b5f81519050919050565b7f4e487b71000000000000000000000000000000000000000000000000000000005f52604160045260245ffd5b7f4e487b71000000000000000000000000000000000000000000000000000000005f52602260045260245ffd5b5f60028204905060018216806109e857607f821691505b6020821081036109fb576109fa6109a4565b5b50919050565b5f819050815f5260205f209050919050565b5f6020601f8301049050919050565b5f82821b905092915050565b5f60088302610a5d7fffffffffffffffffffffffffffffffffffffffffffffffffffffffffffffffff82610a22565b610a678683610a22565b95508019841693508086168417925050509392505050565b5f819050919050565b5f819050919050565b5f610aab610aa6610aa184610a7f565b610a88565b610a7f565b9050919050565b5f819050919050565b610ac483610a91565b610ad8610ad082610ab2565b848454610a2e565b825550505050565b5f5f905090565b610aef610ae0565b610afa818484610abb565b505050565b5b81811015610b1d57610b125f82610ae7565b600181019050610b00565b5050565b601f821115610b6257610b3381610a01565b610b3c84610a13565b81016020851015610b4b578190505b610b5f610b5785610a13565b830182610aff565b50505b505050565b5f82821c905092915050565b5f610b825f1984600802610b67565b1980831691505092915050565b5f610b9a8383610b73565b9150826002028217905092915050565b610bb38261096d565b67ffffffffffffffff811115610bcc57610bcb610977565b5b610bd682546109d1565b610be1828285610b21565b5f60209050601f831160018114610c12575f8415610c00578287015190505b610c0a8582610b8f565b865550610c71565b601f198416610c2086610a01565b5f5b82811015610c4757848901518255600182019150602085019450602081019050610c22565b86831015610c645784890151610c60601f891682610b73565b8355505b6001600288020188555050505b505050505050565b610c8281610907565b82525050565b5f602082019050610c9b5f830184610c79565b92915050565b5f819050919050565b5f610cc4610cbf610cba84610ca1565b610a88565b610a7f565b9050919050565b610cd481610caa565b82525050565b5f602082019050610ced5f830184610ccb565b92915050565b7f4e487b71000000000000000000000000000000000000000000000000000000005f52601160045260245ffd5b5f8160011c9050919050565b5f5f8291508390505b6001851115610d7557808604811115610d5157610d50610cf3565b5b6001851615610d605780820291505b8081029050610d6e85610d20565b9450610d35565b94509492505050565b5f82610d8d5760019050610e48565b81610d9a575f9050610e48565b8160018114610db05760028114610dba57610de9565b6001915050610e48565b60ff841115610dcc57610dcb610cf3565b5b8360020a915084821115610de357610de2610cf3565b5b50610e48565b5060208310610133831016604e8410600b8410161715610e1e5782820a905083811115610e1957610e18610cf3565b5b610e48565b610e2b8484846001610d2c565b92509050818404811115610e4257610e41610cf3565b5b81810290505b9392505050565b5f60ff82169050919050565b5f610e6582610a7f565b9150610e7083610e4f565b9250610e9d7fffffffffffffffffffffffffffffffffffffffffffffffffffffffffffffffff8484610d7e565b905092915050565b5f610eaf82610a7f565b9150610eba83610a7f565b9250828202610ec881610a7f565b91508282048414831517610edf57610ede610cf3565b5b5092915050565b5f819050919050565b610ef881610ee6565b82525050565b610f0781610a7f565b82525050565b5f60a082019050610f205f830188610eef565b610f2d6020830187610eef565b610f3a6040830186610eef565b610f476060830185610efe565b610f546080830184610c79565b9695505050505050565b5f82825260208201905092915050565b8281835e5f83830152505050565b5f601f19601f8301169050919050565b5f610f968261096d565b610fa08185610f5e565b9350610fb0818560208601610f6e565b610fb981610f7c565b840191505092915050565b5f6020820190508181035f830152610fdc8184610f8c565b905092915050565b5f81519050919050565b5f819050602082019050919050565b5f6110088251610ee6565b80915050919050565b5f61101b82610fe4565b8261102584610fee565b905061103081610ffd565b925060208210156110705761106b7fffffffffffffffffffffffffffffffffffffffffffffffffffffffffffffffff83602003600802610a22565b831692505b5050919050565b5f60408201905061108a5f830185610efe565b6110976020830184610efe565b9392505050565b5f6110a882610a7f565b91506110b383610a7f565b92508282019050808211156110cb576110ca610cf3565b5b92915050565b5f6060820190506110e45f830186610c79565b6110f16020830185610efe565b6110fe6040830184610efe565b949350505050565b5f6020820190506111195f830184610efe565b92915050565b60805160a05160c05160e0516101005161012051610140516101605161250f61117a5f395f6105c401525f6111a401525f61116901525f61149401525f61147301525f610d5a01525f610db001525f610dd9015261250f5ff3fe608060405234801561000f575f5ffd5b506004361061018c575f3560e01c8063715018a6116100dc57806395d89b4111610095578063afc822dc1161006f578063afc822dc14610440578063d505accf1461045c578063dd62ed3e14610478578063f2fde38b146104a85761018c565b806395d89b41146103d65780639dd373b9146103f4578063a9059cbb146104105761018c565b8063715018a61461033457806379cc67901461033e5780637ecebe001461035a5780638456cb591461038a57806384b0196e146103945780638da5cb5b146103b85761018c565b8063355274ea1161014957806340c10f191161012357806340c10f19146102ae57806342966c68146102ca5780635c975abb146102e657806370a08231146103045761018c565b8063355274ea146102685780633644e515146102865780633f4ba83a146102a45761018c565b806306fdde0314610190578063095ea7b3146101ae57806318160ddd146101de57806323b872dd146101fc578063313ce5671461022c57806332cb6b0c1461024a575b5f5ffd5b6101986104c4565b6040516101a59190611c9f565b60405180910390f35b6101c860048036038101906101c39190611d50565b610554565b6040516101d59190611da8565b60405180910390f35b6101e6610576565b6040516101f39190611dd0565b60405180910390f35b61021660048036038101906102119190611de9565b61057f565b6040516102239190611da8565b60405180910390f35b6102346105ad565b6040516102419190611e54565b60405180910390f35b6102526105b5565b60405161025f9190611dd0565b60405180910390f35b6102706105c1565b60405161027d9190611dd0565b60405180910390f35b61028e6105e8565b60405161029b9190611e85565b60405180910390f35b6102ac6105f6565b005b6102c860048036038101906102c39190611d50565b610608565b005b6102e460048036038101906102df9190611e9e565b61061e565b005b6102ee610632565b6040516102fb9190611da8565b60405180910390f35b61031e60048036038101906103199190611ec9565b610647565b60405161032b9190611dd0565b60405180910390f35b61033c61068c565b005b61035860048036038101906103539190611d50565b61069f565b005b610374600480360381019061036f9190611ec9565b6106bf565b6040516103819190611dd0565b60405180910390f35b6103926106d0565b005b61039c6106e2565b6040516103af9796959493929190611ff4565b60405180910390f35b6103c0610787565b6040516103cd9190612076565b60405180910390f35b6103de6107b0565b6040516103eb9190611c9f565b60405180910390f35b61040e60048036038101906104099190611ec9565b610840565b005b61042a60048036038101906104259190611d50565b61088b565b6040516104379190611da8565b60405180910390f35b61045a60048036038101906104559190611d50565b6108ad565b005b610476600480360381019061047191906120e3565b610971565b005b610492600480360381019061048d9190612180565b610ab6565b60405161049f9190611dd0565b60405180910390f35b6104c260048036038101906104bd9190611ec9565b610b38565b005b6060600380546104d3906121eb565b80601f01602080910402602001604051908101604052809291908181526020018280546104ff906121eb565b801561054a5780601f106105215761010080835404028352916020019161054a565b820191905f5260205f20905b81548152906001019060200180831161052d57829003601f168201915b5050505050905090565b5f5f61055e610bbc565b905061056b818585610bc3565b600191505092915050565b5f600254905090565b5f5f610589610bbc565b9050610596858285610bd5565b6105a1858585610c67565b60019150509392505050565b5f6006905090565b670de0b6b3a764000081565b5f7f0000000000000000000000000000000000000000000000000000000000000000905090565b5f6105f1610d57565b905090565b6105fe610e0d565b610606610e94565b565b610610610e0d565b61061a8282610ef5565b5050565b61062f610629610bbc565b82610f74565b50565b5f60055f9054906101000a900460ff16905090565b5f5f5f8373ffffffffffffffffffffffffffffffffffffffff1673ffffffffffffffffffffffffffffffffffffffff1681526020019081526020015f20549050919050565b610694610e0d565b61069d5f610ff3565b565b6106b1826106ab610bbc565b83610bd5565b6106bb8282610f74565b5050565b5f6106c9826110b8565b9050919050565b6106d8610e0d565b6106e06110fe565b565b5f6060805f5f5f60606106f3611160565b6106fb61119b565b46305f5f1b5f67ffffffffffffffff81111561071a5761071961221b565b5b6040519080825280602002602001820160405280156107485781602001602082028036833780820191505090505b507f0f00000000000000000000000000000000000000000000000000000000000000959493929190965096509650965096509650965090919293949596565b5f600560019054906101000a900473ffffffffffffffffffffffffffffffffffffffff16905090565b6060600480546107bf906121eb565b80601f01602080910402602001604051908101604052809291908181526020018280546107eb906121eb565b80156108365780601f1061080d57610100808354040283529160200191610836565b820191905f5260205f20905b81548152906001019060200180831161081957829003601f168201915b5050505050905090565b610848610e0d565b8060095f6101000a81548173ffffffffffffffffffffffffffffffffffffffff021916908373ffffffffffffffffffffffffffffffffffffffff16021790555050565b5f5f610895610bbc565b90506108a2818585610c67565b600191505092915050565b60095f9054906101000a900473ffffffffffffffffffffffffffffffffffffffff1673ffffffffffffffffffffffffffffffffffffffff163373ffffffffffffffffffffffffffffffffffffffff161461093c576040517f08c379a0000000000000000000000000000000000000000000000000000000008152600401610933906122b8565b60405180910390fd5b5f61094630610647565b9050808211156109605761095b308483610c67565b61096c565b61096b308484610c67565b5b505050565b834211156109b657836040517f627913020000000000000000000000000000000000000000000000000000000081526004016109ad9190611dd0565b60405180910390fd5b5f7f6e71edae12b1b97f4d1f60370fef10105fa2faae0126114a169c64845d6126c98888886109e48c6111d6565b896040516020016109fa969594939291906122d6565b6040516020818303038152906040528051906020012090505f610a1c82611229565b90505f610a2b82878787611242565b90508973ffffffffffffffffffffffffffffffffffffffff168173ffffffffffffffffffffffffffffffffffffffff1614610a9f57808a6040517f4b800e46000000000000000000000000000000000000000000000000000000008152600401610a96929190612335565b60405180910390fd5b610aaa8a8a8a610bc3565b50505050505050505050565b5f60015f8473ffffffffffffffffffffffffffffffffffffffff1673ffffffffffffffffffffffffffffffffffffffff1681526020019081526020015f205f8373ffffffffffffffffffffffffffffffffffffffff1673ffffffffffffffffffffffffffffffffffffffff1681526020019081526020015f2054905092915050565b610b40610e0d565b5f73ffffffffffffffffffffffffffffffffffffffff168173ffffffffffffffffffffffffffffffffffffffff1603610bb0575f6040517f1e4fbdf7000000000000000000000000000000000000000000000000000000008152600401610ba79190612076565b60405180910390fd5b610bb981610ff3565b50565b5f33905090565b610bd08383836001611270565b505050565b5f610be08484610ab6565b90507fffffffffffffffffffffffffffffffffffffffffffffffffffffffffffffffff8114610c615781811015610c52578281836040517ffb8f41b2000000000000000000000000000000000000000000000000000000008152600401610c499392919061235c565b60405180910390fd5b610c6084848484035f611270565b5b50505050565b5f73ffffffffffffffffffffffffffffffffffffffff168373ffffffffffffffffffffffffffffffffffffffff1603610cd7575f6040517f96c6fd1e000000000000000000000000000000000000000000000000000000008152600401610cce9190612076565b60405180910390fd5b5f73ffffffffffffffffffffffffffffffffffffffff168273ffffffffffffffffffffffffffffffffffffffff1603610d47575f6040517fec442f05000000000000000000000000000000000000000000000000000000008152600401610d3e9190612076565b60405180910390fd5b610d5283838361143f565b505050565b5f7f000000000000000000000000000000000000000000000000000000000000000073ffffffffffffffffffffffffffffffffffffffff163073ffffffffffffffffffffffffffffffffffffffff16148015610dd257507f000000000000000000000000000000000000000000000000000000000000000046145b15610dff577f00000000000000000000000000000000000000000000000000000000000000009050610e0a565b610e0761144f565b90505b90565b610e15610bbc565b73ffffffffffffffffffffffffffffffffffffffff16610e33610787565b73ffffffffffffffffffffffffffffffffffffffff1614610e9257610e56610bbc565b6040517f118cdaa7000000000000000000000000000000000000000000000000000000008152600401610e899190612076565b60405180910390fd5b565b610e9c6114e4565b5f60055f6101000a81548160ff0219169083151502179055507f5db9ee0a495bf2e6ff9c91a7834c1ba4fdd244a5e8aa4e537bd38aeae4b073aa610ede610bbc565b604051610eeb9190612076565b60405180910390a1565b5f73ffffffffffffffffffffffffffffffffffffffff168273ffffffffffffffffffffffffffffffffffffffff1603610f65575f6040517fec442f05000000000000000000000000000000000000000000000000000000008152600401610f5c9190612076565b60405180910390fd5b610f705f838361143f565b5050565b5f73ffffffffffffffffffffffffffffffffffffffff168273ffffffffffffffffffffffffffffffffffffffff1603610fe4575f6040517f96c6fd1e000000000000000000000000000000000000000000000000000000008152600401610fdb9190612076565b60405180910390fd5b610fef825f8361143f565b5050565b5f600560019054906101000a900473ffffffffffffffffffffffffffffffffffffffff16905081600560016101000a81548173ffffffffffffffffffffffffffffffffffffffff021916908373ffffffffffffffffffffffffffffffffffffffff1602179055508173ffffffffffffffffffffffffffffffffffffffff168173ffffffffffffffffffffffffffffffffffffffff167f8be0079c531659141344cd1fd0a4f28419497f9722a3daafe3b4186f6b6457e060405160405180910390a35050565b5f60085f8373ffffffffffffffffffffffffffffffffffffffff1673ffffffffffffffffffffffffffffffffffffffff1681526020019081526020015f20549050919050565b611106611524565b600160055f6101000a81548160ff0219169083151502179055507f62e78cea01bee320cd4e420270b5ea74000d11b0c9f74754ebdbfc544b05a258611149610bbc565b6040516111569190612076565b60405180910390a1565b606061119660067f000000000000000000000000000000000000000000000000000000000000000061156590919063ffffffff16565b905090565b60606111d160077f000000000000000000000000000000000000000000000000000000000000000061156590919063ffffffff16565b905090565b5f60085f8373ffffffffffffffffffffffffffffffffffffffff1673ffffffffffffffffffffffffffffffffffffffff1681526020019081526020015f205f815480929190600101919050559050919050565b5f61123b611235610d57565b83611612565b9050919050565b5f5f5f5f61125288888888611652565b9250925092506112628282611739565b829350505050949350505050565b5f73ffffffffffffffffffffffffffffffffffffffff168473ffffffffffffffffffffffffffffffffffffffff16036112e0575f6040517fe602df050000000000000000000000000000000000000000000000000000000081526004016112d79190612076565b60405180910390fd5b5f73ffffffffffffffffffffffffffffffffffffffff168373ffffffffffffffffffffffffffffffffffffffff1603611350575f6040517f94280d620000000000000000000000000000000000000000000000000000000081526004016113479190612076565b60405180910390fd5b8160015f8673ffffffffffffffffffffffffffffffffffffffff1673ffffffffffffffffffffffffffffffffffffffff1681526020019081526020015f205f8573ffffffffffffffffffffffffffffffffffffffff1673ffffffffffffffffffffffffffffffffffffffff1681526020019081526020015f20819055508015611439578273ffffffffffffffffffffffffffffffffffffffff168473ffffffffffffffffffffffffffffffffffffffff167f8c5be1e5ebec7d5bd14f71427d1e84f3dd0314c0f7b2291e5b200ac8c7c3b925846040516114309190611dd0565b60405180910390a35b50505050565b61144a83838361189b565b505050565b5f7f8b73c3c69bb8fe3d512ecc4cf759cc79239f7b179b0ffacaa9a75d522b39400f7f00000000000000000000000000000000000000000000000000000000000000007f000000000000000000000000000000000000000000000000000000000000000046306040516020016114c9959493929190612391565b60405160208183030381529060405280519060200120905090565b6114ec610632565b611522576040517f8dfc202b00000000000000000000000000000000000000000000000000000000815260040160405180910390fd5b565b61152c610632565b15611563576040517fd93c066500000000000000000000000000000000000000000000000000000000815260040160405180910390fd5b565b606060ff5f1b83146115815761157a8361193e565b905061160c565b81805461158d906121eb565b80601f01602080910402602001604051908101604052809291908181526020018280546115b9906121eb565b80156116045780601f106115db57610100808354040283529160200191611604565b820191905f5260205f20905b8154815290600101906020018083116115e757829003601f168201915b505050505090505b92915050565b5f6040517f190100000000000000000000000000000000000000000000000000000000000081528360028201528260228201526042812091505092915050565b5f5f5f7f7fffffffffffffffffffffffffffffff5d576e7357a4501ddfe92f46681b20a0845f1c111561168e575f60038592509250925061172f565b5f6001888888886040515f81526020016040526040516116b194939291906123e2565b6020604051602081039080840390855afa1580156116d1573d5f5f3e3d5ffd5b5050506020604051035190505f73ffffffffffffffffffffffffffffffffffffffff168173ffffffffffffffffffffffffffffffffffffffff1603611722575f60015f5f1b9350935093505061172f565b805f5f5f1b935093509350505b9450945094915050565b5f600381111561174c5761174b612425565b5b82600381111561175f5761175e612425565b5b0315611897576001600381111561177957611778612425565b5b82600381111561178c5761178b612425565b5b036117c3576040517ff645eedf00000000000000000000000000000000000000000000000000000000815260040160405180910390fd5b600260038111156117d7576117d6612425565b5b8260038111156117ea576117e9612425565b5b0361182e57805f1c6040517ffce698f70000000000000000000000000000000000000000000000000000000081526004016118259190611dd0565b60405180910390fd5b60038081111561184157611840612425565b5b82600381111561185457611853612425565b5b0361189657806040517fd78bce0c00000000000000000000000000000000000000000000000000000000815260040161188d9190611e85565b60405180910390fd5b5b5050565b6118a68383836119b0565b5f73ffffffffffffffffffffffffffffffffffffffff168373ffffffffffffffffffffffffffffffffffffffff1603611939575f6118e26105c1565b90505f6118ed610576565b9050818111156119365780826040517f9e79f85400000000000000000000000000000000000000000000000000000000815260040161192d929190612452565b60405180910390fd5b50505b505050565b60605f61194a836119c8565b90505f602067ffffffffffffffff8111156119685761196761221b565b5b6040519080825280601f01601f19166020018201604052801561199a5781602001600182028036833780820191505090505b5090508181528360208201528092505050919050565b6119b8611524565b6119c3838383611a16565b505050565b5f5f60ff835f1c169050601f811115611a0d576040517fb3512b0c00000000000000000000000000000000000000000000000000000000815260040160405180910390fd5b80915050919050565b5f73ffffffffffffffffffffffffffffffffffffffff168373ffffffffffffffffffffffffffffffffffffffff1603611a66578060025f828254611a5a91906124a6565b92505081905550611b34565b5f5f5f8573ffffffffffffffffffffffffffffffffffffffff1673ffffffffffffffffffffffffffffffffffffffff1681526020019081526020015f2054905081811015611aef578381836040517fe450d38c000000000000000000000000000000000000000000000000000000008152600401611ae69392919061235c565b60405180910390fd5b8181035f5f8673ffffffffffffffffffffffffffffffffffffffff1673ffffffffffffffffffffffffffffffffffffffff1681526020019081526020015f2081905550505b5f73ffffffffffffffffffffffffffffffffffffffff168273ffffffffffffffffffffffffffffffffffffffff1603611b7b578060025f8282540392505081905550611bc5565b805f5f8473ffffffffffffffffffffffffffffffffffffffff1673ffffffffffffffffffffffffffffffffffffffff1681526020019081526020015f205f82825401925050819055505b8173ffffffffffffffffffffffffffffffffffffffff168373ffffffffffffffffffffffffffffffffffffffff167fddf252ad1be2c89b69c2b068fc378daa952ba7f163c4a11628f55a4df523b3ef83604051611c229190611dd0565b60405180910390a3505050565b5f81519050919050565b5f82825260208201905092915050565b8281835e5f83830152505050565b5f601f19601f8301169050919050565b5f611c7182611c2f565b611c7b8185611c39565b9350611c8b818560208601611c49565b611c9481611c57565b840191505092915050565b5f6020820190508181035f830152611cb78184611c67565b905092915050565b5f5ffd5b5f73ffffffffffffffffffffffffffffffffffffffff82169050919050565b5f611cec82611cc3565b9050919050565b611cfc81611ce2565b8114611d06575f5ffd5b50565b5f81359050611d1781611cf3565b92915050565b5f819050919050565b611d2f81611d1d565b8114611d39575f5ffd5b50565b5f81359050611d4a81611d26565b92915050565b5f5f60408385031215611d6657611d65611cbf565b5b5f611d7385828601611d09565b9250506020611d8485828601611d3c565b9150509250929050565b5f8115159050919050565b611da281611d8e565b82525050565b5f602082019050611dbb5f830184611d99565b92915050565b611dca81611d1d565b82525050565b5f602082019050611de35f830184611dc1565b92915050565b5f5f5f60608486031215611e0057611dff611cbf565b5b5f611e0d86828701611d09565b9350506020611e1e86828701611d09565b9250506040611e2f86828701611d3c565b9150509250925092565b5f60ff82169050919050565b611e4e81611e39565b82525050565b5f602082019050611e675f830184611e45565b92915050565b5f819050919050565b611e7f81611e6d565b82525050565b5f602082019050611e985f830184611e76565b92915050565b5f60208284031215611eb357611eb2611cbf565b5b5f611ec084828501611d3c565b91505092915050565b5f60208284031215611ede57611edd611cbf565b5b5f611eeb84828501611d09565b91505092915050565b5f7fff0000000000000000000000000000000000000000000000000000000000000082169050919050565b611f2881611ef4565b82525050565b611f3781611ce2565b82525050565b5f81519050919050565b5f82825260208201905092915050565b5f819050602082019050919050565b611f6f81611d1d565b82525050565b5f611f808383611f66565b60208301905092915050565b5f602082019050919050565b5f611fa282611f3d565b611fac8185611f47565b9350611fb783611f57565b805f5b83811015611fe7578151611fce8882611f75565b9750611fd983611f8c565b925050600181019050611fba565b5085935050505092915050565b5f60e0820190506120075f83018a611f1f565b81810360208301526120198189611c67565b9050818103604083015261202d8188611c67565b905061203c6060830187611dc1565b6120496080830186611f2e565b61205660a0830185611e76565b81810360c08301526120688184611f98565b905098975050505050505050565b5f6020820190506120895f830184611f2e565b92915050565b61209881611e39565b81146120a2575f5ffd5b50565b5f813590506120b38161208f565b92915050565b6120c281611e6d565b81146120cc575f5ffd5b50565b5f813590506120dd816120b9565b92915050565b5f5f5f5f5f5f5f60e0888a0312156120fe576120fd611cbf565b5b5f61210b8a828b01611d09565b975050602061211c8a828b01611d09565b965050604061212d8a828b01611d3c565b955050606061213e8a828b01611d3c565b945050608061214f8a828b016120a5565b93505060a06121608a828b016120cf565b92505060c06121718a828b016120cf565b91505092959891949750929550565b5f5f6040838503121561219657612195611cbf565b5b5f6121a385828601611d09565b92505060206121b485828601611d09565b9150509250929050565b7f4e487b71000000000000000000000000000000000000000000000000000000005f52602260045260245ffd5b5f600282049050600182168061220257607f821691505b602082108103612215576122146121be565b5b50919050565b7f4e487b71000000000000000000000000000000000000000000000000000000005f52604160045260245ffd5b7f4f6e6c79207374616b696e6720636f6e74726163742063616e2063616c6c20745f8201527f6869730000000000000000000000000000000000000000000000000000000000602082015250565b5f6122a2602383611c39565b91506122ad82612248565b604082019050919050565b5f6020820190508181035f8301526122cf81612296565b9050919050565b5f60c0820190506122e95f830189611e76565b6122f66020830188611f2e565b6123036040830187611f2e565b6123106060830186611dc1565b61231d6080830185611dc1565b61232a60a0830184611dc1565b979650505050505050565b5f6040820190506123485f830185611f2e565b6123556020830184611f2e565b9392505050565b5f60608201905061236f5f830186611f2e565b61237c6020830185611dc1565b6123896040830184611dc1565b949350505050565b5f60a0820190506123a45f830188611e76565b6123b16020830187611e76565b6123be6040830186611e76565b6123cb6060830185611dc1565b6123d86080830184611f2e565b9695505050505050565b5f6080820190506123f55f830187611e76565b6124026020830186611e45565b61240f6040830185611e76565b61241c6060830184611e76565b95945050505050565b7f4e487b71000000000000000000000000000000000000000000000000000000005f52602160045260245ffd5b5f6040820190506124655f830185611dc1565b6124726020830184611dc1565b9392505050565b7f4e487b71000000000000000000000000000000000000000000000000000000005f52601160045260245ffd5b5f6124b082611d1d565b91506124bb83611d1d565b92508282019050808211156124d3576124d2612479565b5b9291505056fea26469706673582212202c35b9943038ce38af121579a44b2d6f8f9660a4acac13410917cfeb8f8986bf64736f6c634300081c0033","linkReferences":{}},"methodIdentifiers":{"DOMAIN_SEPARATOR()":"3644e515","MAX_SUPPLY()":"32cb6b0c","allowance(address,address)":"dd62ed3e","approve(address,uint256)":"095ea7b3","balanceOf(address)":"70a08231","burn(uint256)":"42966c68","burnFrom(address,uint256)":"79cc6790","cap()":"355274ea","decimals()":"313ce567","eip712Domain()":"84b0196e","mint(address,uint256)":"40c10f19","name()":"06fdde03","nonces(address)":"7ecebe00","owner()":"8da5cb5b","pause()":"8456cb59","paused()":"5c975abb","permit(address,address,uint256,uint256,uint8,bytes32,bytes32)":"d505accf","renounceOwnership()":"715018a6","safeEBoltTransfer(address,uint256)":"afc822dc","setStakingContract(address)":"9dd373b9","symbol()":"95d89b41","totalSupply()":"18160ddd","transfer(address,uint256)":"a9059cbb","transferFrom(address,address,uint256)":"23b872dd","transferOwnership(address)":"f2fde38b","unpause()":"3f4ba83a"},"id":56}